{
  "_format": "hh-sol-artifact-1",
  "contractName": "ERC721MinterPauser",
  "sourceName": "contracts/ERC721MinterPauser.sol",
  "abi": [
    {
      "inputs": [
        {
          "internalType": "string",
          "name": "name",
          "type": "string"
        },
        {
          "internalType": "string",
          "name": "symbol",
          "type": "string"
        },
        {
          "internalType": "string",
          "name": "baseTokenURI",
          "type": "string"
        }
      ],
      "stateMutability": "nonpayable",
      "type": "constructor"
    },
    {
      "anonymous": false,
      "inputs": [
        {
          "indexed": true,
          "internalType": "address",
          "name": "owner",
          "type": "address"
        },
        {
          "indexed": true,
          "internalType": "address",
          "name": "approved",
          "type": "address"
        },
        {
          "indexed": true,
          "internalType": "uint256",
          "name": "tokenId",
          "type": "uint256"
        }
      ],
      "name": "Approval",
      "type": "event"
    },
    {
      "anonymous": false,
      "inputs": [
        {
          "indexed": true,
          "internalType": "address",
          "name": "owner",
          "type": "address"
        },
        {
          "indexed": true,
          "internalType": "address",
          "name": "operator",
          "type": "address"
        },
        {
          "indexed": false,
          "internalType": "bool",
          "name": "approved",
          "type": "bool"
        }
      ],
      "name": "ApprovalForAll",
      "type": "event"
    },
    {
      "anonymous": false,
      "inputs": [
        {
          "indexed": false,
          "internalType": "address",
          "name": "account",
          "type": "address"
        }
      ],
      "name": "Paused",
      "type": "event"
    },
    {
      "anonymous": false,
      "inputs": [
        {
          "indexed": true,
          "internalType": "bytes32",
          "name": "role",
          "type": "bytes32"
        },
        {
          "indexed": true,
          "internalType": "bytes32",
          "name": "previousAdminRole",
          "type": "bytes32"
        },
        {
          "indexed": true,
          "internalType": "bytes32",
          "name": "newAdminRole",
          "type": "bytes32"
        }
      ],
      "name": "RoleAdminChanged",
      "type": "event"
    },
    {
      "anonymous": false,
      "inputs": [
        {
          "indexed": true,
          "internalType": "bytes32",
          "name": "role",
          "type": "bytes32"
        },
        {
          "indexed": true,
          "internalType": "address",
          "name": "account",
          "type": "address"
        },
        {
          "indexed": true,
          "internalType": "address",
          "name": "sender",
          "type": "address"
        }
      ],
      "name": "RoleGranted",
      "type": "event"
    },
    {
      "anonymous": false,
      "inputs": [
        {
          "indexed": true,
          "internalType": "bytes32",
          "name": "role",
          "type": "bytes32"
        },
        {
          "indexed": true,
          "internalType": "address",
          "name": "account",
          "type": "address"
        },
        {
          "indexed": true,
          "internalType": "address",
          "name": "sender",
          "type": "address"
        }
      ],
      "name": "RoleRevoked",
      "type": "event"
    },
    {
      "anonymous": false,
      "inputs": [
        {
          "indexed": true,
          "internalType": "address",
          "name": "from",
          "type": "address"
        },
        {
          "indexed": true,
          "internalType": "address",
          "name": "to",
          "type": "address"
        },
        {
          "indexed": true,
          "internalType": "uint256",
          "name": "tokenId",
          "type": "uint256"
        }
      ],
      "name": "Transfer",
      "type": "event"
    },
    {
      "anonymous": false,
      "inputs": [
        {
          "indexed": false,
          "internalType": "address",
          "name": "account",
          "type": "address"
        }
      ],
      "name": "Unpaused",
      "type": "event"
    },
    {
      "inputs": [],
      "name": "DEFAULT_ADMIN_ROLE",
      "outputs": [
        {
          "internalType": "bytes32",
          "name": "",
          "type": "bytes32"
        }
      ],
      "stateMutability": "view",
      "type": "function"
    },
    {
      "inputs": [],
      "name": "MINTER_ROLE",
      "outputs": [
        {
          "internalType": "bytes32",
          "name": "",
          "type": "bytes32"
        }
      ],
      "stateMutability": "view",
      "type": "function"
    },
    {
      "inputs": [],
      "name": "PAUSER_ROLE",
      "outputs": [
        {
          "internalType": "bytes32",
          "name": "",
          "type": "bytes32"
        }
      ],
      "stateMutability": "view",
      "type": "function"
    },
    {
      "inputs": [
        {
          "internalType": "address",
          "name": "to",
          "type": "address"
        },
        {
          "internalType": "uint256",
          "name": "tokenId",
          "type": "uint256"
        }
      ],
      "name": "approve",
      "outputs": [],
      "stateMutability": "nonpayable",
      "type": "function"
    },
    {
      "inputs": [
        {
          "internalType": "address",
          "name": "owner",
          "type": "address"
        }
      ],
      "name": "balanceOf",
      "outputs": [
        {
          "internalType": "uint256",
          "name": "",
          "type": "uint256"
        }
      ],
      "stateMutability": "view",
      "type": "function"
    },
    {
      "inputs": [
        {
          "internalType": "uint256",
          "name": "tokenId",
          "type": "uint256"
        }
      ],
      "name": "burn",
      "outputs": [],
      "stateMutability": "nonpayable",
      "type": "function"
    },
    {
      "inputs": [
        {
          "internalType": "uint256",
          "name": "tokenId",
          "type": "uint256"
        }
      ],
      "name": "getApproved",
      "outputs": [
        {
          "internalType": "address",
          "name": "",
          "type": "address"
        }
      ],
      "stateMutability": "view",
      "type": "function"
    },
    {
      "inputs": [
        {
          "internalType": "bytes32",
          "name": "role",
          "type": "bytes32"
        }
      ],
      "name": "getRoleAdmin",
      "outputs": [
        {
          "internalType": "bytes32",
          "name": "",
          "type": "bytes32"
        }
      ],
      "stateMutability": "view",
      "type": "function"
    },
    {
      "inputs": [
        {
          "internalType": "bytes32",
          "name": "role",
          "type": "bytes32"
        },
        {
          "internalType": "uint256",
          "name": "index",
          "type": "uint256"
        }
      ],
      "name": "getRoleMember",
      "outputs": [
        {
          "internalType": "address",
          "name": "",
          "type": "address"
        }
      ],
      "stateMutability": "view",
      "type": "function"
    },
    {
      "inputs": [
        {
          "internalType": "bytes32",
          "name": "role",
          "type": "bytes32"
        }
      ],
      "name": "getRoleMemberCount",
      "outputs": [
        {
          "internalType": "uint256",
          "name": "",
          "type": "uint256"
        }
      ],
      "stateMutability": "view",
      "type": "function"
    },
    {
      "inputs": [
        {
          "internalType": "bytes32",
          "name": "role",
          "type": "bytes32"
        },
        {
          "internalType": "address",
          "name": "account",
          "type": "address"
        }
      ],
      "name": "grantRole",
      "outputs": [],
      "stateMutability": "nonpayable",
      "type": "function"
    },
    {
      "inputs": [
        {
          "internalType": "bytes32",
          "name": "role",
          "type": "bytes32"
        },
        {
          "internalType": "address",
          "name": "account",
          "type": "address"
        }
      ],
      "name": "hasRole",
      "outputs": [
        {
          "internalType": "bool",
          "name": "",
          "type": "bool"
        }
      ],
      "stateMutability": "view",
      "type": "function"
    },
    {
      "inputs": [
        {
          "internalType": "address",
          "name": "owner",
          "type": "address"
        },
        {
          "internalType": "address",
          "name": "operator",
          "type": "address"
        }
      ],
      "name": "isApprovedForAll",
      "outputs": [
        {
          "internalType": "bool",
          "name": "",
          "type": "bool"
        }
      ],
      "stateMutability": "view",
      "type": "function"
    },
    {
      "inputs": [],
      "name": "name",
      "outputs": [
        {
          "internalType": "string",
          "name": "",
          "type": "string"
        }
      ],
      "stateMutability": "view",
      "type": "function"
    },
    {
      "inputs": [
        {
          "internalType": "uint256",
          "name": "tokenId",
          "type": "uint256"
        }
      ],
      "name": "ownerOf",
      "outputs": [
        {
          "internalType": "address",
          "name": "",
          "type": "address"
        }
      ],
      "stateMutability": "view",
      "type": "function"
    },
    {
      "inputs": [],
      "name": "pause",
      "outputs": [],
      "stateMutability": "nonpayable",
      "type": "function"
    },
    {
      "inputs": [],
      "name": "paused",
      "outputs": [
        {
          "internalType": "bool",
          "name": "",
          "type": "bool"
        }
      ],
      "stateMutability": "view",
      "type": "function"
    },
    {
      "inputs": [
        {
          "internalType": "bytes32",
          "name": "role",
          "type": "bytes32"
        },
        {
          "internalType": "address",
          "name": "account",
          "type": "address"
        }
      ],
      "name": "renounceRole",
      "outputs": [],
      "stateMutability": "nonpayable",
      "type": "function"
    },
    {
      "inputs": [
        {
          "internalType": "bytes32",
          "name": "role",
          "type": "bytes32"
        },
        {
          "internalType": "address",
          "name": "account",
          "type": "address"
        }
      ],
      "name": "revokeRole",
      "outputs": [],
      "stateMutability": "nonpayable",
      "type": "function"
    },
    {
      "inputs": [
        {
          "internalType": "address",
          "name": "from",
          "type": "address"
        },
        {
          "internalType": "address",
          "name": "to",
          "type": "address"
        },
        {
          "internalType": "uint256",
          "name": "tokenId",
          "type": "uint256"
        }
      ],
      "name": "safeTransferFrom",
      "outputs": [],
      "stateMutability": "nonpayable",
      "type": "function"
    },
    {
      "inputs": [
        {
          "internalType": "address",
          "name": "from",
          "type": "address"
        },
        {
          "internalType": "address",
          "name": "to",
          "type": "address"
        },
        {
          "internalType": "uint256",
          "name": "tokenId",
          "type": "uint256"
        },
        {
          "internalType": "bytes",
          "name": "_data",
          "type": "bytes"
        }
      ],
      "name": "safeTransferFrom",
      "outputs": [],
      "stateMutability": "nonpayable",
      "type": "function"
    },
    {
      "inputs": [
        {
          "internalType": "address",
          "name": "operator",
          "type": "address"
        },
        {
          "internalType": "bool",
          "name": "approved",
          "type": "bool"
        }
      ],
      "name": "setApprovalForAll",
      "outputs": [],
      "stateMutability": "nonpayable",
      "type": "function"
    },
    {
      "inputs": [
        {
          "internalType": "bytes4",
          "name": "interfaceId",
          "type": "bytes4"
        }
      ],
      "name": "supportsInterface",
      "outputs": [
        {
          "internalType": "bool",
          "name": "",
          "type": "bool"
        }
      ],
      "stateMutability": "view",
      "type": "function"
    },
    {
      "inputs": [],
      "name": "symbol",
      "outputs": [
        {
          "internalType": "string",
          "name": "",
          "type": "string"
        }
      ],
      "stateMutability": "view",
      "type": "function"
    },
    {
      "inputs": [
        {
          "internalType": "uint256",
          "name": "index",
          "type": "uint256"
        }
      ],
      "name": "tokenByIndex",
      "outputs": [
        {
          "internalType": "uint256",
          "name": "",
          "type": "uint256"
        }
      ],
      "stateMutability": "view",
      "type": "function"
    },
    {
      "inputs": [
        {
          "internalType": "address",
          "name": "owner",
          "type": "address"
        },
        {
          "internalType": "uint256",
          "name": "index",
          "type": "uint256"
        }
      ],
      "name": "tokenOfOwnerByIndex",
      "outputs": [
        {
          "internalType": "uint256",
          "name": "",
          "type": "uint256"
        }
      ],
      "stateMutability": "view",
      "type": "function"
    },
    {
      "inputs": [
        {
          "internalType": "uint256",
          "name": "tokenId",
          "type": "uint256"
        }
      ],
      "name": "tokenURI",
      "outputs": [
        {
          "internalType": "string",
          "name": "",
          "type": "string"
        }
      ],
      "stateMutability": "view",
      "type": "function"
    },
    {
      "inputs": [],
      "name": "totalSupply",
      "outputs": [
        {
          "internalType": "uint256",
          "name": "",
          "type": "uint256"
        }
      ],
      "stateMutability": "view",
      "type": "function"
    },
    {
      "inputs": [
        {
          "internalType": "address",
          "name": "from",
          "type": "address"
        },
        {
          "internalType": "address",
          "name": "to",
          "type": "address"
        },
        {
          "internalType": "uint256",
          "name": "tokenId",
          "type": "uint256"
        }
      ],
      "name": "transferFrom",
      "outputs": [],
      "stateMutability": "nonpayable",
      "type": "function"
    },
    {
      "inputs": [],
      "name": "unpause",
      "outputs": [],
      "stateMutability": "nonpayable",
      "type": "function"
    }
  ],
  "bytecode": "0x60806040523480156200001157600080fd5b5060405162002cc338038062002cc38339810160408190526200003491620003e5565b8251839083906200004d90600290602085019062000294565b5080516200006390600390602084019062000294565b5050600c805460ff191690555080516200008590600e90602084019062000294565b506200009c60006200009662000103565b62000107565b620000cb7f9f2df0fed2c77648de5860a4cc508cd0818c85b8b8a1ab4ceeef8d981c8956a66200009662000103565b620000fa7f65d7a28e3265b37a6474929f336521b332c1681b933f6cb9f3376673440d862a6200009662000103565b505050620004c5565b3390565b6200011e82826200014a60201b62000b581760201c565b60008281526001602090815260409091206200014591839062000b666200015a821b17901c565b505050565b6200015682826200017a565b5050565b600062000171836001600160a01b03841662000204565b90505b92915050565b62000186828262000253565b62000156576000828152602081815260408083206001600160a01b03851684529091529020805460ff19166001179055620001c062000103565b6001600160a01b0316816001600160a01b0316837f2f8788117e7eff1d82e926ec794901d17c78024a50270940304540a733656f0d60405160405180910390a45050565b60006200021283836200027c565b6200024a5750815460018181018455600084815260208082209093018490558454848252828601909352604090209190915562000174565b50600062000174565b6000918252602082815260408084206001600160a01b0393909316845291905290205460ff1690565b60009081526001919091016020526040902054151590565b828054620002a29062000472565b90600052602060002090601f016020900481019282620002c6576000855562000311565b82601f10620002e157805160ff191683800117855562000311565b8280016001018555821562000311579182015b8281111562000311578251825591602001919060010190620002f4565b506200031f92915062000323565b5090565b5b808211156200031f576000815560010162000324565b600082601f8301126200034b578081fd5b81516001600160401b0380821115620003685762000368620004af565b6040516020601f8401601f1916820181018381118382101715620003905762000390620004af565b6040528382528584018101871015620003a7578485fd5b8492505b83831015620003ca5785830181015182840182015291820191620003ab565b83831115620003db57848185840101525b5095945050505050565b600080600060608486031215620003fa578283fd5b83516001600160401b038082111562000411578485fd5b6200041f878388016200033a565b9450602086015191508082111562000435578384fd5b62000443878388016200033a565b9350604086015191508082111562000459578283fd5b5062000468868287016200033a565b9150509250925092565b6002810460018216806200048757607f821691505b60208210811415620004a957634e487b7160e01b600052602260045260246000fd5b50919050565b634e487b7160e01b600052604160045260246000fd5b6127ee80620004d56000396000f3fe608060405234801561001057600080fd5b50600436106101da5760003560e01c80636352211e11610104578063a22cb465116100a2578063d539139311610071578063d5391393146103bf578063d547741f146103c7578063e63ab1e9146103da578063e985e9c5146103e2576101da565b8063a22cb46514610373578063b88d4fde14610386578063c87b56dd14610399578063ca15c873146103ac576101da565b80639010d07c116100de5780639010d07c1461033d57806391d148541461035057806395d89b4114610363578063a217fddf1461036b576101da565b80636352211e1461030f57806370a08231146103225780638456cb5914610335576101da565b80632f2ff15d1161017c57806342842e0e1161014b57806342842e0e146102ce57806342966c68146102e15780634f6ccce7146102f45780635c975abb14610307576101da565b80632f2ff15d1461028d5780632f745c59146102a057806336568abe146102b35780633f4ba83a146102c6576101da565b8063095ea7b3116101b8578063095ea7b31461023d57806318160ddd1461025257806323b872dd14610267578063248a9ca31461027a576101da565b806301ffc9a7146101df57806306fdde0314610208578063081812fc1461021d575b600080fd5b6101f26101ed366004611e0b565b6103f5565b6040516101ff9190611f64565b60405180910390f35b610210610408565b6040516101ff9190611f78565b61023061022b366004611db0565b61049a565b6040516101ff9190611f13565b61025061024b366004611d87565b6104e6565b005b61025a61057e565b6040516101ff9190611f6f565b610250610275366004611c46565b610584565b61025a610288366004611db0565b6105bc565b61025061029b366004611dc8565b6105d1565b61025a6102ae366004611d87565b6105f3565b6102506102c1366004611dc8565b610648565b61025061066a565b6102506102dc366004611c46565b6106bc565b6102506102ef366004611db0565b6106d7565b61025a610302366004611db0565b61070a565b6101f2610765565b61023061031d366004611db0565b61076e565b61025a610330366004611bfa565b6107a3565b6102506107e7565b61023061034b366004611dea565b610837565b6101f261035e366004611dc8565b610856565b61021061087f565b61025a61088e565b610250610381366004611d4d565b610893565b610250610394366004611c81565b610961565b6102106103a7366004611db0565b6109a0565b61025a6103ba366004611db0565b610ac1565b61025a610ad8565b6102506103d5366004611dc8565b610afc565b61025a610b06565b6101f26103f0366004611c14565b610b2a565b600061040082610b7b565b90505b919050565b606060028054610417906126f6565b80601f0160208091040260200160405190810160405280929190818152602001828054610443906126f6565b80156104905780601f1061046557610100808354040283529160200191610490565b820191906000526020600020905b81548152906001019060200180831161047357829003601f168201915b5050505050905090565b60006104a582610ba0565b6104ca5760405162461bcd60e51b81526004016104c19061239c565b60405180910390fd5b506000908152600660205260409020546001600160a01b031690565b60006104f18261076e565b9050806001600160a01b0316836001600160a01b031614156105255760405162461bcd60e51b81526004016104c190612480565b806001600160a01b0316610537610bbd565b6001600160a01b031614806105535750610553816103f0610bbd565b61056f5760405162461bcd60e51b81526004016104c19061225b565b6105798383610bc1565b505050565b600a5490565b61059561058f610bbd565b82610c2f565b6105b15760405162461bcd60e51b81526004016104c1906124c1565b610579838383610cac565b60009081526020819052604090206001015490565b6105db8282610dd9565b60008281526001602052604090206105799082610b66565b60006105fe836107a3565b821061061c5760405162461bcd60e51b81526004016104c19061207b565b506001600160a01b03821660009081526008602090815260408083208484529091529020545b92915050565b6106528282610dfd565b60008281526001602052604090206105799082610e3f565b6106967f65d7a28e3265b37a6474929f336521b332c1681b933f6cb9f3376673440d862a61035e610bbd565b6106b25760405162461bcd60e51b81526004016104c19061255e565b6106ba610e54565b565b61057983838360405180602001604052806000815250610961565b6106e261058f610bbd565b6106fe5760405162461bcd60e51b81526004016104c1906125b2565b61070781610ec2565b50565b600061071461057e565b82106107325760405162461bcd60e51b81526004016104c190612512565b600a828154811061075357634e487b7160e01b600052603260045260246000fd5b90600052602060002001549050919050565b600c5460ff1690565b6000818152600460205260408120546001600160a01b0316806104005760405162461bcd60e51b81526004016104c190612302565b60006001600160a01b0382166107cb5760405162461bcd60e51b81526004016104c1906122b8565b506001600160a01b031660009081526005602052604090205490565b6108137f65d7a28e3265b37a6474929f336521b332c1681b933f6cb9f3376673440d862a61035e610bbd565b61082f5760405162461bcd60e51b81526004016104c190612193565b6106ba610f02565b600082815260016020526040812061084f9083610f5d565b9392505050565b6000918252602082815260408084206001600160a01b0393909316845291905290205460ff1690565b606060038054610417906126f6565b600081565b61089b610bbd565b6001600160a01b0316826001600160a01b031614156108cc5760405162461bcd60e51b81526004016104c19061215c565b80600760006108d9610bbd565b6001600160a01b03908116825260208083019390935260409182016000908120918716808252919093529120805460ff19169215159290921790915561091d610bbd565b6001600160a01b03167f17307eab39ab6107e8899845ad3d59bd9653f200f220920489ca2b5937696c31836040516109559190611f64565b60405180910390a35050565b61097261096c610bbd565b83610c2f565b61098e5760405162461bcd60e51b81526004016104c1906124c1565b61099a84848484610f69565b50505050565b60606109ab82610ba0565b6109c75760405162461bcd60e51b81526004016104c19061234b565b6000828152600d6020526040812080546109e0906126f6565b80601f0160208091040260200160405190810160405280929190818152602001828054610a0c906126f6565b8015610a595780601f10610a2e57610100808354040283529160200191610a59565b820191906000526020600020905b815481529060010190602001808311610a3c57829003601f168201915b505050505090506000610a6a610f9c565b9050805160001415610a7e57509050610403565b815115610ab0578082604051602001610a98929190611e6f565b60405160208183030381529060405292505050610403565b610ab984610fab565b949350505050565b60008181526001602052604081206104009061102d565b7f9f2df0fed2c77648de5860a4cc508cd0818c85b8b8a1ab4ceeef8d981c8956a681565b6106528282611038565b7f65d7a28e3265b37a6474929f336521b332c1681b933f6cb9f3376673440d862a81565b6001600160a01b03918216600090815260076020908152604080832093909416825291909152205460ff1690565b610b628282611057565b5050565b600061084f836001600160a01b0384166110dc565b60006001600160e01b0319821663780e9d6360e01b1480610400575061040082611126565b6000908152600460205260409020546001600160a01b0316151590565b3390565b600081815260066020526040902080546001600160a01b0319166001600160a01b0384169081179091558190610bf68261076e565b6001600160a01b03167f8c5be1e5ebec7d5bd14f71427d1e84f3dd0314c0f7b2291e5b200ac8c7c3b92560405160405180910390a45050565b6000610c3a82610ba0565b610c565760405162461bcd60e51b81526004016104c1906121e5565b6000610c618361076e565b9050806001600160a01b0316846001600160a01b03161480610c9c5750836001600160a01b0316610c918461049a565b6001600160a01b0316145b80610ab95750610ab98185610b2a565b826001600160a01b0316610cbf8261076e565b6001600160a01b031614610ce55760405162461bcd60e51b81526004016104c1906123e8565b6001600160a01b038216610d0b5760405162461bcd60e51b81526004016104c190612118565b610d16838383611166565b610d21600082610bc1565b6001600160a01b0383166000908152600560205260408120805460019290610d4a90849061269c565b90915550506001600160a01b0382166000908152600560205260408120805460019290610d78908490612651565b909155505060008181526004602052604080822080546001600160a01b0319166001600160a01b0386811691821790925591518493918716917fddf252ad1be2c89b69c2b068fc378daa952ba7f163c4a11628f55a4df523b3ef91a4505050565b610de2826105bc565b610df381610dee610bbd565b611171565b6105798383611057565b610e05610bbd565b6001600160a01b0316816001600160a01b031614610e355760405162461bcd60e51b81526004016104c190612602565b610b6282826111d5565b600061084f836001600160a01b038416611258565b610e5c610765565b610e785760405162461bcd60e51b81526004016104c19061204d565b600c805460ff191690557f5db9ee0a495bf2e6ff9c91a7834c1ba4fdd244a5e8aa4e537bd38aeae4b073aa610eab610bbd565b604051610eb89190611f13565b60405180910390a1565b610ecb8161136f565b6000818152600d602052604090208054610ee4906126f6565b159050610707576000818152600d6020526040812061070791611b93565b610f0a610765565b15610f275760405162461bcd60e51b81526004016104c190612231565b600c805460ff191660011790557f62e78cea01bee320cd4e420270b5ea74000d11b0c9f74754ebdbfc544b05a258610eab610bbd565b600061084f8383611416565b610f74848484610cac565b610f808484848461146f565b61099a5760405162461bcd60e51b81526004016104c1906120c6565b6060600e8054610417906126f6565b6060610fb682610ba0565b610fd25760405162461bcd60e51b81526004016104c190612431565b6000610fdc610f9c565b90506000815111610ffc576040518060200160405280600081525061084f565b806110068461158a565b604051602001611017929190611e6f565b6040516020818303038152906040529392505050565b6000610400826116a5565b611041826105bc565b61104d81610dee610bbd565b61057983836111d5565b6110618282610856565b610b62576000828152602081815260408083206001600160a01b03851684529091529020805460ff19166001179055611098610bbd565b6001600160a01b0316816001600160a01b0316837f2f8788117e7eff1d82e926ec794901d17c78024a50270940304540a733656f0d60405160405180910390a45050565b60006110e883836116a9565b61111e57508154600181810184556000848152602080822090930184905584548482528286019093526040902091909155610642565b506000610642565b60006001600160e01b031982166380ac58cd60e01b148061115757506001600160e01b03198216635b5e139f60e01b145b806104005750610400826116c1565b6105798383836116e6565b61117b8282610856565b610b6257611193816001600160a01b03166014611716565b61119e836020611716565b6040516020016111af929190611e9e565b60408051601f198184030181529082905262461bcd60e51b82526104c191600401611f78565b6111df8282610856565b15610b62576000828152602081815260408083206001600160a01b03851684529091529020805460ff19169055611214610bbd565b6001600160a01b0316816001600160a01b0316837ff6391f5c32d9c69d2a47ea670b442974b53935d1edc7fd64eb21e047a839171b60405160405180910390a45050565b6000818152600183016020526040812054801561136557600061127c60018361269c565b85549091506000906112909060019061269c565b905060008660000182815481106112b757634e487b7160e01b600052603260045260246000fd5b90600052602060002001549050808760000184815481106112e857634e487b7160e01b600052603260045260246000fd5b60009182526020808320909101929092558281526001890190915260409020849055865487908061132957634e487b7160e01b600052603160045260246000fd5b60019003818190600052602060002001600090559055866001016000878152602001908152602001600020600090556001945050505050610642565b6000915050610642565b600061137a8261076e565b905061138881600084611166565b611393600083610bc1565b6001600160a01b03811660009081526005602052604081208054600192906113bc90849061269c565b909155505060008281526004602052604080822080546001600160a01b0319169055518391906001600160a01b038416907fddf252ad1be2c89b69c2b068fc378daa952ba7f163c4a11628f55a4df523b3ef908390a45050565b815460009082106114395760405162461bcd60e51b81526004016104c190611f8b565b82600001828154811061145c57634e487b7160e01b600052603260045260246000fd5b9060005260206000200154905092915050565b6000611483846001600160a01b03166118c8565b1561157f57836001600160a01b031663150b7a0261149f610bbd565b8786866040518563ffffffff1660e01b81526004016114c19493929190611f27565b602060405180830381600087803b1580156114db57600080fd5b505af192505050801561150b575060408051601f3d908101601f1916820190925261150891810190611e27565b60015b611565573d808015611539576040519150601f19603f3d011682016040523d82523d6000602084013e61153e565b606091505b50805161155d5760405162461bcd60e51b81526004016104c1906120c6565b805181602001fd5b6001600160e01b031916630a85bd0160e11b149050610ab9565b506001949350505050565b6060816115af57506040805180820190915260018152600360fc1b6020820152610403565b8160005b81156115d957806115c381612731565b91506115d29050600a83612669565b91506115b3565b60008167ffffffffffffffff81111561160257634e487b7160e01b600052604160045260246000fd5b6040519080825280601f01601f19166020018201604052801561162c576020820181803683370190505b5090505b8415610ab95761164160018361269c565b915061164e600a8661274c565b611659906030612651565b60f81b81838151811061167c57634e487b7160e01b600052603260045260246000fd5b60200101906001600160f81b031916908160001a90535061169e600a86612669565b9450611630565b5490565b60009081526001919091016020526040902054151590565b60006001600160e01b03198216635a05180f60e01b14806104005750610400826118ce565b6116f18383836118f3565b6116f9610765565b156105795760405162461bcd60e51b81526004016104c190612002565b6060600061172583600261267d565b611730906002612651565b67ffffffffffffffff81111561175657634e487b7160e01b600052604160045260246000fd5b6040519080825280601f01601f191660200182016040528015611780576020820181803683370190505b509050600360fc1b816000815181106117a957634e487b7160e01b600052603260045260246000fd5b60200101906001600160f81b031916908160001a905350600f60fb1b816001815181106117e657634e487b7160e01b600052603260045260246000fd5b60200101906001600160f81b031916908160001a905350600061180a84600261267d565b611815906001612651565b90505b60018111156118a9576f181899199a1a9b1b9c1cb0b131b232b360811b85600f166010811061185757634e487b7160e01b600052603260045260246000fd5b1a60f81b82828151811061187b57634e487b7160e01b600052603260045260246000fd5b60200101906001600160f81b031916908160001a90535060049490941c936118a2816126df565b9050611818565b50831561084f5760405162461bcd60e51b81526004016104c190611fcd565b3b151590565b60006001600160e01b03198216637965db0b60e01b148061040057506104008261197c565b6118fe838383610579565b6001600160a01b03831661191a5761191581611995565b61193d565b816001600160a01b0316836001600160a01b03161461193d5761193d83826119d9565b6001600160a01b0382166119595761195481611a76565b610579565b826001600160a01b0316826001600160a01b031614610579576105798282611b4f565b6001600160e01b031981166301ffc9a760e01b14919050565b600a80546000838152600b60205260408120829055600182018355919091527fc65a7bb8d6351c1cf70c95a316cc6a92839c986682d98bc35f958f4883f9d2a80155565b600060016119e6846107a3565b6119f0919061269c565b600083815260096020526040902054909150808214611a43576001600160a01b03841660009081526008602090815260408083208584528252808320548484528184208190558352600990915290208190555b5060009182526009602090815260408084208490556001600160a01b039094168352600881528383209183525290812055565b600a54600090611a889060019061269c565b6000838152600b6020526040812054600a8054939450909284908110611abe57634e487b7160e01b600052603260045260246000fd5b9060005260206000200154905080600a8381548110611aed57634e487b7160e01b600052603260045260246000fd5b6000918252602080832090910192909255828152600b9091526040808220849055858252812055600a805480611b3357634e487b7160e01b600052603160045260246000fd5b6001900381819060005260206000200160009055905550505050565b6000611b5a836107a3565b6001600160a01b039093166000908152600860209081526040808320868452825280832085905593825260099052919091209190915550565b508054611b9f906126f6565b6000825580601f10611bb15750610707565b601f01602090049060005260206000209081019061070791905b80821115611bdf5760008155600101611bcb565b5090565b80356001600160a01b038116811461040357600080fd5b600060208284031215611c0b578081fd5b61084f82611be3565b60008060408385031215611c26578081fd5b611c2f83611be3565b9150611c3d60208401611be3565b90509250929050565b600080600060608486031215611c5a578081fd5b611c6384611be3565b9250611c7160208501611be3565b9150604084013590509250925092565b60008060008060808587031215611c96578081fd5b611c9f85611be3565b93506020611cae818701611be3565b935060408601359250606086013567ffffffffffffffff80821115611cd1578384fd5b818801915088601f830112611ce4578384fd5b813581811115611cf657611cf661278c565b604051601f8201601f1916810185018381118282101715611d1957611d1961278c565b60405281815283820185018b1015611d2f578586fd5b81858501868301379081019093019390935250939692955090935050565b60008060408385031215611d5f578182fd5b611d6883611be3565b915060208301358015158114611d7c578182fd5b809150509250929050565b60008060408385031215611d99578182fd5b611da283611be3565b946020939093013593505050565b600060208284031215611dc1578081fd5b5035919050565b60008060408385031215611dda578182fd5b82359150611c3d60208401611be3565b60008060408385031215611dfc578182fd5b50508035926020909101359150565b600060208284031215611e1c578081fd5b813561084f816127a2565b600060208284031215611e38578081fd5b815161084f816127a2565b60008151808452611e5b8160208601602086016126b3565b601f01601f19169290920160200192915050565b60008351611e818184602088016126b3565b835190830190611e958183602088016126b3565b01949350505050565b60007f416363657373436f6e74726f6c3a206163636f756e742000000000000000000082528351611ed68160178501602088016126b3565b7001034b99036b4b9b9b4b733903937b6329607d1b6017918401918201528351611f078160288401602088016126b3565b01602801949350505050565b6001600160a01b0391909116815260200190565b6001600160a01b0385811682528416602082015260408101839052608060608201819052600090611f5a90830184611e43565b9695505050505050565b901515815260200190565b90815260200190565b60006020825261084f6020830184611e43565b60208082526022908201527f456e756d657261626c655365743a20696e646578206f7574206f6620626f756e604082015261647360f01b606082015260800190565b6020808252818101527f537472696e67733a20686578206c656e67746820696e73756666696369656e74604082015260600190565b6020808252602b908201527f4552433732315061757361626c653a20746f6b656e207472616e73666572207760408201526a1a1a5b19481c185d5cd95960aa1b606082015260800190565b60208082526014908201527314185d5cd8589b194e881b9bdd081c185d5cd95960621b604082015260600190565b6020808252602b908201527f455243373231456e756d657261626c653a206f776e657220696e646578206f7560408201526a74206f6620626f756e647360a81b606082015260800190565b60208082526032908201527f4552433732313a207472616e7366657220746f206e6f6e20455243373231526560408201527131b2b4bb32b91034b6b83632b6b2b73a32b960711b606082015260800190565b60208082526024908201527f4552433732313a207472616e7366657220746f20746865207a65726f206164646040820152637265737360e01b606082015260800190565b60208082526019908201527f4552433732313a20617070726f766520746f2063616c6c657200000000000000604082015260600190565b60208082526032908201527f4552433732314d696e7465725061757365723a206d75737420686176652070616040820152717573657220726f6c6520746f20706175736560701b606082015260800190565b6020808252602c908201527f4552433732313a206f70657261746f7220717565727920666f72206e6f6e657860408201526b34b9ba32b73a103a37b5b2b760a11b606082015260800190565b60208082526010908201526f14185d5cd8589b194e881c185d5cd95960821b604082015260600190565b60208082526038908201527f4552433732313a20617070726f76652063616c6c6572206973206e6f74206f7760408201527f6e6572206e6f7220617070726f76656420666f7220616c6c0000000000000000606082015260800190565b6020808252602a908201527f4552433732313a2062616c616e636520717565727920666f7220746865207a65604082015269726f206164647265737360b01b606082015260800190565b60208082526029908201527f4552433732313a206f776e657220717565727920666f72206e6f6e657869737460408201526832b73a103a37b5b2b760b91b606082015260800190565b60208082526031908201527f45524337323155524953746f726167653a2055524920717565727920666f72206040820152703737b732bc34b9ba32b73a103a37b5b2b760791b606082015260800190565b6020808252602c908201527f4552433732313a20617070726f76656420717565727920666f72206e6f6e657860408201526b34b9ba32b73a103a37b5b2b760a11b606082015260800190565b60208082526029908201527f4552433732313a207472616e73666572206f6620746f6b656e2074686174206960408201526839903737ba1037bbb760b91b606082015260800190565b6020808252602f908201527f4552433732314d657461646174613a2055524920717565727920666f72206e6f60408201526e3732bc34b9ba32b73a103a37b5b2b760891b606082015260800190565b60208082526021908201527f4552433732313a20617070726f76616c20746f2063757272656e74206f776e656040820152603960f91b606082015260800190565b60208082526031908201527f4552433732313a207472616e736665722063616c6c6572206973206e6f74206f6040820152701ddb995c881b9bdc88185c1c1c9bdd9959607a1b606082015260800190565b6020808252602c908201527f455243373231456e756d657261626c653a20676c6f62616c20696e646578206f60408201526b7574206f6620626f756e647360a01b606082015260800190565b60208082526034908201527f4552433732314d696e7465725061757365723a206d75737420686176652070616040820152737573657220726f6c6520746f20756e706175736560601b606082015260800190565b60208082526030908201527f4552433732314275726e61626c653a2063616c6c6572206973206e6f74206f7760408201526f1b995c881b9bdc88185c1c1c9bdd995960821b606082015260800190565b6020808252602f908201527f416363657373436f6e74726f6c3a2063616e206f6e6c792072656e6f756e636560408201526e103937b632b9903337b91039b2b63360891b606082015260800190565b6000821982111561266457612664612760565b500190565b60008261267857612678612776565b500490565b600081600019048311821515161561269757612697612760565b500290565b6000828210156126ae576126ae612760565b500390565b60005b838110156126ce5781810151838201526020016126b6565b8381111561099a5750506000910152565b6000816126ee576126ee612760565b506000190190565b60028104600182168061270a57607f821691505b6020821081141561272b57634e487b7160e01b600052602260045260246000fd5b50919050565b600060001982141561274557612745612760565b5060010190565b60008261275b5761275b612776565b500690565b634e487b7160e01b600052601160045260246000fd5b634e487b7160e01b600052601260045260246000fd5b634e487b7160e01b600052604160045260246000fd5b6001600160e01b03198116811461070757600080fdfea2646970667358221220f2aba7a60c85a720a6e1a74df7635847a7a5a1452defc5a1388a30e7b06015d164736f6c63430008000033",
  "linkReferences": {},
  "deployedLinkReferences": {}
}