{
  "contractName": "ERC721MinterPauser",
  "abi": [
    {
      "inputs": [
        {
          "internalType": "string",
          "name": "name",
          "type": "string"
        },
        {
          "internalType": "string",
          "name": "symbol",
          "type": "string"
        },
        {
          "internalType": "string",
          "name": "baseTokenURI",
          "type": "string"
        }
      ],
      "stateMutability": "nonpayable",
      "type": "constructor"
    },
    {
      "anonymous": false,
      "inputs": [
        {
          "indexed": true,
          "internalType": "address",
          "name": "owner",
          "type": "address"
        },
        {
          "indexed": true,
          "internalType": "address",
          "name": "approved",
          "type": "address"
        },
        {
          "indexed": true,
          "internalType": "uint256",
          "name": "tokenId",
          "type": "uint256"
        }
      ],
      "name": "Approval",
      "type": "event"
    },
    {
      "anonymous": false,
      "inputs": [
        {
          "indexed": true,
          "internalType": "address",
          "name": "owner",
          "type": "address"
        },
        {
          "indexed": true,
          "internalType": "address",
          "name": "operator",
          "type": "address"
        },
        {
          "indexed": false,
          "internalType": "bool",
          "name": "approved",
          "type": "bool"
        }
      ],
      "name": "ApprovalForAll",
      "type": "event"
    },
    {
      "anonymous": false,
      "inputs": [
        {
          "indexed": false,
          "internalType": "address",
          "name": "account",
          "type": "address"
        }
      ],
      "name": "Paused",
      "type": "event"
    },
    {
      "anonymous": false,
      "inputs": [
        {
          "indexed": true,
          "internalType": "bytes32",
          "name": "role",
          "type": "bytes32"
        },
        {
          "indexed": true,
          "internalType": "bytes32",
          "name": "previousAdminRole",
          "type": "bytes32"
        },
        {
          "indexed": true,
          "internalType": "bytes32",
          "name": "newAdminRole",
          "type": "bytes32"
        }
      ],
      "name": "RoleAdminChanged",
      "type": "event"
    },
    {
      "anonymous": false,
      "inputs": [
        {
          "indexed": true,
          "internalType": "bytes32",
          "name": "role",
          "type": "bytes32"
        },
        {
          "indexed": true,
          "internalType": "address",
          "name": "account",
          "type": "address"
        },
        {
          "indexed": true,
          "internalType": "address",
          "name": "sender",
          "type": "address"
        }
      ],
      "name": "RoleGranted",
      "type": "event"
    },
    {
      "anonymous": false,
      "inputs": [
        {
          "indexed": true,
          "internalType": "bytes32",
          "name": "role",
          "type": "bytes32"
        },
        {
          "indexed": true,
          "internalType": "address",
          "name": "account",
          "type": "address"
        },
        {
          "indexed": true,
          "internalType": "address",
          "name": "sender",
          "type": "address"
        }
      ],
      "name": "RoleRevoked",
      "type": "event"
    },
    {
      "anonymous": false,
      "inputs": [
        {
          "indexed": true,
          "internalType": "address",
          "name": "from",
          "type": "address"
        },
        {
          "indexed": true,
          "internalType": "address",
          "name": "to",
          "type": "address"
        },
        {
          "indexed": true,
          "internalType": "uint256",
          "name": "tokenId",
          "type": "uint256"
        }
      ],
      "name": "Transfer",
      "type": "event"
    },
    {
      "anonymous": false,
      "inputs": [
        {
          "indexed": false,
          "internalType": "address",
          "name": "account",
          "type": "address"
        }
      ],
      "name": "Unpaused",
      "type": "event"
    },
    {
      "inputs": [],
      "name": "DEFAULT_ADMIN_ROLE",
      "outputs": [
        {
          "internalType": "bytes32",
          "name": "",
          "type": "bytes32"
        }
      ],
      "stateMutability": "view",
      "type": "function"
    },
    {
      "inputs": [],
      "name": "MINTER_ROLE",
      "outputs": [
        {
          "internalType": "bytes32",
          "name": "",
          "type": "bytes32"
        }
      ],
      "stateMutability": "view",
      "type": "function"
    },
    {
      "inputs": [],
      "name": "PAUSER_ROLE",
      "outputs": [
        {
          "internalType": "bytes32",
          "name": "",
          "type": "bytes32"
        }
      ],
      "stateMutability": "view",
      "type": "function"
    },
    {
      "inputs": [
        {
          "internalType": "address",
          "name": "to",
          "type": "address"
        },
        {
          "internalType": "uint256",
          "name": "tokenId",
          "type": "uint256"
        }
      ],
      "name": "approve",
      "outputs": [],
      "stateMutability": "nonpayable",
      "type": "function"
    },
    {
      "inputs": [
        {
          "internalType": "address",
          "name": "owner",
          "type": "address"
        }
      ],
      "name": "balanceOf",
      "outputs": [
        {
          "internalType": "uint256",
          "name": "",
          "type": "uint256"
        }
      ],
      "stateMutability": "view",
      "type": "function"
    },
    {
      "inputs": [
        {
          "internalType": "uint256",
          "name": "tokenId",
          "type": "uint256"
        }
      ],
      "name": "burn",
      "outputs": [],
      "stateMutability": "nonpayable",
      "type": "function"
    },
    {
      "inputs": [
        {
          "internalType": "uint256",
          "name": "tokenId",
          "type": "uint256"
        }
      ],
      "name": "getApproved",
      "outputs": [
        {
          "internalType": "address",
          "name": "",
          "type": "address"
        }
      ],
      "stateMutability": "view",
      "type": "function"
    },
    {
      "inputs": [
        {
          "internalType": "bytes32",
          "name": "role",
          "type": "bytes32"
        }
      ],
      "name": "getRoleAdmin",
      "outputs": [
        {
          "internalType": "bytes32",
          "name": "",
          "type": "bytes32"
        }
      ],
      "stateMutability": "view",
      "type": "function"
    },
    {
      "inputs": [
        {
          "internalType": "bytes32",
          "name": "role",
          "type": "bytes32"
        },
        {
          "internalType": "uint256",
          "name": "index",
          "type": "uint256"
        }
      ],
      "name": "getRoleMember",
      "outputs": [
        {
          "internalType": "address",
          "name": "",
          "type": "address"
        }
      ],
      "stateMutability": "view",
      "type": "function"
    },
    {
      "inputs": [
        {
          "internalType": "bytes32",
          "name": "role",
          "type": "bytes32"
        }
      ],
      "name": "getRoleMemberCount",
      "outputs": [
        {
          "internalType": "uint256",
          "name": "",
          "type": "uint256"
        }
      ],
      "stateMutability": "view",
      "type": "function"
    },
    {
      "inputs": [
        {
          "internalType": "bytes32",
          "name": "role",
          "type": "bytes32"
        },
        {
          "internalType": "address",
          "name": "account",
          "type": "address"
        }
      ],
      "name": "grantRole",
      "outputs": [],
      "stateMutability": "nonpayable",
      "type": "function"
    },
    {
      "inputs": [
        {
          "internalType": "bytes32",
          "name": "role",
          "type": "bytes32"
        },
        {
          "internalType": "address",
          "name": "account",
          "type": "address"
        }
      ],
      "name": "hasRole",
      "outputs": [
        {
          "internalType": "bool",
          "name": "",
          "type": "bool"
        }
      ],
      "stateMutability": "view",
      "type": "function"
    },
    {
      "inputs": [
        {
          "internalType": "address",
          "name": "owner",
          "type": "address"
        },
        {
          "internalType": "address",
          "name": "operator",
          "type": "address"
        }
      ],
      "name": "isApprovedForAll",
      "outputs": [
        {
          "internalType": "bool",
          "name": "",
          "type": "bool"
        }
      ],
      "stateMutability": "view",
      "type": "function"
    },
    {
      "inputs": [],
      "name": "name",
      "outputs": [
        {
          "internalType": "string",
          "name": "",
          "type": "string"
        }
      ],
      "stateMutability": "view",
      "type": "function"
    },
    {
      "inputs": [
        {
          "internalType": "uint256",
          "name": "tokenId",
          "type": "uint256"
        }
      ],
      "name": "ownerOf",
      "outputs": [
        {
          "internalType": "address",
          "name": "",
          "type": "address"
        }
      ],
      "stateMutability": "view",
      "type": "function"
    },
    {
      "inputs": [],
      "name": "paused",
      "outputs": [
        {
          "internalType": "bool",
          "name": "",
          "type": "bool"
        }
      ],
      "stateMutability": "view",
      "type": "function"
    },
    {
      "inputs": [
        {
          "internalType": "bytes32",
          "name": "role",
          "type": "bytes32"
        },
        {
          "internalType": "address",
          "name": "account",
          "type": "address"
        }
      ],
      "name": "renounceRole",
      "outputs": [],
      "stateMutability": "nonpayable",
      "type": "function"
    },
    {
      "inputs": [
        {
          "internalType": "bytes32",
          "name": "role",
          "type": "bytes32"
        },
        {
          "internalType": "address",
          "name": "account",
          "type": "address"
        }
      ],
      "name": "revokeRole",
      "outputs": [],
      "stateMutability": "nonpayable",
      "type": "function"
    },
    {
      "inputs": [
        {
          "internalType": "address",
          "name": "from",
          "type": "address"
        },
        {
          "internalType": "address",
          "name": "to",
          "type": "address"
        },
        {
          "internalType": "uint256",
          "name": "tokenId",
          "type": "uint256"
        }
      ],
      "name": "safeTransferFrom",
      "outputs": [],
      "stateMutability": "nonpayable",
      "type": "function"
    },
    {
      "inputs": [
        {
          "internalType": "address",
          "name": "from",
          "type": "address"
        },
        {
          "internalType": "address",
          "name": "to",
          "type": "address"
        },
        {
          "internalType": "uint256",
          "name": "tokenId",
          "type": "uint256"
        },
        {
          "internalType": "bytes",
          "name": "_data",
          "type": "bytes"
        }
      ],
      "name": "safeTransferFrom",
      "outputs": [],
      "stateMutability": "nonpayable",
      "type": "function"
    },
    {
      "inputs": [
        {
          "internalType": "address",
          "name": "operator",
          "type": "address"
        },
        {
          "internalType": "bool",
          "name": "approved",
          "type": "bool"
        }
      ],
      "name": "setApprovalForAll",
      "outputs": [],
      "stateMutability": "nonpayable",
      "type": "function"
    },
    {
      "inputs": [],
      "name": "symbol",
      "outputs": [
        {
          "internalType": "string",
          "name": "",
          "type": "string"
        }
      ],
      "stateMutability": "view",
      "type": "function"
    },
    {
      "inputs": [
        {
          "internalType": "uint256",
          "name": "index",
          "type": "uint256"
        }
      ],
      "name": "tokenByIndex",
      "outputs": [
        {
          "internalType": "uint256",
          "name": "",
          "type": "uint256"
        }
      ],
      "stateMutability": "view",
      "type": "function"
    },
    {
      "inputs": [
        {
          "internalType": "address",
          "name": "owner",
          "type": "address"
        },
        {
          "internalType": "uint256",
          "name": "index",
          "type": "uint256"
        }
      ],
      "name": "tokenOfOwnerByIndex",
      "outputs": [
        {
          "internalType": "uint256",
          "name": "",
          "type": "uint256"
        }
      ],
      "stateMutability": "view",
      "type": "function"
    },
    {
      "inputs": [],
      "name": "totalSupply",
      "outputs": [
        {
          "internalType": "uint256",
          "name": "",
          "type": "uint256"
        }
      ],
      "stateMutability": "view",
      "type": "function"
    },
    {
      "inputs": [
        {
          "internalType": "address",
          "name": "from",
          "type": "address"
        },
        {
          "internalType": "address",
          "name": "to",
          "type": "address"
        },
        {
          "internalType": "uint256",
          "name": "tokenId",
          "type": "uint256"
        }
      ],
      "name": "transferFrom",
      "outputs": [],
      "stateMutability": "nonpayable",
      "type": "function"
    },
    {
      "inputs": [],
      "name": "pause",
      "outputs": [],
      "stateMutability": "nonpayable",
      "type": "function"
    },
    {
      "inputs": [],
      "name": "unpause",
      "outputs": [],
      "stateMutability": "nonpayable",
      "type": "function"
    },
    {
      "inputs": [
        {
          "internalType": "bytes4",
          "name": "interfaceId",
          "type": "bytes4"
        }
      ],
      "name": "supportsInterface",
      "outputs": [
        {
          "internalType": "bool",
          "name": "",
          "type": "bool"
        }
      ],
      "stateMutability": "view",
      "type": "function"
    },
    {
      "inputs": [
        {
          "internalType": "uint256",
          "name": "tokenId",
          "type": "uint256"
        }
      ],
      "name": "tokenURI",
      "outputs": [
        {
          "internalType": "string",
          "name": "",
          "type": "string"
        }
      ],
      "stateMutability": "view",
      "type": "function"
    }
  ],
  "bytecode": "0x60806040523480156200001157600080fd5b506040516200396a3803806200396a8339810160408190526200003491620003e5565b8251839083906200004d90600290602085019062000294565b5080516200006390600390602084019062000294565b5050600c805460ff191690555080516200008590600e90602084019062000294565b506200009c60006200009662000103565b62000107565b620000cb7f9f2df0fed2c77648de5860a4cc508cd0818c85b8b8a1ab4ceeef8d981c8956a66200009662000103565b620000fa7f65d7a28e3265b37a6474929f336521b332c1681b933f6cb9f3376673440d862a6200009662000103565b505050620004c5565b3390565b6200011e82826200014a60201b62000dbe1760201c565b60008281526001602090815260409091206200014591839062000dcc6200015a821b17901c565b505050565b6200015682826200017a565b5050565b600062000171836001600160a01b03841662000204565b90505b92915050565b62000186828262000253565b62000156576000828152602081815260408083206001600160a01b03851684529091529020805460ff19166001179055620001c062000103565b6001600160a01b0316816001600160a01b0316837f2f8788117e7eff1d82e926ec794901d17c78024a50270940304540a733656f0d60405160405180910390a45050565b60006200021283836200027c565b6200024a5750815460018181018455600084815260208082209093018490558454848252828601909352604090209190915562000174565b50600062000174565b6000918252602082815260408084206001600160a01b0393909316845291905290205460ff1690565b60009081526001919091016020526040902054151590565b828054620002a29062000472565b90600052602060002090601f016020900481019282620002c6576000855562000311565b82601f10620002e157805160ff191683800117855562000311565b8280016001018555821562000311579182015b8281111562000311578251825591602001919060010190620002f4565b506200031f92915062000323565b5090565b5b808211156200031f576000815560010162000324565b600082601f8301126200034b578081fd5b81516001600160401b0380821115620003685762000368620004af565b6040516020601f8401601f1916820181018381118382101715620003905762000390620004af565b6040528382528584018101871015620003a7578485fd5b8492505b83831015620003ca5785830181015182840182015291820191620003ab565b83831115620003db57848185840101525b5095945050505050565b600080600060608486031215620003fa578283fd5b83516001600160401b038082111562000411578485fd5b6200041f878388016200033a565b9450602086015191508082111562000435578384fd5b62000443878388016200033a565b9350604086015191508082111562000459578283fd5b5062000468868287016200033a565b9150509250925092565b6002810460018216806200048757607f821691505b60208210811415620004a957634e487b7160e01b600052602260045260246000fd5b50919050565b634e487b7160e01b600052604160045260246000fd5b61349580620004d56000396000f3fe608060405234801561001057600080fd5b50600436106101da5760003560e01c80636352211e11610104578063a22cb465116100a2578063d539139311610071578063d5391393146103bf578063d547741f146103c7578063e63ab1e9146103da578063e985e9c5146103e2576101da565b8063a22cb46514610373578063b88d4fde14610386578063c87b56dd14610399578063ca15c873146103ac576101da565b80639010d07c116100de5780639010d07c1461033d57806391d148541461035057806395d89b4114610363578063a217fddf1461036b576101da565b80636352211e1461030f57806370a08231146103225780638456cb5914610335576101da565b80632f2ff15d1161017c57806342842e0e1161014b57806342842e0e146102ce57806342966c68146102e15780634f6ccce7146102f45780635c975abb14610307576101da565b80632f2ff15d1461028d5780632f745c59146102a057806336568abe146102b35780633f4ba83a146102c6576101da565b8063095ea7b3116101b8578063095ea7b31461023d57806318160ddd1461025257806323b872dd14610267578063248a9ca31461027a576101da565b806301ffc9a7146101df57806306fdde0314610208578063081812fc1461021d575b600080fd5b6101f26101ed366004612841565b6103f5565b6040516101ff91906129dd565b60405180910390f35b610210610408565b6040516101ff91906129f1565b61023061022b3660046127e6565b61049a565b6040516101ff9190612973565b61025061024b3660046127bd565b61050d565b005b61025a61060d565b6040516101ff91906129e8565b61025061027536600461265e565b610613565b61025a6102883660046127e6565b610665565b61025061029b3660046127fe565b61067a565b61025a6102ae3660046127bd565b61069c565b6102506102c13660046127fe565b610718565b61025061073a565b6102506102dc36600461265e565b6107a6565b6102506102ef3660046127e6565b6107c1565b61025a6103023660046127e6565b61080e565b6101f261089c565b61023061031d3660046127e6565b6108a5565b61025a610330366004612612565b610901565b610250610979565b61023061034b366004612820565b6109e3565b6101f261035e3660046127fe565b610a02565b610210610a38565b61025a610a47565b610250610381366004612783565b610a4c565b610250610394366004612699565b610b86565b6102106103a73660046127e6565b610bdf565b61025a6103ba3660046127e6565b610d1a565b61025a610d31565b6102506103d53660046127fe565b610d55565b61025a610d5f565b6101f26103f036600461262c565b610d83565b600061040082610dee565b90505b919050565b60606002805461041790613303565b80601f016020809104026020016040519081016040528092919081815260200182805461044390613303565b80156104905780601f1061046557610100808354040283529160200191610490565b820191906000526020600020905b81548152906001019060200180831161047357829003601f168201915b5050505050905090565b60006104a582610e44565b6104e4576040517f08c379a00000000000000000000000000000000000000000000000000000000081526004016104db90612edd565b60405180910390fd5b5060009081526006602052604090205473ffffffffffffffffffffffffffffffffffffffff1690565b6000610518826108a5565b90508073ffffffffffffffffffffffffffffffffffffffff168373ffffffffffffffffffffffffffffffffffffffff161415610580576040517f08c379a00000000000000000000000000000000000000000000000000000000081526004016104db90612ff4565b8073ffffffffffffffffffffffffffffffffffffffff1661059f610e6e565b73ffffffffffffffffffffffffffffffffffffffff1614806105c857506105c8816103f0610e6e565b6105fe576040517f08c379a00000000000000000000000000000000000000000000000000000000081526004016104db90612d69565b6106088383610e72565b505050565b600a5490565b61062461061e610e6e565b82610f12565b61065a576040517f08c379a00000000000000000000000000000000000000000000000000000000081526004016104db90613051565b610608838383610fdd565b60009081526020819052604090206001015490565b61068482826111a4565b60008281526001602052604090206106089082610dcc565b60006106a783610901565b82106106df576040517f08c379a00000000000000000000000000000000000000000000000000000000081526004016104db90612b2a565b5073ffffffffffffffffffffffffffffffffffffffff821660009081526008602090815260408083208484529091529020545b92915050565b61072282826111c8565b6000828152600160205260409020610608908261123e565b6107667f65d7a28e3265b37a6474929f336521b332c1681b933f6cb9f3376673440d862a61035e610e6e565b61079c576040517f08c379a00000000000000000000000000000000000000000000000000000000081526004016104db9061310b565b6107a4611260565b565b61060883838360405180602001604052806000815250610b86565b6107cc61061e610e6e565b610802576040517f08c379a00000000000000000000000000000000000000000000000000000000081526004016104db90613168565b61080b81611306565b50565b600061081861060d565b8210610850576040517f08c379a00000000000000000000000000000000000000000000000000000000081526004016104db906130ae565b600a828154811061088a577f4e487b7100000000000000000000000000000000000000000000000000000000600052603260045260246000fd5b90600052602060002001549050919050565b600c5460ff1690565b60008181526004602052604081205473ffffffffffffffffffffffffffffffffffffffff1680610400576040517f08c379a00000000000000000000000000000000000000000000000000000000081526004016104db90612e23565b600073ffffffffffffffffffffffffffffffffffffffff8216610950576040517f08c379a00000000000000000000000000000000000000000000000000000000081526004016104db90612dc6565b5073ffffffffffffffffffffffffffffffffffffffff1660009081526005602052604090205490565b6109a57f65d7a28e3265b37a6474929f336521b332c1681b933f6cb9f3376673440d862a61035e610e6e565b6109db576040517f08c379a00000000000000000000000000000000000000000000000000000000081526004016104db90612c78565b6107a4611346565b60008281526001602052604081206109fb90836113d9565b9392505050565b60009182526020828152604080842073ffffffffffffffffffffffffffffffffffffffff93909316845291905290205460ff1690565b60606003805461041790613303565b600081565b610a54610e6e565b73ffffffffffffffffffffffffffffffffffffffff168273ffffffffffffffffffffffffffffffffffffffff161415610ab9576040517f08c379a00000000000000000000000000000000000000000000000000000000081526004016104db90612c41565b8060076000610ac6610e6e565b73ffffffffffffffffffffffffffffffffffffffff90811682526020808301939093526040918201600090812091871680825291909352912080547fffffffffffffffffffffffffffffffffffffffffffffffffffffffffffffff001692151592909217909155610b35610e6e565b73ffffffffffffffffffffffffffffffffffffffff167f17307eab39ab6107e8899845ad3d59bd9653f200f220920489ca2b5937696c3183604051610b7a91906129dd565b60405180910390a35050565b610b97610b91610e6e565b83610f12565b610bcd576040517f08c379a00000000000000000000000000000000000000000000000000000000081526004016104db90613051565b610bd9848484846113e5565b50505050565b6060610bea82610e44565b610c20576040517f08c379a00000000000000000000000000000000000000000000000000000000081526004016104db90612e80565b6000828152600d602052604081208054610c3990613303565b80601f0160208091040260200160405190810160405280929190818152602001828054610c6590613303565b8015610cb25780601f10610c8757610100808354040283529160200191610cb2565b820191906000526020600020905b815481529060010190602001808311610c9557829003601f168201915b505050505090506000610cc3611432565b9050805160001415610cd757509050610403565b815115610d09578082604051602001610cf19291906128c3565b60405160208183030381529060405292505050610403565b610d1284611441565b949350505050565b6000818152600160205260408120610400906114dd565b7f9f2df0fed2c77648de5860a4cc508cd0818c85b8b8a1ab4ceeef8d981c8956a681565b61072282826114e8565b7f65d7a28e3265b37a6474929f336521b332c1681b933f6cb9f3376673440d862a81565b73ffffffffffffffffffffffffffffffffffffffff918216600090815260076020908152604080832093909416825291909152205460ff1690565b610dc88282611507565b5050565b60006109fb8373ffffffffffffffffffffffffffffffffffffffff84166115d1565b60007fffffffff0000000000000000000000000000000000000000000000000000000082167f780e9d6300000000000000000000000000000000000000000000000000000000148061040057506104008261161b565b60009081526004602052604090205473ffffffffffffffffffffffffffffffffffffffff16151590565b3390565b600081815260066020526040902080547fffffffffffffffffffffffff00000000000000000000000000000000000000001673ffffffffffffffffffffffffffffffffffffffff84169081179091558190610ecc826108a5565b73ffffffffffffffffffffffffffffffffffffffff167f8c5be1e5ebec7d5bd14f71427d1e84f3dd0314c0f7b2291e5b200ac8c7c3b92560405160405180910390a45050565b6000610f1d82610e44565b610f53576040517f08c379a00000000000000000000000000000000000000000000000000000000081526004016104db90612cd5565b6000610f5e836108a5565b90508073ffffffffffffffffffffffffffffffffffffffff168473ffffffffffffffffffffffffffffffffffffffff161480610fcd57508373ffffffffffffffffffffffffffffffffffffffff16610fb58461049a565b73ffffffffffffffffffffffffffffffffffffffff16145b80610d125750610d128185610d83565b8273ffffffffffffffffffffffffffffffffffffffff16610ffd826108a5565b73ffffffffffffffffffffffffffffffffffffffff161461104a576040517f08c379a00000000000000000000000000000000000000000000000000000000081526004016104db90612f3a565b73ffffffffffffffffffffffffffffffffffffffff8216611097576040517f08c379a00000000000000000000000000000000000000000000000000000000081526004016104db90612be4565b6110a28383836116bd565b6110ad600082610e72565b73ffffffffffffffffffffffffffffffffffffffff831660009081526005602052604081208054600192906110e390849061328b565b909155505073ffffffffffffffffffffffffffffffffffffffff8216600090815260056020526040812080546001929061111e908490613222565b909155505060008181526004602052604080822080547fffffffffffffffffffffffff00000000000000000000000000000000000000001673ffffffffffffffffffffffffffffffffffffffff86811691821790925591518493918716917fddf252ad1be2c89b69c2b068fc378daa952ba7f163c4a11628f55a4df523b3ef91a4505050565b6111ad82610665565b6111be816111b9610e6e565b6116c8565b6106088383611507565b6111d0610e6e565b73ffffffffffffffffffffffffffffffffffffffff168173ffffffffffffffffffffffffffffffffffffffff1614611234576040517f08c379a00000000000000000000000000000000000000000000000000000000081526004016104db906131c5565b610dc88282611771565b60006109fb8373ffffffffffffffffffffffffffffffffffffffff8416611839565b61126861089c565b61129e576040517f08c379a00000000000000000000000000000000000000000000000000000000081526004016104db90612af3565b600c80547fffffffffffffffffffffffffffffffffffffffffffffffffffffffffffffff001690557f5db9ee0a495bf2e6ff9c91a7834c1ba4fdd244a5e8aa4e537bd38aeae4b073aa6112ef610e6e565b6040516112fc9190612973565b60405180910390a1565b61130f8161199b565b6000818152600d60205260409020805461132890613303565b15905061080b576000818152600d6020526040812061080b9161259e565b61134e61089c565b15611385576040517f08c379a00000000000000000000000000000000000000000000000000000000081526004016104db90612d32565b600c80547fffffffffffffffffffffffffffffffffffffffffffffffffffffffffffffff001660011790557f62e78cea01bee320cd4e420270b5ea74000d11b0c9f74754ebdbfc544b05a2586112ef610e6e565b60006109fb8383611a74565b6113f0848484610fdd565b6113fc84848484611b00565b610bd9576040517f08c379a00000000000000000000000000000000000000000000000000000000081526004016104db90612b87565b6060600e805461041790613303565b606061144c82610e44565b611482576040517f08c379a00000000000000000000000000000000000000000000000000000000081526004016104db90612f97565b600061148c611432565b905060008151116114ac57604051806020016040528060008152506109fb565b806114b684611c9e565b6040516020016114c79291906128c3565b6040516020818303038152906040529392505050565b600061040082611e1f565b6114f182610665565b6114fd816111b9610e6e565b6106088383611771565b6115118282610a02565b610dc85760008281526020818152604080832073ffffffffffffffffffffffffffffffffffffffff85168452909152902080547fffffffffffffffffffffffffffffffffffffffffffffffffffffffffffffff00166001179055611573610e6e565b73ffffffffffffffffffffffffffffffffffffffff168173ffffffffffffffffffffffffffffffffffffffff16837f2f8788117e7eff1d82e926ec794901d17c78024a50270940304540a733656f0d60405160405180910390a45050565b60006115dd8383611e23565b61161357508154600181810184556000848152602080822090930184905584548482528286019093526040902091909155610712565b506000610712565b60007fffffffff0000000000000000000000000000000000000000000000000000000082167f80ac58cd0000000000000000000000000000000000000000000000000000000014806116ae57507fffffffff0000000000000000000000000000000000000000000000000000000082167f5b5e139f00000000000000000000000000000000000000000000000000000000145b80610400575061040082611e3b565b610608838383611e91565b6116d28282610a02565b610dc8576116f78173ffffffffffffffffffffffffffffffffffffffff166014611edb565b611702836020611edb565b6040516020016117139291906128f2565b604080517fffffffffffffffffffffffffffffffffffffffffffffffffffffffffffffffe0818403018152908290527f08c379a00000000000000000000000000000000000000000000000000000000082526104db916004016129f1565b61177b8282610a02565b15610dc85760008281526020818152604080832073ffffffffffffffffffffffffffffffffffffffff85168452909152902080547fffffffffffffffffffffffffffffffffffffffffffffffffffffffffffffff001690556117db610e6e565b73ffffffffffffffffffffffffffffffffffffffff168173ffffffffffffffffffffffffffffffffffffffff16837ff6391f5c32d9c69d2a47ea670b442974b53935d1edc7fd64eb21e047a839171b60405160405180910390a45050565b6000818152600183016020526040812054801561199157600061185d60018361328b565b85549091506000906118719060019061328b565b905060008660000182815481106118b1577f4e487b7100000000000000000000000000000000000000000000000000000000600052603260045260246000fd5b90600052602060002001549050808760000184815481106118fb577f4e487b7100000000000000000000000000000000000000000000000000000000600052603260045260246000fd5b600091825260208083209091019290925582815260018901909152604090208490558654879080611955577f4e487b7100000000000000000000000000000000000000000000000000000000600052603160045260246000fd5b60019003818190600052602060002001600090559055866001016000878152602001908152602001600020600090556001945050505050610712565b6000915050610712565b60006119a6826108a5565b90506119b4816000846116bd565b6119bf600083610e72565b73ffffffffffffffffffffffffffffffffffffffff811660009081526005602052604081208054600192906119f590849061328b565b909155505060008281526004602052604080822080547fffffffffffffffffffffffff00000000000000000000000000000000000000001690555183919073ffffffffffffffffffffffffffffffffffffffff8416907fddf252ad1be2c89b69c2b068fc378daa952ba7f163c4a11628f55a4df523b3ef908390a45050565b81546000908210611ab1576040517f08c379a00000000000000000000000000000000000000000000000000000000081526004016104db90612a04565b826000018281548110611aed577f4e487b7100000000000000000000000000000000000000000000000000000000600052603260045260246000fd5b9060005260206000200154905092915050565b6000611b218473ffffffffffffffffffffffffffffffffffffffff166121b1565b15611c93578373ffffffffffffffffffffffffffffffffffffffff1663150b7a02611b4a610e6e565b8786866040518563ffffffff1660e01b8152600401611b6c9493929190612994565b602060405180830381600087803b158015611b8657600080fd5b505af1925050508015611bd4575060408051601f3d9081017fffffffffffffffffffffffffffffffffffffffffffffffffffffffffffffffe0168201909252611bd19181019061285d565b60015b611c48573d808015611c02576040519150601f19603f3d011682016040523d82523d6000602084013e611c07565b606091505b508051611c40576040517f08c379a00000000000000000000000000000000000000000000000000000000081526004016104db90612b87565b805181602001fd5b7fffffffff00000000000000000000000000000000000000000000000000000000167f150b7a0200000000000000000000000000000000000000000000000000000000149050610d12565b506001949350505050565b606081611cdf575060408051808201909152600181527f30000000000000000000000000000000000000000000000000000000000000006020820152610403565b8160005b8115611d095780611cf381613357565b9150611d029050600a8361323a565b9150611ce3565b60008167ffffffffffffffff811115611d4b577f4e487b7100000000000000000000000000000000000000000000000000000000600052604160045260246000fd5b6040519080825280601f01601f191660200182016040528015611d75576020820181803683370190505b5090505b8415610d1257611d8a60018361328b565b9150611d97600a86613390565b611da2906030613222565b60f81b818381518110611dde577f4e487b7100000000000000000000000000000000000000000000000000000000600052603260045260246000fd5b60200101907effffffffffffffffffffffffffffffffffffffffffffffffffffffffffffff1916908160001a905350611e18600a8661323a565b9450611d79565b5490565b60009081526001919091016020526040902054151590565b60007fffffffff0000000000000000000000000000000000000000000000000000000082167f5a05180f0000000000000000000000000000000000000000000000000000000014806104005750610400826121b7565b611e9c83838361220d565b611ea461089c565b15610608576040517f08c379a00000000000000000000000000000000000000000000000000000000081526004016104db90612a96565b60606000611eea83600261324e565b611ef5906002613222565b67ffffffffffffffff811115611f34577f4e487b7100000000000000000000000000000000000000000000000000000000600052604160045260246000fd5b6040519080825280601f01601f191660200182016040528015611f5e576020820181803683370190505b5090507f300000000000000000000000000000000000000000000000000000000000000081600081518110611fbc577f4e487b7100000000000000000000000000000000000000000000000000000000600052603260045260246000fd5b60200101907effffffffffffffffffffffffffffffffffffffffffffffffffffffffffffff1916908160001a9053507f780000000000000000000000000000000000000000000000000000000000000081600181518110612046577f4e487b7100000000000000000000000000000000000000000000000000000000600052603260045260246000fd5b60200101907effffffffffffffffffffffffffffffffffffffffffffffffffffffffffffff1916908160001a905350600061208284600261324e565b61208d906001613222565b90505b6001811115612178577f303132333435363738396162636465660000000000000000000000000000000085600f16601081106120f5577f4e487b7100000000000000000000000000000000000000000000000000000000600052603260045260246000fd5b1a60f81b828281518110612132577f4e487b7100000000000000000000000000000000000000000000000000000000600052603260045260246000fd5b60200101907effffffffffffffffffffffffffffffffffffffffffffffffffffffffffffff1916908160001a90535060049490941c93612171816132ce565b9050612090565b5083156109fb576040517f08c379a00000000000000000000000000000000000000000000000000000000081526004016104db90612a61565b3b151590565b60007fffffffff0000000000000000000000000000000000000000000000000000000082167f7965db0b0000000000000000000000000000000000000000000000000000000014806104005750610400826122e4565b612218838383610608565b73ffffffffffffffffffffffffffffffffffffffff83166122415761223c8161232e565b61227e565b8173ffffffffffffffffffffffffffffffffffffffff168373ffffffffffffffffffffffffffffffffffffffff161461227e5761227e8382612372565b73ffffffffffffffffffffffffffffffffffffffff82166122a7576122a281612429565b610608565b8273ffffffffffffffffffffffffffffffffffffffff168273ffffffffffffffffffffffffffffffffffffffff161461060857610608828261254d565b7fffffffff0000000000000000000000000000000000000000000000000000000081167f01ffc9a70000000000000000000000000000000000000000000000000000000014919050565b600a80546000838152600b60205260408120829055600182018355919091527fc65a7bb8d6351c1cf70c95a316cc6a92839c986682d98bc35f958f4883f9d2a80155565b6000600161237f84610901565b612389919061328b565b6000838152600960205260409020549091508082146123e95773ffffffffffffffffffffffffffffffffffffffff841660009081526008602090815260408083208584528252808320548484528184208190558352600990915290208190555b50600091825260096020908152604080842084905573ffffffffffffffffffffffffffffffffffffffff9094168352600881528383209183525290812055565b600a5460009061243b9060019061328b565b6000838152600b6020526040812054600a805493945090928490811061248a577f4e487b7100000000000000000000000000000000000000000000000000000000600052603260045260246000fd5b9060005260206000200154905080600a83815481106124d2577f4e487b7100000000000000000000000000000000000000000000000000000000600052603260045260246000fd5b6000918252602080832090910192909255828152600b9091526040808220849055858252812055600a805480612531577f4e487b7100000000000000000000000000000000000000000000000000000000600052603160045260246000fd5b6001900381819060005260206000200160009055905550505050565b600061255883610901565b73ffffffffffffffffffffffffffffffffffffffff9093166000908152600860209081526040808320868452825280832085905593825260099052919091209190915550565b5080546125aa90613303565b6000825580601f106125bc575061080b565b601f01602090049060005260206000209081019061080b91905b808211156125ea57600081556001016125d6565b5090565b803573ffffffffffffffffffffffffffffffffffffffff8116811461040357600080fd5b600060208284031215612623578081fd5b6109fb826125ee565b6000806040838503121561263e578081fd5b612647836125ee565b9150612655602084016125ee565b90509250929050565b600080600060608486031215612672578081fd5b61267b846125ee565b9250612689602085016125ee565b9150604084013590509250925092565b600080600080608085870312156126ae578081fd5b6126b7856125ee565b935060206126c68187016125ee565b935060408601359250606086013567ffffffffffffffff808211156126e9578384fd5b818801915088601f8301126126fc578384fd5b81358181111561270e5761270e613402565b604051847fffffffffffffffffffffffffffffffffffffffffffffffffffffffffffffffe0601f840116820101818110848211171561274f5761274f613402565b60405281815283820185018b1015612765578586fd5b81858501868301379081019093019390935250939692955090935050565b60008060408385031215612795578182fd5b61279e836125ee565b9150602083013580151581146127b2578182fd5b809150509250929050565b600080604083850312156127cf578182fd5b6127d8836125ee565b946020939093013593505050565b6000602082840312156127f7578081fd5b5035919050565b60008060408385031215612810578182fd5b82359150612655602084016125ee565b60008060408385031215612832578182fd5b50508035926020909101359150565b600060208284031215612852578081fd5b81356109fb81613431565b60006020828403121561286e578081fd5b81516109fb81613431565b600081518084526128918160208601602086016132a2565b601f017fffffffffffffffffffffffffffffffffffffffffffffffffffffffffffffffe0169290920160200192915050565b600083516128d58184602088016132a2565b8351908301906128e98183602088016132a2565b01949350505050565b60007f416363657373436f6e74726f6c3a206163636f756e74200000000000000000008252835161292a8160178501602088016132a2565b7f206973206d697373696e6720726f6c652000000000000000000000000000000060179184019182015283516129678160288401602088016132a2565b01602801949350505050565b73ffffffffffffffffffffffffffffffffffffffff91909116815260200190565b600073ffffffffffffffffffffffffffffffffffffffff8087168352808616602084015250836040830152608060608301526129d36080830184612879565b9695505050505050565b901515815260200190565b90815260200190565b6000602082526109fb6020830184612879565b60208082526022908201527f456e756d657261626c655365743a20696e646578206f7574206f6620626f756e60408201527f6473000000000000000000000000000000000000000000000000000000000000606082015260800190565b6020808252818101527f537472696e67733a20686578206c656e67746820696e73756666696369656e74604082015260600190565b6020808252602b908201527f4552433732315061757361626c653a20746f6b656e207472616e73666572207760408201527f68696c6520706175736564000000000000000000000000000000000000000000606082015260800190565b60208082526014908201527f5061757361626c653a206e6f7420706175736564000000000000000000000000604082015260600190565b6020808252602b908201527f455243373231456e756d657261626c653a206f776e657220696e646578206f7560408201527f74206f6620626f756e6473000000000000000000000000000000000000000000606082015260800190565b60208082526032908201527f4552433732313a207472616e7366657220746f206e6f6e20455243373231526560408201527f63656976657220696d706c656d656e7465720000000000000000000000000000606082015260800190565b60208082526024908201527f4552433732313a207472616e7366657220746f20746865207a65726f2061646460408201527f7265737300000000000000000000000000000000000000000000000000000000606082015260800190565b60208082526019908201527f4552433732313a20617070726f766520746f2063616c6c657200000000000000604082015260600190565b60208082526032908201527f4552433732314d696e7465725061757365723a206d757374206861766520706160408201527f7573657220726f6c6520746f2070617573650000000000000000000000000000606082015260800190565b6020808252602c908201527f4552433732313a206f70657261746f7220717565727920666f72206e6f6e657860408201527f697374656e7420746f6b656e0000000000000000000000000000000000000000606082015260800190565b60208082526010908201527f5061757361626c653a2070617573656400000000000000000000000000000000604082015260600190565b60208082526038908201527f4552433732313a20617070726f76652063616c6c6572206973206e6f74206f7760408201527f6e6572206e6f7220617070726f76656420666f7220616c6c0000000000000000606082015260800190565b6020808252602a908201527f4552433732313a2062616c616e636520717565727920666f7220746865207a6560408201527f726f206164647265737300000000000000000000000000000000000000000000606082015260800190565b60208082526029908201527f4552433732313a206f776e657220717565727920666f72206e6f6e657869737460408201527f656e7420746f6b656e0000000000000000000000000000000000000000000000606082015260800190565b60208082526031908201527f45524337323155524953746f726167653a2055524920717565727920666f722060408201527f6e6f6e6578697374656e7420746f6b656e000000000000000000000000000000606082015260800190565b6020808252602c908201527f4552433732313a20617070726f76656420717565727920666f72206e6f6e657860408201527f697374656e7420746f6b656e0000000000000000000000000000000000000000606082015260800190565b60208082526029908201527f4552433732313a207472616e73666572206f6620746f6b656e2074686174206960408201527f73206e6f74206f776e0000000000000000000000000000000000000000000000606082015260800190565b6020808252602f908201527f4552433732314d657461646174613a2055524920717565727920666f72206e6f60408201527f6e6578697374656e7420746f6b656e0000000000000000000000000000000000606082015260800190565b60208082526021908201527f4552433732313a20617070726f76616c20746f2063757272656e74206f776e6560408201527f7200000000000000000000000000000000000000000000000000000000000000606082015260800190565b60208082526031908201527f4552433732313a207472616e736665722063616c6c6572206973206e6f74206f60408201527f776e6572206e6f7220617070726f766564000000000000000000000000000000606082015260800190565b6020808252602c908201527f455243373231456e756d657261626c653a20676c6f62616c20696e646578206f60408201527f7574206f6620626f756e64730000000000000000000000000000000000000000606082015260800190565b60208082526034908201527f4552433732314d696e7465725061757365723a206d757374206861766520706160408201527f7573657220726f6c6520746f20756e7061757365000000000000000000000000606082015260800190565b60208082526030908201527f4552433732314275726e61626c653a2063616c6c6572206973206e6f74206f7760408201527f6e6572206e6f7220617070726f76656400000000000000000000000000000000606082015260800190565b6020808252602f908201527f416363657373436f6e74726f6c3a2063616e206f6e6c792072656e6f756e636560408201527f20726f6c657320666f722073656c660000000000000000000000000000000000606082015260800190565b60008219821115613235576132356133a4565b500190565b600082613249576132496133d3565b500490565b6000817fffffffffffffffffffffffffffffffffffffffffffffffffffffffffffffffff0483118215151615613286576132866133a4565b500290565b60008282101561329d5761329d6133a4565b500390565b60005b838110156132bd5781810151838201526020016132a5565b83811115610bd95750506000910152565b6000816132dd576132dd6133a4565b507fffffffffffffffffffffffffffffffffffffffffffffffffffffffffffffffff0190565b60028104600182168061331757607f821691505b60208210811415613351577f4e487b7100000000000000000000000000000000000000000000000000000000600052602260045260246000fd5b50919050565b60007fffffffffffffffffffffffffffffffffffffffffffffffffffffffffffffffff821415613389576133896133a4565b5060010190565b60008261339f5761339f6133d3565b500690565b7f4e487b7100000000000000000000000000000000000000000000000000000000600052601160045260246000fd5b7f4e487b7100000000000000000000000000000000000000000000000000000000600052601260045260246000fd5b7f4e487b7100000000000000000000000000000000000000000000000000000000600052604160045260246000fd5b7fffffffff000000000000000000000000000000000000000000000000000000008116811461080b57600080fdfea2646970667358221220be6146e7887ae9b6dc422091b8412a1aa6de75b986363ed661744fdcfb2a824a64736f6c63430008000033",
  "immutableReferences": {},
  "source": "// SPDX-License-Identifier: MIT\n\npragma solidity ^0.8.0;\n\nimport \"@openzeppelin/contracts/token/ERC721/ERC721.sol\";\nimport \"@openzeppelin/contracts/token/ERC721/extensions/ERC721Enumerable.sol\";\nimport \"@openzeppelin/contracts/token/ERC721//extensions/ERC721Burnable.sol\";\nimport \"@openzeppelin/contracts/token/ERC721//extensions/ERC721Pausable.sol\";\nimport \"@openzeppelin/contracts/access/AccessControlEnumerable.sol\";\n\n/**\n * @dev {ERC721} token, including:\n *\n *  - ability for holders to burn (destroy) their tokens\n *  - a minter role that allows for token minting (creation)\n *  - a pauser role that allows to stop all token transfers\n *  - token ID and URI autogeneration\n *\n * This contract uses {AccessControl} to lock permissioned functions using the\n * different roles - head to its documentation for details.\n *\n * The account that deploys the contract will be granted the minter and pauser\n * roles, as well as the default admin role, which will let it grant both minter\n * and pauser roles to other accounts.\n */\ncontract ERC721MinterPauser is Context, AccessControlEnumerable, ERC721Enumerable, ERC721Burnable, ERC721Pausable {\n     using Strings for uint256;\n\n    bytes32 public constant MINTER_ROLE = keccak256(\"MINTER_ROLE\");\n    bytes32 public constant PAUSER_ROLE = keccak256(\"PAUSER_ROLE\");\n\n \n\n    // Optional mapping for token URIs\n    mapping (uint256 => string) private _tokenURIs;\n    string private _baseTokenURI;\n\n\n    /**\n     * @dev Grants `DEFAULT_ADMIN_ROLE`, `MINTER_ROLE` and `PAUSER_ROLE` to the\n     * account that deploys the contract.\n     *\n     * Token URIs will be autogenerated based on `baseURI` and their token IDs.\n     * See {ERC721-tokenURI}.\n     */\n    constructor(string memory name, string memory symbol, string memory baseTokenURI) ERC721(name, symbol) {\n        _baseTokenURI = baseTokenURI;\n\n        _setupRole(DEFAULT_ADMIN_ROLE, _msgSender());\n\n        _setupRole(MINTER_ROLE, _msgSender());\n        _setupRole(PAUSER_ROLE, _msgSender());\n    }\n\n    function _baseURI() internal view virtual override returns (string memory) {\n        return _baseTokenURI;\n    }\n\n    /**\n     * @dev Pauses all token transfers.\n     *\n     * See {ERC721Pausable} and {Pausable-_pause}.\n     *\n     * Requirements:\n     *\n     * - the caller must have the `PAUSER_ROLE`.\n     */\n    function pause() public virtual {\n        require(hasRole(PAUSER_ROLE, _msgSender()), \"ERC721MinterPauser: must have pauser role to pause\");\n        _pause();\n    }\n\n    /**\n     * @dev Unpauses all token transfers.\n     *\n     * See {ERC721Pausable} and {Pausable-_unpause}.\n     *\n     * Requirements:\n     *\n     * - the caller must have the `PAUSER_ROLE`.\n     */\n    function unpause() public virtual {\n        require(hasRole(PAUSER_ROLE, _msgSender()), \"ERC721MinterPauser: must have pauser role to unpause\");\n        _unpause();\n    }\n\n    function _beforeTokenTransfer(address from, address to, uint256 tokenId) internal virtual override(ERC721, ERC721Enumerable, ERC721Pausable) {\n        super._beforeTokenTransfer(from, to, tokenId);\n    }\n\n    /**\n     * @dev See {IERC165-supportsInterface}.\n     */\n    function supportsInterface(bytes4 interfaceId) public view virtual override(AccessControlEnumerable, ERC721, ERC721Enumerable) returns (bool) {\n        return super.supportsInterface(interfaceId);\n    }\n\n\n\n    /**\n     * @dev See {IERC721Metadata-tokenURI}.\n     */\n    function tokenURI(uint256 tokenId) public view virtual override returns (string memory) {\n        require(_exists(tokenId), \"ERC721URIStorage: URI query for nonexistent token\");\n\n        string memory _tokenURI = _tokenURIs[tokenId];\n        string memory base = _baseURI();\n\n        // If there is no base URI, return the token URI.\n        if (bytes(base).length == 0) {\n            return _tokenURI;\n        }\n        // If both are set, concatenate the baseURI and tokenURI (via abi.encodePacked).\n        if (bytes(_tokenURI).length > 0) {\n            return string(abi.encodePacked(base, _tokenURI));\n        }\n\n        return super.tokenURI(tokenId);\n    }\n\n    /**\n     * @dev Sets `_tokenURI` as the tokenURI of `tokenId`.\n     *\n     * Requirements:\n     *\n     * - `tokenId` must exist.\n     */\n    function _setTokenURI(uint256 tokenId, string memory _tokenURI) internal virtual {\n        require(_exists(tokenId), \"ERC721URIStorage: URI set of nonexistent token\");\n        _tokenURIs[tokenId] = _tokenURI;\n    }\n\n    /**\n     * @dev Destroys `tokenId`.\n     * The approval is cleared when the token is burned.\n     *\n     * Requirements:\n     *\n     * - `tokenId` must exist.\n     *\n     * Emits a {Transfer} event.\n     */\n    function _burn(uint256 tokenId) internal virtual override {\n        super._burn(tokenId);\n\n        if (bytes(_tokenURIs[tokenId]).length != 0) {\n            delete _tokenURIs[tokenId];\n        }\n    }\n}\n",
  "sourcePath": "/home/yehia/Documents/startups/Startfi/projects/startfi/startfi-core/contracts/ERC721MinterPauser.sol",
  "compiler": {
    "name": "solc",
    "version": "0.8.0+commit.c7dfd78e.Emscripten.clang"
  },
  "schemaVersion": "3.4.1",
  "updatedAt": "2021-06-13T12:10:06.130Z",
  "devdoc": {
    "details": "{ERC721} token, including:  - ability for holders to burn (destroy) their tokens  - a minter role that allows for token minting (creation)  - a pauser role that allows to stop all token transfers  - token ID and URI autogeneration This contract uses {AccessControl} to lock permissioned functions using the different roles - head to its documentation for details. The account that deploys the contract will be granted the minter and pauser roles, as well as the default admin role, which will let it grant both minter and pauser roles to other accounts.",
    "kind": "dev",
    "methods": {
      "approve(address,uint256)": {
        "details": "See {IERC721-approve}."
      },
      "balanceOf(address)": {
        "details": "See {IERC721-balanceOf}."
      },
      "burn(uint256)": {
        "details": "Burns `tokenId`. See {ERC721-_burn}. Requirements: - The caller must own `tokenId` or be an approved operator."
      },
      "constructor": {
        "details": "Grants `DEFAULT_ADMIN_ROLE`, `MINTER_ROLE` and `PAUSER_ROLE` to the account that deploys the contract. Token URIs will be autogenerated based on `baseURI` and their token IDs. See {ERC721-tokenURI}."
      },
      "getApproved(uint256)": {
        "details": "See {IERC721-getApproved}."
      },
      "getRoleAdmin(bytes32)": {
        "details": "Returns the admin role that controls `role`. See {grantRole} and {revokeRole}. To change a role's admin, use {_setRoleAdmin}."
      },
      "getRoleMember(bytes32,uint256)": {
        "details": "Returns one of the accounts that have `role`. `index` must be a value between 0 and {getRoleMemberCount}, non-inclusive. Role bearers are not sorted in any particular way, and their ordering may change at any point. WARNING: When using {getRoleMember} and {getRoleMemberCount}, make sure you perform all queries on the same block. See the following https://forum.openzeppelin.com/t/iterating-over-elements-on-enumerableset-in-openzeppelin-contracts/2296[forum post] for more information."
      },
      "getRoleMemberCount(bytes32)": {
        "details": "Returns the number of accounts that have `role`. Can be used together with {getRoleMember} to enumerate all bearers of a role."
      },
      "grantRole(bytes32,address)": {
        "details": "Overload {grantRole} to track enumerable memberships"
      },
      "hasRole(bytes32,address)": {
        "details": "Returns `true` if `account` has been granted `role`."
      },
      "isApprovedForAll(address,address)": {
        "details": "See {IERC721-isApprovedForAll}."
      },
      "name()": {
        "details": "See {IERC721Metadata-name}."
      },
      "ownerOf(uint256)": {
        "details": "See {IERC721-ownerOf}."
      },
      "pause()": {
        "details": "Pauses all token transfers. See {ERC721Pausable} and {Pausable-_pause}. Requirements: - the caller must have the `PAUSER_ROLE`."
      },
      "paused()": {
        "details": "Returns true if the contract is paused, and false otherwise."
      },
      "renounceRole(bytes32,address)": {
        "details": "Overload {renounceRole} to track enumerable memberships"
      },
      "revokeRole(bytes32,address)": {
        "details": "Overload {revokeRole} to track enumerable memberships"
      },
      "safeTransferFrom(address,address,uint256)": {
        "details": "See {IERC721-safeTransferFrom}."
      },
      "safeTransferFrom(address,address,uint256,bytes)": {
        "details": "See {IERC721-safeTransferFrom}."
      },
      "setApprovalForAll(address,bool)": {
        "details": "See {IERC721-setApprovalForAll}."
      },
      "supportsInterface(bytes4)": {
        "details": "See {IERC165-supportsInterface}."
      },
      "symbol()": {
        "details": "See {IERC721Metadata-symbol}."
      },
      "tokenByIndex(uint256)": {
        "details": "See {IERC721Enumerable-tokenByIndex}."
      },
      "tokenOfOwnerByIndex(address,uint256)": {
        "details": "See {IERC721Enumerable-tokenOfOwnerByIndex}."
      },
      "tokenURI(uint256)": {
        "details": "See {IERC721Metadata-tokenURI}."
      },
      "totalSupply()": {
        "details": "See {IERC721Enumerable-totalSupply}."
      },
      "transferFrom(address,address,uint256)": {
        "details": "See {IERC721-transferFrom}."
      },
      "unpause()": {
        "details": "Unpauses all token transfers. See {ERC721Pausable} and {Pausable-_unpause}. Requirements: - the caller must have the `PAUSER_ROLE`."
      }
    },
    "version": 1
  },
  "userdoc": {
    "kind": "user",
    "methods": {},
    "version": 1
  }
}