{
  "_format": "hh-sol-artifact-1",
  "contractName": "ERC721Royalty",
  "sourceName": "contracts/ERC721Royalty.sol",
  "abi": [
    {
      "inputs": [
        {
          "internalType": "uint256",
          "name": "_tokenId",
          "type": "uint256"
        },
        {
          "internalType": "uint256",
          "name": "_value",
          "type": "uint256"
        }
      ],
      "name": "royaltyInfo",
      "outputs": [
        {
          "internalType": "address",
          "name": "issuer",
          "type": "address"
        },
        {
          "internalType": "uint256",
          "name": "_royaltyAmount",
          "type": "uint256"
        }
      ],
      "stateMutability": "view",
      "type": "function"
    },
    {
      "inputs": [],
      "name": "supportsRoyalty",
      "outputs": [
        {
          "internalType": "bytes4",
          "name": "interfaceId",
          "type": "bytes4"
        }
      ],
      "stateMutability": "pure",
      "type": "function"
    }
  ],
  "bytecode": "0x608060405234801561001057600080fd5b50610203806100206000396000f3fe608060405234801561001057600080fd5b50600436106100365760003560e01c80632a55205a1461003b5780633088ac3e14610065575b600080fd5b61004e610049366004610133565b61007a565b60405161005c929190610154565b60405180910390f35b61006d610109565b60405161005c919061016d565b6000828152602081905260408120546001600160a01b03169081156101025760008481526001602090815260408083206001600160a01b038616845282529182902082518084019093525460ff8082168452610100909104169082018190526100fe906100e8906064610114565b82516100f890879060ff16610114565b90610127565b9150505b9250929050565b63152a902d60e11b90565b600061012082846101a2565b9392505050565b60006101208284610182565b60008060408385031215610145578182fd5b50508035926020909101359150565b6001600160a01b03929092168252602082015260400190565b6001600160e01b031991909116815260200190565b60008261019d57634e487b7160e01b81526012600452602481fd5b500490565b60008160001904831182151516156101c857634e487b7160e01b81526011600452602481fd5b50029056fea2646970667358221220b10e12517642a1e96e8c26d943f0a20faee570c47012ff419e61823f68a2dd4b64736f6c63430008000033",
  "linkReferences": {},
  "deployedLinkReferences": {}
}