{
  "contractName": "ERC721Royalty",
  "abi": [
    {
      "inputs": [
        {
          "internalType": "uint256",
          "name": "_tokenId",
          "type": "uint256"
        },
        {
          "internalType": "uint256",
          "name": "_value",
          "type": "uint256"
        }
      ],
      "name": "royaltyInfo",
      "outputs": [
        {
          "internalType": "address",
          "name": "issuer",
          "type": "address"
        },
        {
          "internalType": "uint256",
          "name": "_royaltyAmount",
          "type": "uint256"
        }
      ],
      "stateMutability": "view",
      "type": "function"
    },
    {
      "inputs": [],
      "name": "supportsRoyalty",
      "outputs": [
        {
          "internalType": "bytes4",
          "name": "interfaceId",
          "type": "bytes4"
        }
      ],
      "stateMutability": "view",
      "type": "function"
    }
  ],
  "bytecode": "0x608060405234801561001057600080fd5b506102a2806100206000396000f3fe608060405234801561001057600080fd5b50600436106100365760003560e01c80632a55205a1461003b5780633088ac3e14610065575b600080fd5b61004e61004936600461015d565b61007a565b60405161005c92919061017e565b60405180910390f35b61006d61011a565b60405161005c91906101a4565b60008281526020819052604081205473ffffffffffffffffffffffffffffffffffffffff1690811561011357600084815260016020908152604080832073ffffffffffffffffffffffffffffffffffffffff8616845282529182902082518084019093525460ff8082168085526101009092041691830182905261010f9190610109906064908290899061013e565b90610151565b9150505b9250929050565b7f2a55205a0000000000000000000000000000000000000000000000000000000090565b600061014a828461020a565b9392505050565b600061014a82846101d1565b6000806040838503121561016f578182fd5b50508035926020909101359150565b73ffffffffffffffffffffffffffffffffffffffff929092168252602082015260400190565b7fffffffff0000000000000000000000000000000000000000000000000000000091909116815260200190565b600082610205577f4e487b710000000000000000000000000000000000000000000000000000000081526012600452602481fd5b500490565b6000817fffffffffffffffffffffffffffffffffffffffffffffffffffffffffffffffff0483118215151615610267577f4e487b710000000000000000000000000000000000000000000000000000000081526011600452602481fd5b50029056fea2646970667358221220203e2a6051798c4854ce11a107ad66c4b4fde5ebd88473e9236fea8bf94699cf64736f6c63430008000033",
  "immutableReferences": {},
  "source": "// SPDX-License-Identifier: AGPL-3.0-or-later\n\npragma solidity >=0.8.0;\nimport \"@openzeppelin/contracts/utils/math/SafeMath.sol\";\nimport \"./interface/IERC721Royalty.sol\";\n\ncontract ERC721Royalty is IERC721Royalty {\n    using SafeMath for uint256;\n    mapping (uint256 => address) internal _issuer;\n    mapping (uint256 => mapping (address=>Base) ) internal _issuerPercentage;\n \n // 3.5 is 35 share and 10 base \n   struct Base{\n        uint8 share;\n        uint8 sharebase;\n    }\n  \n   \n    function _supportRoyalty( uint256 _tokenId,address issuer, uint8 share,uint8 base) internal {\n        _issuer[_tokenId]=issuer;\n        _issuerPercentage[_tokenId][issuer]= Base(share,base);\n    }\nfunction royaltyInfo(uint256 _tokenId, uint256 _value) external view  override returns (address issuer, uint256 _royaltyAmount){\n     issuer = _issuer[_tokenId];\n    if(issuer!=address(0)){\n     Base memory _base=_issuerPercentage[_tokenId][issuer];\n        _royaltyAmount = _value.mul(uint256 (_base.share)).div(100).div(uint256(_base.sharebase));\n    }\n}\n// 0x2a55205a\n    function supportsRoyalty() public view  returns (bytes4 interfaceId) {\n        return  type(IERC721Royalty).interfaceId;\n    }\n\n}\n",
  "sourcePath": "/home/yehia/Documents/startups/Startfi/projects/startfi/startfi-core/contracts/ERC721Royalty.sol",
  "compiler": {
    "name": "solc",
    "version": "0.8.0+commit.c7dfd78e.Emscripten.clang"
  },
  "schemaVersion": "3.4.1",
  "updatedAt": "2021-06-13T10:18:13.639Z",
  "devdoc": {
    "kind": "dev",
    "methods": {},
    "version": 1
  },
  "userdoc": {
    "kind": "user",
    "methods": {},
    "version": 1
  }
}