{
  "contractName": "MarketPlaceListing",
  "abi": [
    {
      "inputs": [],
      "stateMutability": "nonpayable",
      "type": "constructor"
    },
    {
      "inputs": [],
      "name": "delistAfter",
      "outputs": [
        {
          "internalType": "uint256",
          "name": "",
          "type": "uint256"
        }
      ],
      "stateMutability": "view",
      "type": "function"
    }
  ],
  "bytecode": "0x608060405262ed4e00600055348015601657600080fd5b50608c806100256000396000f3fe6080604052348015600f57600080fd5b506004361060285760003560e01c80630a42e75a14602d575b600080fd5b60336047565b604051603e9190604d565b60405180910390f35b60005481565b9081526020019056fea264697066735822122014a59118d5fd7b991ea349210d2894a9948ad22d396962aa9b40cebe46afa8a664736f6c63430008000033",
  "immutableReferences": {},
  "source": "// SPDX-License-Identifier: AGPL-3.0-or-later\n\npragma solidity >=0.8.0;\npragma abicoder v2;\n\n/**\n * @author Eman Herawy StartFi Team\n *@title  marketplace  Listing contract\n * \n */\ncontract MarketPlaceListing  {\n  // all fees are in perentage \n\n      // delist after 6 month\n      uint256 public delistAfter= 6*30 days;\n    constructor(\n     \n    )  {\n      \n    }\n    // using Address for address;\n    // using EnumerableSet for EnumerableSet.UintSet;\n    // using EnumerableSet for EnumerableSet.AddressSet;\n  struct Listing {\n        address nftAddress;\n        uint256 tokenId;\n        uint256 listingPrice;\n        uint256 endPrice;\n        address seller;\n        address buyer;\n        bool bedEnabeled;\n        bool sellForEnabled;\n        // only if bed and sell for enabled \n        uint256 releaseTime;\n        uint256 qualifyAmount;\n        uint256 sellFor;\n        ListingStatus status ;\n    }\n    enum ListingStatus {Sold,OnMarket, onAuction,Canceled }\n    // listing key  to lisitng details \n   mapping(bytes32=>Listing) internal _tokenListings;\n  // track the Listinger total amount of Listings\n  // mapping (address=>uint256) private userTotalListings;\n\n// list \nfunction _listOnMarketPlace( \n        bytes32 listId,\n        address nftAddress,\n        address buyer,\n        uint256 tokenId,\n        uint256 listingPrice,\n        uint256 releaseTime,\n         uint256 qualifyAmount\n        ) internal returns (bool)\n        {\n  \n              _tokenListings[listId]=Listing(nftAddress,tokenId,listingPrice,0,address(0),buyer,\n              false,false,releaseTime,qualifyAmount,0,ListingStatus.OnMarket);\n              return true;\n        }\n// delist \nfunction _creatAuction( \n        bytes32 listId,\n        address nftAddress,\n        address buyer,\n        uint256 tokenId,\n        uint256 listingPrice,     \n        bool sellForEnabled,\n        uint256 sellFor,\n        uint256 releaseTime,\n        uint256 qualifyAmount\n        ) internal returns (bool)\n        {\n  \n              _tokenListings[listId]=Listing(nftAddress,tokenId,listingPrice,0,address(0),buyer,\n              true,sellForEnabled,releaseTime,qualifyAmount,sellFor,ListingStatus.onAuction);\n              return true;\n        }\n        function _finalizeListing(  bytes32 listId,address seller, ListingStatus status) internal  {\n          _tokenListings[listId].status=status;\n          if(seller!=address(0)){\n             _tokenListings[listId].seller=seller;\n          }\n          \n        }\nfunction _deList(bytes32 listingId) internal {\n  _tokenListings[listingId].status=ListingStatus.Canceled;\n}\n\nfunction _changeDelistAfter(uint256 duration) internal {\n delistAfter =duration;\n}\n\n}  \n\n   \n",
  "sourcePath": "/home/yehia/Documents/startups/Startfi/projects/startfi/startfi-core/contracts/MarketPlaceListing.sol",
  "compiler": {
    "name": "solc",
    "version": "0.8.0+commit.c7dfd78e.Emscripten.clang"
  },
  "schemaVersion": "3.4.1",
  "updatedAt": "2021-06-27T14:02:20.543Z",
  "devdoc": {
    "author": "Eman Herawy StartFi Team",
    "kind": "dev",
    "methods": {},
    "title": "marketplace  Listing contract ",
    "version": 1
  },
  "userdoc": {
    "kind": "user",
    "methods": {},
    "version": 1
  }
}