{
  "contractName": "MarketPlaceBase",
  "abi": [
    {
      "inputs": [
        {
          "internalType": "string",
          "name": "_name",
          "type": "string"
        }
      ],
      "stateMutability": "nonpayable",
      "type": "constructor"
    },
    {
      "inputs": [
        {
          "internalType": "address",
          "name": "",
          "type": "address"
        },
        {
          "internalType": "address",
          "name": "",
          "type": "address"
        },
        {
          "internalType": "uint256",
          "name": "",
          "type": "uint256"
        },
        {
          "internalType": "bytes",
          "name": "",
          "type": "bytes"
        }
      ],
      "name": "onERC721Received",
      "outputs": [
        {
          "internalType": "bytes4",
          "name": "",
          "type": "bytes4"
        }
      ],
      "stateMutability": "nonpayable",
      "type": "function"
    },
    {
      "inputs": [],
      "name": "marketPlaceName",
      "outputs": [
        {
          "internalType": "string",
          "name": "",
          "type": "string"
        }
      ],
      "stateMutability": "view",
      "type": "function"
    }
  ],
  "bytecode": "0x60806040526001805463ffffffff1916632a55205a17905534801561002357600080fd5b506040516105b53803806105b5833981016040819052610042916100f5565b805161005590600090602084019061005c565b5050610208565b828054610068906101b7565b90600052602060002090601f01602090048101928261008a57600085556100d0565b82601f106100a357805160ff19168380011785556100d0565b828001600101855582156100d0579182015b828111156100d05782518255916020019190600101906100b5565b506100dc9291506100e0565b5090565b5b808211156100dc57600081556001016100e1565b60006020808385031215610107578182fd5b82516001600160401b038082111561011d578384fd5b818501915085601f830112610130578384fd5b815181811115610142576101426101f2565b604051601f8201601f1916810185018381118282101715610165576101656101f2565b604052818152838201850188101561017b578586fd5b8592505b8183101561019c578383018501518184018601529184019161017f565b818311156101ac57858583830101525b979650505050505050565b6002810460018216806101cb57607f821691505b602082108114156101ec57634e487b7160e01b600052602260045260246000fd5b50919050565b634e487b7160e01b600052604160045260246000fd5b61039e806102176000396000f3fe608060405234801561001057600080fd5b50600436106100365760003560e01c8063150b7a021461003b5780638ef291e914610064575b600080fd5b61004e61004936600461015d565b610079565b60405161005b9190610247565b60405180910390f35b61006c6100a2565b60405161005b9190610274565b7f150b7a0200000000000000000000000000000000000000000000000000000000949350505050565b6060600080546100b1906102e5565b80601f01602080910402602001604051908101604052809291908181526020018280546100dd906102e5565b801561012a5780601f106100ff5761010080835404028352916020019161012a565b820191906000526020600020905b81548152906001019060200180831161010d57829003601f168201915b5050505050905090565b803573ffffffffffffffffffffffffffffffffffffffff8116811461015857600080fd5b919050565b60008060008060808587031215610172578384fd5b61017b85610134565b9350602061018a818701610134565b935060408601359250606086013567ffffffffffffffff808211156101ad578384fd5b818801915088601f8301126101c0578384fd5b8135818111156101d2576101d2610339565b604051847fffffffffffffffffffffffffffffffffffffffffffffffffffffffffffffffe0601f840116820101818110848211171561021357610213610339565b60405281815283820185018b1015610229578586fd5b81858501868301379081019093019390935250939692955090935050565b7fffffffff0000000000000000000000000000000000000000000000000000000091909116815260200190565b6000602080835283518082850152825b818110156102a057858101830151858201604001528201610284565b818111156102b15783604083870101525b50601f017fffffffffffffffffffffffffffffffffffffffffffffffffffffffffffffffe016929092016040019392505050565b6002810460018216806102f957607f821691505b60208210811415610333577f4e487b7100000000000000000000000000000000000000000000000000000000600052602260045260246000fd5b50919050565b7f4e487b7100000000000000000000000000000000000000000000000000000000600052604160045260246000fdfea26469706673582212201a29da865fefe18ee1533c6adcd9f963dd205a9244366c26bc6bfa498968962764736f6c63430008000033",
  "immutableReferences": {},
  "source": "// SPDX-License-Identifier: AGPL-3.0-or-later\n\npragma solidity >=0.8.0;\npragma abicoder v2;\n\nimport \"@openzeppelin/contracts/token/ERC721/utils/ERC721Holder.sol\";\nimport \"@openzeppelin/contracts/token/ERC721/IERC721.sol\";\nimport \"./interface/IERC721Royalty.sol\";\n\n/**\n * @author Eman Herawy StartFi Team\n *@title base cmarket place contract\n * Note: This marketplace contract is collection based. It serves one ERC721 contract only\n * Payment tokens usually is the chain native coin's wrapped token, e.g. WETH, WBNB\n */\ncontract MarketPlaceBase is  ERC721Holder {\n    /******************************************* decalrations go here ********************************************************* */\n\n    string private _marketPlaceName;\n    bytes4   RORALTY_INTERFACE= 0x2a55205a;\n /******************************************* constructor goes here ********************************************************* */\n\n    constructor(\n        string memory _name \n    )  {\n        _marketPlaceName = _name;\n       \n         \n    }\n\n /******************************************* read state functions go here ********************************************************* */\n function _supportRoyalty(address contractAddress) view internal  returns (bool) {\n       try IERC721(contractAddress).supportsInterface(RORALTY_INTERFACE) returns (bool isRoyaltySupported) {\n            return isRoyaltySupported;\n        } catch {\n            return false;\n        }\n }\n function _getRoyaltyInfo(address contractAddress, uint256 _tokenId, uint256 _value) view internal  returns (address issuer, uint256 _royaltyAmount) {\n       (issuer, _royaltyAmount) =IERC721Royalty(contractAddress).royaltyInfo( _tokenId,   _value) ;\n }\n    /**\n     * @return market place name\n     */\n    function marketPlaceName() external view returns (string memory) {\n        return _marketPlaceName;\n    }\n    /**\n     * @dev check if the account is the owner of this erc721 token\n     */\n    function tokenOwner(address contractAddress, uint256 tokenId) internal view returns (address) {\n       return IERC721(contractAddress).ownerOf(tokenId) ;\n    }\n\n    /**\n     * @dev check if this contract has approved to transfer this erc721 token\n     */\n    function _isTokenApproved(address contractAddress, uint256 tokenId) internal view returns (bool) {\n        try IERC721(contractAddress).getApproved(tokenId) returns (address tokenOperator) {\n            return tokenOperator == address(this);\n        } catch {\n            return false;\n        }\n      \n    }\n\n    /**\n     * @dev check if this contract has approved to all of this owner's erc721 tokens\n     */\n    function _isAllTokenApproved(address contractAddress,address owner) internal view returns (bool) {\n        return IERC721(contractAddress).isApprovedForAll(owner, address(this));\n    }  \n\n      /******************************************* state functions go here ********************************************************* */\n\n      /// @param _name  the new name to be stored \n     function _changeMarketPlaceName(string memory _name)internal {\n      _marketPlaceName=_name;  \n     }\n  \n    \n    function _safeNFTTransfer(address contractAddress, uint256 tokenId, address from, address to) internal returns (bool) {\n       IERC721(contractAddress). safeTransferFrom( from,  to,  tokenId);\n       return true;\n    }\n\n\n\n}  \n\n   \n",
  "sourcePath": "/home/yehia/Documents/startups/Startfi/projects/startfi/startfi-core/contracts/MarketPlaceBase.sol",
  "compiler": {
    "name": "solc",
    "version": "0.8.0+commit.c7dfd78e.Emscripten.clang"
  },
  "schemaVersion": "3.4.1",
  "updatedAt": "2021-06-27T14:02:20.536Z",
  "devdoc": {
    "author": "Eman Herawy StartFi Team",
    "kind": "dev",
    "methods": {
      "marketPlaceName()": {
        "returns": {
          "_0": "market place name"
        }
      },
      "onERC721Received(address,address,uint256,bytes)": {
        "details": "See {IERC721Receiver-onERC721Received}. Always returns `IERC721Receiver.onERC721Received.selector`."
      }
    },
    "title": "base cmarket place contract Note: This marketplace contract is collection based. It serves one ERC721 contract only Payment tokens usually is the chain native coin's wrapped token, e.g. WETH, WBNB",
    "version": 1
  },
  "userdoc": {
    "kind": "user",
    "methods": {},
    "version": 1
  }
}