{
  "_format": "hh-sol-artifact-1",
  "contractName": "MarketPlaceListing",
  "sourceName": "contracts/MarketPlaceListing.sol",
  "abi": [
    {
      "inputs": [],
      "stateMutability": "nonpayable",
      "type": "constructor"
    },
    {
      "inputs": [],
      "name": "delistAfter",
      "outputs": [
        {
          "internalType": "uint256",
          "name": "",
          "type": "uint256"
        }
      ],
      "stateMutability": "view",
      "type": "function"
    },
    {
      "inputs": [
        {
          "internalType": "bytes32",
          "name": "listingId",
          "type": "bytes32"
        }
      ],
      "name": "getListingDetails",
      "outputs": [
        {
          "internalType": "address",
          "name": "tokenAddress",
          "type": "address"
        },
        {
          "internalType": "uint256",
          "name": "tokenId",
          "type": "uint256"
        },
        {
          "internalType": "uint256",
          "name": "listingPrice",
          "type": "uint256"
        },
        {
          "internalType": "uint256",
          "name": "endPrice",
          "type": "uint256"
        },
        {
          "internalType": "address",
          "name": "seller",
          "type": "address"
        },
        {
          "internalType": "address",
          "name": "buyer",
          "type": "address"
        },
        {
          "internalType": "bool",
          "name": "bedEnabeled",
          "type": "bool"
        },
        {
          "internalType": "bool",
          "name": "sellForEnabled",
          "type": "bool"
        },
        {
          "internalType": "uint256",
          "name": "releaseTime",
          "type": "uint256"
        },
        {
          "internalType": "uint256",
          "name": "qualifyAmount",
          "type": "uint256"
        },
        {
          "internalType": "uint256",
          "name": "sellFor",
          "type": "uint256"
        },
        {
          "internalType": "uint256",
          "name": "status",
          "type": "uint256"
        }
      ],
      "stateMutability": "view",
      "type": "function"
    }
  ],
  "bytecode": "0x608060405262ed4e0060005534801561001757600080fd5b506101f6806100276000396000f3fe608060405234801561001057600080fd5b50600436106100365760003560e01c80630a42e75a1461003b5780637b35656114610059575b600080fd5b610043610084565b60405161005091906101b7565b60405180910390f35b61006c61006736600461012f565b61008a565b6040516100509c9b9a99989796959493929190610147565b60005481565b600081815260016020819052604082208054918101546002820154600380840154600485015460058601546006870154600788015460088901546009909901546001600160a01b039a8b169b989a979995989488169784169660ff600160a01b8604811697600160a81b9096048116969495939492169081111561011e57634e487b7160e01b600052602160045260246000fd5b905091939597999b5091939597999b565b600060208284031215610140578081fd5b5035919050565b6001600160a01b039c8d168152602081019b909b5260408b019990995260608a019790975294891660808901529290971660a0870152151560c086015294151560e08501526101008401949094526101208301939093526101408201929092526101608101919091526101800190565b9081526020019056fea26469706673582212207cc2f5a4e141e593abc944e8b22b6d416564101ec001cb446b3c25fe4eb1898d64736f6c63430008000033",
  "linkReferences": {},
  "deployedLinkReferences": {}
}