{
  "contractName": "MarketPlaceBase",
  "abi": [
    {
      "inputs": [
        {
          "internalType": "string",
          "name": "marketPlaceName_",
          "type": "string"
        },
        {
          "internalType": "address",
          "name": "_paymentTokenAddress",
          "type": "address"
        }
      ],
      "stateMutability": "nonpayable",
      "type": "constructor"
    },
    {
      "anonymous": false,
      "inputs": [
        {
          "indexed": true,
          "internalType": "address",
          "name": "previousOwner",
          "type": "address"
        },
        {
          "indexed": true,
          "internalType": "address",
          "name": "newOwner",
          "type": "address"
        }
      ],
      "name": "OwnershipTransferred",
      "type": "event"
    },
    {
      "anonymous": false,
      "inputs": [
        {
          "indexed": false,
          "internalType": "address",
          "name": "account",
          "type": "address"
        }
      ],
      "name": "Paused",
      "type": "event"
    },
    {
      "anonymous": false,
      "inputs": [
        {
          "indexed": false,
          "internalType": "address",
          "name": "account",
          "type": "address"
        }
      ],
      "name": "Unpaused",
      "type": "event"
    },
    {
      "inputs": [
        {
          "internalType": "address",
          "name": "",
          "type": "address"
        },
        {
          "internalType": "address",
          "name": "",
          "type": "address"
        },
        {
          "internalType": "uint256",
          "name": "",
          "type": "uint256"
        },
        {
          "internalType": "bytes",
          "name": "",
          "type": "bytes"
        }
      ],
      "name": "onERC721Received",
      "outputs": [
        {
          "internalType": "bytes4",
          "name": "",
          "type": "bytes4"
        }
      ],
      "stateMutability": "nonpayable",
      "type": "function"
    },
    {
      "inputs": [],
      "name": "owner",
      "outputs": [
        {
          "internalType": "address",
          "name": "",
          "type": "address"
        }
      ],
      "stateMutability": "view",
      "type": "function"
    },
    {
      "inputs": [],
      "name": "paused",
      "outputs": [
        {
          "internalType": "bool",
          "name": "",
          "type": "bool"
        }
      ],
      "stateMutability": "view",
      "type": "function"
    },
    {
      "inputs": [],
      "name": "renounceOwnership",
      "outputs": [],
      "stateMutability": "nonpayable",
      "type": "function"
    },
    {
      "inputs": [
        {
          "internalType": "address",
          "name": "newOwner",
          "type": "address"
        }
      ],
      "name": "transferOwnership",
      "outputs": [],
      "stateMutability": "nonpayable",
      "type": "function"
    },
    {
      "inputs": [
        {
          "internalType": "uint8",
          "name": "newFees",
          "type": "uint8"
        }
      ],
      "name": "changeFees",
      "outputs": [
        {
          "internalType": "uint8",
          "name": "",
          "type": "uint8"
        }
      ],
      "stateMutability": "nonpayable",
      "type": "function"
    }
  ],
  "bytecode": "0x60a060405260028054600160ff199091161761ff0019166164001790553480156200002957600080fd5b5060405162000af738038062000af78339810160408190526200004c91620001a3565b600062000058620000dc565b600080546001600160a01b0319166001600160a01b0383169081178255604051929350917f8be0079c531659141344cd1fd0a4f28419497f9722a3daafe3b4186f6b6457e0908290a3506000805460ff60a01b191690558151620000c4906001906020850190620000e0565b5060601b6001600160601b03191660805250620002da565b3390565b828054620000ee9062000287565b90600052602060002090601f0160209004810192826200011257600085556200015d565b82601f106200012d57805160ff19168380011785556200015d565b828001600101855582156200015d579182015b828111156200015d57825182559160200191906001019062000140565b506200016b9291506200016f565b5090565b5b808211156200016b576000815560010162000170565b80516001600160a01b03811681146200019e57600080fd5b919050565b60008060408385031215620001b6578182fd5b82516001600160401b0380821115620001cd578384fd5b818501915085601f830112620001e1578384fd5b815181811115620001f657620001f6620002c4565b6040516020601f8301601f19168201810184811183821017156200021e576200021e620002c4565b604052828252848301810189101562000235578687fd5b8693505b8284101562000258578484018101518285018201529283019262000239565b828411156200026957868184840101525b8196506200027981890162000186565b955050505050509250929050565b6002810460018216806200029c57607f821691505b60208210811415620002be57634e487b7160e01b600052602260045260246000fd5b50919050565b634e487b7160e01b600052604160045260246000fd5b60805160601c610801620002f6600039600050506108016000f3fe608060405234801561001057600080fd5b50600436106100725760003560e01c8063715018a611610050578063715018a6146100d55780638da5cb5b146100df578063f2fde38b146100f457610072565b8063150b7a021461007757806341771b62146100a05780635c975abb146100c0575b600080fd5b61008a61008536600461052a565b610107565b6040516100979190610661565b60405180910390f35b6100b36100ae366004610614565b610130565b604051610097919061078e565b6100c8610275565b6040516100979190610656565b6100dd610296565b005b6100e7610378565b6040516100979190610635565b6100dd610102366004610509565b610394565b7f150b7a0200000000000000000000000000000000000000000000000000000000949350505050565b600061013a6104e1565b73ffffffffffffffffffffffffffffffffffffffff16610158610378565b73ffffffffffffffffffffffffffffffffffffffff16146101ae576040517f08c379a00000000000000000000000000000000000000000000000000000000081526004016101a590610759565b60405180910390fd5b6101b6610275565b6101ec576040517f08c379a00000000000000000000000000000000000000000000000000000000081526004016101a59061068e565b60018260ff1610158015610204575060038260ff1611155b61023a576040517f08c379a00000000000000000000000000000000000000000000000000000000081526004016101a590610722565b50600280547fffffffffffffffffffffffffffffffffffffffffffffffffffffffffffffff001660ff8381169190911791829055165b919050565b60005474010000000000000000000000000000000000000000900460ff1690565b61029e6104e1565b73ffffffffffffffffffffffffffffffffffffffff166102bc610378565b73ffffffffffffffffffffffffffffffffffffffff1614610309576040517f08c379a00000000000000000000000000000000000000000000000000000000081526004016101a590610759565b6000805460405173ffffffffffffffffffffffffffffffffffffffff909116907f8be0079c531659141344cd1fd0a4f28419497f9722a3daafe3b4186f6b6457e0908390a3600080547fffffffffffffffffffffffff0000000000000000000000000000000000000000169055565b60005473ffffffffffffffffffffffffffffffffffffffff1690565b61039c6104e1565b73ffffffffffffffffffffffffffffffffffffffff166103ba610378565b73ffffffffffffffffffffffffffffffffffffffff1614610407576040517f08c379a00000000000000000000000000000000000000000000000000000000081526004016101a590610759565b73ffffffffffffffffffffffffffffffffffffffff8116610454576040517f08c379a00000000000000000000000000000000000000000000000000000000081526004016101a5906106c5565b6000805460405173ffffffffffffffffffffffffffffffffffffffff808516939216917f8be0079c531659141344cd1fd0a4f28419497f9722a3daafe3b4186f6b6457e091a3600080547fffffffffffffffffffffffff00000000000000000000000000000000000000001673ffffffffffffffffffffffffffffffffffffffff92909216919091179055565b3390565b803573ffffffffffffffffffffffffffffffffffffffff8116811461027057600080fd5b60006020828403121561051a578081fd5b610523826104e5565b9392505050565b6000806000806080858703121561053f578283fd5b610548856104e5565b935060206105578187016104e5565b935060408601359250606086013567ffffffffffffffff8082111561057a578384fd5b818801915088601f83011261058d578384fd5b81358181111561059f5761059f61079c565b604051847fffffffffffffffffffffffffffffffffffffffffffffffffffffffffffffffe0601f84011682010181811084821117156105e0576105e061079c565b60405281815283820185018b10156105f6578586fd5b81858501868301379081019093019390935250939692955090935050565b600060208284031215610625578081fd5b813560ff81168114610523578182fd5b73ffffffffffffffffffffffffffffffffffffffff91909116815260200190565b901515815260200190565b7fffffffff0000000000000000000000000000000000000000000000000000000091909116815260200190565b60208082526014908201527f5061757361626c653a206e6f7420706175736564000000000000000000000000604082015260600190565b60208082526026908201527f4f776e61626c653a206e6577206f776e657220697320746865207a65726f206160408201527f6464726573730000000000000000000000000000000000000000000000000000606082015260800190565b60208082526012908201527f6665657320696e76616c69642072616e67650000000000000000000000000000604082015260600190565b6020808252818101527f4f776e61626c653a2063616c6c6572206973206e6f7420746865206f776e6572604082015260600190565b60ff91909116815260200190565b7f4e487b7100000000000000000000000000000000000000000000000000000000600052604160045260246000fdfea2646970667358221220c2e9e6c15764c886f0370f9b6326580ded675d8a9c88d838e1993c0bf0a2f5b364736f6c63430008000033",
  "immutableReferences": {},
  "source": "// SPDX-License-Identifier: AGPL-3.0-or-later\n\npragma solidity >=0.8.0;\npragma abicoder v2;\n\nimport \"@openzeppelin/contracts/access/Ownable.sol\";\nimport \"@openzeppelin/contracts/token/ERC20/IERC20.sol\";\nimport \"@openzeppelin/contracts/token/ERC721/utils/ERC721Holder.sol\";\nimport \"@openzeppelin/contracts/security/Pausable.sol\";\n\n/**\n * @author Eman Herawy StartFi Team\n *@title base cmarket place contract\n * Note: This marketplace contract is collection based. It serves one ERC721 contract only\n * Payment tokens usually is the chain native coin's wrapped token, e.g. WETH, WBNB\n */\ncontract MarketPlaceBase is  Ownable,ERC721Holder,Pausable {\n    constructor(\n        string memory marketPlaceName_,\n        \n        address _paymentTokenAddress\n    ) public {\n        _marketPlaceName = marketPlaceName_;\n       \n        _paymentToken = IERC20(_paymentTokenAddress);\n    }\n\n    string internal _marketPlaceName;\n     IERC20 internal immutable _paymentToken;\n    uint8 internal _feeFraction = 1;\n    uint8 internal _feeBase = 100;\n      /// @param newFees  the new fees value to be stored \n    /// @return the value of the state variable `_feeFraction`\n     function changeFees(uint8 newFees) public onlyOwner whenPaused returns (uint8) {\n         // fees is a value between 1-3 %\n         require(newFees>=1 && newFees<=3,\"fees invalid range\");\n         _feeFraction=newFees;\n         return _feeFraction;\n     }\n}  \n\n   \n",
  "sourcePath": "/home/yehia/Documents/startups/Startfi/projects/startfi/startfi-core/contracts/MarketPlaceBase.sol",
  "compiler": {
    "name": "solc",
    "version": "0.8.0+commit.c7dfd78e.Emscripten.clang"
  },
  "schemaVersion": "3.4.1",
  "updatedAt": "2021-06-13T12:10:06.144Z",
  "devdoc": {
    "author": "Eman Herawy StartFi Team",
    "kind": "dev",
    "methods": {
      "changeFees(uint8)": {
        "params": {
          "newFees": "the new fees value to be stored "
        },
        "returns": {
          "_0": "the value of the state variable `_feeFraction`"
        }
      },
      "onERC721Received(address,address,uint256,bytes)": {
        "details": "See {IERC721Receiver-onERC721Received}. Always returns `IERC721Receiver.onERC721Received.selector`."
      },
      "owner()": {
        "details": "Returns the address of the current owner."
      },
      "paused()": {
        "details": "Returns true if the contract is paused, and false otherwise."
      },
      "renounceOwnership()": {
        "details": "Leaves the contract without owner. It will not be possible to call `onlyOwner` functions anymore. Can only be called by the current owner. NOTE: Renouncing ownership will leave the contract without an owner, thereby removing any functionality that is only available to the owner."
      },
      "transferOwnership(address)": {
        "details": "Transfers ownership of the contract to a new account (`newOwner`). Can only be called by the current owner."
      }
    },
    "title": "base cmarket place contract Note: This marketplace contract is collection based. It serves one ERC721 contract only Payment tokens usually is the chain native coin's wrapped token, e.g. WETH, WBNB",
    "version": 1
  },
  "userdoc": {
    "kind": "user",
    "methods": {},
    "version": 1
  }
}