{
  "_format": "hh-sol-artifact-1",
  "contractName": "MarketPlaceListing",
  "sourceName": "contracts/MarketPlaceListing.sol",
  "abi": [
    {
      "inputs": [],
      "stateMutability": "nonpayable",
      "type": "constructor"
    },
    {
      "inputs": [],
      "name": "delistAfter",
      "outputs": [
        {
          "internalType": "uint256",
          "name": "",
          "type": "uint256"
        }
      ],
      "stateMutability": "view",
      "type": "function"
    }
  ],
  "bytecode": "0x608060405262ed4e00600055348015601657600080fd5b50608c806100256000396000f3fe6080604052348015600f57600080fd5b506004361060285760003560e01c80630a42e75a14602d575b600080fd5b60336047565b604051603e9190604d565b60405180910390f35b60005481565b9081526020019056fea2646970667358221220eb5c3b89c5a42bc61c0a1ed3dc47ce9358ea7664bc31e848c184156df899725264736f6c63430008000033",
  "linkReferences": {},
  "deployedLinkReferences": {}
}