{
  "_format": "hh-sol-artifact-1",
  "contractName": "MarketPlaceBase",
  "sourceName": "contracts/MarketPlaceBase.sol",
  "abi": [
    {
      "inputs": [
        {
          "internalType": "string",
          "name": "_name",
          "type": "string"
        }
      ],
      "stateMutability": "nonpayable",
      "type": "constructor"
    },
    {
      "inputs": [],
      "name": "marketPlaceName",
      "outputs": [
        {
          "internalType": "string",
          "name": "",
          "type": "string"
        }
      ],
      "stateMutability": "view",
      "type": "function"
    },
    {
      "inputs": [
        {
          "internalType": "address",
          "name": "",
          "type": "address"
        },
        {
          "internalType": "address",
          "name": "",
          "type": "address"
        },
        {
          "internalType": "uint256",
          "name": "",
          "type": "uint256"
        },
        {
          "internalType": "bytes",
          "name": "",
          "type": "bytes"
        }
      ],
      "name": "onERC721Received",
      "outputs": [
        {
          "internalType": "bytes4",
          "name": "",
          "type": "bytes4"
        }
      ],
      "stateMutability": "nonpayable",
      "type": "function"
    }
  ],
  "bytecode": "0x60806040526001805463ffffffff1916632a55205a17905534801561002357600080fd5b50604051610509380380610509833981016040819052610042916100f5565b805161005590600090602084019061005c565b5050610208565b828054610068906101b7565b90600052602060002090601f01602090048101928261008a57600085556100d0565b82601f106100a357805160ff19168380011785556100d0565b828001600101855582156100d0579182015b828111156100d05782518255916020019190600101906100b5565b506100dc9291506100e0565b5090565b5b808211156100dc57600081556001016100e1565b60006020808385031215610107578182fd5b82516001600160401b038082111561011d578384fd5b818501915085601f830112610130578384fd5b815181811115610142576101426101f2565b604051601f8201601f1916810185018381118282101715610165576101656101f2565b604052818152838201850188101561017b578586fd5b8592505b8183101561019c578383018501518184018601529184019161017f565b818311156101ac57858583830101525b979650505050505050565b6002810460018216806101cb57607f821691505b602082108114156101ec57634e487b7160e01b600052602260045260246000fd5b50919050565b634e487b7160e01b600052604160045260246000fd5b6102f2806102176000396000f3fe608060405234801561001057600080fd5b50600436106100365760003560e01c8063150b7a021461003b5780638ef291e914610064575b600080fd5b61004e610049366004610137565b610079565b60405161005b9190610203565b60405180910390f35b61006c610089565b60405161005b9190610218565b630a85bd0160e11b949350505050565b6060600080546100989061026b565b80601f01602080910402602001604051908101604052809291908181526020018280546100c49061026b565b80156101115780601f106100e657610100808354040283529160200191610111565b820191906000526020600020905b8154815290600101906020018083116100f457829003601f168201915b5050505050905090565b80356001600160a01b038116811461013257600080fd5b919050565b6000806000806080858703121561014c578384fd5b6101558561011b565b9350602061016481870161011b565b935060408601359250606086013567ffffffffffffffff80821115610187578384fd5b818801915088601f83011261019a578384fd5b8135818111156101ac576101ac6102a6565b604051601f8201601f19168101850183811182821017156101cf576101cf6102a6565b60405281815283820185018b10156101e5578586fd5b81858501868301379081019093019390935250939692955090935050565b6001600160e01b031991909116815260200190565b6000602080835283518082850152825b8181101561024457858101830151858201604001528201610228565b818111156102555783604083870101525b50601f01601f1916929092016040019392505050565b60028104600182168061027f57607f821691505b602082108114156102a057634e487b7160e01b600052602260045260246000fd5b50919050565b634e487b7160e01b600052604160045260246000fdfea2646970667358221220b0d90f40c99bc386d2d935860a38252a9d0998e547e9c0b047d18bc35b5ad5f464736f6c63430008000033",
  "linkReferences": {},
  "deployedLinkReferences": {}
}