{
  "_format": "hh-sol-artifact-1",
  "contractName": "MarketPlaceBid",
  "sourceName": "contracts/MarketPlaceBid.sol",
  "abi": [
    {
      "inputs": [
        {
          "internalType": "bytes32",
          "name": "listingId",
          "type": "bytes32"
        },
        {
          "internalType": "address",
          "name": "bidder",
          "type": "address"
        }
      ],
      "name": "getAuctionBidDetails",
      "outputs": [
        {
          "internalType": "bytes32",
          "name": "bidId",
          "type": "bytes32"
        },
        {
          "internalType": "address",
          "name": "nFTContract",
          "type": "address"
        },
        {
          "internalType": "uint256",
          "name": "tokenId",
          "type": "uint256"
        },
        {
          "internalType": "uint256",
          "name": "bidPrice",
          "type": "uint256"
        },
        {
          "internalType": "bool",
          "name": "isPurchased",
          "type": "bool"
        }
      ],
      "stateMutability": "view",
      "type": "function"
    },
    {
      "inputs": [
        {
          "internalType": "bytes32",
          "name": "listingId",
          "type": "bytes32"
        }
      ],
      "name": "winnerBid",
      "outputs": [
        {
          "internalType": "bytes32",
          "name": "bidId",
          "type": "bytes32"
        },
        {
          "internalType": "address",
          "name": "bidder",
          "type": "address"
        },
        {
          "internalType": "address",
          "name": "nFTContract",
          "type": "address"
        },
        {
          "internalType": "uint256",
          "name": "tokenId",
          "type": "uint256"
        },
        {
          "internalType": "uint256",
          "name": "bidPrice",
          "type": "uint256"
        },
        {
          "internalType": "bool",
          "name": "isPurchased",
          "type": "bool"
        }
      ],
      "stateMutability": "view",
      "type": "function"
    }
  ],
  "bytecode": "0x608060405234801561001057600080fd5b50610219806100206000396000f3fe608060405234801561001057600080fd5b50600436106100365760003560e01c80634b3ee2bb1461003b578063e1a1d7ed14610069575b600080fd5b61004e61004936600461012d565b61008d565b6040516100609695949392919061017f565b60405180910390f35b61007c610077366004610145565b6100e5565b6040516100609594939291906101b5565b60009081526001602081815260408084208054908401548584528286206001600160a01b039182168088529452919094209283015460028401546003850154600490950154959693959190921693919260ff90911690565b6000918252602082815260408084206001600160a01b039384168552909152909120805460018201546002830154600384015460049094015492959190941693929160ff1690565b60006020828403121561013e578081fd5b5035919050565b60008060408385031215610157578081fd5b8235915060208301356001600160a01b0381168114610174578182fd5b809150509250929050565b9586526001600160a01b03948516602087015292909316604085015260608401526080830191909152151560a082015260c00190565b9485526001600160a01b03939093166020850152604084019190915260608301521515608082015260a0019056fea264697066735822122042b1a0de02c7b2c1d66c8cc2cd2f41db69f7bfca342f7bb3fc4b77f9c06d16f664736f6c63430008000033",
  "linkReferences": {},
  "deployedLinkReferences": {}
}