{
  "address": "0xD9c2a2a0eAcCF0a2469e182ef1592752c33A9ef1",
  "abi": [
    {
      "inputs": [
        {
          "internalType": "string",
          "name": "_marketPlaceName",
          "type": "string"
        },
        {
          "internalType": "address",
          "name": "_paymentContract",
          "type": "address"
        },
        {
          "internalType": "address",
          "name": "_stakeContract",
          "type": "address"
        }
      ],
      "stateMutability": "nonpayable",
      "type": "constructor"
    },
    {
      "anonymous": false,
      "inputs": [
        {
          "indexed": false,
          "internalType": "bytes32",
          "name": "bidId",
          "type": "bytes32"
        },
        {
          "indexed": false,
          "internalType": "bytes32",
          "name": "listingId",
          "type": "bytes32"
        },
        {
          "indexed": false,
          "internalType": "address",
          "name": "tokenAddress",
          "type": "address"
        },
        {
          "indexed": false,
          "internalType": "address",
          "name": "bidder",
          "type": "address"
        },
        {
          "indexed": false,
          "internalType": "uint256",
          "name": "tokenId",
          "type": "uint256"
        },
        {
          "indexed": false,
          "internalType": "uint256",
          "name": "bidPrice",
          "type": "uint256"
        },
        {
          "indexed": false,
          "internalType": "uint256",
          "name": "timestamp",
          "type": "uint256"
        }
      ],
      "name": "BidOnAuction",
      "type": "event"
    },
    {
      "anonymous": false,
      "inputs": [
        {
          "indexed": false,
          "internalType": "bytes32",
          "name": "listId",
          "type": "bytes32"
        },
        {
          "indexed": false,
          "internalType": "address",
          "name": "nFTContract",
          "type": "address"
        },
        {
          "indexed": false,
          "internalType": "address",
          "name": "buyer",
          "type": "address"
        },
        {
          "indexed": false,
          "internalType": "uint256",
          "name": "tokenId",
          "type": "uint256"
        },
        {
          "indexed": false,
          "internalType": "uint256",
          "name": "sellingPrice",
          "type": "uint256"
        },
        {
          "indexed": false,
          "internalType": "address",
          "name": "seller",
          "type": "address"
        },
        {
          "indexed": false,
          "internalType": "bool",
          "name": "isAucton",
          "type": "bool"
        },
        {
          "indexed": false,
          "internalType": "address",
          "name": "issuer",
          "type": "address"
        },
        {
          "indexed": false,
          "internalType": "uint256",
          "name": "royaltyAmount",
          "type": "uint256"
        },
        {
          "indexed": false,
          "internalType": "uint256",
          "name": "fees",
          "type": "uint256"
        },
        {
          "indexed": false,
          "internalType": "uint256",
          "name": "netPrice",
          "type": "uint256"
        },
        {
          "indexed": false,
          "internalType": "uint256",
          "name": "timestamp",
          "type": "uint256"
        }
      ],
      "name": "BuyNow",
      "type": "event"
    },
    {
      "anonymous": false,
      "inputs": [
        {
          "indexed": false,
          "internalType": "bytes32",
          "name": "listId",
          "type": "bytes32"
        },
        {
          "indexed": false,
          "internalType": "address",
          "name": "nFTContract",
          "type": "address"
        },
        {
          "indexed": false,
          "internalType": "address",
          "name": "buyer",
          "type": "address"
        },
        {
          "indexed": false,
          "internalType": "uint256",
          "name": "tokenId",
          "type": "uint256"
        },
        {
          "indexed": false,
          "internalType": "uint256",
          "name": "listingPrice",
          "type": "uint256"
        },
        {
          "indexed": false,
          "internalType": "bool",
          "name": "sellForEnabled",
          "type": "bool"
        },
        {
          "indexed": false,
          "internalType": "uint256",
          "name": "sellFor",
          "type": "uint256"
        },
        {
          "indexed": false,
          "internalType": "uint256",
          "name": "releaseTime",
          "type": "uint256"
        },
        {
          "indexed": false,
          "internalType": "uint256",
          "name": "qualifyAmount",
          "type": "uint256"
        },
        {
          "indexed": false,
          "internalType": "uint256",
          "name": "timestamp",
          "type": "uint256"
        }
      ],
      "name": "CreateAuction",
      "type": "event"
    },
    {
      "anonymous": false,
      "inputs": [
        {
          "indexed": false,
          "internalType": "bytes32",
          "name": "listId",
          "type": "bytes32"
        },
        {
          "indexed": false,
          "internalType": "address",
          "name": "nFTContract",
          "type": "address"
        },
        {
          "indexed": false,
          "internalType": "address",
          "name": "buyer",
          "type": "address"
        },
        {
          "indexed": false,
          "internalType": "uint256",
          "name": "tokenId",
          "type": "uint256"
        },
        {
          "indexed": false,
          "internalType": "uint256",
          "name": "fineFees",
          "type": "uint256"
        },
        {
          "indexed": false,
          "internalType": "uint256",
          "name": "remaining",
          "type": "uint256"
        },
        {
          "indexed": false,
          "internalType": "uint256",
          "name": "releaseTime",
          "type": "uint256"
        },
        {
          "indexed": false,
          "internalType": "uint256",
          "name": "timestamp",
          "type": "uint256"
        }
      ],
      "name": "DeListOffMarketplace",
      "type": "event"
    },
    {
      "anonymous": false,
      "inputs": [
        {
          "indexed": false,
          "internalType": "bytes32",
          "name": "bidId",
          "type": "bytes32"
        },
        {
          "indexed": false,
          "internalType": "bytes32",
          "name": "listingId",
          "type": "bytes32"
        },
        {
          "indexed": false,
          "internalType": "address",
          "name": "tokenAddress",
          "type": "address"
        },
        {
          "indexed": false,
          "internalType": "address",
          "name": "bidder",
          "type": "address"
        },
        {
          "indexed": false,
          "internalType": "uint256",
          "name": "tokenId",
          "type": "uint256"
        },
        {
          "indexed": false,
          "internalType": "address",
          "name": "buyer",
          "type": "address"
        },
        {
          "indexed": false,
          "internalType": "uint256",
          "name": "qualifyAmount",
          "type": "uint256"
        },
        {
          "indexed": false,
          "internalType": "uint256",
          "name": "remaining",
          "type": "uint256"
        },
        {
          "indexed": false,
          "internalType": "uint256",
          "name": "finefees",
          "type": "uint256"
        },
        {
          "indexed": false,
          "internalType": "uint256",
          "name": "timestamp",
          "type": "uint256"
        }
      ],
      "name": "DisputeAuction",
      "type": "event"
    },
    {
      "anonymous": false,
      "inputs": [
        {
          "indexed": false,
          "internalType": "bytes32",
          "name": "bidId",
          "type": "bytes32"
        },
        {
          "indexed": false,
          "internalType": "bytes32",
          "name": "listingId",
          "type": "bytes32"
        },
        {
          "indexed": false,
          "internalType": "address",
          "name": "tokenAddress",
          "type": "address"
        },
        {
          "indexed": false,
          "internalType": "address",
          "name": "bidder",
          "type": "address"
        },
        {
          "indexed": false,
          "internalType": "uint256",
          "name": "tokenId",
          "type": "uint256"
        },
        {
          "indexed": false,
          "internalType": "uint256",
          "name": "bidPrice",
          "type": "uint256"
        },
        {
          "indexed": false,
          "internalType": "address",
          "name": "issuer",
          "type": "address"
        },
        {
          "indexed": false,
          "internalType": "uint256",
          "name": "royaltyAmount",
          "type": "uint256"
        },
        {
          "indexed": false,
          "internalType": "uint256",
          "name": "fees",
          "type": "uint256"
        },
        {
          "indexed": false,
          "internalType": "uint256",
          "name": "netPrice",
          "type": "uint256"
        },
        {
          "indexed": false,
          "internalType": "uint256",
          "name": "timestamp",
          "type": "uint256"
        }
      ],
      "name": "FullfillBid",
      "type": "event"
    },
    {
      "anonymous": false,
      "inputs": [
        {
          "indexed": false,
          "internalType": "bytes32",
          "name": "listId",
          "type": "bytes32"
        },
        {
          "indexed": false,
          "internalType": "address",
          "name": "nFTContract",
          "type": "address"
        },
        {
          "indexed": false,
          "internalType": "address",
          "name": "buyer",
          "type": "address"
        },
        {
          "indexed": false,
          "internalType": "uint256",
          "name": "tokenId",
          "type": "uint256"
        },
        {
          "indexed": false,
          "internalType": "uint256",
          "name": "listingPrice",
          "type": "uint256"
        },
        {
          "indexed": false,
          "internalType": "uint256",
          "name": "releaseTime",
          "type": "uint256"
        },
        {
          "indexed": false,
          "internalType": "uint256",
          "name": "qualifyAmount",
          "type": "uint256"
        },
        {
          "indexed": false,
          "internalType": "uint256",
          "name": "timestamp",
          "type": "uint256"
        }
      ],
      "name": "ListOnMarketplace",
      "type": "event"
    },
    {
      "anonymous": false,
      "inputs": [
        {
          "indexed": true,
          "internalType": "address",
          "name": "previousOwner",
          "type": "address"
        },
        {
          "indexed": true,
          "internalType": "address",
          "name": "newOwner",
          "type": "address"
        }
      ],
      "name": "OwnershipTransferred",
      "type": "event"
    },
    {
      "anonymous": false,
      "inputs": [
        {
          "indexed": false,
          "internalType": "address",
          "name": "account",
          "type": "address"
        }
      ],
      "name": "Paused",
      "type": "event"
    },
    {
      "anonymous": false,
      "inputs": [
        {
          "indexed": false,
          "internalType": "address",
          "name": "account",
          "type": "address"
        }
      ],
      "name": "Unpaused",
      "type": "event"
    },
    {
      "anonymous": false,
      "inputs": [
        {
          "indexed": false,
          "internalType": "address",
          "name": "user",
          "type": "address"
        },
        {
          "indexed": false,
          "internalType": "uint256",
          "name": "lastReserves",
          "type": "uint256"
        },
        {
          "indexed": false,
          "internalType": "uint256",
          "name": "newReserves",
          "type": "uint256"
        },
        {
          "indexed": false,
          "internalType": "uint256",
          "name": "timestamp",
          "type": "uint256"
        }
      ],
      "name": "UserReservesFree",
      "type": "event"
    },
    {
      "inputs": [
        {
          "internalType": "bytes32",
          "name": "listingId",
          "type": "bytes32"
        },
        {
          "internalType": "address",
          "name": "tokenAddress",
          "type": "address"
        },
        {
          "internalType": "uint256",
          "name": "tokenId",
          "type": "uint256"
        },
        {
          "internalType": "uint256",
          "name": "bidPrice",
          "type": "uint256"
        }
      ],
      "name": "bid",
      "outputs": [
        {
          "internalType": "bytes32",
          "name": "bidId",
          "type": "bytes32"
        }
      ],
      "stateMutability": "nonpayable",
      "type": "function"
    },
    {
      "inputs": [],
      "name": "bidPenaltyPercentageBase",
      "outputs": [
        {
          "internalType": "uint256",
          "name": "",
          "type": "uint256"
        }
      ],
      "stateMutability": "view",
      "type": "function"
    },
    {
      "inputs": [
        {
          "internalType": "bytes32",
          "name": "listingId",
          "type": "bytes32"
        },
        {
          "internalType": "uint256",
          "name": "price",
          "type": "uint256"
        }
      ],
      "name": "buyNow",
      "outputs": [
        {
          "internalType": "address",
          "name": "_NFTContract",
          "type": "address"
        },
        {
          "internalType": "uint256",
          "name": "tokenId",
          "type": "uint256"
        }
      ],
      "stateMutability": "nonpayable",
      "type": "function"
    },
    {
      "inputs": [
        {
          "internalType": "address",
          "name": "nFTContract",
          "type": "address"
        },
        {
          "internalType": "uint256",
          "name": "tokenId",
          "type": "uint256"
        },
        {
          "internalType": "uint256",
          "name": "listingPrice",
          "type": "uint256"
        },
        {
          "internalType": "uint256",
          "name": "qualifyAmount",
          "type": "uint256"
        },
        {
          "internalType": "bool",
          "name": "sellForEnabled",
          "type": "bool"
        },
        {
          "internalType": "uint256",
          "name": "sellFor",
          "type": "uint256"
        },
        {
          "internalType": "uint256",
          "name": "duration",
          "type": "uint256"
        }
      ],
      "name": "createAuction",
      "outputs": [
        {
          "internalType": "bytes32",
          "name": "listId",
          "type": "bytes32"
        }
      ],
      "stateMutability": "nonpayable",
      "type": "function"
    },
    {
      "inputs": [
        {
          "internalType": "bytes32",
          "name": "listingId",
          "type": "bytes32"
        }
      ],
      "name": "deList",
      "outputs": [
        {
          "internalType": "address",
          "name": "_NFTContract",
          "type": "address"
        },
        {
          "internalType": "uint256",
          "name": "tokenId",
          "type": "uint256"
        }
      ],
      "stateMutability": "nonpayable",
      "type": "function"
    },
    {
      "inputs": [],
      "name": "delistAfter",
      "outputs": [
        {
          "internalType": "uint256",
          "name": "",
          "type": "uint256"
        }
      ],
      "stateMutability": "view",
      "type": "function"
    },
    {
      "inputs": [],
      "name": "delistFeesPercentage",
      "outputs": [
        {
          "internalType": "uint256",
          "name": "",
          "type": "uint256"
        }
      ],
      "stateMutability": "view",
      "type": "function"
    },
    {
      "inputs": [],
      "name": "delistFeesPercentageBase",
      "outputs": [
        {
          "internalType": "uint256",
          "name": "",
          "type": "uint256"
        }
      ],
      "stateMutability": "view",
      "type": "function"
    },
    {
      "inputs": [
        {
          "internalType": "bytes32",
          "name": "listingId",
          "type": "bytes32"
        }
      ],
      "name": "disputeAuction",
      "outputs": [
        {
          "internalType": "address",
          "name": "_NFTContract",
          "type": "address"
        },
        {
          "internalType": "uint256",
          "name": "tokenId",
          "type": "uint256"
        }
      ],
      "stateMutability": "nonpayable",
      "type": "function"
    },
    {
      "inputs": [],
      "name": "freeReserves",
      "outputs": [
        {
          "internalType": "uint256",
          "name": "curentReserves",
          "type": "uint256"
        }
      ],
      "stateMutability": "nonpayable",
      "type": "function"
    },
    {
      "inputs": [
        {
          "internalType": "bytes32",
          "name": "listingId",
          "type": "bytes32"
        }
      ],
      "name": "fullfillBid",
      "outputs": [
        {
          "internalType": "address",
          "name": "_NFTContract",
          "type": "address"
        },
        {
          "internalType": "uint256",
          "name": "tokenId",
          "type": "uint256"
        }
      ],
      "stateMutability": "nonpayable",
      "type": "function"
    },
    {
      "inputs": [
        {
          "internalType": "bytes32",
          "name": "listingId",
          "type": "bytes32"
        },
        {
          "internalType": "address",
          "name": "bidder",
          "type": "address"
        }
      ],
      "name": "getAuctionBidDetails",
      "outputs": [
        {
          "internalType": "bytes32",
          "name": "bidId",
          "type": "bytes32"
        },
        {
          "internalType": "address",
          "name": "nFTContract",
          "type": "address"
        },
        {
          "internalType": "uint256",
          "name": "tokenId",
          "type": "uint256"
        },
        {
          "internalType": "uint256",
          "name": "bidPrice",
          "type": "uint256"
        },
        {
          "internalType": "bool",
          "name": "isPurchased",
          "type": "bool"
        }
      ],
      "stateMutability": "view",
      "type": "function"
    },
    {
      "inputs": [
        {
          "internalType": "bytes32",
          "name": "listingId",
          "type": "bytes32"
        }
      ],
      "name": "getListingDetails",
      "outputs": [
        {
          "internalType": "address",
          "name": "tokenAddress",
          "type": "address"
        },
        {
          "internalType": "uint256",
          "name": "tokenId",
          "type": "uint256"
        },
        {
          "internalType": "uint256",
          "name": "listingPrice",
          "type": "uint256"
        },
        {
          "internalType": "uint256",
          "name": "endPrice",
          "type": "uint256"
        },
        {
          "internalType": "address",
          "name": "seller",
          "type": "address"
        },
        {
          "internalType": "address",
          "name": "buyer",
          "type": "address"
        },
        {
          "internalType": "bool",
          "name": "bedEnabeled",
          "type": "bool"
        },
        {
          "internalType": "bool",
          "name": "sellForEnabled",
          "type": "bool"
        },
        {
          "internalType": "uint256",
          "name": "releaseTime",
          "type": "uint256"
        },
        {
          "internalType": "uint256",
          "name": "qualifyAmount",
          "type": "uint256"
        },
        {
          "internalType": "uint256",
          "name": "sellFor",
          "type": "uint256"
        },
        {
          "internalType": "uint256",
          "name": "status",
          "type": "uint256"
        }
      ],
      "stateMutability": "view",
      "type": "function"
    },
    {
      "inputs": [],
      "name": "getServiceFee",
      "outputs": [
        {
          "internalType": "uint256",
          "name": "",
          "type": "uint256"
        }
      ],
      "stateMutability": "view",
      "type": "function"
    },
    {
      "inputs": [
        {
          "internalType": "address",
          "name": "user",
          "type": "address"
        }
      ],
      "name": "getUserReserved",
      "outputs": [
        {
          "internalType": "uint256",
          "name": "",
          "type": "uint256"
        }
      ],
      "stateMutability": "view",
      "type": "function"
    },
    {
      "inputs": [
        {
          "internalType": "address",
          "name": "nFTContract",
          "type": "address"
        },
        {
          "internalType": "uint256",
          "name": "tokenId",
          "type": "uint256"
        },
        {
          "internalType": "uint256",
          "name": "listingPrice",
          "type": "uint256"
        }
      ],
      "name": "listOnMarketplace",
      "outputs": [
        {
          "internalType": "bytes32",
          "name": "listId",
          "type": "bytes32"
        }
      ],
      "stateMutability": "nonpayable",
      "type": "function"
    },
    {
      "inputs": [],
      "name": "listqualifyPercentage",
      "outputs": [
        {
          "internalType": "uint256",
          "name": "",
          "type": "uint256"
        }
      ],
      "stateMutability": "view",
      "type": "function"
    },
    {
      "inputs": [],
      "name": "listqualifyPercentageBase",
      "outputs": [
        {
          "internalType": "uint256",
          "name": "",
          "type": "uint256"
        }
      ],
      "stateMutability": "view",
      "type": "function"
    },
    {
      "inputs": [],
      "name": "marketPlaceName",
      "outputs": [
        {
          "internalType": "string",
          "name": "",
          "type": "string"
        }
      ],
      "stateMutability": "view",
      "type": "function"
    },
    {
      "inputs": [
        {
          "internalType": "address",
          "name": "",
          "type": "address"
        },
        {
          "internalType": "address",
          "name": "",
          "type": "address"
        },
        {
          "internalType": "uint256",
          "name": "",
          "type": "uint256"
        },
        {
          "internalType": "bytes",
          "name": "",
          "type": "bytes"
        }
      ],
      "name": "onERC721Received",
      "outputs": [
        {
          "internalType": "bytes4",
          "name": "",
          "type": "bytes4"
        }
      ],
      "stateMutability": "nonpayable",
      "type": "function"
    },
    {
      "inputs": [],
      "name": "owner",
      "outputs": [
        {
          "internalType": "address",
          "name": "",
          "type": "address"
        }
      ],
      "stateMutability": "view",
      "type": "function"
    },
    {
      "inputs": [],
      "name": "paused",
      "outputs": [
        {
          "internalType": "bool",
          "name": "",
          "type": "bool"
        }
      ],
      "stateMutability": "view",
      "type": "function"
    },
    {
      "inputs": [],
      "name": "renounceOwnership",
      "outputs": [],
      "stateMutability": "nonpayable",
      "type": "function"
    },
    {
      "inputs": [],
      "name": "stakeContract",
      "outputs": [
        {
          "internalType": "address",
          "name": "",
          "type": "address"
        }
      ],
      "stateMutability": "view",
      "type": "function"
    },
    {
      "inputs": [
        {
          "internalType": "address",
          "name": "newOwner",
          "type": "address"
        }
      ],
      "name": "transferOwnership",
      "outputs": [],
      "stateMutability": "nonpayable",
      "type": "function"
    },
    {
      "inputs": [
        {
          "internalType": "bytes32",
          "name": "listingId",
          "type": "bytes32"
        }
      ],
      "name": "winnerBid",
      "outputs": [
        {
          "internalType": "bytes32",
          "name": "bidId",
          "type": "bytes32"
        },
        {
          "internalType": "address",
          "name": "bidder",
          "type": "address"
        },
        {
          "internalType": "address",
          "name": "nFTContract",
          "type": "address"
        },
        {
          "internalType": "uint256",
          "name": "tokenId",
          "type": "uint256"
        },
        {
          "internalType": "uint256",
          "name": "bidPrice",
          "type": "uint256"
        },
        {
          "internalType": "bool",
          "name": "isPurchased",
          "type": "bool"
        }
      ],
      "stateMutability": "view",
      "type": "function"
    }
  ],
  "transactionHash": "0x3c5f7b92ed95401919218e3c7e5345a52d97526fd156add95f7aabfec44ef7f3",
  "args": [
    "StartFi Market",
    "0xC80423A1C434b7EE5cF4a31B2Da2DB15D4844Da2",
    "0x09eA7D9fe8CF9cb4F4A0c0b42befd3eC8Cbb62B5"
  ],
  "solcInputHash": "3bdeb55aa7c775c4ed2e37696a1199f6",
  "bytecode": "0x608060405262ed4e0060019081556006805463ffffffff1916632a55205a1790556007819055606460088190556009829055600a829055600b91909155600c819055600d819055600e553480156200005657600080fd5b506040516200395c3803806200395c833981016040819052620000799162000214565b828281620000906200008a620000fd565b62000101565b6000805460ff60a01b191690558051620000b290600590602084019062000151565b505060068054600160201b600160c01b0319166401000000006001600160a01b0393841602179055601180546001600160a01b0319169390911692909217909155506200035d915050565b3390565b600080546001600160a01b038381166001600160a01b0319831681178455604051919092169283917f8be0079c531659141344cd1fd0a4f28419497f9722a3daafe3b4186f6b6457e09190a35050565b8280546200015f906200030a565b90600052602060002090601f016020900481019282620001835760008555620001ce565b82601f106200019e57805160ff1916838001178555620001ce565b82800160010185558215620001ce579182015b82811115620001ce578251825591602001919060010190620001b1565b50620001dc929150620001e0565b5090565b5b80821115620001dc5760008155600101620001e1565b80516001600160a01b03811681146200020f57600080fd5b919050565b60008060006060848603121562000229578283fd5b83516001600160401b038082111562000240578485fd5b818601915086601f83011262000254578485fd5b81518181111562000269576200026962000347565b6040516020601f8301601f191682018101848111838210171562000291576200029162000347565b60405282825284830181018a1015620002a8578788fd5b8793505b82841015620002cb5784840181015182850182015292830192620002ac565b82841115620002dc57878184840101525b819750620002ec818a01620001f7565b965050505050506200030160408501620001f7565b90509250925092565b6002810460018216806200031f57607f821691505b602082108114156200034157634e487b7160e01b600052602260045260246000fd5b50919050565b634e487b7160e01b600052604160045260246000fd5b6135ef806200036d6000396000f3fe608060405234801561001057600080fd5b506004361061018e5760003560e01c8063649ee683116100de5780638da5cb5b11610097578063e123ff5811610071578063e123ff581461032a578063e1a1d7ed1461033d578063f2fde38b14610361578063ff90ec06146103745761018e565b80638da5cb5b146102fa5780638ef291e914610302578063d4ef929a146103175761018e565b8063649ee683146102a55780636b041547146102ad5780636bb59816146102b5578063715018a6146102bd57806375b4a5e8146102c75780637b356561146102cf5761018e565b80634b3ee2bb1161014b5780635bbd49f4116101255780635bbd49f4146102625780635c975abb146102755780635cc310ba1461028a5780635ebd63cc146102925761018e565b80634b3ee2bb1461021457806356461e8e1461023957806356e9d1f3146102415761018e565b80630a42e75a1461019357806311a1933c146101b1578063150b7a02146101b95780631a186227146101d95780631f78fd0b146101ee57806329c5cdf314610201575b600080fd5b61019b610387565b6040516101a89190612b20565b60405180910390f35b61019b61038d565b6101cc6101c7366004612739565b610393565b6040516101a89190612d7d565b6101e16103a3565b6040516101a89190612a14565b61019b6101fc366004612701565b6103b2565b61019b61020f366004612836565b6103d1565b6102276102223660046128ed565b6105e4565b6040516101a896959493929190612b94565b61019b61063e565b61025461024f3660046128ed565b610644565b6040516101a8929190612a66565b61019b61027036600461286a565b610889565b61027d610a17565b6040516101a89190612b15565b61019b610a27565b61019b6102a0366004612934565b610a2d565b61019b610d14565b61019b610d1a565b61019b610d20565b6102c5611107565b005b61019b611152565b6102e26102dd3660046128ed565b611158565b6040516101a89c9b9a99989796959493929190612aa5565b6101e16111fc565b61030a61120b565b6040516101a89190612d92565b6102546103253660046128ed565b61129d565b6102546103383660046128ed565b61158d565b61035061034b366004612905565b6117bc565b6040516101a8959493929190612c5f565b6102c561036f366004612701565b611804565b610254610382366004612970565b611875565b60015481565b60075490565b630a85bd0160e11b949350505050565b6011546001600160a01b031681565b6001600160a01b0381166000908152600f60205260409020545b919050565b600081600081116103fd5760405162461bcd60e51b81526004016103f49061337e565b60405180910390fd5b600061040b42600154611b50565b90508585610417611b63565b8360405160200161042b94939291906129a9565b604051602081830303815290604052805190602001209250600061044e85611b67565b90508061046161045c611b63565b611b90565b101561047f5760405162461bcd60e51b81526004016103f490613112565b6104898787611c30565b6104a55760405162461bcd60e51b81526004016103f49061332d565b6104b887876104b2611b63565b30611cc6565b6104d45760405162461bcd60e51b81526004016103f4906133b5565b6104e76104df611b63565b826001611d36565b506000601060006104f6611b63565b6001600160a01b03168152602080820192909252604001600090812080546001810182558183529282209092018790559091508190601090610536611b63565b6001600160a01b031681526020810191909152604001600020815461055b9290612682565b506105718589610569611b63565b8a8a88611dac565b61058d5760405162461bcd60e51b81526004016103f490612e9b565b7f4273eae081fe1625584d9ab2b9e558adb9b60b846999d5b07de6e4664464767c85896105b8611b63565b8a8a8888426040516105d1989796959493929190612c1d565b60405180910390a1505050509392505050565b6000908152600460208181526040808420805460019182015460038086528488206001600160a01b03928316808a529652939096209182015460028301549383015492909501549096939594909416939192909160ff1690565b600e5481565b600081815260026020819052604090912060098101546005820154600483015483546006850154958501546001909501546001600160a01b0391821696909560ff9095169493821693929091169161069a611b63565b6001600160a01b0316846001600160a01b0316146106ca5760405162461bcd60e51b81526004016103f490612e64565b6001600160a01b038316156106f15760405162461bcd60e51b81526004016103f490612fd1565b6000610700836203f480611b50565b90504281111580156107315750600286600381111561072f57634e487b7160e01b600052602160045260246000fd5b145b8061075b5750600186600381111561075957634e487b7160e01b600052602160045260246000fd5b145b6107775760405162461bcd60e51b81526004016103f490613411565b600080428510156107c35761078b84611f6d565b90925090506107a28761079c611fa1565b84611fb0565b6107be5760405162461bcd60e51b81526004016103f490613223565b6107cf565b6107cc84611b67565b90505b6107db8a8a308a611cc6565b6107f75760405162461bcd60e51b81526004016103f4906133b5565b600061080c610804611b63565b836000611d36565b101561082a5760405162461bcd60e51b81526004016103f4906130db565b6108378b6000600361203f565b7f55058811c463cd1d9f3952e51fdb7eb2760b904e998811cb7485a7f33a1ff4af8b8b898c86868b42604051610874989796959493929190612c1d565b60405180910390a15050505050505050915091565b600085600081116108ac5760405162461bcd60e51b81526004016103f49061337e565b61a8c083116108cd5760405162461bcd60e51b81526004016103f4906132e0565b60006108d94285611b50565b905089896108e5611b63565b836040516020016108f994939291906129a9565b604051602081830303815290604052805190602001209250851561093757600085116109375760405162461bcd60e51b81526004016103f4906131ec565b6109418a8a611c30565b61095d5760405162461bcd60e51b81526004016103f49061332d565b61096a8a8a6104b2611b63565b6109865760405162461bcd60e51b81526004016103f4906133b5565b61099e838b610993611b63565b8c8c8b8b888f6120bf565b6109ba5760405162461bcd60e51b81526004016103f490612e9b565b7fd7f1b8f328c218ec2774158bb7329aaa002cda2cb72482f7927b5c1991697f1b838b6109e5611b63565b8c8c8b8b888f42604051610a029a99989796959493929190612bca565b60405180910390a15050979650505050505050565b600054600160a01b900460ff1690565b600d5481565b600084815260026020526040812060060154859042108015610a835750600260008281526002602052604090206009015460ff166003811115610a8057634e487b7160e01b600052602160045260246000fd5b14155b610a9f5760405162461bcd60e51b81526004016103f49061346e565b8585610aa9611b63565b86604051602001610abd94939291906129e2565b60408051601f19818403018152918152815160209283012060008981526004845282812060010154600290945291909120600701549093506001600160a01b039091169081610b3d5760008881526002602081905260409091200154851015610b385760405162461bcd60e51b81526004016103f490612f7b565b610b80565b60008881526003602081815260408084206001600160a01b038716855290915290912001548511610b805760405162461bcd60e51b81526004016103f490612de5565b600088815260036020526040812081610b97611b63565b6001600160a01b03168152602081019190915260400160002060030154905080610c8d5781610bc761045c611b63565b1015610be55760405162461bcd60e51b81526004016103f490613112565b600060106000610bf3611b63565b6001600160a01b03168152602080820192909252604001600090812080546001810182558183529282209092018c90559091508190601090610c33611b63565b6001600160a01b0316815260208101919091526040016000208154610c589290612682565b506000610c6e610c66611b63565b856001611d36565b11610c8b5760405162461bcd60e51b81526004016103f490612e2d565b505b610ca2858a8a610c9b611b63565b8b8b612280565b610cbe5760405162461bcd60e51b81526004016103f4906132ba565b7f2d4cfcefc09a529d21dfffe1fc49a95663a8e6ee7aa367506e419a6d43788285858a8a610cea611b63565b8b8b42604051610d009796959493929190612d41565b60405180910390a150505050949350505050565b600b5481565b600a5481565b600080600f6000610d2f611b63565b6001600160a01b03166001600160a01b03168152602001908152602001600020549050600060106000610d60611b63565b6001600160a01b03166001600160a01b03168152602001908152602001600020805480602002602001604051908101604052809291908181526020018280548015610dca57602002820191906000526020600020905b815481526020019060010190808311610db6575b5050505050905060106000610ddd611b63565b6001600160a01b03166001600160a01b031681526020019081526020016000206000610e0991906126d2565b600060106000610e17611b63565b6001600160a01b03166001600160a01b03168152602001908152602001600020905060005b825181101561105c576002806000858481518110610e6a57634e487b7160e01b600052603260045260246000fd5b60209081029190910181015182528101919091526040016000206009015460ff166003811115610eaa57634e487b7160e01b600052602160045260246000fd5b1415610f435781838281518110610ed157634e487b7160e01b600052603260045260246000fd5b60209081029190910181015182546001810184556000938452918320909101558351610f3c91879160029190879086908110610f1d57634e487b7160e01b600052603260045260246000fd5b6020026020010151815260200190815260200160002060070154611b50565b945061104a565b600160026000858481518110610f6957634e487b7160e01b600052603260045260246000fd5b60209081029190910181015182528101919091526040016000206009015460ff166003811115610fa957634e487b7160e01b600052602160045260246000fd5b141561104a5781838281518110610fd057634e487b7160e01b600052603260045260246000fd5b6020908102919091018101518254600181018455600093845291832090910155835161103a90600290839087908690811061101b57634e487b7160e01b600052603260045260246000fd5b6020026020010151815260200190815260200160002060020154611b67565b90506110468682611b50565b9550505b806110548161354f565b915050610e3c565b50806010600061106a611b63565b6001600160a01b031681526020810191909152604001600020815461108f9290612682565b506110a161109b611b63565b85612348565b6110bd5760405162461bcd60e51b81526004016103f4906130b0565b7f0d0e56539d6f587bb6a3924f7dee452834a223586e9bb60d3827f4006cb0655d6110e6611b63565b8486426040516110f99493929190612a7f565b60405180910390a150505090565b61110f611b63565b6001600160a01b03166111206111fc565b6001600160a01b0316146111465760405162461bcd60e51b81526004016103f490613285565b6111506000612368565b565b600c5481565b600081815260026020819052604082208054600182015492820154600380840154600485015460058601546006870154600788015460088901546009909901546001600160a01b039889169b97999598948516979484169660ff600160a01b8604811697600160a81b909604811696949593949216908111156111eb57634e487b7160e01b600052602160045260246000fd5b905091939597999b5091939597999b565b6000546001600160a01b031690565b60606005805461121a90613514565b80601f016020809104026020016040519081016040528092919081815260200182805461124690613514565b80156112935780601f1061126857610100808354040283529160200191611293565b820191906000526020600020905b81548152906001019060200180831161127657829003601f168201915b5050505050905090565b60008181526002602052604081206006015481908390421180156112f55750600260008281526002602052604090206009015460ff1660038111156112f257634e487b7160e01b600052602160045260246000fd5b14155b6113115760405162461bcd60e51b81526004016103f49061346e565b6000848152600460209081526040808320600190810154600290935292206005810154815491909301546001600160a01b03918216965094509081169116611357611b63565b6001600160a01b0316826001600160a01b0316146113875760405162461bcd60e51b81526004016103f4906131b5565b60008681526003602081815260408084206001600160a01b03871685529091529091200154806113b6846123b8565b10156113d45760405162461bcd60e51b81526004016103f490612f11565b6000806000806113e58a8a87612443565b93509350935093506113ff6113f86111fc565b87846124b0565b61141b5760405162461bcd60e51b81526004016103f490613437565b6001600160a01b03841615611451576114358487856124b0565b6114515760405162461bcd60e51b81526004016103f49061313f565b61145c8787836124b0565b6114785760405162461bcd60e51b81526004016103f490613180565b6114848a8a308a611cc6565b6114a05760405162461bcd60e51b81526004016103f4906133b5565b60008b8152600260205260408120600701546114be90899083611d36565b10156114dc5760405162461bcd60e51b81526004016103f4906130db565b60008b81526003602052604081206001916114f5611b63565b6001600160a01b03166001600160a01b0316815260200190815260200160002060040160006101000a81548160ff02191690831515021790555061153b8b88600061203f565b60008b815260046020526040908190205490517fe70f4aad9f39db984a04bce8b0cd7a269c046c57fd6878c9dbf2f6af19a47ecd91610874918e908e908c908f908c908c908c908c908c904290612ce2565b60008181526004602090815260408083206001908101546002909352908320600581015481549282015460078301546006909301546001600160a01b0394851696919585169490921692916115e5906203f480611b50565b90506001600160a01b038416158015906115ff5750428110155b61161b5760405162461bcd60e51b81526004016103f49061304c565b611623611b63565b6001600160a01b0316836001600160a01b0316146116535760405162461bcd60e51b81526004016103f490612e64565b60008781526003602090815260408083206001600160a01b038816845290915290206004015460ff16156116995760405162461bcd60e51b81526004016103f49061325a565b6000806116a5846124ed565b915091506116b58661079c611fa1565b6116d15760405162461bcd60e51b81526004016103f490612fff565b6116dc868683611fb0565b6116f85760405162461bcd60e51b81526004016103f490612fff565b61170488883088611cc6565b6117205760405162461bcd60e51b81526004016103f4906133b5565b600061172e87866000611d36565b101561174c5760405162461bcd60e51b81526004016103f4906130db565b611759896000600361203f565b600089815260046020526040908190205490517fb46a91724b95c8764d64242653194717e2ab549e1b76e207124d3bddc39aed6d916117a9918c908c908b908d908c908c908a908c904290612c8d565b60405180910390a1505050505050915091565b60009182526003602081815260408085206001600160a01b0394851686529091529092208054600182015460028301549483015460049093015491959316939260ff90911690565b61180c611b63565b6001600160a01b031661181d6111fc565b6001600160a01b0316146118435760405162461bcd60e51b81526004016103f490613285565b6001600160a01b0381166118695760405162461bcd60e51b81526004016103f490612ecb565b61187281612368565b50565b600082815260026020819052604090912060058101548154600183015492909301546001600160a01b039384169360ff600160a81b8404169216908510156118cf5760405162461bcd60e51b81526004016103f4906133ea565b600160008781526002602052604090206009015460ff16600381111561190557634e487b7160e01b600052602160045260246000fd5b148061196d5750600260008781526002602052604090206009015460ff16600381111561194257634e487b7160e01b600052602160045260246000fd5b14801561195157506001821515145b801561196d575060008681526002602052604090206006015442105b6119895760405162461bcd60e51b81526004016103f490613081565b8461199a611995611b63565b6123b8565b10156119b85760405162461bcd60e51b81526004016103f490612f11565b6000806000806119c988888b612443565b93509350935093506119e36119dc6111fc565b86846124b0565b6119ff5760405162461bcd60e51b81526004016103f490613437565b6001600160a01b03841615611a3557611a198486856124b0565b611a355760405162461bcd60e51b81526004016103f49061313f565b611a47611a40611b63565b86836124b0565b611a635760405162461bcd60e51b81526004016103f490613180565b611a76888830611a71611b63565b611cc6565b611a925760405162461bcd60e51b81526004016103f4906133b5565b60008a815260026020819052604082200154611aad90611b67565b90506000611abd87836000611d36565b1015611adb5760405162461bcd60e51b81526004016103f4906130db565b611aee8b611ae7611b63565b600061203f565b7ff18fd7f8585dc258636a453d4a87ee3dd6edda50c1f438348bddf640ca6fbbec8b8a888b8e611b1c611b63565b8d8c8c8c8c42604051611b3a9c9b9a99989796959493929190612b29565b60405180910390a1505050505050509250929050565b6000611b5c8383612517565b9392505050565b3390565b6000611b8a600e54611b84600b548561252390919063ffffffff16565b9061252f565b92915050565b6001600160a01b038082166000908152600f6020526040808220546011549151630fa6707960e21b815292939092611b5c9284921690633e99c1e490611bda908890600401612a14565b60206040518083038186803b158015611bf257600080fd5b505afa158015611c06573d6000803e3d6000fd5b505050506040513d601f19601f82011682018060405250810190611c2a9190612991565b9061253b565b60405163020604bf60e21b81526000906001600160a01b0384169063081812fc90611c5f908590600401612b20565b60206040518083038186803b158015611c7757600080fd5b505afa925050508015611ca7575060408051601f3d908101601f19168201909252611ca49181019061271d565b60015b611cb357506000611b8a565b6001600160a01b03163014905092915050565b604051632142170760e11b81526000906001600160a01b038616906342842e0e90611cf990869086908990600401612a42565b600060405180830381600087803b158015611d1357600080fd5b505af1158015611d27573d6000803e3d6000fd5b50600198975050505050505050565b600081611d65576001600160a01b0384166000908152600f6020526040902054611d60908461253b565b611d88565b6001600160a01b0384166000908152600f6020526040902054611d889084612517565b6001600160a01b0385166000908152600f6020526040902081905590509392505050565b6000604051806101800160405280876001600160a01b0316815260200185815260200184815260200160008152602001866001600160a01b0316815260200160006001600160a01b03168152602001600015158152602001600015158152602001838152602001600081526020016000815260200160016003811115611e4257634e487b7160e01b600052602160045260246000fd5b9052600088815260026020818152604092839020845181546001600160a01b039182166001600160a01b03199182161783559286015160018084019190915594860151938201939093556060850151600380830191909155608086015160048301805491861691851691909117905560a086015160058301805460c089015160e08a01511515600160a81b0260ff60a81b19911515600160a01b0260ff60a01b199590991692909716919091179290921695909517169290921790925561010084015160068301556101208401516007830155610140840151600883015561016084015160098301805493949193909260ff1990911691908490811115611f5957634e487b7160e01b600052602160045260246000fd5b021790555060019998505050505050505050565b600080611f8b600d54611b84600a548661252390919063ffffffff16565b9150611f9a82611c2a85611b67565b9050915091565b6000611fab6111fc565b905090565b60115460405163929c517960e01b81526000916001600160a01b03169063929c517990611fe590879087908790600401612a42565b602060405180830381600087803b158015611fff57600080fd5b505af1158015612013573d6000803e3d6000fd5b505050506040513d601f19601f8201168201806040525081019061203791906128d1565b949350505050565b6000838152600260205260409020600901805482919060ff1916600183600381111561207b57634e487b7160e01b600052602160045260246000fd5b02179055506001600160a01b038216156120ba57600083815260026020526040902060050180546001600160a01b0319166001600160a01b0384161790555b505050565b60006040518061018001604052808a6001600160a01b0316815260200188815260200187815260200160008152602001896001600160a01b0316815260200160006001600160a01b0316815260200160011515815260200186151581526020018481526020018381526020018581526020016002600381111561215257634e487b7160e01b600052602160045260246000fd5b905260008b815260026020818152604092839020845181546001600160a01b039182166001600160a01b03199182161783559286015160018084019190915594860151938201939093556060850151600380830191909155608086015160048301805491861691851691909117905560a086015160058301805460c089015160e08a01511515600160a81b0260ff60a81b19911515600160a01b0260ff60a01b199590991692909716919091179290921695909517169290921790925561010084015160068301556101208401516007830155610140840151600883015561016084015160098301805493949193909260ff199091169190849081111561226957634e487b7160e01b600052602160045260246000fd5b021790555060019c9b505050505050505050505050565b6040805180820182528781526001600160a01b03948516602080830182815260008a8152600480845286822095518655915160019586018054918b166001600160a01b0319928316179055865160a0810188529c8d529989168c84019081528c870198895260608d0197885260808d018281529b82526003808552878320958352949093529490942099518a555189830180549190971697169690961790945591516002870155519285019290925591519201805492151560ff199093169290921790915590565b6001600160a01b03919091166000908152600f6020526040902055600190565b600080546001600160a01b038381166001600160a01b0319831681178455604051919092169283917f8be0079c531659141344cd1fd0a4f28419497f9722a3daafe3b4186f6b6457e09190a35050565b600654604051636eb1769f60e11b815260009164010000000090046001600160a01b03169063dd62ed3e906123f39085903090600401612a28565b60206040518083038186803b15801561240b57600080fd5b505afa15801561241f573d6000803e3d6000fd5b505050506040513d601f19601f82011682018060405250810190611b8a9190612991565b60008060008061245285612547565b915061245e858361253b565b905061246987612564565b156124a7576124798787876125f6565b9094509250821580159061249557506001600160a01b03841615155b156124a7576124a4818461253b565b90505b93509350935093565b6006546040516323b872dd60e01b815260009164010000000090046001600160a01b0316906323b872dd90611fe590879087908790600401612a42565b60008061250b600c54611b846009548661252390919063ffffffff16565b9150611f9a838361253b565b6000611b5c82846134a6565b6000611b5c82846134de565b6000611b5c82846134be565b6000611b5c82846134fd565b6000611b8a600854611b846007548561252390919063ffffffff16565b6006546040516301ffc9a760e01b81526000916001600160a01b038416916301ffc9a79161259b9160e09190911b90600401612d7d565b60206040518083038186803b1580156125b357600080fd5b505afa9250505080156125e3575060408051601f3d908101601f191682019092526125e0918101906128d1565b60015b6125ef575060006103cc565b90506103cc565b600080846001600160a01b0316632a55205a85856040518363ffffffff1660e01b8152600401612627929190613498565b604080518083038186803b15801561263e57600080fd5b505afa158015612652573d6000803e3d6000fd5b505050506040513d601f19601f820116820180604052508101906126769190612809565b90969095509350505050565b8280548282559060005260206000209081019282156126c25760005260206000209182015b828111156126c25782548255916001019190600101906126a7565b506126ce9291506126ec565b5090565b508054600082559060005260206000209081019061187291905b5b808211156126ce57600081556001016126ed565b600060208284031215612712578081fd5b8135611b5c81613596565b60006020828403121561272e578081fd5b8151611b5c81613596565b6000806000806080858703121561274e578283fd5b843561275981613596565b935060208581013561276a81613596565b935060408601359250606086013567ffffffffffffffff8082111561278d578384fd5b818801915088601f8301126127a0578384fd5b8135818111156127b2576127b2613580565b604051601f8201601f19168101850183811182821017156127d5576127d5613580565b60405281815283820185018b10156127eb578586fd5b81858501868301379081019093019390935250939692955090935050565b6000806040838503121561281b578182fd5b825161282681613596565b6020939093015192949293505050565b60008060006060848603121561284a578283fd5b833561285581613596565b95602085013595506040909401359392505050565b600080600080600080600060e0888a031215612884578283fd5b873561288f81613596565b965060208801359550604088013594506060880135935060808801356128b4816135ab565b9699959850939692959460a0840135945060c09093013592915050565b6000602082840312156128e2578081fd5b8151611b5c816135ab565b6000602082840312156128fe578081fd5b5035919050565b60008060408385031215612917578182fd5b82359150602083013561292981613596565b809150509250929050565b60008060008060808587031215612949578384fd5b84359350602085013561295b81613596565b93969395505050506040820135916060013590565b60008060408385031215612982578182fd5b50508035926020909101359150565b6000602082840312156129a2578081fd5b5051919050565b6bffffffffffffffffffffffff19606095861b8116825260148201949094529190931b9091166034820152604881019190915260680190565b9384526bffffffffffffffffffffffff19606093841b811660208601529190921b166034830152604882015260680190565b6001600160a01b0391909116815260200190565b6001600160a01b0392831681529116602082015260400190565b6001600160a01b039384168152919092166020820152604081019190915260600190565b6001600160a01b03929092168252602082015260400190565b6001600160a01b0394909416845260208401929092526040830152606082015260800190565b6001600160a01b039c8d168152602081019b909b5260408b019990995260608a019790975294891660808901529290971660a0870152151560c086015294151560e08501526101008401949094526101208301939093526101408201929092526101608101919091526101800190565b901515815260200190565b90815260200190565b9b8c526001600160a01b039a8b1660208d0152988a1660408c015260608b019790975260808a019590955292871660a089015290151560c088015290941660e08601526101008501939093526101208401929092526101408301919091526101608201526101800190565b9586526001600160a01b03948516602087015292909316604085015260608401526080830191909152151560a082015260c00190565b998a526001600160a01b0398891660208b015296909716604089015260608801949094526080870192909252151560a086015260c085015260e08401526101008301919091526101208201526101400190565b9788526001600160a01b0396871660208901529490951660408701526060860192909252608085015260a084015260c083019190915260e08201526101000190565b9485526001600160a01b03939093166020850152604084019190915260608301521515608082015260a00190565b998a5260208a01989098526001600160a01b0396871660408a015294861660608901526080880193909352931660a086015260c085019290925260e08401919091526101008301526101208201526101400190565b9a8b5260208b01999099526001600160a01b0397881660408b015295871660608a0152608089019490945260a088019290925290931660c086015260e08501929092526101008401919091526101208301526101408201526101600190565b96875260208701959095526001600160a01b039384166040870152919092166060850152608084019190915260a083015260c082015260e00190565b6001600160e01b031991909116815260200190565b6000602080835283518082850152825b81811015612dbe57858101830151858201604001528201612da2565b81811115612dcf5783604083870101525b50601f01601f1916929092016040019392505050565b60208082526028908201527f626964207072696365206d757374206265206d6f7265207468616e20746865206040820152671b185cdd08189a5960c21b606082015260800190565b6020808252601b908201527f52657365727665205a65726f206973206e6f7420616c6c6f7765640000000000604082015260600190565b60208082526017908201527f43616c6c6572206973206e6f7420746865206f776e6572000000000000000000604082015260600190565b602080825260169082015275436f756c646e2774206c69737420746865206974656d60501b604082015260600190565b60208082526026908201527f4f776e61626c653a206e6577206f776e657220697320746865207a65726f206160408201526564647265737360d01b606082015260800190565b60208082526044908201527f4d61726b6574706c616365206973206e6f7420616c6c6f77656420746f20776960408201527f7468647261772074686520726571756972656420616d6f756e74206f6620746f6060820152636b656e7360e01b608082015260a00190565b60208082526036908201527f626964207072696365206d757374206265206d6f7265207468616e206f7220656040820152757175616c20746865206d696e696d756d20707269636560501b606082015260800190565b60208082526014908201527320b63932b0b23c903137bab3b43a103a37b5b2b760611b604082015260600190565b6020808252602d908201527f636f756c646e277420646564756374207468652066696e6520666f722074686560408201526c0818591b5a5b881dd85b1b195d609a1b606082015260800190565b6020808252818101527f4e6f2062696473206f72207374696c6c2072756e6e696e672061756374696f6e604082015260600190565b60208082526015908201527402a37b5b2b71034b9b737ba103337b91039b0b6329605d1b604082015260600190565b6020808252601190820152701cd95d081c995cd95c9d994819985a5b19607a1b604082015260600190565b6020808252601f908201527f6e656761746976652072657365727665206973206e6f7420616c6c6f77656400604082015260600190565b6020808252601390820152724e6f7420656e6f75676820726573657276657360681b604082015260600190565b60208082526021908201527f436f756c646e2774207472616e7366657220746f6b656e20746f2069737375656040820152603960f91b606082015260800190565b6020808252818101527f436f756c646e2774207472616e7366657220746f6b656e20746f206275796572604082015260600190565b60208082526018908201527f43616c6c6572206973206e6f74207468652077696e6e65720000000000000000604082015260600190565b60208082526019908201527f5a65726f207072696365206973206e6f7420616c6c6f77656400000000000000604082015260600190565b60208082526018908201527f636f756c646e277420646564756374207468652066696e650000000000000000604082015260600190565b602080825260119082015270105b1c9958591e481c1d5c98da185cd959607a1b604082015260600190565b6020808252818101527f4f776e61626c653a2063616c6c6572206973206e6f7420746865206f776e6572604082015260600190565b6020808252600c908201526b10dbdd5b191b89dd08109a5960a21b604082015260600190565b6020808252602d908201527f41756374696f6e2073686f756c64206265206c69766520666f72206d6f72652060408201526c7468616e20313220686f75727360981b606082015260800190565b60208082526031908201527f4d61726b6574706c616365206973206e6f7420616c6c6f77656420746f20747260408201527030b739b332b9103cb7bab9103a37b5b2b760791b606082015260800190565b60208082526019908201527f5a65726f2056616c7565206973206e6f7420616c6c6f77656400000000000000604082015260600190565b6020808252818101527f4e465420746f6b656e20636f756c646e2774206265207472616e736665726564604082015260600190565b6020808252600d908201526c496e76616c696420707269636560981b604082015260600190565b6020808252600c908201526b10d85b89dd0819195b1a5cdd60a21b604082015260600190565b6020808252601f908201527f436f756c646e2774207472616e7366657220746f6b656e206173206665657300604082015260600190565b60208082526010908201526f105d58dd1a5bdb881a5cc8195b99195960821b604082015260600190565b918252602082015260400190565b600082198211156134b9576134b961356a565b500190565b6000826134d957634e487b7160e01b81526012600452602481fd5b500490565b60008160001904831182151516156134f8576134f861356a565b500290565b60008282101561350f5761350f61356a565b500390565b60028104600182168061352857607f821691505b6020821081141561354957634e487b7160e01b600052602260045260246000fd5b50919050565b60006000198214156135635761356361356a565b5060010190565b634e487b7160e01b600052601160045260246000fd5b634e487b7160e01b600052604160045260246000fd5b6001600160a01b038116811461187257600080fd5b801515811461187257600080fdfea2646970667358221220e67d953498ba183aa72cd5d52df13b1a03ca310ec672e14298005f28deca95c064736f6c63430008000033",
  "devdoc": {
    "author": "Eman Herawy, StartFi Team",
    "kind": "dev",
    "methods": {
      "bid(bytes32,address,uint256,uint256)": {
        "details": "called by dapps to bid on an auction ",
        "params": {
          "bidPrice": "price ",
          "listingId": "listing id ",
          "tokenAddress": "nft contract address",
          "tokenId": "token id "
        },
        "returns": {
          "bidId": "bid id"
        }
      },
      "buyNow(bytes32,uint256)": {
        "details": "called by buyer through dapps when s/he wants to buy a gevin NFT  token from the marketplace   ",
        "params": {
          "listingId": "listing id ",
          "price": "gevin price"
        },
        "returns": {
          "_NFTContract": "nft contract address",
          "tokenId": "token id "
        }
      },
      "createAuction(address,uint256,uint256,uint256,bool,uint256,uint256)": {
        "details": "called by dapps to create  new auction ",
        "params": {
          "duration": "when auction ends",
          "listingPrice": "min price ",
          "nFTContract": "nft contract address",
          "qualifyAmount": "amount of token locked as qualify for any bidder wants bid ",
          "sellFor": "price  to sell with if sellForEnabled=true",
          "sellForEnabled": "true if auction enable direct selling",
          "tokenId": "token id "
        },
        "returns": {
          "listId": "listing id"
        }
      },
      "deList(bytes32)": {
        "details": "called by seller through dapps when s/he wants to remove this token from the marketplace   ",
        "params": {
          "listingId": "listing id "
        },
        "returns": {
          "_NFTContract": "nft contract address",
          "tokenId": "token id "
        }
      },
      "disputeAuction(bytes32)": {
        "details": "called by seller through dapps when his/her auction is  not fullfilled after 3 days",
        "params": {
          "listingId": "listing id "
        },
        "returns": {
          "_NFTContract": "nft contract address",
          "tokenId": "token id "
        }
      },
      "freeReserves()": {
        "details": "called by user through dapps when his/her wants to free his reserved tokens which are no longer in active auction or listing",
        "returns": {
          "curentReserves": "user reserves after freeing the unused reservd"
        }
      },
      "fullfillBid(bytes32)": {
        "details": "called by bidder through dapps when bidder win an auction and wants to pay to get the NFT  ",
        "params": {
          "listingId": "listing id "
        },
        "returns": {
          "_NFTContract": "nft contract address",
          "tokenId": "token id "
        }
      },
      "getAuctionBidDetails(bytes32,address)": {
        "details": "called by dapp or any contract to get info about a given bidder in a listing    ",
        "params": {
          "bidder": "bidder address",
          "listingId": "listing id      "
        },
        "returns": {
          "bidId": "bid id",
          "bidPrice": "bid price",
          "nFTContract": " nft contract address",
          "tokenId": "nft token id"
        }
      },
      "getListingDetails(bytes32)": {
        "details": "called by dapp or any contract to get info about a gevin listing    ",
        "params": {
          "listingId": "listing id      "
        },
        "returns": {
          "bedEnabeled": "true if auction enabled  ",
          "buyer": " nft buyer address",
          "endPrice": "purchase price",
          "listingPrice": "initial price or minimum price that the seller can accept",
          "qualifyAmount": " amount of token locked as qualify for any bidder wants bid ",
          "releaseTime": " when auction ends",
          "sellFor": "if sell for enabled for auction, this should be more than zero",
          "sellForEnabled": "true if auction enable direct selling",
          "seller": " nft seller address",
          "status": "in number {Sold,OnMarket, onAuction,Canceled}",
          "tokenAddress": " nft contract address",
          "tokenId": "NFT token Id "
        }
      },
      "getServiceFee()": {
        "returns": {
          "_0": "the value of the state variable `_feeFraction`"
        }
      },
      "getUserReserved(address)": {
        "params": {
          "user": ": participant address"
        },
        "returns": {
          "_0": "the value of user reserves"
        }
      },
      "listOnMarketplace(address,uint256,uint256)": {
        "details": "called by dapps to list new item ",
        "params": {
          "listingPrice": "min price ",
          "nFTContract": "nft contract address",
          "tokenId": "token id "
        },
        "returns": {
          "listId": "listing id"
        }
      },
      "marketPlaceName()": {
        "returns": {
          "_0": "market place name"
        }
      },
      "onERC721Received(address,address,uint256,bytes)": {
        "details": "See {IERC721Receiver-onERC721Received}. Always returns `IERC721Receiver.onERC721Received.selector`."
      },
      "owner()": {
        "details": "Returns the address of the current owner."
      },
      "paused()": {
        "details": "Returns true if the contract is paused, and false otherwise."
      },
      "renounceOwnership()": {
        "details": "Leaves the contract without owner. It will not be possible to call `onlyOwner` functions anymore. Can only be called by the current owner. NOTE: Renouncing ownership will leave the contract without an owner, thereby removing any functionality that is only available to the owner."
      },
      "transferOwnership(address)": {
        "details": "Transfers ownership of the contract to a new account (`newOwner`). Can only be called by the current owner."
      },
      "winnerBid(bytes32)": {
        "details": "called by dapp or any contract to get info about a winner bid    ",
        "params": {
          "listingId": "listing id      "
        },
        "returns": {
          "bidId": "bid id",
          "bidPrice": "bid price",
          "bidder": "bidder address",
          "isPurchased": "true if purchased",
          "nFTContract": " nft contract address",
          "tokenId": "nft token id"
        }
      }
    },
    "title": "StartFi MarketPlace desc  marketplace with all functions for item selling by either ceating auction or selling with fixed prices, the contract auto transfer orginal NFT issuer's shares    ",
    "version": 1
  },
  "userdoc": {
    "kind": "user",
    "methods": {
      "buyNow(bytes32,uint256)": {
        "notice": "if auction, the seller must enabe forSale. prices should be more than or equal the listing price"
      },
      "deList(bytes32)": {
        "notice": "auction can't be canceled , if seller delist time on sale on maretplace before time to delist, he will pay a fine"
      },
      "disputeAuction(bytes32)": {
        "notice": "after auction with winner bid . bidder didn't call fullfile within 3 days of auction closing  auction owner can call dispute to delist and punish the spam winner bidder fine is share between the plateform and the auction owner"
      },
      "freeReserves()": {
        "notice": "this function is greedy, called by user only when s/he wants rather than force the check & updates with every transaction which might be very costly ."
      }
    },
    "version": 1
  },
  "storageLayout": {
    "storage": [
      {
        "astId": 565,
        "contract": "contracts/StartFiMarketPlace.sol:StartFiMarketPlace",
        "label": "_owner",
        "offset": 0,
        "slot": "0",
        "type": "t_address"
      },
      {
        "astId": 679,
        "contract": "contracts/StartFiMarketPlace.sol:StartFiMarketPlace",
        "label": "_paused",
        "offset": 20,
        "slot": "0",
        "type": "t_bool"
      },
      {
        "astId": 5203,
        "contract": "contracts/StartFiMarketPlace.sol:StartFiMarketPlace",
        "label": "delistAfter",
        "offset": 0,
        "slot": "1",
        "type": "t_uint256"
      },
      {
        "astId": 5243,
        "contract": "contracts/StartFiMarketPlace.sol:StartFiMarketPlace",
        "label": "_tokenListings",
        "offset": 0,
        "slot": "2",
        "type": "t_mapping(t_bytes32,t_struct(Listing)5233_storage)"
      },
      {
        "astId": 5011,
        "contract": "contracts/StartFiMarketPlace.sol:StartFiMarketPlace",
        "label": "listingBids",
        "offset": 0,
        "slot": "3",
        "type": "t_mapping(t_bytes32,t_mapping(t_address,t_struct(Bid)4999_storage))"
      },
      {
        "astId": 5016,
        "contract": "contracts/StartFiMarketPlace.sol:StartFiMarketPlace",
        "label": "bidToListing",
        "offset": 0,
        "slot": "4",
        "type": "t_mapping(t_bytes32,t_struct(WinningBid)5004_storage)"
      },
      {
        "astId": 4796,
        "contract": "contracts/StartFiMarketPlace.sol:StartFiMarketPlace",
        "label": "_marketPlaceName",
        "offset": 0,
        "slot": "5",
        "type": "t_string_storage"
      },
      {
        "astId": 4799,
        "contract": "contracts/StartFiMarketPlace.sol:StartFiMarketPlace",
        "label": "RORALTY_INTERFACE",
        "offset": 0,
        "slot": "6",
        "type": "t_bytes4"
      },
      {
        "astId": 7325,
        "contract": "contracts/StartFiMarketPlace.sol:StartFiMarketPlace",
        "label": "_paymentToken",
        "offset": 4,
        "slot": "6",
        "type": "t_address"
      },
      {
        "astId": 7328,
        "contract": "contracts/StartFiMarketPlace.sol:StartFiMarketPlace",
        "label": "_feeFraction",
        "offset": 0,
        "slot": "7",
        "type": "t_uint256"
      },
      {
        "astId": 7331,
        "contract": "contracts/StartFiMarketPlace.sol:StartFiMarketPlace",
        "label": "_feeBase",
        "offset": 0,
        "slot": "8",
        "type": "t_uint256"
      },
      {
        "astId": 7334,
        "contract": "contracts/StartFiMarketPlace.sol:StartFiMarketPlace",
        "label": "bidPenaltyPercentage",
        "offset": 0,
        "slot": "9",
        "type": "t_uint256"
      },
      {
        "astId": 7337,
        "contract": "contracts/StartFiMarketPlace.sol:StartFiMarketPlace",
        "label": "delistFeesPercentage",
        "offset": 0,
        "slot": "10",
        "type": "t_uint256"
      },
      {
        "astId": 7340,
        "contract": "contracts/StartFiMarketPlace.sol:StartFiMarketPlace",
        "label": "listqualifyPercentage",
        "offset": 0,
        "slot": "11",
        "type": "t_uint256"
      },
      {
        "astId": 7343,
        "contract": "contracts/StartFiMarketPlace.sol:StartFiMarketPlace",
        "label": "bidPenaltyPercentageBase",
        "offset": 0,
        "slot": "12",
        "type": "t_uint256"
      },
      {
        "astId": 7346,
        "contract": "contracts/StartFiMarketPlace.sol:StartFiMarketPlace",
        "label": "delistFeesPercentageBase",
        "offset": 0,
        "slot": "13",
        "type": "t_uint256"
      },
      {
        "astId": 7349,
        "contract": "contracts/StartFiMarketPlace.sol:StartFiMarketPlace",
        "label": "listqualifyPercentageBase",
        "offset": 0,
        "slot": "14",
        "type": "t_uint256"
      },
      {
        "astId": 7353,
        "contract": "contracts/StartFiMarketPlace.sol:StartFiMarketPlace",
        "label": "userReserves",
        "offset": 0,
        "slot": "15",
        "type": "t_mapping(t_address,t_uint256)"
      },
      {
        "astId": 7358,
        "contract": "contracts/StartFiMarketPlace.sol:StartFiMarketPlace",
        "label": "userListing",
        "offset": 0,
        "slot": "16",
        "type": "t_mapping(t_address,t_array(t_bytes32)dyn_storage)"
      },
      {
        "astId": 7360,
        "contract": "contracts/StartFiMarketPlace.sol:StartFiMarketPlace",
        "label": "stakeContract",
        "offset": 0,
        "slot": "17",
        "type": "t_address"
      }
    ],
    "types": {
      "t_address": {
        "encoding": "inplace",
        "label": "address",
        "numberOfBytes": "20"
      },
      "t_array(t_bytes32)dyn_storage": {
        "base": "t_bytes32",
        "encoding": "dynamic_array",
        "label": "bytes32[]",
        "numberOfBytes": "32"
      },
      "t_bool": {
        "encoding": "inplace",
        "label": "bool",
        "numberOfBytes": "1"
      },
      "t_bytes32": {
        "encoding": "inplace",
        "label": "bytes32",
        "numberOfBytes": "32"
      },
      "t_bytes4": {
        "encoding": "inplace",
        "label": "bytes4",
        "numberOfBytes": "4"
      },
      "t_enum(ListingStatus)5238": {
        "encoding": "inplace",
        "label": "enum MarketPlaceListing.ListingStatus",
        "numberOfBytes": "1"
      },
      "t_mapping(t_address,t_array(t_bytes32)dyn_storage)": {
        "encoding": "mapping",
        "key": "t_address",
        "label": "mapping(address => bytes32[])",
        "numberOfBytes": "32",
        "value": "t_array(t_bytes32)dyn_storage"
      },
      "t_mapping(t_address,t_struct(Bid)4999_storage)": {
        "encoding": "mapping",
        "key": "t_address",
        "label": "mapping(address => struct MarketPlaceBid.Bid)",
        "numberOfBytes": "32",
        "value": "t_struct(Bid)4999_storage"
      },
      "t_mapping(t_address,t_uint256)": {
        "encoding": "mapping",
        "key": "t_address",
        "label": "mapping(address => uint256)",
        "numberOfBytes": "32",
        "value": "t_uint256"
      },
      "t_mapping(t_bytes32,t_mapping(t_address,t_struct(Bid)4999_storage))": {
        "encoding": "mapping",
        "key": "t_bytes32",
        "label": "mapping(bytes32 => mapping(address => struct MarketPlaceBid.Bid))",
        "numberOfBytes": "32",
        "value": "t_mapping(t_address,t_struct(Bid)4999_storage)"
      },
      "t_mapping(t_bytes32,t_struct(Listing)5233_storage)": {
        "encoding": "mapping",
        "key": "t_bytes32",
        "label": "mapping(bytes32 => struct MarketPlaceListing.Listing)",
        "numberOfBytes": "32",
        "value": "t_struct(Listing)5233_storage"
      },
      "t_mapping(t_bytes32,t_struct(WinningBid)5004_storage)": {
        "encoding": "mapping",
        "key": "t_bytes32",
        "label": "mapping(bytes32 => struct MarketPlaceBid.WinningBid)",
        "numberOfBytes": "32",
        "value": "t_struct(WinningBid)5004_storage"
      },
      "t_string_storage": {
        "encoding": "bytes",
        "label": "string",
        "numberOfBytes": "32"
      },
      "t_struct(Bid)4999_storage": {
        "encoding": "inplace",
        "label": "struct MarketPlaceBid.Bid",
        "members": [
          {
            "astId": 4990,
            "contract": "contracts/StartFiMarketPlace.sol:StartFiMarketPlace",
            "label": "bidId",
            "offset": 0,
            "slot": "0",
            "type": "t_bytes32"
          },
          {
            "astId": 4992,
            "contract": "contracts/StartFiMarketPlace.sol:StartFiMarketPlace",
            "label": "nFTContract",
            "offset": 0,
            "slot": "1",
            "type": "t_address"
          },
          {
            "astId": 4994,
            "contract": "contracts/StartFiMarketPlace.sol:StartFiMarketPlace",
            "label": "tokenId",
            "offset": 0,
            "slot": "2",
            "type": "t_uint256"
          },
          {
            "astId": 4996,
            "contract": "contracts/StartFiMarketPlace.sol:StartFiMarketPlace",
            "label": "bidPrice",
            "offset": 0,
            "slot": "3",
            "type": "t_uint256"
          },
          {
            "astId": 4998,
            "contract": "contracts/StartFiMarketPlace.sol:StartFiMarketPlace",
            "label": "isPurchased",
            "offset": 0,
            "slot": "4",
            "type": "t_bool"
          }
        ],
        "numberOfBytes": "160"
      },
      "t_struct(Listing)5233_storage": {
        "encoding": "inplace",
        "label": "struct MarketPlaceListing.Listing",
        "members": [
          {
            "astId": 5209,
            "contract": "contracts/StartFiMarketPlace.sol:StartFiMarketPlace",
            "label": "nFTContract",
            "offset": 0,
            "slot": "0",
            "type": "t_address"
          },
          {
            "astId": 5211,
            "contract": "contracts/StartFiMarketPlace.sol:StartFiMarketPlace",
            "label": "tokenId",
            "offset": 0,
            "slot": "1",
            "type": "t_uint256"
          },
          {
            "astId": 5213,
            "contract": "contracts/StartFiMarketPlace.sol:StartFiMarketPlace",
            "label": "listingPrice",
            "offset": 0,
            "slot": "2",
            "type": "t_uint256"
          },
          {
            "astId": 5215,
            "contract": "contracts/StartFiMarketPlace.sol:StartFiMarketPlace",
            "label": "endPrice",
            "offset": 0,
            "slot": "3",
            "type": "t_uint256"
          },
          {
            "astId": 5217,
            "contract": "contracts/StartFiMarketPlace.sol:StartFiMarketPlace",
            "label": "seller",
            "offset": 0,
            "slot": "4",
            "type": "t_address"
          },
          {
            "astId": 5219,
            "contract": "contracts/StartFiMarketPlace.sol:StartFiMarketPlace",
            "label": "buyer",
            "offset": 0,
            "slot": "5",
            "type": "t_address"
          },
          {
            "astId": 5221,
            "contract": "contracts/StartFiMarketPlace.sol:StartFiMarketPlace",
            "label": "bedEnabeled",
            "offset": 20,
            "slot": "5",
            "type": "t_bool"
          },
          {
            "astId": 5223,
            "contract": "contracts/StartFiMarketPlace.sol:StartFiMarketPlace",
            "label": "sellForEnabled",
            "offset": 21,
            "slot": "5",
            "type": "t_bool"
          },
          {
            "astId": 5225,
            "contract": "contracts/StartFiMarketPlace.sol:StartFiMarketPlace",
            "label": "releaseTime",
            "offset": 0,
            "slot": "6",
            "type": "t_uint256"
          },
          {
            "astId": 5227,
            "contract": "contracts/StartFiMarketPlace.sol:StartFiMarketPlace",
            "label": "qualifyAmount",
            "offset": 0,
            "slot": "7",
            "type": "t_uint256"
          },
          {
            "astId": 5229,
            "contract": "contracts/StartFiMarketPlace.sol:StartFiMarketPlace",
            "label": "sellFor",
            "offset": 0,
            "slot": "8",
            "type": "t_uint256"
          },
          {
            "astId": 5232,
            "contract": "contracts/StartFiMarketPlace.sol:StartFiMarketPlace",
            "label": "status",
            "offset": 0,
            "slot": "9",
            "type": "t_enum(ListingStatus)5238"
          }
        ],
        "numberOfBytes": "320"
      },
      "t_struct(WinningBid)5004_storage": {
        "encoding": "inplace",
        "label": "struct MarketPlaceBid.WinningBid",
        "members": [
          {
            "astId": 5001,
            "contract": "contracts/StartFiMarketPlace.sol:StartFiMarketPlace",
            "label": "bidId",
            "offset": 0,
            "slot": "0",
            "type": "t_bytes32"
          },
          {
            "astId": 5003,
            "contract": "contracts/StartFiMarketPlace.sol:StartFiMarketPlace",
            "label": "bidder",
            "offset": 0,
            "slot": "1",
            "type": "t_address"
          }
        ],
        "numberOfBytes": "64"
      },
      "t_uint256": {
        "encoding": "inplace",
        "label": "uint256",
        "numberOfBytes": "32"
      }
    }
  }
}