{
  "address": "0x8a7AD5B49CCBb79F1b02baa971D4A7E8afb29064",
  "abi": [
    {
      "inputs": [
        {
          "internalType": "address",
          "name": "_NFTContract",
          "type": "address"
        },
        {
          "internalType": "address",
          "name": "_paymentContract",
          "type": "address"
        }
      ],
      "stateMutability": "nonpayable",
      "type": "constructor"
    },
    {
      "anonymous": false,
      "inputs": [
        {
          "indexed": true,
          "internalType": "address",
          "name": "previousOwner",
          "type": "address"
        },
        {
          "indexed": true,
          "internalType": "address",
          "name": "newOwner",
          "type": "address"
        }
      ],
      "name": "OwnershipTransferred",
      "type": "event"
    },
    {
      "inputs": [
        {
          "internalType": "address",
          "name": "to",
          "type": "address"
        },
        {
          "internalType": "string",
          "name": "_tokenURI",
          "type": "string"
        },
        {
          "internalType": "uint8",
          "name": "share",
          "type": "uint8"
        },
        {
          "internalType": "uint8",
          "name": "base",
          "type": "uint8"
        }
      ],
      "name": "MintNFTWithRoyalty",
      "outputs": [
        {
          "internalType": "uint256",
          "name": "",
          "type": "uint256"
        }
      ],
      "stateMutability": "nonpayable",
      "type": "function"
    },
    {
      "inputs": [
        {
          "internalType": "address",
          "name": "to",
          "type": "address"
        },
        {
          "internalType": "string",
          "name": "_tokenURI",
          "type": "string"
        }
      ],
      "name": "MintNFTWithoutRoyalty",
      "outputs": [
        {
          "internalType": "uint256",
          "name": "",
          "type": "uint256"
        }
      ],
      "stateMutability": "nonpayable",
      "type": "function"
    },
    {
      "inputs": [
        {
          "internalType": "uint256",
          "name": "newFees",
          "type": "uint256"
        }
      ],
      "name": "changeFees",
      "outputs": [],
      "stateMutability": "nonpayable",
      "type": "function"
    },
    {
      "inputs": [
        {
          "internalType": "address",
          "name": "_nFTContract",
          "type": "address"
        }
      ],
      "name": "changeNftContract",
      "outputs": [],
      "stateMutability": "nonpayable",
      "type": "function"
    },
    {
      "inputs": [
        {
          "internalType": "address",
          "name": "_paymentContractAddress",
          "type": "address"
        }
      ],
      "name": "changePaymentContract",
      "outputs": [],
      "stateMutability": "nonpayable",
      "type": "function"
    },
    {
      "inputs": [],
      "name": "info",
      "outputs": [
        {
          "internalType": "address",
          "name": "",
          "type": "address"
        },
        {
          "internalType": "address",
          "name": "",
          "type": "address"
        },
        {
          "internalType": "uint256",
          "name": "",
          "type": "uint256"
        }
      ],
      "stateMutability": "view",
      "type": "function"
    },
    {
      "inputs": [],
      "name": "owner",
      "outputs": [
        {
          "internalType": "address",
          "name": "",
          "type": "address"
        }
      ],
      "stateMutability": "view",
      "type": "function"
    },
    {
      "inputs": [],
      "name": "renounceOwnership",
      "outputs": [],
      "stateMutability": "nonpayable",
      "type": "function"
    },
    {
      "inputs": [
        {
          "internalType": "address",
          "name": "newOwner",
          "type": "address"
        }
      ],
      "name": "transferOwnership",
      "outputs": [],
      "stateMutability": "nonpayable",
      "type": "function"
    }
  ],
  "transactionHash": "0xeed94328b6758ea06b4ebb43ee28a3dd43008b21b161a88d7e4189e814274b2e",
  "args": [
    "0xdC0AC0d84358E43d4cB6D1201f359D5BDb5293E4",
    "0xC80423A1C434b7EE5cF4a31B2Da2DB15D4844Da2"
  ],
  "solcInputHash": "3bdeb55aa7c775c4ed2e37696a1199f6",
  "bytecode": "0x6080604052600560015534801561001557600080fd5b50604051610bca380380610bca833981016040819052610034916100e5565b61004461003f610075565b610079565b600280546001600160a01b039384166001600160a01b03199182161790915560038054929093169116179055610117565b3390565b600080546001600160a01b038381166001600160a01b0319831681178455604051919092169283917f8be0079c531659141344cd1fd0a4f28419497f9722a3daafe3b4186f6b6457e09190a35050565b80516001600160a01b03811681146100e057600080fd5b919050565b600080604083850312156100f7578182fd5b610100836100c9565b915061010e602084016100c9565b90509250929050565b610aa4806101266000396000f3fe608060405234801561001057600080fd5b50600436106100935760003560e01c8063715018a611610066578063715018a6146101005780638606e604146101085780638da5cb5b1461011b578063a3db174414610130578063f2fde38b1461014357610093565b8063370158ea14610098578063489d2104146100b85780634f43eee4146100cd5780636cda375b146100ed575b600080fd5b6100a0610156565b6040516100af93929190610917565b60405180910390f35b6100cb6100c636600461077b565b610172565b005b6100e06100db366004610795565b6101dc565b6040516100af9190610a4f565b6100cb6100fb36600461086e565b61032f565b6100cb610373565b6100cb61011636600461077b565b6103be565b61012361041f565b6040516100af91906108e9565b6100e061013e3660046107e1565b61042e565b6100cb61015136600461077b565b610582565b6002546003546001546001600160a01b03928316939290911691565b61017a6105f3565b6001600160a01b031661018b61041f565b6001600160a01b0316146101ba5760405162461bcd60e51b81526004016101b190610a1a565b60405180910390fd5b600380546001600160a01b0319166001600160a01b0392909216919091179055565b60006001546101f16101ec6105f3565b6105f7565b101561020f5760405162461bcd60e51b81526004016101b1906109ec565b6003546001600160a01b03166323b872dd6102286105f3565b61023061041f565b6001546040518463ffffffff1660e01b815260040161025193929190610917565b602060405180830381600087803b15801561026b57600080fd5b505af115801561027f573d6000803e3d6000fd5b505050506040513d601f19601f820116820180604052508101906102a3919061084e565b5060025460405163d0def52160e01b81526001600160a01b039091169063d0def521906102d6908690869060040161093b565b602060405180830381600087803b1580156102f057600080fd5b505af1158015610304573d6000803e3d6000fd5b505050506040513d601f19601f820116820180604052508101906103289190610886565b9392505050565b6103376105f3565b6001600160a01b031661034861041f565b6001600160a01b03161461036e5760405162461bcd60e51b81526004016101b190610a1a565b600155565b61037b6105f3565b6001600160a01b031661038c61041f565b6001600160a01b0316146103b25760405162461bcd60e51b81526004016101b190610a1a565b6103bc6000610682565b565b6103c66105f3565b6001600160a01b03166103d761041f565b6001600160a01b0316146103fd5760405162461bcd60e51b81526004016101b190610a1a565b600280546001600160a01b0319166001600160a01b0392909216919091179055565b6000546001600160a01b031690565b600060015461043e6101ec6105f3565b101561045c5760405162461bcd60e51b81526004016101b1906109ec565b6003546001600160a01b03166323b872dd6104756105f3565b61047d61041f565b6001546040518463ffffffff1660e01b815260040161049e93929190610917565b602060405180830381600087803b1580156104b857600080fd5b505af11580156104cc573d6000803e3d6000fd5b505050506040513d601f19601f820116820180604052508101906104f0919061084e565b50600254604051631a1752ab60e31b81526001600160a01b039091169063d0ba955890610527908890889088908890600401610967565b602060405180830381600087803b15801561054157600080fd5b505af1158015610555573d6000803e3d6000fd5b505050506040513d601f19601f820116820180604052508101906105799190610886565b95945050505050565b61058a6105f3565b6001600160a01b031661059b61041f565b6001600160a01b0316146105c15760405162461bcd60e51b81526004016101b190610a1a565b6001600160a01b0381166105e75760405162461bcd60e51b81526004016101b1906109a6565b6105f081610682565b50565b3390565b600354604051636eb1769f60e11b81526000916001600160a01b03169063dd62ed3e9061062a90859030906004016108fd565b60206040518083038186803b15801561064257600080fd5b505afa158015610656573d6000803e3d6000fd5b505050506040513d601f19601f8201168201806040525081019061067a9190610886565b90505b919050565b600080546001600160a01b038381166001600160a01b0319831681178455604051919092169283917f8be0079c531659141344cd1fd0a4f28419497f9722a3daafe3b4186f6b6457e09190a35050565b80356001600160a01b038116811461067d57600080fd5b600082601f8301126106f9578081fd5b813567ffffffffffffffff8082111561071457610714610a58565b604051601f8301601f19168101602001828111828210171561073857610738610a58565b60405282815284830160200186101561074f578384fd5b82602086016020830137918201602001929092529392505050565b803560ff8116811461067d57600080fd5b60006020828403121561078c578081fd5b610328826106d2565b600080604083850312156107a7578081fd5b6107b0836106d2565b9150602083013567ffffffffffffffff8111156107cb578182fd5b6107d7858286016106e9565b9150509250929050565b600080600080608085870312156107f6578182fd5b6107ff856106d2565b9350602085013567ffffffffffffffff81111561081a578283fd5b610826878288016106e9565b9350506108356040860161076a565b91506108436060860161076a565b905092959194509250565b60006020828403121561085f578081fd5b81518015158114610328578182fd5b60006020828403121561087f578081fd5b5035919050565b600060208284031215610897578081fd5b5051919050565b60008151808452815b818110156108c3576020818501810151868301820152016108a7565b818111156108d45782602083870101525b50601f01601f19169290920160200192915050565b6001600160a01b0391909116815260200190565b6001600160a01b0392831681529116602082015260400190565b6001600160a01b039384168152919092166020820152604081019190915260600190565b6001600160a01b038316815260406020820181905260009061095f9083018461089e565b949350505050565b6001600160a01b038516815260806020820181905260009061098b9083018661089e565b60ff9485166040840152929093166060909101529392505050565b60208082526026908201527f4f776e61626c653a206e6577206f776e657220697320746865207a65726f206160408201526564647265737360d01b606082015260800190565b602080825260149082015273139bdd08195b9bdd59da081999595cc81c185a5960621b604082015260600190565b6020808252818101527f4f776e61626c653a2063616c6c6572206973206e6f7420746865206f776e6572604082015260600190565b90815260200190565b634e487b7160e01b600052604160045260246000fdfea2646970667358221220fe076206e718ed84284e3184c3fc1f9448102116ff1a69164d25ed9e81a3124164736f6c63430008000033",
  "devdoc": {
    "author": "Eman Herawy, StartFi Team.",
    "kind": "dev",
    "methods": {
      "MintNFTWithRoyalty(address,string,uint8,uint8)": {
        "details": ": tokens are transfered directly to the admin wallet . Called by the token issuer .",
        "params": {
          "_tokenURI": ": serialized json object that has the following data ( category, name , desc , tages, ipfs hash).",
          "base": ": eg. 10 .",
          "share": ": eg. 25.",
          "to": ": NFT issuer."
        },
        "returns": {
          "_0": "token id ."
        }
      },
      "MintNFTWithoutRoyalty(address,string)": {
        "details": ": tokens are transfered directly to the admin wallet. Called by the token issuer .",
        "params": {
          "_tokenURI": ": serialized json object that has the following data ( category, name , desc , tages, ipfs hash).",
          "to": ": NFT issuer."
        },
        "returns": {
          "_0": "token id ."
        }
      },
      "changeFees(uint256)": {
        "params": {
          "newFees": ": integer number represents the new fees."
        }
      },
      "changeNftContract(address)": {
        "details": "for later on upgrade , if we have.",
        "params": {
          "_nFTContract": ": startfi new NFT contract."
        }
      },
      "changePaymentContract(address)": {
        "details": "for later on upgrade , if we have",
        "params": {
          "_paymentContractAddress": ": startfi new utility contract"
        }
      },
      "info()": {
        "details": ":  function to get all the public info about the contract.",
        "returns": {
          "_0": "NFT token address, utility token address, minting fees."
        }
      },
      "owner()": {
        "details": "Returns the address of the current owner."
      },
      "renounceOwnership()": {
        "details": "Leaves the contract without owner. It will not be possible to call `onlyOwner` functions anymore. Can only be called by the current owner. NOTE: Renouncing ownership will leave the contract without an owner, thereby removing any functionality that is only available to the owner."
      },
      "transferOwnership(address)": {
        "details": "Transfers ownership of the contract to a new account (`newOwner`). Can only be called by the current owner."
      }
    },
    "title": "StartFi NFT Payment contract. [ desc ] : contract to handle minting NFT after the contract is approved to transfer the fees by STFI.",
    "version": 1
  },
  "userdoc": {
    "kind": "user",
    "methods": {
      "MintNFTWithRoyalty(address,string,uint8,uint8)": {
        "notice": "caller should approve the contract to transfer the fees first."
      },
      "MintNFTWithoutRoyalty(address,string)": {
        "notice": "caller should approve the contract to transfer the fees first."
      },
      "changeFees(uint256)": {
        "notice": "only called by admin wallet."
      },
      "changeNftContract(address)": {
        "notice": "only called by admin wallet."
      },
      "changePaymentContract(address)": {
        "notice": "only called by admin wallet"
      }
    },
    "version": 1
  },
  "storageLayout": {
    "storage": [
      {
        "astId": 565,
        "contract": "contracts/StartFiNFTPayment.sol:StartFiNFTPayment",
        "label": "_owner",
        "offset": 0,
        "slot": "0",
        "type": "t_address"
      },
      {
        "astId": 7102,
        "contract": "contracts/StartFiNFTPayment.sol:StartFiNFTPayment",
        "label": "_fees",
        "offset": 0,
        "slot": "1",
        "type": "t_uint256"
      },
      {
        "astId": 7104,
        "contract": "contracts/StartFiNFTPayment.sol:StartFiNFTPayment",
        "label": "_NFTToken",
        "offset": 0,
        "slot": "2",
        "type": "t_address"
      },
      {
        "astId": 7106,
        "contract": "contracts/StartFiNFTPayment.sol:StartFiNFTPayment",
        "label": "_paymentToken",
        "offset": 0,
        "slot": "3",
        "type": "t_address"
      }
    ],
    "types": {
      "t_address": {
        "encoding": "inplace",
        "label": "address",
        "numberOfBytes": "20"
      },
      "t_uint256": {
        "encoding": "inplace",
        "label": "uint256",
        "numberOfBytes": "32"
      }
    }
  }
}