{
  "address": "0x9b399E42F64B3294f5D40f7ce2FC4A3B35D9F3E1",
  "abi": [
    {
      "inputs": [
        {
          "internalType": "address",
          "name": "_stfiToken",
          "type": "address"
        }
      ],
      "stateMutability": "nonpayable",
      "type": "constructor"
    },
    {
      "anonymous": false,
      "inputs": [
        {
          "indexed": true,
          "internalType": "address",
          "name": "previousOwner",
          "type": "address"
        },
        {
          "indexed": true,
          "internalType": "address",
          "name": "newOwner",
          "type": "address"
        }
      ],
      "name": "OwnershipTransferred",
      "type": "event"
    },
    {
      "inputs": [
        {
          "internalType": "address",
          "name": "finePayer",
          "type": "address"
        },
        {
          "internalType": "address",
          "name": "to",
          "type": "address"
        },
        {
          "internalType": "uint256",
          "name": "amount",
          "type": "uint256"
        }
      ],
      "name": "deduct",
      "outputs": [
        {
          "internalType": "bool",
          "name": "",
          "type": "bool"
        }
      ],
      "stateMutability": "nonpayable",
      "type": "function"
    },
    {
      "inputs": [
        {
          "internalType": "address",
          "name": "user",
          "type": "address"
        },
        {
          "internalType": "uint256",
          "name": "amount",
          "type": "uint256"
        }
      ],
      "name": "deposit",
      "outputs": [],
      "stateMutability": "nonpayable",
      "type": "function"
    },
    {
      "inputs": [
        {
          "internalType": "address",
          "name": "owner",
          "type": "address"
        }
      ],
      "name": "getReserves",
      "outputs": [
        {
          "internalType": "uint256",
          "name": "",
          "type": "uint256"
        }
      ],
      "stateMutability": "view",
      "type": "function"
    },
    {
      "inputs": [],
      "name": "owner",
      "outputs": [
        {
          "internalType": "address",
          "name": "",
          "type": "address"
        }
      ],
      "stateMutability": "view",
      "type": "function"
    },
    {
      "inputs": [],
      "name": "renounceOwnership",
      "outputs": [],
      "stateMutability": "nonpayable",
      "type": "function"
    },
    {
      "inputs": [
        {
          "internalType": "address",
          "name": "_marketplace",
          "type": "address"
        }
      ],
      "name": "setMarketplace",
      "outputs": [],
      "stateMutability": "nonpayable",
      "type": "function"
    },
    {
      "inputs": [
        {
          "internalType": "address",
          "name": "newOwner",
          "type": "address"
        }
      ],
      "name": "transferOwnership",
      "outputs": [],
      "stateMutability": "nonpayable",
      "type": "function"
    },
    {
      "inputs": [
        {
          "internalType": "uint256",
          "name": "amount",
          "type": "uint256"
        }
      ],
      "name": "withdraw",
      "outputs": [],
      "stateMutability": "nonpayable",
      "type": "function"
    }
  ],
  "transactionHash": "0x31d16896a3e2ca3891aa71226e7b6765d43b24184b9a3505e0c7b9118ca00740",
  "args": [
    "0xE6042703475D0dd1bC2eB564a55F1832c2527171"
  ],
  "solcInputHash": "720d8e60b456acb61cbc0ff1c06f337a",
  "bytecode": "0x608060405234801561001057600080fd5b50604051610b23380380610b2383398101604081905261002f916100ac565b60006100396100a8565b600080546001600160a01b0319166001600160a01b0383169081178255604051929350917f8be0079c531659141344cd1fd0a4f28419497f9722a3daafe3b4186f6b6457e0908290a350600380546001600160a01b0319166001600160a01b03929092169190911790556100da565b3390565b6000602082840312156100bd578081fd5b81516001600160a01b03811681146100d3578182fd5b9392505050565b610a3a806100e96000396000f3fe608060405234801561001057600080fd5b50600436106100885760003560e01c806373ad6c2d1161005b57806373ad6c2d146100e65780638da5cb5b146100f9578063929c51791461010e578063f2fde38b1461012e57610088565b80632e1a7d4d1461008d5780633e99c1e4146100a257806347e7ef24146100cb578063715018a6146100de575b600080fd5b6100a061009b366004610836565b610141565b005b6100b56100b0366004610798565b610275565b6040516100c291906109b6565b60405180910390f35b6100a06100d93660046107ed565b610294565b6100a0610319565b6100a06100f4366004610798565b6103a2565b610101610403565b6040516100c29190610866565b61012161011c3660046107b2565b610412565b6040516100c291906108d1565b6100a061013c366004610798565b610501565b6002546000906001600160a01b0316631f78fd0b61015d6105c1565b6040518263ffffffff1660e01b81526004016101799190610866565b60206040518083038186803b15801561019157600080fd5b505afa1580156101a5573d6000803e3d6000fd5b505050506040513d601f19601f820116820180604052508101906101c9919061084e565b905060006101fd82600160006101dd6105c1565b6001600160a01b03168152602081019190915260400160002054906105c5565b9050828111156102285760405162461bcd60e51b815260040161021f90610922565b60405180910390fd5b6102396102336105c1565b846105d8565b5061024a83600160006101dd6105c1565b600160006102566105c1565b6001600160a01b03168152602081019190915260400160002055505050565b6001600160a01b0381166000908152600160205260409020545b919050565b806102a56102a06105c1565b61065d565b10156102c35760405162461bcd60e51b815260040161021f90610922565b6102d56102ce6105c1565b30836106e6565b506001600160a01b0382166000908152600160205260409020546102f99082610775565b6001600160a01b0390921660009081526001602052604090209190915550565b6103216105c1565b6001600160a01b0316610332610403565b6001600160a01b0316146103585760405162461bcd60e51b815260040161021f90610981565b600080546040516001600160a01b03909116907f8be0079c531659141344cd1fd0a4f28419497f9722a3daafe3b4186f6b6457e0908390a3600080546001600160a01b0319169055565b6103aa6105c1565b6001600160a01b03166103bb610403565b6001600160a01b0316146103e15760405162461bcd60e51b815260040161021f90610981565b600280546001600160a01b0319166001600160a01b0392909216919091179055565b6000546001600160a01b031690565b6002546000906001600160a01b03166104296105c1565b6001600160a01b03161461044f5760405162461bcd60e51b815260040161021f9061094a565b6001600160a01b0384166000908152600160205260409020548210156104875760405162461bcd60e51b815260040161021f90610922565b6001600160a01b0384166000908152600160205260409020546104aa90836105c5565b6001600160a01b0380861660009081526001602052604080822093909355908516815220546104d99083610775565b6001600160a01b03841660009081526001602081905260409091209190915590509392505050565b6105096105c1565b6001600160a01b031661051a610403565b6001600160a01b0316146105405760405162461bcd60e51b815260040161021f90610981565b6001600160a01b0381166105665760405162461bcd60e51b815260040161021f906108dc565b600080546040516001600160a01b03808516939216917f8be0079c531659141344cd1fd0a4f28419497f9722a3daafe3b4186f6b6457e091a3600080546001600160a01b0319166001600160a01b0392909216919091179055565b3390565b60006105d182846109d7565b9392505050565b60035460405163a9059cbb60e01b81526000916001600160a01b03169063a9059cbb9061060b90869086906004016108b8565b602060405180830381600087803b15801561062557600080fd5b505af1158015610639573d6000803e3d6000fd5b505050506040513d601f19601f820116820180604052508101906105d19190610816565b600354604051636eb1769f60e11b81526000916001600160a01b03169063dd62ed3e90610690908590309060040161087a565b60206040518083038186803b1580156106a857600080fd5b505afa1580156106bc573d6000803e3d6000fd5b505050506040513d601f19601f820116820180604052508101906106e0919061084e565b92915050565b6003546040516323b872dd60e01b81526000916001600160a01b0316906323b872dd9061071b90879087908790600401610894565b602060405180830381600087803b15801561073557600080fd5b505af1158015610749573d6000803e3d6000fd5b505050506040513d601f19601f8201168201806040525081019061076d9190610816565b949350505050565b60006105d182846109bf565b80356001600160a01b038116811461028f57600080fd5b6000602082840312156107a9578081fd5b6105d182610781565b6000806000606084860312156107c6578182fd5b6107cf84610781565b92506107dd60208501610781565b9150604084013590509250925092565b600080604083850312156107ff578182fd5b61080883610781565b946020939093013593505050565b600060208284031215610827578081fd5b815180151581146105d1578182fd5b600060208284031215610847578081fd5b5035919050565b60006020828403121561085f578081fd5b5051919050565b6001600160a01b0391909116815260200190565b6001600160a01b0392831681529116602082015260400190565b6001600160a01b039384168152919092166020820152604081019190915260600190565b6001600160a01b03929092168252602082015260400190565b901515815260200190565b60208082526026908201527f4f776e61626c653a206e6577206f776e657220697320746865207a65726f206160408201526564647265737360d01b606082015260800190565b6020808252600e908201526d125b9d985b1a5908185b5bdd5b9d60921b604082015260600190565b6020808252601d908201527f43616c6c6572206973206e6f7420746865206d61726b6574706c616365000000604082015260600190565b6020808252818101527f4f776e61626c653a2063616c6c6572206973206e6f7420746865206f776e6572604082015260600190565b90815260200190565b600082198211156109d2576109d26109ee565b500190565b6000828210156109e9576109e96109ee565b500390565b634e487b7160e01b600052601160045260246000fdfea26469706673582212207ce33b63ac2c35ebeb6425a8673c7f2b8ccb8df63e0672f7ee8cd09cc735bb3264736f6c63430008000033",
  "devdoc": {
    "author": "Eman Herawy, StartFi Team",
    "kind": "dev",
    "methods": {
      "owner()": {
        "details": "Returns the address of the current owner."
      },
      "renounceOwnership()": {
        "details": "Leaves the contract without owner. It will not be possible to call `onlyOwner` functions anymore. Can only be called by the current owner. NOTE: Renouncing ownership will leave the contract without an owner, thereby removing any functionality that is only available to the owner."
      },
      "transferOwnership(address)": {
        "details": "Transfers ownership of the contract to a new account (`newOwner`). Can only be called by the current owner."
      }
    },
    "title": "Startfi Stakes [ desc ] : contract to hold users stakes ",
    "version": 1
  },
  "userdoc": {
    "kind": "user",
    "methods": {},
    "notice": ": the logic behind this contract is not implemented yet, this is just a basic design for the sake of testing the marketplace cycle",
    "version": 1
  },
  "storageLayout": {
    "storage": [
      {
        "astId": 565,
        "contract": "contracts/StartfiStakes.sol:StartfiStakes",
        "label": "_owner",
        "offset": 0,
        "slot": "0",
        "type": "t_address"
      },
      {
        "astId": 8326,
        "contract": "contracts/StartfiStakes.sol:StartfiStakes",
        "label": "stakerReserved",
        "offset": 0,
        "slot": "1",
        "type": "t_mapping(t_address,t_uint256)"
      },
      {
        "astId": 8328,
        "contract": "contracts/StartfiStakes.sol:StartfiStakes",
        "label": "marketplace",
        "offset": 0,
        "slot": "2",
        "type": "t_address"
      },
      {
        "astId": 8330,
        "contract": "contracts/StartfiStakes.sol:StartfiStakes",
        "label": "stfiToken",
        "offset": 0,
        "slot": "3",
        "type": "t_address"
      }
    ],
    "types": {
      "t_address": {
        "encoding": "inplace",
        "label": "address",
        "numberOfBytes": "20"
      },
      "t_mapping(t_address,t_uint256)": {
        "encoding": "mapping",
        "key": "t_address",
        "label": "mapping(address => uint256)",
        "numberOfBytes": "32",
        "value": "t_uint256"
      },
      "t_uint256": {
        "encoding": "inplace",
        "label": "uint256",
        "numberOfBytes": "32"
      }
    }
  }
}