{
  "_format": "hh-sol-artifact-1",
  "contractName": "StartfiMarketPlaceFinance",
  "sourceName": "contracts/StartfiMarketPlaceFinance.sol",
  "abi": [
    {
      "inputs": [
        {
          "internalType": "string",
          "name": "_name",
          "type": "string"
        },
        {
          "internalType": "address",
          "name": "_paymentTokesnAddress",
          "type": "address"
        }
      ],
      "stateMutability": "nonpayable",
      "type": "constructor"
    },
    {
      "inputs": [],
      "name": "delistFeesPercentage",
      "outputs": [
        {
          "internalType": "uint256",
          "name": "",
          "type": "uint256"
        }
      ],
      "stateMutability": "view",
      "type": "function"
    },
    {
      "inputs": [],
      "name": "getServiceFee",
      "outputs": [
        {
          "internalType": "uint8",
          "name": "",
          "type": "uint8"
        }
      ],
      "stateMutability": "view",
      "type": "function"
    },
    {
      "inputs": [
        {
          "internalType": "address",
          "name": "user",
          "type": "address"
        }
      ],
      "name": "getUserReserved",
      "outputs": [
        {
          "internalType": "uint256",
          "name": "",
          "type": "uint256"
        }
      ],
      "stateMutability": "view",
      "type": "function"
    },
    {
      "inputs": [],
      "name": "listqualifyPercentage",
      "outputs": [
        {
          "internalType": "uint256",
          "name": "",
          "type": "uint256"
        }
      ],
      "stateMutability": "view",
      "type": "function"
    },
    {
      "inputs": [],
      "name": "marketPlaceName",
      "outputs": [
        {
          "internalType": "string",
          "name": "",
          "type": "string"
        }
      ],
      "stateMutability": "view",
      "type": "function"
    },
    {
      "inputs": [
        {
          "internalType": "address",
          "name": "",
          "type": "address"
        },
        {
          "internalType": "address",
          "name": "",
          "type": "address"
        },
        {
          "internalType": "uint256",
          "name": "",
          "type": "uint256"
        },
        {
          "internalType": "bytes",
          "name": "",
          "type": "bytes"
        }
      ],
      "name": "onERC721Received",
      "outputs": [
        {
          "internalType": "bytes4",
          "name": "",
          "type": "bytes4"
        }
      ],
      "stateMutability": "nonpayable",
      "type": "function"
    },
    {
      "inputs": [],
      "name": "stakeContract",
      "outputs": [
        {
          "internalType": "address",
          "name": "",
          "type": "address"
        }
      ],
      "stateMutability": "view",
      "type": "function"
    }
  ],
  "bytecode": "0x608060405260018054600160c01b632a55205a63ffffffff199092169190911760ff60c01b19161760ff60c81b1916601960ca1b1781556002819055600381905560045534801561004f57600080fd5b506040516106c43803806106c483398101604081905261006e9161016b565b815182906100839060009060208401906100b6565b5050600180546001600160a01b0390921664010000000002600160201b600160c01b031990921691909117905550610291565b8280546100c290610240565b90600052602060002090601f0160209004810192826100e4576000855561012a565b82601f106100fd57805160ff191683800117855561012a565b8280016001018555821561012a579182015b8281111561012a57825182559160200191906001019061010f565b5061013692915061013a565b5090565b5b80821115610136576000815560010161013b565b80516001600160a01b038116811461016657600080fd5b919050565b6000806040838503121561017d578182fd5b82516001600160401b0380821115610193578384fd5b818501915085601f8301126101a6578384fd5b8151818111156101b8576101b861027b565b6040516020601f8301601f19168201810184811183821017156101dd576101dd61027b565b60405282825284830181018910156101f3578687fd5b8693505b8284101561021457848401810151828501820152928301926101f7565b8284111561022457868184840101525b81965061023281890161014f565b955050505050509250929050565b60028104600182168061025457607f821691505b6020821081141561027557634e487b7160e01b600052602260045260246000fd5b50919050565b634e487b7160e01b600052604160045260246000fd5b610424806102a06000396000f3fe608060405234801561001057600080fd5b506004361061007d5760003560e01c80631f78fd0b1161005b5780631f78fd0b146100d5578063649ee683146100f55780636b041547146100fd5780638ef291e9146101055761007d565b806311a1933c14610082578063150b7a02146100a05780631a186227146100c0575b600080fd5b61008a61011a565b604051610097919061038f565b60405180910390f35b6100b36100ae36600461023e565b61012a565b604051610097919061031e565b6100c861013a565b604051610097919061030a565b6100e86100e336600461021d565b610149565b6040516100979190610386565b6100e8610168565b6100e861016e565b61010d610174565b6040516100979190610333565b600154600160c01b900460ff1690565b630a85bd0160e11b949350505050565b6007546001600160a01b031681565b6001600160a01b0381166000908152600560205260409020545b919050565b60045481565b60035481565b6060600080546101839061039d565b80601f01602080910402602001604051908101604052809291908181526020018280546101af9061039d565b80156101fc5780601f106101d1576101008083540402835291602001916101fc565b820191906000526020600020905b8154815290600101906020018083116101df57829003601f168201915b5050505050905090565b80356001600160a01b038116811461016357600080fd5b60006020828403121561022e578081fd5b61023782610206565b9392505050565b60008060008060808587031215610253578283fd5b61025c85610206565b9350602061026b818701610206565b935060408601359250606086013567ffffffffffffffff8082111561028e578384fd5b818801915088601f8301126102a1578384fd5b8135818111156102b3576102b36103d8565b604051601f8201601f19168101850183811182821017156102d6576102d66103d8565b60405281815283820185018b10156102ec578586fd5b81858501868301379081019093019390935250939692955090935050565b6001600160a01b0391909116815260200190565b6001600160e01b031991909116815260200190565b6000602080835283518082850152825b8181101561035f57858101830151858201604001528201610343565b818111156103705783604083870101525b50601f01601f1916929092016040019392505050565b90815260200190565b60ff91909116815260200190565b6002810460018216806103b157607f821691505b602082108114156103d257634e487b7160e01b600052602260045260246000fd5b50919050565b634e487b7160e01b600052604160045260246000fdfea2646970667358221220e8c0af67ac551078cc7fe52fe5af6bc6cf3aa346bdbee7f8d6a02ab8e5dba35d64736f6c63430008000033",
  "linkReferences": {},
  "deployedLinkReferences": {}
}