{
  "address": "0x9b399E42F64B3294f5D40f7ce2FC4A3B35D9F3E1",
  "abi": [
    {
      "inputs": [
        {
          "internalType": "address",
          "name": "_stfiToken",
          "type": "address"
        }
      ],
      "stateMutability": "nonpayable",
      "type": "constructor"
    },
    {
      "anonymous": false,
      "inputs": [
        {
          "indexed": true,
          "internalType": "address",
          "name": "previousOwner",
          "type": "address"
        },
        {
          "indexed": true,
          "internalType": "address",
          "name": "newOwner",
          "type": "address"
        }
      ],
      "name": "OwnershipTransferred",
      "type": "event"
    },
    {
      "inputs": [
        {
          "internalType": "address",
          "name": "finePayer",
          "type": "address"
        },
        {
          "internalType": "address",
          "name": "to",
          "type": "address"
        },
        {
          "internalType": "uint256",
          "name": "amount",
          "type": "uint256"
        }
      ],
      "name": "deduct",
      "outputs": [
        {
          "internalType": "bool",
          "name": "",
          "type": "bool"
        }
      ],
      "stateMutability": "nonpayable",
      "type": "function"
    },
    {
      "inputs": [
        {
          "internalType": "address",
          "name": "user",
          "type": "address"
        },
        {
          "internalType": "uint256",
          "name": "amount",
          "type": "uint256"
        }
      ],
      "name": "deposit",
      "outputs": [],
      "stateMutability": "nonpayable",
      "type": "function"
    },
    {
      "inputs": [
        {
          "internalType": "address",
          "name": "owner",
          "type": "address"
        }
      ],
      "name": "getReserves",
      "outputs": [
        {
          "internalType": "uint256",
          "name": "",
          "type": "uint256"
        }
      ],
      "stateMutability": "view",
      "type": "function"
    },
    {
      "inputs": [],
      "name": "owner",
      "outputs": [
        {
          "internalType": "address",
          "name": "",
          "type": "address"
        }
      ],
      "stateMutability": "view",
      "type": "function"
    },
    {
      "inputs": [],
      "name": "renounceOwnership",
      "outputs": [],
      "stateMutability": "nonpayable",
      "type": "function"
    },
    {
      "inputs": [
        {
          "internalType": "address",
          "name": "_marketplace",
          "type": "address"
        }
      ],
      "name": "setMarketplace",
      "outputs": [],
      "stateMutability": "nonpayable",
      "type": "function"
    },
    {
      "inputs": [
        {
          "internalType": "address",
          "name": "newOwner",
          "type": "address"
        }
      ],
      "name": "transferOwnership",
      "outputs": [],
      "stateMutability": "nonpayable",
      "type": "function"
    },
    {
      "inputs": [
        {
          "internalType": "uint256",
          "name": "amount",
          "type": "uint256"
        }
      ],
      "name": "withdraw",
      "outputs": [],
      "stateMutability": "nonpayable",
      "type": "function"
    }
  ],
  "transactionHash": "0x8da8dc5b45d498ba9b3ed37633bfee65d5d5fa95419fd31713d6a40ce3f5f212",
  "args": [
    "0x80b8Bb2cfce011Af1d61635Fe0C9F9176d77A745"
  ],
  "solcInputHash": "69cb9425edd246f6a53d5b531e6c0d3c",
  "bytecode": "0x608060405234801561001057600080fd5b50604051610af2380380610af283398101604081905261002f916100b8565b61003f61003a610064565b610068565b600380546001600160a01b0319166001600160a01b03929092169190911790556100e6565b3390565b600080546001600160a01b038381166001600160a01b0319831681178455604051919092169283917f8be0079c531659141344cd1fd0a4f28419497f9722a3daafe3b4186f6b6457e09190a35050565b6000602082840312156100c9578081fd5b81516001600160a01b03811681146100df578182fd5b9392505050565b6109fd806100f56000396000f3fe608060405234801561001057600080fd5b50600436106100885760003560e01c806373ad6c2d1161005b57806373ad6c2d146100e65780638da5cb5b146100f9578063929c51791461010e578063f2fde38b1461012e57610088565b80632e1a7d4d1461008d5780633e99c1e4146100a257806347e7ef24146100cb578063715018a6146100de575b600080fd5b6100a061009b3660046107f9565b610141565b005b6100b56100b036600461075b565b610275565b6040516100c29190610979565b60405180910390f35b6100a06100d93660046107b0565b610294565b6100a0610319565b6100a06100f436600461075b565b610364565b6101016103c5565b6040516100c29190610829565b61012161011c366004610775565b6103d4565b6040516100c29190610894565b6100a061013c36600461075b565b6104c3565b6002546000906001600160a01b0316631f78fd0b61015d610534565b6040518263ffffffff1660e01b81526004016101799190610829565b60206040518083038186803b15801561019157600080fd5b505afa1580156101a5573d6000803e3d6000fd5b505050506040513d601f19601f820116820180604052508101906101c99190610811565b905060006101fd82600160006101dd610534565b6001600160a01b0316815260208101919091526040016000205490610538565b9050828111156102285760405162461bcd60e51b815260040161021f906108e5565b60405180910390fd5b610239610233610534565b8461054b565b5061024a83600160006101dd610534565b60016000610256610534565b6001600160a01b03168152602081019190915260400160002055505050565b6001600160a01b0381166000908152600160205260409020545b919050565b806102a56102a0610534565b6105d0565b10156102c35760405162461bcd60e51b815260040161021f906108e5565b6102d56102ce610534565b3083610659565b506001600160a01b0382166000908152600160205260409020546102f990826106e8565b6001600160a01b0390921660009081526001602052604090209190915550565b610321610534565b6001600160a01b03166103326103c5565b6001600160a01b0316146103585760405162461bcd60e51b815260040161021f90610944565b61036260006106f4565b565b61036c610534565b6001600160a01b031661037d6103c5565b6001600160a01b0316146103a35760405162461bcd60e51b815260040161021f90610944565b600280546001600160a01b0319166001600160a01b0392909216919091179055565b6000546001600160a01b031690565b6002546000906001600160a01b03166103eb610534565b6001600160a01b0316146104115760405162461bcd60e51b815260040161021f9061090d565b6001600160a01b0384166000908152600160205260409020548210156104495760405162461bcd60e51b815260040161021f906108e5565b6001600160a01b03841660009081526001602052604090205461046c9083610538565b6001600160a01b03808616600090815260016020526040808220939093559085168152205461049b90836106e8565b6001600160a01b03841660009081526001602081905260409091209190915590509392505050565b6104cb610534565b6001600160a01b03166104dc6103c5565b6001600160a01b0316146105025760405162461bcd60e51b815260040161021f90610944565b6001600160a01b0381166105285760405162461bcd60e51b815260040161021f9061089f565b610531816106f4565b50565b3390565b6000610544828461099a565b9392505050565b60035460405163a9059cbb60e01b81526000916001600160a01b03169063a9059cbb9061057e908690869060040161087b565b602060405180830381600087803b15801561059857600080fd5b505af11580156105ac573d6000803e3d6000fd5b505050506040513d601f19601f8201168201806040525081019061054491906107d9565b600354604051636eb1769f60e11b81526000916001600160a01b03169063dd62ed3e90610603908590309060040161083d565b60206040518083038186803b15801561061b57600080fd5b505afa15801561062f573d6000803e3d6000fd5b505050506040513d601f19601f820116820180604052508101906106539190610811565b92915050565b6003546040516323b872dd60e01b81526000916001600160a01b0316906323b872dd9061068e90879087908790600401610857565b602060405180830381600087803b1580156106a857600080fd5b505af11580156106bc573d6000803e3d6000fd5b505050506040513d601f19601f820116820180604052508101906106e091906107d9565b949350505050565b60006105448284610982565b600080546001600160a01b038381166001600160a01b0319831681178455604051919092169283917f8be0079c531659141344cd1fd0a4f28419497f9722a3daafe3b4186f6b6457e09190a35050565b80356001600160a01b038116811461028f57600080fd5b60006020828403121561076c578081fd5b61054482610744565b600080600060608486031215610789578182fd5b61079284610744565b92506107a060208501610744565b9150604084013590509250925092565b600080604083850312156107c2578182fd5b6107cb83610744565b946020939093013593505050565b6000602082840312156107ea578081fd5b81518015158114610544578182fd5b60006020828403121561080a578081fd5b5035919050565b600060208284031215610822578081fd5b5051919050565b6001600160a01b0391909116815260200190565b6001600160a01b0392831681529116602082015260400190565b6001600160a01b039384168152919092166020820152604081019190915260600190565b6001600160a01b03929092168252602082015260400190565b901515815260200190565b60208082526026908201527f4f776e61626c653a206e6577206f776e657220697320746865207a65726f206160408201526564647265737360d01b606082015260800190565b6020808252600e908201526d125b9d985b1a5908185b5bdd5b9d60921b604082015260600190565b6020808252601d908201527f43616c6c6572206973206e6f7420746865206d61726b6574706c616365000000604082015260600190565b6020808252818101527f4f776e61626c653a2063616c6c6572206973206e6f7420746865206f776e6572604082015260600190565b90815260200190565b60008219821115610995576109956109b1565b500190565b6000828210156109ac576109ac6109b1565b500390565b634e487b7160e01b600052601160045260246000fdfea2646970667358221220fd66e993bf909cc7b596fb7c961e087cd0f2f423ef0f446b253edcfe11ce201064736f6c63430008000033",
  "devdoc": {
    "author": "Eman Herawy, StartFi Team",
    "kind": "dev",
    "methods": {
      "owner()": {
        "details": "Returns the address of the current owner."
      },
      "renounceOwnership()": {
        "details": "Leaves the contract without owner. It will not be possible to call `onlyOwner` functions anymore. Can only be called by the current owner. NOTE: Renouncing ownership will leave the contract without an owner, thereby removing any functionality that is only available to the owner."
      },
      "transferOwnership(address)": {
        "details": "Transfers ownership of the contract to a new account (`newOwner`). Can only be called by the current owner."
      }
    },
    "title": "Startfi Stakes [ desc ] : contract to hold users stakes ",
    "version": 1
  },
  "userdoc": {
    "kind": "user",
    "methods": {},
    "notice": ": the logic behind this contract is not implemented yet, this is just a basic design for the sake of testing the marketplace cycle",
    "version": 1
  },
  "storageLayout": {
    "storage": [
      {
        "astId": 565,
        "contract": "contracts/StartfiStakes.sol:StartfiStakes",
        "label": "_owner",
        "offset": 0,
        "slot": "0",
        "type": "t_address"
      },
      {
        "astId": 8367,
        "contract": "contracts/StartfiStakes.sol:StartfiStakes",
        "label": "stakerReserved",
        "offset": 0,
        "slot": "1",
        "type": "t_mapping(t_address,t_uint256)"
      },
      {
        "astId": 8369,
        "contract": "contracts/StartfiStakes.sol:StartfiStakes",
        "label": "marketplace",
        "offset": 0,
        "slot": "2",
        "type": "t_address"
      },
      {
        "astId": 8371,
        "contract": "contracts/StartfiStakes.sol:StartfiStakes",
        "label": "stfiToken",
        "offset": 0,
        "slot": "3",
        "type": "t_address"
      }
    ],
    "types": {
      "t_address": {
        "encoding": "inplace",
        "label": "address",
        "numberOfBytes": "20"
      },
      "t_mapping(t_address,t_uint256)": {
        "encoding": "mapping",
        "key": "t_address",
        "label": "mapping(address => uint256)",
        "numberOfBytes": "32",
        "value": "t_uint256"
      },
      "t_uint256": {
        "encoding": "inplace",
        "label": "uint256",
        "numberOfBytes": "32"
      }
    }
  }
}