{
  "contractName": "StartfiRoyaltyNFT",
  "abi": [
    {
      "inputs": [
        {
          "internalType": "string",
          "name": "name",
          "type": "string"
        },
        {
          "internalType": "string",
          "name": "symbol",
          "type": "string"
        },
        {
          "internalType": "string",
          "name": "baseTokenURI",
          "type": "string"
        }
      ],
      "stateMutability": "nonpayable",
      "type": "constructor"
    },
    {
      "anonymous": false,
      "inputs": [
        {
          "indexed": true,
          "internalType": "address",
          "name": "owner",
          "type": "address"
        },
        {
          "indexed": true,
          "internalType": "address",
          "name": "approved",
          "type": "address"
        },
        {
          "indexed": true,
          "internalType": "uint256",
          "name": "tokenId",
          "type": "uint256"
        }
      ],
      "name": "Approval",
      "type": "event"
    },
    {
      "anonymous": false,
      "inputs": [
        {
          "indexed": true,
          "internalType": "address",
          "name": "owner",
          "type": "address"
        },
        {
          "indexed": true,
          "internalType": "address",
          "name": "operator",
          "type": "address"
        },
        {
          "indexed": false,
          "internalType": "bool",
          "name": "approved",
          "type": "bool"
        }
      ],
      "name": "ApprovalForAll",
      "type": "event"
    },
    {
      "anonymous": false,
      "inputs": [
        {
          "indexed": false,
          "internalType": "address",
          "name": "account",
          "type": "address"
        }
      ],
      "name": "Paused",
      "type": "event"
    },
    {
      "anonymous": false,
      "inputs": [
        {
          "indexed": true,
          "internalType": "bytes32",
          "name": "role",
          "type": "bytes32"
        },
        {
          "indexed": true,
          "internalType": "bytes32",
          "name": "previousAdminRole",
          "type": "bytes32"
        },
        {
          "indexed": true,
          "internalType": "bytes32",
          "name": "newAdminRole",
          "type": "bytes32"
        }
      ],
      "name": "RoleAdminChanged",
      "type": "event"
    },
    {
      "anonymous": false,
      "inputs": [
        {
          "indexed": true,
          "internalType": "bytes32",
          "name": "role",
          "type": "bytes32"
        },
        {
          "indexed": true,
          "internalType": "address",
          "name": "account",
          "type": "address"
        },
        {
          "indexed": true,
          "internalType": "address",
          "name": "sender",
          "type": "address"
        }
      ],
      "name": "RoleGranted",
      "type": "event"
    },
    {
      "anonymous": false,
      "inputs": [
        {
          "indexed": true,
          "internalType": "bytes32",
          "name": "role",
          "type": "bytes32"
        },
        {
          "indexed": true,
          "internalType": "address",
          "name": "account",
          "type": "address"
        },
        {
          "indexed": true,
          "internalType": "address",
          "name": "sender",
          "type": "address"
        }
      ],
      "name": "RoleRevoked",
      "type": "event"
    },
    {
      "anonymous": false,
      "inputs": [
        {
          "indexed": true,
          "internalType": "address",
          "name": "from",
          "type": "address"
        },
        {
          "indexed": true,
          "internalType": "address",
          "name": "to",
          "type": "address"
        },
        {
          "indexed": true,
          "internalType": "uint256",
          "name": "tokenId",
          "type": "uint256"
        }
      ],
      "name": "Transfer",
      "type": "event"
    },
    {
      "anonymous": false,
      "inputs": [
        {
          "indexed": false,
          "internalType": "address",
          "name": "account",
          "type": "address"
        }
      ],
      "name": "Unpaused",
      "type": "event"
    },
    {
      "inputs": [],
      "name": "DEFAULT_ADMIN_ROLE",
      "outputs": [
        {
          "internalType": "bytes32",
          "name": "",
          "type": "bytes32"
        }
      ],
      "stateMutability": "view",
      "type": "function",
      "constant": true
    },
    {
      "inputs": [],
      "name": "MINTER_ROLE",
      "outputs": [
        {
          "internalType": "bytes32",
          "name": "",
          "type": "bytes32"
        }
      ],
      "stateMutability": "view",
      "type": "function",
      "constant": true
    },
    {
      "inputs": [],
      "name": "PAUSER_ROLE",
      "outputs": [
        {
          "internalType": "bytes32",
          "name": "",
          "type": "bytes32"
        }
      ],
      "stateMutability": "view",
      "type": "function",
      "constant": true
    },
    {
      "inputs": [
        {
          "internalType": "address",
          "name": "to",
          "type": "address"
        },
        {
          "internalType": "uint256",
          "name": "tokenId",
          "type": "uint256"
        }
      ],
      "name": "approve",
      "outputs": [],
      "stateMutability": "nonpayable",
      "type": "function"
    },
    {
      "inputs": [
        {
          "internalType": "address",
          "name": "owner",
          "type": "address"
        }
      ],
      "name": "balanceOf",
      "outputs": [
        {
          "internalType": "uint256",
          "name": "",
          "type": "uint256"
        }
      ],
      "stateMutability": "view",
      "type": "function",
      "constant": true
    },
    {
      "inputs": [
        {
          "internalType": "uint256",
          "name": "tokenId",
          "type": "uint256"
        }
      ],
      "name": "burn",
      "outputs": [],
      "stateMutability": "nonpayable",
      "type": "function"
    },
    {
      "inputs": [
        {
          "internalType": "uint256",
          "name": "tokenId",
          "type": "uint256"
        }
      ],
      "name": "getApproved",
      "outputs": [
        {
          "internalType": "address",
          "name": "",
          "type": "address"
        }
      ],
      "stateMutability": "view",
      "type": "function",
      "constant": true
    },
    {
      "inputs": [
        {
          "internalType": "bytes32",
          "name": "role",
          "type": "bytes32"
        }
      ],
      "name": "getRoleAdmin",
      "outputs": [
        {
          "internalType": "bytes32",
          "name": "",
          "type": "bytes32"
        }
      ],
      "stateMutability": "view",
      "type": "function",
      "constant": true
    },
    {
      "inputs": [
        {
          "internalType": "bytes32",
          "name": "role",
          "type": "bytes32"
        },
        {
          "internalType": "uint256",
          "name": "index",
          "type": "uint256"
        }
      ],
      "name": "getRoleMember",
      "outputs": [
        {
          "internalType": "address",
          "name": "",
          "type": "address"
        }
      ],
      "stateMutability": "view",
      "type": "function",
      "constant": true
    },
    {
      "inputs": [
        {
          "internalType": "bytes32",
          "name": "role",
          "type": "bytes32"
        }
      ],
      "name": "getRoleMemberCount",
      "outputs": [
        {
          "internalType": "uint256",
          "name": "",
          "type": "uint256"
        }
      ],
      "stateMutability": "view",
      "type": "function",
      "constant": true
    },
    {
      "inputs": [
        {
          "internalType": "bytes32",
          "name": "role",
          "type": "bytes32"
        },
        {
          "internalType": "address",
          "name": "account",
          "type": "address"
        }
      ],
      "name": "grantRole",
      "outputs": [],
      "stateMutability": "nonpayable",
      "type": "function"
    },
    {
      "inputs": [
        {
          "internalType": "bytes32",
          "name": "role",
          "type": "bytes32"
        },
        {
          "internalType": "address",
          "name": "account",
          "type": "address"
        }
      ],
      "name": "hasRole",
      "outputs": [
        {
          "internalType": "bool",
          "name": "",
          "type": "bool"
        }
      ],
      "stateMutability": "view",
      "type": "function",
      "constant": true
    },
    {
      "inputs": [
        {
          "internalType": "address",
          "name": "owner",
          "type": "address"
        },
        {
          "internalType": "address",
          "name": "operator",
          "type": "address"
        }
      ],
      "name": "isApprovedForAll",
      "outputs": [
        {
          "internalType": "bool",
          "name": "",
          "type": "bool"
        }
      ],
      "stateMutability": "view",
      "type": "function",
      "constant": true
    },
    {
      "inputs": [],
      "name": "name",
      "outputs": [
        {
          "internalType": "string",
          "name": "",
          "type": "string"
        }
      ],
      "stateMutability": "view",
      "type": "function",
      "constant": true
    },
    {
      "inputs": [
        {
          "internalType": "uint256",
          "name": "tokenId",
          "type": "uint256"
        }
      ],
      "name": "ownerOf",
      "outputs": [
        {
          "internalType": "address",
          "name": "",
          "type": "address"
        }
      ],
      "stateMutability": "view",
      "type": "function",
      "constant": true
    },
    {
      "inputs": [],
      "name": "pause",
      "outputs": [],
      "stateMutability": "nonpayable",
      "type": "function"
    },
    {
      "inputs": [],
      "name": "paused",
      "outputs": [
        {
          "internalType": "bool",
          "name": "",
          "type": "bool"
        }
      ],
      "stateMutability": "view",
      "type": "function",
      "constant": true
    },
    {
      "inputs": [
        {
          "internalType": "bytes32",
          "name": "role",
          "type": "bytes32"
        },
        {
          "internalType": "address",
          "name": "account",
          "type": "address"
        }
      ],
      "name": "renounceRole",
      "outputs": [],
      "stateMutability": "nonpayable",
      "type": "function"
    },
    {
      "inputs": [
        {
          "internalType": "bytes32",
          "name": "role",
          "type": "bytes32"
        },
        {
          "internalType": "address",
          "name": "account",
          "type": "address"
        }
      ],
      "name": "revokeRole",
      "outputs": [],
      "stateMutability": "nonpayable",
      "type": "function"
    },
    {
      "inputs": [
        {
          "internalType": "uint256",
          "name": "_tokenId",
          "type": "uint256"
        },
        {
          "internalType": "uint256",
          "name": "_value",
          "type": "uint256"
        }
      ],
      "name": "royaltyInfo",
      "outputs": [
        {
          "internalType": "address",
          "name": "issuer",
          "type": "address"
        },
        {
          "internalType": "uint256",
          "name": "_royaltyAmount",
          "type": "uint256"
        }
      ],
      "stateMutability": "view",
      "type": "function",
      "constant": true
    },
    {
      "inputs": [
        {
          "internalType": "address",
          "name": "from",
          "type": "address"
        },
        {
          "internalType": "address",
          "name": "to",
          "type": "address"
        },
        {
          "internalType": "uint256",
          "name": "tokenId",
          "type": "uint256"
        }
      ],
      "name": "safeTransferFrom",
      "outputs": [],
      "stateMutability": "nonpayable",
      "type": "function"
    },
    {
      "inputs": [
        {
          "internalType": "address",
          "name": "from",
          "type": "address"
        },
        {
          "internalType": "address",
          "name": "to",
          "type": "address"
        },
        {
          "internalType": "uint256",
          "name": "tokenId",
          "type": "uint256"
        },
        {
          "internalType": "bytes",
          "name": "_data",
          "type": "bytes"
        }
      ],
      "name": "safeTransferFrom",
      "outputs": [],
      "stateMutability": "nonpayable",
      "type": "function"
    },
    {
      "inputs": [
        {
          "internalType": "address",
          "name": "operator",
          "type": "address"
        },
        {
          "internalType": "bool",
          "name": "approved",
          "type": "bool"
        }
      ],
      "name": "setApprovalForAll",
      "outputs": [],
      "stateMutability": "nonpayable",
      "type": "function"
    },
    {
      "inputs": [],
      "name": "supportsRoyalty",
      "outputs": [
        {
          "internalType": "bytes4",
          "name": "interfaceId",
          "type": "bytes4"
        }
      ],
      "stateMutability": "view",
      "type": "function",
      "constant": true
    },
    {
      "inputs": [],
      "name": "symbol",
      "outputs": [
        {
          "internalType": "string",
          "name": "",
          "type": "string"
        }
      ],
      "stateMutability": "view",
      "type": "function",
      "constant": true
    },
    {
      "inputs": [
        {
          "internalType": "uint256",
          "name": "index",
          "type": "uint256"
        }
      ],
      "name": "tokenByIndex",
      "outputs": [
        {
          "internalType": "uint256",
          "name": "",
          "type": "uint256"
        }
      ],
      "stateMutability": "view",
      "type": "function",
      "constant": true
    },
    {
      "inputs": [
        {
          "internalType": "address",
          "name": "owner",
          "type": "address"
        },
        {
          "internalType": "uint256",
          "name": "index",
          "type": "uint256"
        }
      ],
      "name": "tokenOfOwnerByIndex",
      "outputs": [
        {
          "internalType": "uint256",
          "name": "",
          "type": "uint256"
        }
      ],
      "stateMutability": "view",
      "type": "function",
      "constant": true
    },
    {
      "inputs": [
        {
          "internalType": "uint256",
          "name": "tokenId",
          "type": "uint256"
        }
      ],
      "name": "tokenURI",
      "outputs": [
        {
          "internalType": "string",
          "name": "",
          "type": "string"
        }
      ],
      "stateMutability": "view",
      "type": "function",
      "constant": true
    },
    {
      "inputs": [],
      "name": "totalSupply",
      "outputs": [
        {
          "internalType": "uint256",
          "name": "",
          "type": "uint256"
        }
      ],
      "stateMutability": "view",
      "type": "function",
      "constant": true
    },
    {
      "inputs": [
        {
          "internalType": "address",
          "name": "from",
          "type": "address"
        },
        {
          "internalType": "address",
          "name": "to",
          "type": "address"
        },
        {
          "internalType": "uint256",
          "name": "tokenId",
          "type": "uint256"
        }
      ],
      "name": "transferFrom",
      "outputs": [],
      "stateMutability": "nonpayable",
      "type": "function"
    },
    {
      "inputs": [],
      "name": "unpause",
      "outputs": [],
      "stateMutability": "nonpayable",
      "type": "function"
    },
    {
      "inputs": [
        {
          "internalType": "address",
          "name": "to",
          "type": "address"
        },
        {
          "internalType": "string",
          "name": "_tokenURI",
          "type": "string"
        },
        {
          "internalType": "uint8",
          "name": "share",
          "type": "uint8"
        },
        {
          "internalType": "uint8",
          "name": "base",
          "type": "uint8"
        }
      ],
      "name": "mintWithRoyalty",
      "outputs": [],
      "stateMutability": "nonpayable",
      "type": "function"
    },
    {
      "inputs": [
        {
          "internalType": "address",
          "name": "to",
          "type": "address"
        },
        {
          "internalType": "string",
          "name": "_tokenURI",
          "type": "string"
        }
      ],
      "name": "mint",
      "outputs": [],
      "stateMutability": "nonpayable",
      "type": "function"
    },
    {
      "inputs": [
        {
          "internalType": "bytes4",
          "name": "interfaceId",
          "type": "bytes4"
        }
      ],
      "name": "supportsInterface",
      "outputs": [
        {
          "internalType": "bool",
          "name": "",
          "type": "bool"
        }
      ],
      "stateMutability": "view",
      "type": "function",
      "constant": true
    }
  ],
  "bytecode": "0x60806040523480156200001157600080fd5b5060405162004201380380620042018339810160408190526200003491620003f0565b82828282828160049080519060200190620000519291906200029f565b508051620000679060059060208401906200029f565b5050600e805460ff19169055508051620000899060109060208401906200029f565b50620000a060006200009a6200010a565b6200010e565b620000cf7f9f2df0fed2c77648de5860a4cc508cd0818c85b8b8a1ab4ceeef8d981c8956a66200009a6200010a565b620000fe7f65d7a28e3265b37a6474929f336521b332c1681b933f6cb9f3376673440d862a6200009a6200010a565b505050505050620004d0565b3390565b6200012582826200015160201b620010991760201c565b60008281526003602090815260409091206200014c918390620010a362000161821b17901c565b505050565b6200015d828262000181565b5050565b600062000178836001600160a01b0384166200020d565b90505b92915050565b6200018d82826200025c565b6200015d5760008281526002602090815260408083206001600160a01b03851684529091529020805460ff19166001179055620001c96200010a565b6001600160a01b0316816001600160a01b0316837f2f8788117e7eff1d82e926ec794901d17c78024a50270940304540a733656f0d60405160405180910390a45050565b60006200021b838362000287565b62000253575081546001818101845560008481526020808220909301849055845484825282860190935260409020919091556200017b565b5060006200017b565b60009182526002602090815260408084206001600160a01b0393909316845291905290205460ff1690565b60009081526001919091016020526040902054151590565b828054620002ad906200047d565b90600052602060002090601f016020900481019282620002d157600085556200031c565b82601f10620002ec57805160ff19168380011785556200031c565b828001600101855582156200031c579182015b828111156200031c578251825591602001919060010190620002ff565b506200032a9291506200032e565b5090565b5b808211156200032a57600081556001016200032f565b600082601f83011262000356578081fd5b81516001600160401b0380821115620003735762000373620004ba565b6040516020601f8401601f19168201810183811183821017156200039b576200039b620004ba565b6040528382528584018101871015620003b2578485fd5b8492505b83831015620003d55785830181015182840182015291820191620003b6565b83831115620003e657848185840101525b5095945050505050565b60008060006060848603121562000405578283fd5b83516001600160401b03808211156200041c578485fd5b6200042a8783880162000345565b9450602086015191508082111562000440578384fd5b6200044e8783880162000345565b9350604086015191508082111562000464578283fd5b50620004738682870162000345565b9150509250925092565b6002810460018216806200049257607f821691505b60208210811415620004b457634e487b7160e01b600052602260045260246000fd5b50919050565b634e487b7160e01b600052604160045260246000fd5b613d2180620004e06000396000f3fe608060405234801561001057600080fd5b50600436106102265760003560e01c80636352211e1161012a578063b88d4fde116100bd578063d0def5211161008c578063d547741f11610071578063d547741f1461046f578063e63ab1e914610482578063e985e9c51461048a57610226565b8063d0def52114610454578063d53913931461046757610226565b8063b88d4fde14610408578063c87b56dd1461041b578063ca15c8731461042e578063d0ba95581461044157610226565b806391d14854116100f957806391d14854146103d257806395d89b41146103e5578063a217fddf146103ed578063a22cb465146103f557610226565b80636352211e1461039157806370a08231146103a45780638456cb59146103b75780639010d07c146103bf57610226565b80632f2ff15d116101bd5780633f4ba83a1161018c57806342966c681161017157806342966c68146103635780634f6ccce7146103765780635c975abb1461038957610226565b80633f4ba83a1461034857806342842e0e1461035057610226565b80632f2ff15d146102fa5780632f745c591461030d5780633088ac3e1461032057806336568abe1461033557610226565b806318160ddd116101f957806318160ddd1461029e57806323b872dd146102b3578063248a9ca3146102c65780632a55205a146102d957610226565b806301ffc9a71461022b57806306fdde0314610254578063081812fc14610269578063095ea7b314610289575b600080fd5b61023e610239366004612f54565b61049d565b60405161024b9190613116565b60405180910390f35b61025c6104e5565b60405161024b9190613157565b61027c610277366004612ef9565b610577565b60405161024b9190613086565b61029c610297366004612ed0565b6105ea565b005b6102a66106ea565b60405161024b9190613121565b61029c6102c1366004612d33565b6106f0565b6102a66102d4366004612ef9565b610742565b6102ec6102e7366004612f33565b610757565b60405161024b9291906130f0565b61029c610308366004612f11565b6107f7565b6102a661031b366004612ed0565b610819565b610328610895565b60405161024b919061312a565b61029c610343366004612f11565b6108b9565b61029c6108db565b61029c61035e366004612d33565b610947565b61029c610371366004612ef9565b610962565b6102a6610384366004612ef9565b6109af565b61023e610a3d565b61027c61039f366004612ef9565b610a46565b6102a66103b2366004612ce7565b610aa2565b61029c610b1a565b61027c6103cd366004612f33565b610b84565b61023e6103e0366004612f11565b610ba3565b61025c610bdb565b6102a6610bea565b61029c610403366004612de7565b610bef565b61029c610416366004612d6e565b610d29565b61025c610429366004612ef9565b610d82565b6102a661043c366004612ef9565b610ebd565b61029c61044f366004612e63565b610ed4565b61029c610462366004612e21565b610f7b565b6102a661100c565b61029c61047d366004612f11565b611030565b6102a661103a565b61023e610498366004612d01565b61105e565b60006104a7610895565b7fffffffff00000000000000000000000000000000000000000000000000000000838116911614806104dd57506104dd826110c5565b90505b919050565b6060600480546104f490613b8f565b80601f016020809104026020016040519081016040528092919081815260200182805461052090613b8f565b801561056d5780601f106105425761010080835404028352916020019161056d565b820191906000526020600020905b81548152906001019060200180831161055057829003601f168201915b5050505050905090565b6000610582826110d0565b6105c1576040517f08c379a00000000000000000000000000000000000000000000000000000000081526004016105b89061370c565b60405180910390fd5b5060009081526008602052604090205473ffffffffffffffffffffffffffffffffffffffff1690565b60006105f582610a46565b90508073ffffffffffffffffffffffffffffffffffffffff168373ffffffffffffffffffffffffffffffffffffffff16141561065d576040517f08c379a00000000000000000000000000000000000000000000000000000000081526004016105b890613823565b8073ffffffffffffffffffffffffffffffffffffffff1661067c6110fa565b73ffffffffffffffffffffffffffffffffffffffff1614806106a557506106a5816104986110fa565b6106db576040517f08c379a00000000000000000000000000000000000000000000000000000000081526004016105b890613506565b6106e583836110fe565b505050565b600c5490565b6107016106fb6110fa565b8261119e565b610737576040517f08c379a00000000000000000000000000000000000000000000000000000000081526004016105b890613880565b6106e5838383611269565b60009081526002602052604090206001015490565b60008281526020819052604081205473ffffffffffffffffffffffffffffffffffffffff169081156107f057600084815260016020908152604080832073ffffffffffffffffffffffffffffffffffffffff8616845282529182902082518084019093525460ff808216808552610100909204169183018290526107ec91906107e69060649082908990611430565b9061143c565b9150505b9250929050565b6108018282611448565b60008281526003602052604090206106e590826110a3565b600061082483610aa2565b821061085c576040517f08c379a00000000000000000000000000000000000000000000000000000000081526004016105b890613290565b5073ffffffffffffffffffffffffffffffffffffffff82166000908152600a602090815260408083208484529091529020545b92915050565b7f2a55205a0000000000000000000000000000000000000000000000000000000090565b6108c3828261146c565b60008281526003602052604090206106e590826114e2565b6109077f65d7a28e3265b37a6474929f336521b332c1681b933f6cb9f3376673440d862a6103e06110fa565b61093d576040517f08c379a00000000000000000000000000000000000000000000000000000000081526004016105b89061393a565b610945611504565b565b6106e583838360405180602001604052806000815250610d29565b61096d6106fb6110fa565b6109a3576040517f08c379a00000000000000000000000000000000000000000000000000000000081526004016105b8906139f4565b6109ac816115aa565b50565b60006109b96106ea565b82106109f1576040517f08c379a00000000000000000000000000000000000000000000000000000000081526004016105b8906138dd565b600c8281548110610a2b577f4e487b7100000000000000000000000000000000000000000000000000000000600052603260045260246000fd5b90600052602060002001549050919050565b600e5460ff1690565b60008181526006602052604081205473ffffffffffffffffffffffffffffffffffffffff16806104dd576040517f08c379a00000000000000000000000000000000000000000000000000000000081526004016105b8906135c0565b600073ffffffffffffffffffffffffffffffffffffffff8216610af1576040517f08c379a00000000000000000000000000000000000000000000000000000000081526004016105b890613563565b5073ffffffffffffffffffffffffffffffffffffffff1660009081526007602052604090205490565b610b467f65d7a28e3265b37a6474929f336521b332c1681b933f6cb9f3376673440d862a6103e06110fa565b610b7c576040517f08c379a00000000000000000000000000000000000000000000000000000000081526004016105b890613415565b6109456115ea565b6000828152600360205260408120610b9c908361167d565b9392505050565b600091825260026020908152604080842073ffffffffffffffffffffffffffffffffffffffff93909316845291905290205460ff1690565b6060600580546104f490613b8f565b600081565b610bf76110fa565b73ffffffffffffffffffffffffffffffffffffffff168273ffffffffffffffffffffffffffffffffffffffff161415610c5c576040517f08c379a00000000000000000000000000000000000000000000000000000000081526004016105b8906133de565b8060096000610c696110fa565b73ffffffffffffffffffffffffffffffffffffffff90811682526020808301939093526040918201600090812091871680825291909352912080547fffffffffffffffffffffffffffffffffffffffffffffffffffffffffffffff001692151592909217909155610cd86110fa565b73ffffffffffffffffffffffffffffffffffffffff167f17307eab39ab6107e8899845ad3d59bd9653f200f220920489ca2b5937696c3183604051610d1d9190613116565b60405180910390a35050565b610d3a610d346110fa565b8361119e565b610d70576040517f08c379a00000000000000000000000000000000000000000000000000000000081526004016105b890613880565b610d7c84848484611689565b50505050565b6060610d8d826110d0565b610dc3576040517f08c379a00000000000000000000000000000000000000000000000000000000081526004016105b8906136af565b6000828152600f602052604081208054610ddc90613b8f565b80601f0160208091040260200160405190810160405280929190818152602001828054610e0890613b8f565b8015610e555780601f10610e2a57610100808354040283529160200191610e55565b820191906000526020600020905b815481529060010190602001808311610e3857829003601f168201915b505050505090506000610e666116d6565b9050805160001415610e7a575090506104e0565b815115610eac578082604051602001610e94929190612fd6565b604051602081830303815290604052925050506104e0565b610eb5846116e5565b949350505050565b60008181526003602052604081206104dd90611781565b610f007f9f2df0fed2c77648de5860a4cc508cd0818c85b8b8a1ab4ceeef8d981c8956a66103e06110fa565b610f36576040517f08c379a00000000000000000000000000000000000000000000000000000000081526004016105b890613997565b610f4b610f436011611788565b85848461178c565b610f5e84610f596011611788565b61186b565b610f71610f6b6011611788565b846119bd565b610d7c6011611a1b565b610fa77f9f2df0fed2c77648de5860a4cc508cd0818c85b8b8a1ab4ceeef8d981c8956a66103e06110fa565b610fdd576040517f08c379a00000000000000000000000000000000000000000000000000000000081526004016105b890613997565b610feb82610f596011611788565b610ffe610ff86011611788565b826119bd565b6110086011611a1b565b5050565b7f9f2df0fed2c77648de5860a4cc508cd0818c85b8b8a1ab4ceeef8d981c8956a681565b6108c38282611a24565b7f65d7a28e3265b37a6474929f336521b332c1681b933f6cb9f3376673440d862a81565b73ffffffffffffffffffffffffffffffffffffffff918216600090815260096020908152604080832093909416825291909152205460ff1690565b6110088282611a43565b6000610b9c8373ffffffffffffffffffffffffffffffffffffffff8416611b0f565b60006104dd82611b59565b60009081526006602052604090205473ffffffffffffffffffffffffffffffffffffffff16151590565b3390565b600081815260086020526040902080547fffffffffffffffffffffffff00000000000000000000000000000000000000001673ffffffffffffffffffffffffffffffffffffffff8416908117909155819061115882610a46565b73ffffffffffffffffffffffffffffffffffffffff167f8c5be1e5ebec7d5bd14f71427d1e84f3dd0314c0f7b2291e5b200ac8c7c3b92560405160405180910390a45050565b60006111a9826110d0565b6111df576040517f08c379a00000000000000000000000000000000000000000000000000000000081526004016105b890613472565b60006111ea83610a46565b90508073ffffffffffffffffffffffffffffffffffffffff168473ffffffffffffffffffffffffffffffffffffffff16148061125957508373ffffffffffffffffffffffffffffffffffffffff1661124184610577565b73ffffffffffffffffffffffffffffffffffffffff16145b80610eb55750610eb5818561105e565b8273ffffffffffffffffffffffffffffffffffffffff1661128982610a46565b73ffffffffffffffffffffffffffffffffffffffff16146112d6576040517f08c379a00000000000000000000000000000000000000000000000000000000081526004016105b890613769565b73ffffffffffffffffffffffffffffffffffffffff8216611323576040517f08c379a00000000000000000000000000000000000000000000000000000000081526004016105b890613381565b61132e838383611baf565b6113396000826110fe565b73ffffffffffffffffffffffffffffffffffffffff8316600090815260076020526040812080546001929061136f908490613b17565b909155505073ffffffffffffffffffffffffffffffffffffffff821660009081526007602052604081208054600192906113aa908490613aae565b909155505060008181526006602052604080822080547fffffffffffffffffffffffff00000000000000000000000000000000000000001673ffffffffffffffffffffffffffffffffffffffff86811691821790925591518493918716917fddf252ad1be2c89b69c2b068fc378daa952ba7f163c4a11628f55a4df523b3ef91a4505050565b6000610b9c8284613ada565b6000610b9c8284613ac6565b61145182610742565b6114628161145d6110fa565b611bba565b6106e58383611a43565b6114746110fa565b73ffffffffffffffffffffffffffffffffffffffff168173ffffffffffffffffffffffffffffffffffffffff16146114d8576040517f08c379a00000000000000000000000000000000000000000000000000000000081526004016105b890613a51565b6110088282611c63565b6000610b9c8373ffffffffffffffffffffffffffffffffffffffff8416611d2d565b61150c610a3d565b611542576040517f08c379a00000000000000000000000000000000000000000000000000000000081526004016105b890613259565b600e80547fffffffffffffffffffffffffffffffffffffffffffffffffffffffffffffff001690557f5db9ee0a495bf2e6ff9c91a7834c1ba4fdd244a5e8aa4e537bd38aeae4b073aa6115936110fa565b6040516115a09190613086565b60405180910390a1565b6115b381611e8f565b6000818152600f6020526040902080546115cc90613b8f565b1590506109ac576000818152600f602052604081206109ac91612b30565b6115f2610a3d565b15611629576040517f08c379a00000000000000000000000000000000000000000000000000000000081526004016105b8906134cf565b600e80547fffffffffffffffffffffffffffffffffffffffffffffffffffffffffffffff001660011790557f62e78cea01bee320cd4e420270b5ea74000d11b0c9f74754ebdbfc544b05a2586115936110fa565b6000610b9c8383611f68565b611694848484611269565b6116a084848484611ff4565b610d7c576040517f08c379a00000000000000000000000000000000000000000000000000000000081526004016105b8906132ed565b6060601080546104f490613b8f565b60606116f0826110d0565b611726576040517f08c379a00000000000000000000000000000000000000000000000000000000081526004016105b8906137c6565b60006117306116d6565b905060008151116117505760405180602001604052806000815250610b9c565b8061175a84612192565b60405160200161176b929190612fd6565b6040516020818303038152906040529392505050565b60006104dd825b5490565b60008481526020818152604080832080547fffffffffffffffffffffffff00000000000000000000000000000000000000001673ffffffffffffffffffffffffffffffffffffffff9790971696871790558051808201825260ff958616815293851684830190815296835260018252808320958352949052929092209151825493517fffffffffffffffffffffffffffffffffffffffffffffffffffffffffffffff00909416908216177fffffffffffffffffffffffffffffffffffffffffffffffffffffffffffff00ff166101009390911692909202919091179055565b73ffffffffffffffffffffffffffffffffffffffff82166118b8576040517f08c379a00000000000000000000000000000000000000000000000000000000081526004016105b89061367a565b6118c1816110d0565b156118f8576040517f08c379a00000000000000000000000000000000000000000000000000000000081526004016105b89061334a565b61190460008383611baf565b73ffffffffffffffffffffffffffffffffffffffff8216600090815260076020526040812080546001929061193a908490613aae565b909155505060008181526006602052604080822080547fffffffffffffffffffffffff00000000000000000000000000000000000000001673ffffffffffffffffffffffffffffffffffffffff861690811790915590518392907fddf252ad1be2c89b69c2b068fc378daa952ba7f163c4a11628f55a4df523b3ef908290a45050565b6119c6826110d0565b6119fc576040517f08c379a00000000000000000000000000000000000000000000000000000000081526004016105b89061361d565b6000828152600f6020908152604090912082516106e592840190612b6c565b80546001019055565b611a2d82610742565b611a398161145d6110fa565b6106e58383611c63565b611a4d8282610ba3565b61100857600082815260026020908152604080832073ffffffffffffffffffffffffffffffffffffffff85168452909152902080547fffffffffffffffffffffffffffffffffffffffffffffffffffffffffffffff00166001179055611ab16110fa565b73ffffffffffffffffffffffffffffffffffffffff168173ffffffffffffffffffffffffffffffffffffffff16837f2f8788117e7eff1d82e926ec794901d17c78024a50270940304540a733656f0d60405160405180910390a45050565b6000611b1b8383612313565b611b515750815460018181018455600084815260208082209093018490558454848252828601909352604090209190915561088f565b50600061088f565b60007fffffffff0000000000000000000000000000000000000000000000000000000082167f780e9d630000000000000000000000000000000000000000000000000000000014806104dd57506104dd8261232b565b6106e58383836123cd565b611bc48282610ba3565b61100857611be98173ffffffffffffffffffffffffffffffffffffffff166014612417565b611bf4836020612417565b604051602001611c05929190613005565b604080517fffffffffffffffffffffffffffffffffffffffffffffffffffffffffffffffe0818403018152908290527f08c379a00000000000000000000000000000000000000000000000000000000082526105b891600401613157565b611c6d8282610ba3565b1561100857600082815260026020908152604080832073ffffffffffffffffffffffffffffffffffffffff85168452909152902080547fffffffffffffffffffffffffffffffffffffffffffffffffffffffffffffff00169055611ccf6110fa565b73ffffffffffffffffffffffffffffffffffffffff168173ffffffffffffffffffffffffffffffffffffffff16837ff6391f5c32d9c69d2a47ea670b442974b53935d1edc7fd64eb21e047a839171b60405160405180910390a45050565b60008181526001830160205260408120548015611e85576000611d51600183613b17565b8554909150600090611d6590600190613b17565b90506000866000018281548110611da5577f4e487b7100000000000000000000000000000000000000000000000000000000600052603260045260246000fd5b9060005260206000200154905080876000018481548110611def577f4e487b7100000000000000000000000000000000000000000000000000000000600052603260045260246000fd5b600091825260208083209091019290925582815260018901909152604090208490558654879080611e49577f4e487b7100000000000000000000000000000000000000000000000000000000600052603160045260246000fd5b6001900381819060005260206000200160009055905586600101600087815260200190815260200160002060009055600194505050505061088f565b600091505061088f565b6000611e9a82610a46565b9050611ea881600084611baf565b611eb36000836110fe565b73ffffffffffffffffffffffffffffffffffffffff81166000908152600760205260408120805460019290611ee9908490613b17565b909155505060008281526006602052604080822080547fffffffffffffffffffffffff00000000000000000000000000000000000000001690555183919073ffffffffffffffffffffffffffffffffffffffff8416907fddf252ad1be2c89b69c2b068fc378daa952ba7f163c4a11628f55a4df523b3ef908390a45050565b81546000908210611fa5576040517f08c379a00000000000000000000000000000000000000000000000000000000081526004016105b89061316a565b826000018281548110611fe1577f4e487b7100000000000000000000000000000000000000000000000000000000600052603260045260246000fd5b9060005260206000200154905092915050565b60006120158473ffffffffffffffffffffffffffffffffffffffff166126ed565b15612187578373ffffffffffffffffffffffffffffffffffffffff1663150b7a0261203e6110fa565b8786866040518563ffffffff1660e01b815260040161206094939291906130a7565b602060405180830381600087803b15801561207a57600080fd5b505af19250505080156120c8575060408051601f3d9081017fffffffffffffffffffffffffffffffffffffffffffffffffffffffffffffffe01682019092526120c591810190612f70565b60015b61213c573d8080156120f6576040519150601f19603f3d011682016040523d82523d6000602084013e6120fb565b606091505b508051612134576040517f08c379a00000000000000000000000000000000000000000000000000000000081526004016105b8906132ed565b805181602001fd5b7fffffffff00000000000000000000000000000000000000000000000000000000167f150b7a0200000000000000000000000000000000000000000000000000000000149050610eb5565b506001949350505050565b6060816121d3575060408051808201909152600181527f300000000000000000000000000000000000000000000000000000000000000060208201526104e0565b8160005b81156121fd57806121e781613be3565b91506121f69050600a83613ac6565b91506121d7565b60008167ffffffffffffffff81111561223f577f4e487b7100000000000000000000000000000000000000000000000000000000600052604160045260246000fd5b6040519080825280601f01601f191660200182016040528015612269576020820181803683370190505b5090505b8415610eb55761227e600183613b17565b915061228b600a86613c1c565b612296906030613aae565b60f81b8183815181106122d2577f4e487b7100000000000000000000000000000000000000000000000000000000600052603260045260246000fd5b60200101907effffffffffffffffffffffffffffffffffffffffffffffffffffffffffffff1916908160001a90535061230c600a86613ac6565b945061226d565b60009081526001919091016020526040902054151590565b60007fffffffff0000000000000000000000000000000000000000000000000000000082167f80ac58cd0000000000000000000000000000000000000000000000000000000014806123be57507fffffffff0000000000000000000000000000000000000000000000000000000082167f5b5e139f00000000000000000000000000000000000000000000000000000000145b806104dd57506104dd826126f3565b6123d8838383612749565b6123e0610a3d565b156106e5576040517f08c379a00000000000000000000000000000000000000000000000000000000081526004016105b8906131fc565b60606000612426836002613ada565b612431906002613aae565b67ffffffffffffffff811115612470577f4e487b7100000000000000000000000000000000000000000000000000000000600052604160045260246000fd5b6040519080825280601f01601f19166020018201604052801561249a576020820181803683370190505b5090507f3000000000000000000000000000000000000000000000000000000000000000816000815181106124f8577f4e487b7100000000000000000000000000000000000000000000000000000000600052603260045260246000fd5b60200101907effffffffffffffffffffffffffffffffffffffffffffffffffffffffffffff1916908160001a9053507f780000000000000000000000000000000000000000000000000000000000000081600181518110612582577f4e487b7100000000000000000000000000000000000000000000000000000000600052603260045260246000fd5b60200101907effffffffffffffffffffffffffffffffffffffffffffffffffffffffffffff1916908160001a90535060006125be846002613ada565b6125c9906001613aae565b90505b60018111156126b4577f303132333435363738396162636465660000000000000000000000000000000085600f1660108110612631577f4e487b7100000000000000000000000000000000000000000000000000000000600052603260045260246000fd5b1a60f81b82828151811061266e577f4e487b7100000000000000000000000000000000000000000000000000000000600052603260045260246000fd5b60200101907effffffffffffffffffffffffffffffffffffffffffffffffffffffffffffff1916908160001a90535060049490941c936126ad81613b5a565b90506125cc565b508315610b9c576040517f08c379a00000000000000000000000000000000000000000000000000000000081526004016105b8906131c7565b3b151590565b60007fffffffff0000000000000000000000000000000000000000000000000000000082167f5a05180f0000000000000000000000000000000000000000000000000000000014806104dd57506104dd82612820565b6127548383836106e5565b73ffffffffffffffffffffffffffffffffffffffff831661277d5761277881612876565b6127ba565b8173ffffffffffffffffffffffffffffffffffffffff168373ffffffffffffffffffffffffffffffffffffffff16146127ba576127ba83826128ba565b73ffffffffffffffffffffffffffffffffffffffff82166127e3576127de81612971565b6106e5565b8273ffffffffffffffffffffffffffffffffffffffff168273ffffffffffffffffffffffffffffffffffffffff16146106e5576106e58282612a95565b60007fffffffff0000000000000000000000000000000000000000000000000000000082167f7965db0b0000000000000000000000000000000000000000000000000000000014806104dd57506104dd82612ae6565b600c80546000838152600d60205260408120829055600182018355919091527fdf6966c971051c3d54ec59162606531493a51404a002842f56009d7e5cf4a8c70155565b600060016128c784610aa2565b6128d19190613b17565b6000838152600b60205260409020549091508082146129315773ffffffffffffffffffffffffffffffffffffffff84166000908152600a602090815260408083208584528252808320548484528184208190558352600b90915290208190555b506000918252600b6020908152604080842084905573ffffffffffffffffffffffffffffffffffffffff9094168352600a81528383209183525290812055565b600c5460009061298390600190613b17565b6000838152600d6020526040812054600c80549394509092849081106129d2577f4e487b7100000000000000000000000000000000000000000000000000000000600052603260045260246000fd5b9060005260206000200154905080600c8381548110612a1a577f4e487b7100000000000000000000000000000000000000000000000000000000600052603260045260246000fd5b6000918252602080832090910192909255828152600d9091526040808220849055858252812055600c805480612a79577f4e487b7100000000000000000000000000000000000000000000000000000000600052603160045260246000fd5b6001900381819060005260206000200160009055905550505050565b6000612aa083610aa2565b73ffffffffffffffffffffffffffffffffffffffff9093166000908152600a602090815260408083208684528252808320859055938252600b9052919091209190915550565b7fffffffff0000000000000000000000000000000000000000000000000000000081167f01ffc9a70000000000000000000000000000000000000000000000000000000014919050565b508054612b3c90613b8f565b6000825580601f10612b4e57506109ac565b601f0160209004906000526020600020908101906109ac9190612bf0565b828054612b7890613b8f565b90600052602060002090601f016020900481019282612b9a5760008555612be0565b82601f10612bb357805160ff1916838001178555612be0565b82800160010185558215612be0579182015b82811115612be0578251825591602001919060010190612bc5565b50612bec929150612bf0565b5090565b5b80821115612bec5760008155600101612bf1565b600067ffffffffffffffff80841115612c2057612c20613c8e565b60405160207fffffffffffffffffffffffffffffffffffffffffffffffffffffffffffffffe0601f8701168201018181108382111715612c6257612c62613c8e565b604052848152915081838501861015612c7a57600080fd5b8484602083013760006020868301015250509392505050565b803573ffffffffffffffffffffffffffffffffffffffff811681146104e057600080fd5b600082601f830112612cc7578081fd5b610b9c83833560208501612c05565b803560ff811681146104e057600080fd5b600060208284031215612cf8578081fd5b610b9c82612c93565b60008060408385031215612d13578081fd5b612d1c83612c93565b9150612d2a60208401612c93565b90509250929050565b600080600060608486031215612d47578081fd5b612d5084612c93565b9250612d5e60208501612c93565b9150604084013590509250925092565b60008060008060808587031215612d83578081fd5b612d8c85612c93565b9350612d9a60208601612c93565b925060408501359150606085013567ffffffffffffffff811115612dbc578182fd5b8501601f81018713612dcc578182fd5b612ddb87823560208401612c05565b91505092959194509250565b60008060408385031215612df9578182fd5b612e0283612c93565b915060208301358015158114612e16578182fd5b809150509250929050565b60008060408385031215612e33578182fd5b612e3c83612c93565b9150602083013567ffffffffffffffff811115612e57578182fd5b6107ec85828601612cb7565b60008060008060808587031215612e78578384fd5b612e8185612c93565b9350602085013567ffffffffffffffff811115612e9c578384fd5b612ea887828801612cb7565b935050612eb760408601612cd6565b9150612ec560608601612cd6565b905092959194509250565b60008060408385031215612ee2578182fd5b612eeb83612c93565b946020939093013593505050565b600060208284031215612f0a578081fd5b5035919050565b60008060408385031215612f23578182fd5b82359150612d2a60208401612c93565b60008060408385031215612f45578182fd5b50508035926020909101359150565b600060208284031215612f65578081fd5b8135610b9c81613cbd565b600060208284031215612f81578081fd5b8151610b9c81613cbd565b60008151808452612fa4816020860160208601613b2e565b601f017fffffffffffffffffffffffffffffffffffffffffffffffffffffffffffffffe0169290920160200192915050565b60008351612fe8818460208801613b2e565b835190830190612ffc818360208801613b2e565b01949350505050565b60007f416363657373436f6e74726f6c3a206163636f756e74200000000000000000008252835161303d816017850160208801613b2e565b7f206973206d697373696e6720726f6c6520000000000000000000000000000000601791840191820152835161307a816028840160208801613b2e565b01602801949350505050565b73ffffffffffffffffffffffffffffffffffffffff91909116815260200190565b600073ffffffffffffffffffffffffffffffffffffffff8087168352808616602084015250836040830152608060608301526130e66080830184612f8c565b9695505050505050565b73ffffffffffffffffffffffffffffffffffffffff929092168252602082015260400190565b901515815260200190565b90815260200190565b7fffffffff0000000000000000000000000000000000000000000000000000000091909116815260200190565b600060208252610b9c6020830184612f8c565b60208082526022908201527f456e756d657261626c655365743a20696e646578206f7574206f6620626f756e60408201527f6473000000000000000000000000000000000000000000000000000000000000606082015260800190565b6020808252818101527f537472696e67733a20686578206c656e67746820696e73756666696369656e74604082015260600190565b6020808252602b908201527f4552433732315061757361626c653a20746f6b656e207472616e73666572207760408201527f68696c6520706175736564000000000000000000000000000000000000000000606082015260800190565b60208082526014908201527f5061757361626c653a206e6f7420706175736564000000000000000000000000604082015260600190565b6020808252602b908201527f455243373231456e756d657261626c653a206f776e657220696e646578206f7560408201527f74206f6620626f756e6473000000000000000000000000000000000000000000606082015260800190565b60208082526032908201527f4552433732313a207472616e7366657220746f206e6f6e20455243373231526560408201527f63656976657220696d706c656d656e7465720000000000000000000000000000606082015260800190565b6020808252601c908201527f4552433732313a20746f6b656e20616c7265616479206d696e74656400000000604082015260600190565b60208082526024908201527f4552433732313a207472616e7366657220746f20746865207a65726f2061646460408201527f7265737300000000000000000000000000000000000000000000000000000000606082015260800190565b60208082526019908201527f4552433732313a20617070726f766520746f2063616c6c657200000000000000604082015260600190565b60208082526032908201527f4552433732314d696e7465725061757365723a206d757374206861766520706160408201527f7573657220726f6c6520746f2070617573650000000000000000000000000000606082015260800190565b6020808252602c908201527f4552433732313a206f70657261746f7220717565727920666f72206e6f6e657860408201527f697374656e7420746f6b656e0000000000000000000000000000000000000000606082015260800190565b60208082526010908201527f5061757361626c653a2070617573656400000000000000000000000000000000604082015260600190565b60208082526038908201527f4552433732313a20617070726f76652063616c6c6572206973206e6f74206f7760408201527f6e6572206e6f7220617070726f76656420666f7220616c6c0000000000000000606082015260800190565b6020808252602a908201527f4552433732313a2062616c616e636520717565727920666f7220746865207a6560408201527f726f206164647265737300000000000000000000000000000000000000000000606082015260800190565b60208082526029908201527f4552433732313a206f776e657220717565727920666f72206e6f6e657869737460408201527f656e7420746f6b656e0000000000000000000000000000000000000000000000606082015260800190565b6020808252602e908201527f45524337323155524953746f726167653a2055524920736574206f66206e6f6e60408201527f6578697374656e7420746f6b656e000000000000000000000000000000000000606082015260800190565b6020808252818101527f4552433732313a206d696e7420746f20746865207a65726f2061646472657373604082015260600190565b60208082526031908201527f45524337323155524953746f726167653a2055524920717565727920666f722060408201527f6e6f6e6578697374656e7420746f6b656e000000000000000000000000000000606082015260800190565b6020808252602c908201527f4552433732313a20617070726f76656420717565727920666f72206e6f6e657860408201527f697374656e7420746f6b656e0000000000000000000000000000000000000000606082015260800190565b60208082526029908201527f4552433732313a207472616e73666572206f6620746f6b656e2074686174206960408201527f73206e6f74206f776e0000000000000000000000000000000000000000000000606082015260800190565b6020808252602f908201527f4552433732314d657461646174613a2055524920717565727920666f72206e6f60408201527f6e6578697374656e7420746f6b656e0000000000000000000000000000000000606082015260800190565b60208082526021908201527f4552433732313a20617070726f76616c20746f2063757272656e74206f776e6560408201527f7200000000000000000000000000000000000000000000000000000000000000606082015260800190565b60208082526031908201527f4552433732313a207472616e736665722063616c6c6572206973206e6f74206f60408201527f776e6572206e6f7220617070726f766564000000000000000000000000000000606082015260800190565b6020808252602c908201527f455243373231456e756d657261626c653a20676c6f62616c20696e646578206f60408201527f7574206f6620626f756e64730000000000000000000000000000000000000000606082015260800190565b60208082526034908201527f4552433732314d696e7465725061757365723a206d757374206861766520706160408201527f7573657220726f6c6520746f20756e7061757365000000000000000000000000606082015260800190565b6020808252603d908201527f4552433732315072657365744d696e7465725061757365724175746f49643a2060408201527f6d7573742068617665206d696e74657220726f6c6520746f206d696e74000000606082015260800190565b60208082526030908201527f4552433732314275726e61626c653a2063616c6c6572206973206e6f74206f7760408201527f6e6572206e6f7220617070726f76656400000000000000000000000000000000606082015260800190565b6020808252602f908201527f416363657373436f6e74726f6c3a2063616e206f6e6c792072656e6f756e636560408201527f20726f6c657320666f722073656c660000000000000000000000000000000000606082015260800190565b60008219821115613ac157613ac1613c30565b500190565b600082613ad557613ad5613c5f565b500490565b6000817fffffffffffffffffffffffffffffffffffffffffffffffffffffffffffffffff0483118215151615613b1257613b12613c30565b500290565b600082821015613b2957613b29613c30565b500390565b60005b83811015613b49578181015183820152602001613b31565b83811115610d7c5750506000910152565b600081613b6957613b69613c30565b507fffffffffffffffffffffffffffffffffffffffffffffffffffffffffffffffff0190565b600281046001821680613ba357607f821691505b60208210811415613bdd577f4e487b7100000000000000000000000000000000000000000000000000000000600052602260045260246000fd5b50919050565b60007fffffffffffffffffffffffffffffffffffffffffffffffffffffffffffffffff821415613c1557613c15613c30565b5060010190565b600082613c2b57613c2b613c5f565b500690565b7f4e487b7100000000000000000000000000000000000000000000000000000000600052601160045260246000fd5b7f4e487b7100000000000000000000000000000000000000000000000000000000600052601260045260246000fd5b7f4e487b7100000000000000000000000000000000000000000000000000000000600052604160045260246000fd5b7fffffffff00000000000000000000000000000000000000000000000000000000811681146109ac57600080fdfea26469706673582212209e6ffa3b4b601494f21b2d5bb4eb27733778ad210b0a6c60e3280ef52b82f38564736f6c63430008000033",
  "immutableReferences": {},
  "source": "// SPDX-License-Identifier: AGPL-3.0-or-later\n\npragma solidity >=0.8.0;\n import \"@openzeppelin/contracts/utils/Counters.sol\";\n\nimport \"./ERC721MinterPauser.sol\";\n\n import \"./ERC721Royalty.sol\";\n\n\ncontract StartfiRoyaltyNFT is  ERC721Royalty , ERC721MinterPauser{\n         using Counters for Counters.Counter;\n\n     Counters.Counter private _tokenIdTracker;\n\n    constructor(string memory name, string memory symbol, string memory baseTokenURI) ERC721MinterPauser (   name,  symbol,   baseTokenURI){}\n\n    function mintWithRoyalty(address to, string memory _tokenURI,uint8 share,uint8 base) external virtual {\n        require(hasRole(MINTER_ROLE, _msgSender()), \"ERC721PresetMinterPauserAutoId: must have minter role to mint\");\n        // We cannot just use balanceOf to create the new tokenId because tokens\n        // can be burned (destroyed), so we need a separate counter.\n        _supportRoyalty(_tokenIdTracker.current(),  to,   share,  base);\n        _mint(to, _tokenIdTracker.current());\n        _setTokenURI(_tokenIdTracker.current(), _tokenURI);\n        _tokenIdTracker.increment();\n    }\n\n    /**\n     * @dev Creates a new token for `to`. Its token ID will be automatically\n     * assigned (and available on the emitted {IERC721-Transfer} event), and the token\n     * URI autogenerated based on the base URI passed at construction.\n     *\n     * See {ERC721-_mint}.\n     *\n     * Requirements:\n     *\n     * - the caller must have the `MINTER_ROLE`.\n     */\n        function mint(address to, string memory _tokenURI) public virtual {\n        require(hasRole(MINTER_ROLE, _msgSender()), \"ERC721PresetMinterPauserAutoId: must have minter role to mint\");\n\n        // We cannot just use balanceOf to create the new tokenId because tokens\n        // can be burned (destroyed), so we need a separate counter.\n        _mint(to, _tokenIdTracker.current());\n        _setTokenURI(_tokenIdTracker.current(), _tokenURI);\n        _tokenIdTracker.increment();\n    }\n\n\n// 0x2a55205a\n     /**\n     * @dev See {IERC165-supportsInterface}.\n     */\n    function supportsInterface(bytes4 interfaceId) public view virtual override( ERC721MinterPauser) returns (bool) {\n        return  interfaceId == supportsRoyalty()||super.supportsInterface(interfaceId);\n    }\n}\n",
  "sourcePath": "/home/yehia/Documents/startups/Startfi/projects/startfi/startfi-core/contracts/StartfiRoyaltyNFT.sol",
  "compiler": {
    "name": "solc",
    "version": "0.8.0+commit.c7dfd78e.Emscripten.clang"
  },
  "schemaVersion": "3.4.1",
  "updatedAt": "2021-06-13T12:20:08.563Z",
  "networkType": "ethereum",
  "devdoc": {
    "kind": "dev",
    "methods": {
      "approve(address,uint256)": {
        "details": "See {IERC721-approve}."
      },
      "balanceOf(address)": {
        "details": "See {IERC721-balanceOf}."
      },
      "burn(uint256)": {
        "details": "Burns `tokenId`. See {ERC721-_burn}. Requirements: - The caller must own `tokenId` or be an approved operator."
      },
      "getApproved(uint256)": {
        "details": "See {IERC721-getApproved}."
      },
      "getRoleAdmin(bytes32)": {
        "details": "Returns the admin role that controls `role`. See {grantRole} and {revokeRole}. To change a role's admin, use {_setRoleAdmin}."
      },
      "getRoleMember(bytes32,uint256)": {
        "details": "Returns one of the accounts that have `role`. `index` must be a value between 0 and {getRoleMemberCount}, non-inclusive. Role bearers are not sorted in any particular way, and their ordering may change at any point. WARNING: When using {getRoleMember} and {getRoleMemberCount}, make sure you perform all queries on the same block. See the following https://forum.openzeppelin.com/t/iterating-over-elements-on-enumerableset-in-openzeppelin-contracts/2296[forum post] for more information."
      },
      "getRoleMemberCount(bytes32)": {
        "details": "Returns the number of accounts that have `role`. Can be used together with {getRoleMember} to enumerate all bearers of a role."
      },
      "grantRole(bytes32,address)": {
        "details": "Overload {grantRole} to track enumerable memberships"
      },
      "hasRole(bytes32,address)": {
        "details": "Returns `true` if `account` has been granted `role`."
      },
      "isApprovedForAll(address,address)": {
        "details": "See {IERC721-isApprovedForAll}."
      },
      "mint(address,string)": {
        "details": "Creates a new token for `to`. Its token ID will be automatically assigned (and available on the emitted {IERC721-Transfer} event), and the token URI autogenerated based on the base URI passed at construction. See {ERC721-_mint}. Requirements: - the caller must have the `MINTER_ROLE`."
      },
      "name()": {
        "details": "See {IERC721Metadata-name}."
      },
      "ownerOf(uint256)": {
        "details": "See {IERC721-ownerOf}."
      },
      "pause()": {
        "details": "Pauses all token transfers. See {ERC721Pausable} and {Pausable-_pause}. Requirements: - the caller must have the `PAUSER_ROLE`."
      },
      "paused()": {
        "details": "Returns true if the contract is paused, and false otherwise."
      },
      "renounceRole(bytes32,address)": {
        "details": "Overload {renounceRole} to track enumerable memberships"
      },
      "revokeRole(bytes32,address)": {
        "details": "Overload {revokeRole} to track enumerable memberships"
      },
      "safeTransferFrom(address,address,uint256)": {
        "details": "See {IERC721-safeTransferFrom}."
      },
      "safeTransferFrom(address,address,uint256,bytes)": {
        "details": "See {IERC721-safeTransferFrom}."
      },
      "setApprovalForAll(address,bool)": {
        "details": "See {IERC721-setApprovalForAll}."
      },
      "supportsInterface(bytes4)": {
        "details": "See {IERC165-supportsInterface}."
      },
      "symbol()": {
        "details": "See {IERC721Metadata-symbol}."
      },
      "tokenByIndex(uint256)": {
        "details": "See {IERC721Enumerable-tokenByIndex}."
      },
      "tokenOfOwnerByIndex(address,uint256)": {
        "details": "See {IERC721Enumerable-tokenOfOwnerByIndex}."
      },
      "tokenURI(uint256)": {
        "details": "See {IERC721Metadata-tokenURI}."
      },
      "totalSupply()": {
        "details": "See {IERC721Enumerable-totalSupply}."
      },
      "transferFrom(address,address,uint256)": {
        "details": "See {IERC721-transferFrom}."
      },
      "unpause()": {
        "details": "Unpauses all token transfers. See {ERC721Pausable} and {Pausable-_unpause}. Requirements: - the caller must have the `PAUSER_ROLE`."
      }
    },
    "version": 1
  },
  "userdoc": {
    "kind": "user",
    "methods": {},
    "version": 1
  }
}