{
  "_format": "hh-sol-artifact-1",
  "contractName": "StartfiMarketPlaceFinance",
  "sourceName": "contracts/StartfiMarketPlaceFinance.sol",
  "abi": [
    {
      "inputs": [
        {
          "internalType": "string",
          "name": "_name",
          "type": "string"
        },
        {
          "internalType": "address",
          "name": "_paymentContract",
          "type": "address"
        }
      ],
      "stateMutability": "nonpayable",
      "type": "constructor"
    },
    {
      "inputs": [],
      "name": "bidPenaltyPercentageBase",
      "outputs": [
        {
          "internalType": "uint256",
          "name": "",
          "type": "uint256"
        }
      ],
      "stateMutability": "view",
      "type": "function"
    },
    {
      "inputs": [],
      "name": "delistFeesPercentage",
      "outputs": [
        {
          "internalType": "uint256",
          "name": "",
          "type": "uint256"
        }
      ],
      "stateMutability": "view",
      "type": "function"
    },
    {
      "inputs": [],
      "name": "delistFeesPercentageBase",
      "outputs": [
        {
          "internalType": "uint256",
          "name": "",
          "type": "uint256"
        }
      ],
      "stateMutability": "view",
      "type": "function"
    },
    {
      "inputs": [],
      "name": "getServiceFee",
      "outputs": [
        {
          "internalType": "uint256",
          "name": "",
          "type": "uint256"
        }
      ],
      "stateMutability": "view",
      "type": "function"
    },
    {
      "inputs": [
        {
          "internalType": "address",
          "name": "user",
          "type": "address"
        }
      ],
      "name": "getUserReserved",
      "outputs": [
        {
          "internalType": "uint256",
          "name": "",
          "type": "uint256"
        }
      ],
      "stateMutability": "view",
      "type": "function"
    },
    {
      "inputs": [],
      "name": "listqualifyPercentage",
      "outputs": [
        {
          "internalType": "uint256",
          "name": "",
          "type": "uint256"
        }
      ],
      "stateMutability": "view",
      "type": "function"
    },
    {
      "inputs": [],
      "name": "listqualifyPercentageBase",
      "outputs": [
        {
          "internalType": "uint256",
          "name": "",
          "type": "uint256"
        }
      ],
      "stateMutability": "view",
      "type": "function"
    },
    {
      "inputs": [],
      "name": "marketPlaceName",
      "outputs": [
        {
          "internalType": "string",
          "name": "",
          "type": "string"
        }
      ],
      "stateMutability": "view",
      "type": "function"
    },
    {
      "inputs": [
        {
          "internalType": "address",
          "name": "",
          "type": "address"
        },
        {
          "internalType": "address",
          "name": "",
          "type": "address"
        },
        {
          "internalType": "uint256",
          "name": "",
          "type": "uint256"
        },
        {
          "internalType": "bytes",
          "name": "",
          "type": "bytes"
        }
      ],
      "name": "onERC721Received",
      "outputs": [
        {
          "internalType": "bytes4",
          "name": "",
          "type": "bytes4"
        }
      ],
      "stateMutability": "nonpayable",
      "type": "function"
    },
    {
      "inputs": [],
      "name": "stakeContract",
      "outputs": [
        {
          "internalType": "address",
          "name": "",
          "type": "address"
        }
      ],
      "stateMutability": "view",
      "type": "function"
    }
  ],
  "bytecode": "0x60806040526001805463ffffffff1916632a55205a178155600281905560646003819055600482905560058290556006919091556007819055600881905560095534801561004c57600080fd5b506040516106e73803806106e783398101604081905261006b91610168565b815182906100809060009060208401906100b3565b5050600180546001600160a01b0390921664010000000002600160201b600160c01b03199092169190911790555061028e565b8280546100bf9061023d565b90600052602060002090601f0160209004810192826100e15760008555610127565b82601f106100fa57805160ff1916838001178555610127565b82800160010185558215610127579182015b8281111561012757825182559160200191906001019061010c565b50610133929150610137565b5090565b5b808211156101335760008155600101610138565b80516001600160a01b038116811461016357600080fd5b919050565b6000806040838503121561017a578182fd5b82516001600160401b0380821115610190578384fd5b818501915085601f8301126101a3578384fd5b8151818111156101b5576101b5610278565b6040516020601f8301601f19168201810184811183821017156101da576101da610278565b60405282825284830181018910156101f0578687fd5b8693505b8284101561021157848401810151828501820152928301926101f4565b8284111561022157868184840101525b81965061022f81890161014c565b955050505050509250929050565b60028104600182168061025157607f821691505b6020821081141561027257634e487b7160e01b600052602260045260246000fd5b50919050565b634e487b7160e01b600052604160045260246000fd5b61044a8061029d6000396000f3fe608060405234801561001057600080fd5b506004361061009e5760003560e01c80635cc310ba116100665780635cc310ba14610111578063649ee683146101195780636b0415471461012157806375b4a5e8146101295780638ef291e9146101315761009e565b806311a1933c146100a3578063150b7a02146100c15780631a186227146100e15780631f78fd0b146100f657806356461e8e14610109575b600080fd5b6100ab610146565b6040516100b891906103ba565b60405180910390f35b6100d46100cf366004610272565b61014c565b6040516100b89190610352565b6100e961015c565b6040516100b8919061033e565b6100ab610104366004610251565b61016b565b6100ab61018a565b6100ab610190565b6100ab610196565b6100ab61019c565b6100ab6101a2565b6101396101a8565b6040516100b89190610367565b60025490565b630a85bd0160e11b949350505050565b600c546001600160a01b031681565b6001600160a01b0381166000908152600a60205260409020545b919050565b60095481565b60085481565b60065481565b60055481565b60075481565b6060600080546101b7906103c3565b80601f01602080910402602001604051908101604052809291908181526020018280546101e3906103c3565b80156102305780601f1061020557610100808354040283529160200191610230565b820191906000526020600020905b81548152906001019060200180831161021357829003601f168201915b5050505050905090565b80356001600160a01b038116811461018557600080fd5b600060208284031215610262578081fd5b61026b8261023a565b9392505050565b60008060008060808587031215610287578283fd5b6102908561023a565b9350602061029f81870161023a565b935060408601359250606086013567ffffffffffffffff808211156102c2578384fd5b818801915088601f8301126102d5578384fd5b8135818111156102e7576102e76103fe565b604051601f8201601f191681018501838111828210171561030a5761030a6103fe565b60405281815283820185018b1015610320578586fd5b81858501868301379081019093019390935250939692955090935050565b6001600160a01b0391909116815260200190565b6001600160e01b031991909116815260200190565b6000602080835283518082850152825b8181101561039357858101830151858201604001528201610377565b818111156103a45783604083870101525b50601f01601f1916929092016040019392505050565b90815260200190565b6002810460018216806103d757607f821691505b602082108114156103f857634e487b7160e01b600052602260045260246000fd5b50919050565b634e487b7160e01b600052604160045260246000fdfea2646970667358221220555a30ab28970b7814aef6ec14aa028387452a8c2745c1429f4b8e8852d44f5a64736f6c63430008000033",
  "linkReferences": {},
  "deployedLinkReferences": {}
}