{
  "address": "0xF16F269C61D69b7e4E5d6dFE58F3Ba6eddDc2c54",
  "abi": [
    {
      "inputs": [
        {
          "internalType": "string",
          "name": "name",
          "type": "string"
        },
        {
          "internalType": "string",
          "name": "symbol",
          "type": "string"
        },
        {
          "internalType": "string",
          "name": "baseTokenURI",
          "type": "string"
        }
      ],
      "stateMutability": "nonpayable",
      "type": "constructor"
    },
    {
      "anonymous": false,
      "inputs": [
        {
          "indexed": true,
          "internalType": "address",
          "name": "owner",
          "type": "address"
        },
        {
          "indexed": true,
          "internalType": "address",
          "name": "approved",
          "type": "address"
        },
        {
          "indexed": true,
          "internalType": "uint256",
          "name": "tokenId",
          "type": "uint256"
        }
      ],
      "name": "Approval",
      "type": "event"
    },
    {
      "anonymous": false,
      "inputs": [
        {
          "indexed": true,
          "internalType": "address",
          "name": "owner",
          "type": "address"
        },
        {
          "indexed": true,
          "internalType": "address",
          "name": "operator",
          "type": "address"
        },
        {
          "indexed": false,
          "internalType": "bool",
          "name": "approved",
          "type": "bool"
        }
      ],
      "name": "ApprovalForAll",
      "type": "event"
    },
    {
      "anonymous": false,
      "inputs": [
        {
          "indexed": false,
          "internalType": "address",
          "name": "account",
          "type": "address"
        }
      ],
      "name": "Paused",
      "type": "event"
    },
    {
      "anonymous": false,
      "inputs": [
        {
          "indexed": true,
          "internalType": "bytes32",
          "name": "role",
          "type": "bytes32"
        },
        {
          "indexed": true,
          "internalType": "bytes32",
          "name": "previousAdminRole",
          "type": "bytes32"
        },
        {
          "indexed": true,
          "internalType": "bytes32",
          "name": "newAdminRole",
          "type": "bytes32"
        }
      ],
      "name": "RoleAdminChanged",
      "type": "event"
    },
    {
      "anonymous": false,
      "inputs": [
        {
          "indexed": true,
          "internalType": "bytes32",
          "name": "role",
          "type": "bytes32"
        },
        {
          "indexed": true,
          "internalType": "address",
          "name": "account",
          "type": "address"
        },
        {
          "indexed": true,
          "internalType": "address",
          "name": "sender",
          "type": "address"
        }
      ],
      "name": "RoleGranted",
      "type": "event"
    },
    {
      "anonymous": false,
      "inputs": [
        {
          "indexed": true,
          "internalType": "bytes32",
          "name": "role",
          "type": "bytes32"
        },
        {
          "indexed": true,
          "internalType": "address",
          "name": "account",
          "type": "address"
        },
        {
          "indexed": true,
          "internalType": "address",
          "name": "sender",
          "type": "address"
        }
      ],
      "name": "RoleRevoked",
      "type": "event"
    },
    {
      "anonymous": false,
      "inputs": [
        {
          "indexed": true,
          "internalType": "address",
          "name": "from",
          "type": "address"
        },
        {
          "indexed": true,
          "internalType": "address",
          "name": "to",
          "type": "address"
        },
        {
          "indexed": true,
          "internalType": "uint256",
          "name": "tokenId",
          "type": "uint256"
        }
      ],
      "name": "Transfer",
      "type": "event"
    },
    {
      "anonymous": false,
      "inputs": [
        {
          "indexed": false,
          "internalType": "address",
          "name": "account",
          "type": "address"
        }
      ],
      "name": "Unpaused",
      "type": "event"
    },
    {
      "inputs": [],
      "name": "DEFAULT_ADMIN_ROLE",
      "outputs": [
        {
          "internalType": "bytes32",
          "name": "",
          "type": "bytes32"
        }
      ],
      "stateMutability": "view",
      "type": "function"
    },
    {
      "inputs": [],
      "name": "DOMAIN_SEPARATOR",
      "outputs": [
        {
          "internalType": "bytes32",
          "name": "",
          "type": "bytes32"
        }
      ],
      "stateMutability": "view",
      "type": "function"
    },
    {
      "inputs": [],
      "name": "MINTER_ROLE",
      "outputs": [
        {
          "internalType": "bytes32",
          "name": "",
          "type": "bytes32"
        }
      ],
      "stateMutability": "view",
      "type": "function"
    },
    {
      "inputs": [],
      "name": "PAUSER_ROLE",
      "outputs": [
        {
          "internalType": "bytes32",
          "name": "",
          "type": "bytes32"
        }
      ],
      "stateMutability": "view",
      "type": "function"
    },
    {
      "inputs": [],
      "name": "PERMIT_TYPEHASH",
      "outputs": [
        {
          "internalType": "bytes32",
          "name": "",
          "type": "bytes32"
        }
      ],
      "stateMutability": "view",
      "type": "function"
    },
    {
      "inputs": [],
      "name": "TRANSFER_TYPEHASH",
      "outputs": [
        {
          "internalType": "bytes32",
          "name": "",
          "type": "bytes32"
        }
      ],
      "stateMutability": "view",
      "type": "function"
    },
    {
      "inputs": [
        {
          "internalType": "address",
          "name": "to",
          "type": "address"
        },
        {
          "internalType": "uint256",
          "name": "tokenId",
          "type": "uint256"
        }
      ],
      "name": "approve",
      "outputs": [],
      "stateMutability": "nonpayable",
      "type": "function"
    },
    {
      "inputs": [
        {
          "internalType": "address",
          "name": "owner",
          "type": "address"
        }
      ],
      "name": "balanceOf",
      "outputs": [
        {
          "internalType": "uint256",
          "name": "",
          "type": "uint256"
        }
      ],
      "stateMutability": "view",
      "type": "function"
    },
    {
      "inputs": [
        {
          "internalType": "uint256",
          "name": "tokenId",
          "type": "uint256"
        }
      ],
      "name": "burn",
      "outputs": [],
      "stateMutability": "nonpayable",
      "type": "function"
    },
    {
      "inputs": [
        {
          "internalType": "uint256",
          "name": "tokenId",
          "type": "uint256"
        }
      ],
      "name": "getApproved",
      "outputs": [
        {
          "internalType": "address",
          "name": "",
          "type": "address"
        }
      ],
      "stateMutability": "view",
      "type": "function"
    },
    {
      "inputs": [
        {
          "internalType": "bytes32",
          "name": "role",
          "type": "bytes32"
        }
      ],
      "name": "getRoleAdmin",
      "outputs": [
        {
          "internalType": "bytes32",
          "name": "",
          "type": "bytes32"
        }
      ],
      "stateMutability": "view",
      "type": "function"
    },
    {
      "inputs": [
        {
          "internalType": "bytes32",
          "name": "role",
          "type": "bytes32"
        },
        {
          "internalType": "uint256",
          "name": "index",
          "type": "uint256"
        }
      ],
      "name": "getRoleMember",
      "outputs": [
        {
          "internalType": "address",
          "name": "",
          "type": "address"
        }
      ],
      "stateMutability": "view",
      "type": "function"
    },
    {
      "inputs": [
        {
          "internalType": "bytes32",
          "name": "role",
          "type": "bytes32"
        }
      ],
      "name": "getRoleMemberCount",
      "outputs": [
        {
          "internalType": "uint256",
          "name": "",
          "type": "uint256"
        }
      ],
      "stateMutability": "view",
      "type": "function"
    },
    {
      "inputs": [
        {
          "internalType": "bytes32",
          "name": "role",
          "type": "bytes32"
        },
        {
          "internalType": "address",
          "name": "account",
          "type": "address"
        }
      ],
      "name": "grantRole",
      "outputs": [],
      "stateMutability": "nonpayable",
      "type": "function"
    },
    {
      "inputs": [
        {
          "internalType": "bytes32",
          "name": "role",
          "type": "bytes32"
        },
        {
          "internalType": "address",
          "name": "account",
          "type": "address"
        }
      ],
      "name": "hasRole",
      "outputs": [
        {
          "internalType": "bool",
          "name": "",
          "type": "bool"
        }
      ],
      "stateMutability": "view",
      "type": "function"
    },
    {
      "inputs": [
        {
          "internalType": "address",
          "name": "owner",
          "type": "address"
        },
        {
          "internalType": "address",
          "name": "operator",
          "type": "address"
        }
      ],
      "name": "isApprovedForAll",
      "outputs": [
        {
          "internalType": "bool",
          "name": "",
          "type": "bool"
        }
      ],
      "stateMutability": "view",
      "type": "function"
    },
    {
      "inputs": [
        {
          "internalType": "address",
          "name": "to",
          "type": "address"
        },
        {
          "internalType": "string",
          "name": "_tokenURI",
          "type": "string"
        }
      ],
      "name": "mint",
      "outputs": [
        {
          "internalType": "uint256",
          "name": "",
          "type": "uint256"
        }
      ],
      "stateMutability": "nonpayable",
      "type": "function"
    },
    {
      "inputs": [
        {
          "internalType": "address",
          "name": "to",
          "type": "address"
        },
        {
          "internalType": "string",
          "name": "_tokenURI",
          "type": "string"
        },
        {
          "internalType": "uint8",
          "name": "share",
          "type": "uint8"
        },
        {
          "internalType": "uint8",
          "name": "separator",
          "type": "uint8"
        }
      ],
      "name": "mintWithRoyalty",
      "outputs": [
        {
          "internalType": "uint256",
          "name": "",
          "type": "uint256"
        }
      ],
      "stateMutability": "nonpayable",
      "type": "function"
    },
    {
      "inputs": [],
      "name": "name",
      "outputs": [
        {
          "internalType": "string",
          "name": "",
          "type": "string"
        }
      ],
      "stateMutability": "view",
      "type": "function"
    },
    {
      "inputs": [
        {
          "internalType": "address",
          "name": "",
          "type": "address"
        }
      ],
      "name": "nonces",
      "outputs": [
        {
          "internalType": "uint256",
          "name": "",
          "type": "uint256"
        }
      ],
      "stateMutability": "view",
      "type": "function"
    },
    {
      "inputs": [
        {
          "internalType": "uint256",
          "name": "tokenId",
          "type": "uint256"
        }
      ],
      "name": "ownerOf",
      "outputs": [
        {
          "internalType": "address",
          "name": "",
          "type": "address"
        }
      ],
      "stateMutability": "view",
      "type": "function"
    },
    {
      "inputs": [],
      "name": "pause",
      "outputs": [],
      "stateMutability": "nonpayable",
      "type": "function"
    },
    {
      "inputs": [],
      "name": "paused",
      "outputs": [
        {
          "internalType": "bool",
          "name": "",
          "type": "bool"
        }
      ],
      "stateMutability": "view",
      "type": "function"
    },
    {
      "inputs": [
        {
          "internalType": "address",
          "name": "target",
          "type": "address"
        },
        {
          "internalType": "address",
          "name": "spender",
          "type": "address"
        },
        {
          "internalType": "uint256",
          "name": "tokenId",
          "type": "uint256"
        },
        {
          "internalType": "uint256",
          "name": "deadline",
          "type": "uint256"
        },
        {
          "internalType": "uint8",
          "name": "v",
          "type": "uint8"
        },
        {
          "internalType": "bytes32",
          "name": "r",
          "type": "bytes32"
        },
        {
          "internalType": "bytes32",
          "name": "s",
          "type": "bytes32"
        }
      ],
      "name": "permit",
      "outputs": [],
      "stateMutability": "nonpayable",
      "type": "function"
    },
    {
      "inputs": [
        {
          "internalType": "bytes32",
          "name": "role",
          "type": "bytes32"
        },
        {
          "internalType": "address",
          "name": "account",
          "type": "address"
        }
      ],
      "name": "renounceRole",
      "outputs": [],
      "stateMutability": "nonpayable",
      "type": "function"
    },
    {
      "inputs": [
        {
          "internalType": "bytes32",
          "name": "role",
          "type": "bytes32"
        },
        {
          "internalType": "address",
          "name": "account",
          "type": "address"
        }
      ],
      "name": "revokeRole",
      "outputs": [],
      "stateMutability": "nonpayable",
      "type": "function"
    },
    {
      "inputs": [
        {
          "internalType": "uint256",
          "name": "_tokenId",
          "type": "uint256"
        },
        {
          "internalType": "uint256",
          "name": "_value",
          "type": "uint256"
        }
      ],
      "name": "royaltyInfo",
      "outputs": [
        {
          "internalType": "address",
          "name": "issuer",
          "type": "address"
        },
        {
          "internalType": "uint256",
          "name": "_royaltyAmount",
          "type": "uint256"
        }
      ],
      "stateMutability": "view",
      "type": "function"
    },
    {
      "inputs": [
        {
          "internalType": "address",
          "name": "from",
          "type": "address"
        },
        {
          "internalType": "address",
          "name": "to",
          "type": "address"
        },
        {
          "internalType": "uint256",
          "name": "tokenId",
          "type": "uint256"
        }
      ],
      "name": "safeTransferFrom",
      "outputs": [],
      "stateMutability": "nonpayable",
      "type": "function"
    },
    {
      "inputs": [
        {
          "internalType": "address",
          "name": "from",
          "type": "address"
        },
        {
          "internalType": "address",
          "name": "to",
          "type": "address"
        },
        {
          "internalType": "uint256",
          "name": "tokenId",
          "type": "uint256"
        },
        {
          "internalType": "bytes",
          "name": "_data",
          "type": "bytes"
        }
      ],
      "name": "safeTransferFrom",
      "outputs": [],
      "stateMutability": "nonpayable",
      "type": "function"
    },
    {
      "inputs": [
        {
          "internalType": "address",
          "name": "operator",
          "type": "address"
        },
        {
          "internalType": "bool",
          "name": "approved",
          "type": "bool"
        }
      ],
      "name": "setApprovalForAll",
      "outputs": [],
      "stateMutability": "nonpayable",
      "type": "function"
    },
    {
      "inputs": [
        {
          "internalType": "bytes4",
          "name": "interfaceId",
          "type": "bytes4"
        }
      ],
      "name": "supportsInterface",
      "outputs": [
        {
          "internalType": "bool",
          "name": "",
          "type": "bool"
        }
      ],
      "stateMutability": "view",
      "type": "function"
    },
    {
      "inputs": [],
      "name": "supportsRoyalty",
      "outputs": [
        {
          "internalType": "bytes4",
          "name": "interfaceId",
          "type": "bytes4"
        }
      ],
      "stateMutability": "pure",
      "type": "function"
    },
    {
      "inputs": [],
      "name": "symbol",
      "outputs": [
        {
          "internalType": "string",
          "name": "",
          "type": "string"
        }
      ],
      "stateMutability": "view",
      "type": "function"
    },
    {
      "inputs": [
        {
          "internalType": "uint256",
          "name": "index",
          "type": "uint256"
        }
      ],
      "name": "tokenByIndex",
      "outputs": [
        {
          "internalType": "uint256",
          "name": "",
          "type": "uint256"
        }
      ],
      "stateMutability": "view",
      "type": "function"
    },
    {
      "inputs": [
        {
          "internalType": "address",
          "name": "owner",
          "type": "address"
        },
        {
          "internalType": "uint256",
          "name": "index",
          "type": "uint256"
        }
      ],
      "name": "tokenOfOwnerByIndex",
      "outputs": [
        {
          "internalType": "uint256",
          "name": "",
          "type": "uint256"
        }
      ],
      "stateMutability": "view",
      "type": "function"
    },
    {
      "inputs": [
        {
          "internalType": "uint256",
          "name": "tokenId",
          "type": "uint256"
        }
      ],
      "name": "tokenURI",
      "outputs": [
        {
          "internalType": "string",
          "name": "",
          "type": "string"
        }
      ],
      "stateMutability": "view",
      "type": "function"
    },
    {
      "inputs": [],
      "name": "totalSupply",
      "outputs": [
        {
          "internalType": "uint256",
          "name": "",
          "type": "uint256"
        }
      ],
      "stateMutability": "view",
      "type": "function"
    },
    {
      "inputs": [
        {
          "internalType": "address",
          "name": "from",
          "type": "address"
        },
        {
          "internalType": "address",
          "name": "to",
          "type": "address"
        },
        {
          "internalType": "uint256",
          "name": "tokenId",
          "type": "uint256"
        }
      ],
      "name": "transferFrom",
      "outputs": [],
      "stateMutability": "nonpayable",
      "type": "function"
    },
    {
      "inputs": [
        {
          "internalType": "address",
          "name": "target",
          "type": "address"
        },
        {
          "internalType": "address",
          "name": "to",
          "type": "address"
        },
        {
          "internalType": "uint256",
          "name": "tokenId",
          "type": "uint256"
        },
        {
          "internalType": "uint256",
          "name": "deadline",
          "type": "uint256"
        },
        {
          "internalType": "uint8",
          "name": "v",
          "type": "uint8"
        },
        {
          "internalType": "bytes32",
          "name": "r",
          "type": "bytes32"
        },
        {
          "internalType": "bytes32",
          "name": "s",
          "type": "bytes32"
        }
      ],
      "name": "transferWithPermit",
      "outputs": [
        {
          "internalType": "bool",
          "name": "",
          "type": "bool"
        }
      ],
      "stateMutability": "nonpayable",
      "type": "function"
    },
    {
      "inputs": [],
      "name": "unpause",
      "outputs": [],
      "stateMutability": "nonpayable",
      "type": "function"
    }
  ],
  "transactionHash": "0x3f76344cb56e94ec5412f2374d720ab83cf6a3b6fa10aaa25ca6564367d51a31",
  "args": [
    "StartFiNFTToken",
    "STFI",
    "http://ipfs.io"
  ],
  "solcInputHash": "c43ab73aedbd503dda171840950295d2",
  "bytecode": "0x60806040523480156200001157600080fd5b506040516200376238038062003762833981016040819052620000349162000460565b828282828281600490805190602001906200005192919062000303565b5080516200006790600590602084019062000303565b5050600e805460ff191690555080516200008990601090602084019062000303565b50620000976000336200019a565b620000c37f9f2df0fed2c77648de5860a4cc508cd0818c85b8b8a1ab4ceeef8d981c8956a6336200019a565b620000ef7f65d7a28e3265b37a6474929f336521b332c1681b933f6cb9f3376673440d862a336200019a565b5050835160209485012060408051808201825260018152603160f81b9087015280517f8b73c3c69bb8fe3d512ecc4cf759cc79239f7b179b0ffacaa9a75d522b39400f81880152808201929092527fc89efdaa54c0f20c7adf612882df0950f5a951637e0307cdcb4c672f298b8bc66060830152600060808301523060a0808401919091528151808403909101815260c0909201905280519401939093206011555062000544915050565b620001b18282620001dd60201b620014421760201c565b6000828152600360209081526040909120620001d891839062001450620001ed821b17901c565b505050565b620001e982826200020d565b5050565b600062000204836001600160a01b038416620002b1565b90505b92915050565b60008281526002602090815260408083206001600160a01b038516845290915290205460ff16620001e95760008281526002602090815260408083206001600160a01b03851684529091529020805460ff191660011790556200026d3390565b6001600160a01b0316816001600160a01b0316837f2f8788117e7eff1d82e926ec794901d17c78024a50270940304540a733656f0d60405160405180910390a45050565b6000818152600183016020526040812054620002fa5750815460018181018455600084815260208082209093018490558454848252828601909352604090209190915562000207565b50600062000207565b8280546200031190620004f1565b90600052602060002090601f01602090048101928262000335576000855562000380565b82601f106200035057805160ff191683800117855562000380565b8280016001018555821562000380579182015b828111156200038057825182559160200191906001019062000363565b506200038e92915062000392565b5090565b5b808211156200038e576000815560010162000393565b600082601f830112620003bb57600080fd5b81516001600160401b0380821115620003d857620003d86200052e565b604051601f8301601f19908116603f011681019082821181831017156200040357620004036200052e565b816040528381526020925086838588010111156200042057600080fd5b600091505b8382101562000444578582018301518183018401529082019062000425565b83821115620004565760008385830101525b9695505050505050565b6000806000606084860312156200047657600080fd5b83516001600160401b03808211156200048e57600080fd5b6200049c87838801620003a9565b94506020860151915080821115620004b357600080fd5b620004c187838801620003a9565b93506040860151915080821115620004d857600080fd5b50620004e786828701620003a9565b9150509250925092565b600181811c908216806200050657607f821691505b602082108114156200052857634e487b7160e01b600052602260045260246000fd5b50919050565b634e487b7160e01b600052604160045260246000fd5b61320e80620005546000396000f3fe608060405234801561001057600080fd5b50600436106102475760003560e01c8063605629d61161013b578063b88d4fde116100b8578063d505accf1161007c578063d505accf14610541578063d539139314610554578063d547741f1461057b578063e63ab1e91461058e578063e985e9c5146105b557600080fd5b8063b88d4fde146104e2578063c87b56dd146104f5578063ca15c87314610508578063d0ba95581461051b578063d0def5211461052e57600080fd5b80639010d07c116100ff5780639010d07c1461049957806391d14854146104ac57806395d89b41146104bf578063a217fddf146104c7578063a22cb465146104cf57600080fd5b8063605629d6146104385780636352211e1461044b57806370a082311461045e5780637ecebe00146104715780638456cb591461049157600080fd5b80632f745c59116101c95780633f4ba83a1161018d5780633f4ba83a146103ec57806342842e0e146103f457806342966c68146104075780634f6ccce71461041a5780635c975abb1461042d57600080fd5b80632f745c59146103815780633088ac3e1461039457806330adf81f146103a95780633644e515146103d057806336568abe146103d957600080fd5b806318160ddd1161021057806318160ddd146102fe57806323b872dd14610306578063248a9ca3146103195780632a55205a1461033c5780632f2ff15d1461036e57600080fd5b8062bf26f41461024c57806301ffc9a71461028657806306fdde03146102a9578063081812fc146102be578063095ea7b3146102e9575b600080fd5b6102737fdf2fb49a1f69c8a73b114786b259dbb4a030c6bfe9099db7004c26857f8df6c781565b6040519081526020015b60405180910390f35b610299610294366004612d4d565b6105c8565b604051901515815260200161027d565b6102b16105f3565b60405161027d9190612e94565b6102d16102cc366004612cef565b610685565b6040516001600160a01b03909116815260200161027d565b6102fc6102f7366004612cc5565b610712565b005b600c54610273565b6102fc610314366004612ab4565b610798565b610273610327366004612cef565b60009081526002602052604090206001015490565b61034f61034a366004612d2b565b6107ca565b604080516001600160a01b03909316835260208301919091520161027d565b6102fc61037c366004612d08565b610858565b61027361038f366004612cc5565b61087a565b60405163152a902d60e11b815260200161027d565b6102737f48d39b37a35214940203bbbd4f383519797769b13d936f387d89430afef2768881565b61027360115481565b6102fc6103e7366004612d08565b610910565b6102fc610932565b6102fc610402366004612ab4565b6109cf565b6102fc610415366004612cef565b6109ea565b610273610428366004612cef565b610a64565b600e5460ff16610299565b610299610446366004612b6c565b610af7565b6102d1610459366004612cef565b610c66565b61027361046c366004612a66565b610cdd565b61027361047f366004612a66565b60136020526000908152604090205481565b6102fc610d64565b6102d16104a7366004612d2b565b610dfd565b6102996104ba366004612d08565b610e1c565b6102b1610e47565b610273600081565b6102fc6104dd366004612bd6565b610e56565b6102fc6104f0366004612af0565b610f1b565b6102b1610503366004612cef565b610f53565b610273610516366004612cef565b6110bd565b610273610529366004612c56565b6110d4565b61027361053c366004612c12565b6111de565b6102fc61054f366004612b6c565b61125b565b6102737f9f2df0fed2c77648de5860a4cc508cd0818c85b8b8a1ab4ceeef8d981c8956a681565b6102fc610589366004612d08565b61140a565b6102737f65d7a28e3265b37a6474929f336521b332c1681b933f6cb9f3376673440d862a81565b6102996105c3366004612a81565b611414565b60006001600160e01b0319821663152a902d60e11b14806105ed57506105ed82611465565b92915050565b606060048054610602906130ea565b80601f016020809104026020016040519081016040528092919081815260200182805461062e906130ea565b801561067b5780601f106106505761010080835404028352916020019161067b565b820191906000526020600020905b81548152906001019060200180831161065e57829003601f168201915b5050505050905090565b600061069082611470565b6106f65760405162461bcd60e51b815260206004820152602c60248201527f4552433732313a20617070726f76656420717565727920666f72206e6f6e657860448201526b34b9ba32b73a103a37b5b2b760a11b60648201526084015b60405180910390fd5b506000908152600860205260409020546001600160a01b031690565b600061071d82610c66565b9050806001600160a01b0316836001600160a01b031614156107515760405162461bcd60e51b81526004016106ed90612f56565b336001600160a01b038216148061076d575061076d8133611414565b6107895760405162461bcd60e51b81526004016106ed90612ef9565b610793838361148d565b505050565b6107a3335b826114fb565b6107bf5760405162461bcd60e51b81526004016106ed90612f97565b6107938383836115bd565b6000828152602081905260408120546001600160a01b03169081156108515760008481526001602090815260408083206001600160a01b038616845282529182902082518084019093525460ff808216845261010090910416908201819052610834906064613071565b81516108439060ff1686613071565b61084d919061305d565b9150505b9250929050565b6108628282611768565b60008281526003602052604090206107939082611450565b600061088583610cdd565b82106108e75760405162461bcd60e51b815260206004820152602b60248201527f455243373231456e756d657261626c653a206f776e657220696e646578206f7560448201526a74206f6620626f756e647360a81b60648201526084016106ed565b506001600160a01b03919091166000908152600a60209081526040808320938352929052205490565b61091a828261178e565b60008281526003602052604090206107939082611808565b61095c7f65d7a28e3265b37a6474929f336521b332c1681b933f6cb9f3376673440d862a33610e1c565b6109c55760405162461bcd60e51b815260206004820152603460248201527f4552433732314d696e7465725061757365723a206d75737420686176652070616044820152737573657220726f6c6520746f20756e706175736560601b60648201526084016106ed565b6109cd61181d565b565b61079383838360405180602001604052806000815250610f1b565b6109f33361079d565b610a585760405162461bcd60e51b815260206004820152603060248201527f4552433732314275726e61626c653a2063616c6c6572206973206e6f74206f7760448201526f1b995c881b9bdc88185c1c1c9bdd995960821b60648201526084016106ed565b610a61816118b0565b50565b6000610a6f600c5490565b8210610ad25760405162461bcd60e51b815260206004820152602c60248201527f455243373231456e756d657261626c653a20676c6f62616c20696e646578206f60448201526b7574206f6620626f756e647360a01b60648201526084016106ed565b600c8281548110610ae557610ae5613196565b90600052602060002001549050919050565b600084421115610b435760405162461bcd60e51b815260206004820152601760248201527614dd185c9d119a4e88115e1c1a5c9959081c195c9b5a5d604a1b60448201526064016106ed565b6001600160a01b038816600090815260136020526040812080547fdf2fb49a1f69c8a73b114786b259dbb4a030c6bfe9099db7004c26857f8df6c7918b918b918b919086610b9083613125565b909155506040805160208101969096526001600160a01b0394851690860152929091166060840152608083015260a082015260c0810187905260e001604051602081830303815290604052805190602001209050610bf489828787876011546118f0565b80610c0a5750610c0a89828787876011546119c3565b610c1357600080fd5b6001600160a01b038816151580610c3357506001600160a01b0388163014155b610c3c57600080fd5b610c5789898960405180602001604052806000815250611a61565b50600198975050505050505050565b6000818152600660205260408120546001600160a01b0316806105ed5760405162461bcd60e51b815260206004820152602960248201527f4552433732313a206f776e657220717565727920666f72206e6f6e657869737460448201526832b73a103a37b5b2b760b91b60648201526084016106ed565b60006001600160a01b038216610d485760405162461bcd60e51b815260206004820152602a60248201527f4552433732313a2062616c616e636520717565727920666f7220746865207a65604482015269726f206164647265737360b01b60648201526084016106ed565b506001600160a01b031660009081526007602052604090205490565b610d8e7f65d7a28e3265b37a6474929f336521b332c1681b933f6cb9f3376673440d862a33610e1c565b610df55760405162461bcd60e51b815260206004820152603260248201527f4552433732314d696e7465725061757365723a206d75737420686176652070616044820152717573657220726f6c6520746f20706175736560701b60648201526084016106ed565b6109cd611a94565b6000828152600360205260408120610e159083611b0f565b9392505050565b60009182526002602090815260408084206001600160a01b0393909316845291905290205460ff1690565b606060058054610602906130ea565b6001600160a01b038216331415610eaf5760405162461bcd60e51b815260206004820152601960248201527f4552433732313a20617070726f766520746f2063616c6c65720000000000000060448201526064016106ed565b3360008181526009602090815260408083206001600160a01b03871680855290835292819020805460ff191686151590811790915590519081529192917f17307eab39ab6107e8899845ad3d59bd9653f200f220920489ca2b5937696c31910160405180910390a35050565b610f2533836114fb565b610f415760405162461bcd60e51b81526004016106ed90612f97565b610f4d84848484611a61565b50505050565b6060610f5e82611470565b610fc45760405162461bcd60e51b815260206004820152603160248201527f45524337323155524953746f726167653a2055524920717565727920666f72206044820152703737b732bc34b9ba32b73a103a37b5b2b760791b60648201526084016106ed565b6000828152600f602052604081208054610fdd906130ea565b80601f0160208091040260200160405190810160405280929190818152602001828054611009906130ea565b80156110565780601f1061102b57610100808354040283529160200191611056565b820191906000526020600020905b81548152906001019060200180831161103957829003601f168201915b505050505090506000611067611b1b565b905080516000141561107a575092915050565b8151156110ac578082604051602001611094929190612db3565b60405160208183030381529060405292505050919050565b6110b584611b2a565b949350505050565b60008181526003602052604081206105ed90611bf4565b60006111007f9f2df0fed2c77648de5860a4cc508cd0818c85b8b8a1ab4ceeef8d981c8956a633610e1c565b61111c5760405162461bcd60e51b81526004016106ed90612fe8565b6111a061112860125490565b86858560008481526020818152604080832080546001600160a01b039097166001600160a01b0319909716871790558051808201825260ff9586168152938516848301908152968352600182528083209583529490529290922091518254935182166101000261ffff19909416911617919091179055565b6111b2856111ad60125490565b611bfe565b6111c46111be60125490565b85611d3d565b6111d2601280546001019055565b60125495945050505050565b600061120a7f9f2df0fed2c77648de5860a4cc508cd0818c85b8b8a1ab4ceeef8d981c8956a633610e1c565b6112265760405162461bcd60e51b81526004016106ed90612fe8565b611233836111ad60125490565b61124561123f60125490565b83611d3d565b611253601280546001019055565b601254610e15565b834211156112a55760405162461bcd60e51b815260206004820152601760248201527614dd185c9d119a4e88115e1c1a5c9959081c195c9b5a5d604a1b60448201526064016106ed565b6001600160a01b038716600090815260136020526040812080547f48d39b37a35214940203bbbd4f383519797769b13d936f387d89430afef27688918a918a918a9190866112f283613125565b909155506040805160208101969096526001600160a01b0394851690860152929091166060840152608083015260a082015260c0810186905260e00160405160208183030381529060405280519060200120905061135688828686866011546118f0565b8061136c575061136c88828686866011546119c3565b61137557600080fd5b600061138087610c66565b9050806001600160a01b0316886001600160a01b031614156113b45760405162461bcd60e51b81526004016106ed90612f56565b806001600160a01b0316896001600160a01b031614806113d957506113d9818a611414565b6113f55760405162461bcd60e51b81526004016106ed90612ef9565b6113ff888861148d565b505050505050505050565b61091a8282611dc8565b6001600160a01b03918216600090815260096020908152604080832093909416825291909152205460ff1690565b61144c8282611dee565b5050565b6000610e15836001600160a01b038416611e74565b60006105ed82611ec3565b6000908152600660205260409020546001600160a01b0316151590565b600081815260086020526040902080546001600160a01b0319166001600160a01b03841690811790915581906114c282610c66565b6001600160a01b03167f8c5be1e5ebec7d5bd14f71427d1e84f3dd0314c0f7b2291e5b200ac8c7c3b92560405160405180910390a45050565b600061150682611470565b6115675760405162461bcd60e51b815260206004820152602c60248201527f4552433732313a206f70657261746f7220717565727920666f72206e6f6e657860448201526b34b9ba32b73a103a37b5b2b760a11b60648201526084016106ed565b600061157283610c66565b9050806001600160a01b0316846001600160a01b031614806115ad5750836001600160a01b03166115a284610685565b6001600160a01b0316145b806110b557506110b58185611414565b826001600160a01b03166115d082610c66565b6001600160a01b0316146116385760405162461bcd60e51b815260206004820152602960248201527f4552433732313a207472616e73666572206f6620746f6b656e2074686174206960448201526839903737ba1037bbb760b91b60648201526084016106ed565b6001600160a01b03821661169a5760405162461bcd60e51b8152602060048201526024808201527f4552433732313a207472616e7366657220746f20746865207a65726f206164646044820152637265737360e01b60648201526084016106ed565b6116a5838383611ee8565b6116b060008261148d565b6001600160a01b03831660009081526007602052604081208054600192906116d9908490613090565b90915550506001600160a01b0382166000908152600760205260408120805460019290611707908490613045565b909155505060008181526006602052604080822080546001600160a01b0319166001600160a01b0386811691821790925591518493918716917fddf252ad1be2c89b69c2b068fc378daa952ba7f163c4a11628f55a4df523b3ef91a4505050565b6000828152600260205260409020600101546117848133611ef3565b6107938383611dee565b6001600160a01b03811633146117fe5760405162461bcd60e51b815260206004820152602f60248201527f416363657373436f6e74726f6c3a2063616e206f6e6c792072656e6f756e636560448201526e103937b632b9903337b91039b2b63360891b60648201526084016106ed565b61144c8282611f57565b6000610e15836001600160a01b038416611fbe565b600e5460ff166118665760405162461bcd60e51b815260206004820152601460248201527314185d5cd8589b194e881b9bdd081c185d5cd95960621b60448201526064016106ed565b600e805460ff191690557f5db9ee0a495bf2e6ff9c91a7834c1ba4fdd244a5e8aa4e537bd38aeae4b073aa335b6040516001600160a01b03909116815260200160405180910390a1565b6118b9816120ab565b6000818152600f6020526040902080546118d2906130ea565b159050610a61576000818152600f60205260408120610a61916128d0565b60405161190160f01b60208201526022810182905260428101869052600090819060620160408051601f198184030181528282528051602091820120600080855291840180845281905260ff8a169284019290925260608301889052608083018790529092509060019060a0015b6020604051602081039080840390855afa158015611980573d6000803e3d6000fd5b5050604051601f1901519150506001600160a01b038116158015906119b65750886001600160a01b0316816001600160a01b0316145b9998505050505050505050565b600080611a2687846040517f19457468657265756d205369676e6564204d6573736167653a0a3332000000006020820152603c8101829052605c8101839052600090607c0160405160208183030381529060405280519060200120905092915050565b6040805160008082526020820180845284905260ff8a169282019290925260608101889052608081018790529192509060019060a00161195e565b611a6c8484846115bd565b611a7884848484612152565b610f4d5760405162461bcd60e51b81526004016106ed90612ea7565b600e5460ff1615611ada5760405162461bcd60e51b815260206004820152601060248201526f14185d5cd8589b194e881c185d5cd95960821b60448201526064016106ed565b600e805460ff191660011790557f62e78cea01bee320cd4e420270b5ea74000d11b0c9f74754ebdbfc544b05a2586118933390565b6000610e15838361225c565b606060108054610602906130ea565b6060611b3582611470565b611b995760405162461bcd60e51b815260206004820152602f60248201527f4552433732314d657461646174613a2055524920717565727920666f72206e6f60448201526e3732bc34b9ba32b73a103a37b5b2b760891b60648201526084016106ed565b6000611ba3611b1b565b90506000815111611bc35760405180602001604052806000815250610e15565b80611bcd846122e2565b604051602001611bde929190612db3565b6040516020818303038152906040529392505050565b60006105ed825490565b6001600160a01b038216611c545760405162461bcd60e51b815260206004820181905260248201527f4552433732313a206d696e7420746f20746865207a65726f206164647265737360448201526064016106ed565b611c5d81611470565b15611caa5760405162461bcd60e51b815260206004820152601c60248201527f4552433732313a20746f6b656e20616c7265616479206d696e7465640000000060448201526064016106ed565b611cb660008383611ee8565b6001600160a01b0382166000908152600760205260408120805460019290611cdf908490613045565b909155505060008181526006602052604080822080546001600160a01b0319166001600160a01b03861690811790915590518392907fddf252ad1be2c89b69c2b068fc378daa952ba7f163c4a11628f55a4df523b3ef908290a45050565b611d4682611470565b611da95760405162461bcd60e51b815260206004820152602e60248201527f45524337323155524953746f726167653a2055524920736574206f66206e6f6e60448201526d32bc34b9ba32b73a103a37b5b2b760911b60648201526084016106ed565b6000828152600f6020908152604090912082516107939284019061290a565b600082815260026020526040902060010154611de48133611ef3565b6107938383611f57565b611df88282610e1c565b61144c5760008281526002602090815260408083206001600160a01b03851684529091529020805460ff19166001179055611e303390565b6001600160a01b0316816001600160a01b0316837f2f8788117e7eff1d82e926ec794901d17c78024a50270940304540a733656f0d60405160405180910390a45050565b6000818152600183016020526040812054611ebb575081546001818101845560008481526020808220909301849055845484825282860190935260409020919091556105ed565b5060006105ed565b60006001600160e01b0319821663780e9d6360e01b14806105ed57506105ed826123e0565b610793838383612420565b611efd8282610e1c565b61144c57611f15816001600160a01b03166014612492565b611f20836020612492565b604051602001611f31929190612de2565b60408051601f198184030181529082905262461bcd60e51b82526106ed91600401612e94565b611f618282610e1c565b1561144c5760008281526002602090815260408083206001600160a01b0385168085529252808320805460ff1916905551339285917ff6391f5c32d9c69d2a47ea670b442974b53935d1edc7fd64eb21e047a839171b9190a45050565b600081815260018301602052604081205480156120a1576000611fe2600183613090565b8554909150600090611ff690600190613090565b9050600086600001828154811061200f5761200f613196565b906000526020600020015490508087600001848154811061203257612032613196565b60009182526020808320909101929092558281526001890190915260409020849055865487908061206557612065613180565b600190038181906000526020600020016000905590558660010160008781526020019081526020016000206000905560019450505050506105ed565b60009150506105ed565b60006120b682610c66565b90506120c481600084611ee8565b6120cf60008361148d565b6001600160a01b03811660009081526007602052604081208054600192906120f8908490613090565b909155505060008281526006602052604080822080546001600160a01b0319169055518391906001600160a01b038416907fddf252ad1be2c89b69c2b068fc378daa952ba7f163c4a11628f55a4df523b3ef908390a45050565b60006001600160a01b0384163b1561225457604051630a85bd0160e11b81526001600160a01b0385169063150b7a0290612196903390899088908890600401612e57565b602060405180830381600087803b1580156121b057600080fd5b505af19250505080156121e0575060408051601f3d908101601f191682019092526121dd91810190612d6a565b60015b61223a573d80801561220e576040519150601f19603f3d011682016040523d82523d6000602084013e612213565b606091505b5080516122325760405162461bcd60e51b81526004016106ed90612ea7565b805181602001fd5b6001600160e01b031916630a85bd0160e11b1490506110b5565b5060016110b5565b815460009082106122ba5760405162461bcd60e51b815260206004820152602260248201527f456e756d657261626c655365743a20696e646578206f7574206f6620626f756e604482015261647360f01b60648201526084016106ed565b8260000182815481106122cf576122cf613196565b9060005260206000200154905092915050565b6060816123065750506040805180820190915260018152600360fc1b602082015290565b8160005b8115612330578061231a81613125565b91506123299050600a8361305d565b915061230a565b60008167ffffffffffffffff81111561234b5761234b6131ac565b6040519080825280601f01601f191660200182016040528015612375576020820181803683370190505b5090505b84156110b55761238a600183613090565b9150612397600a86613140565b6123a2906030613045565b60f81b8183815181106123b7576123b7613196565b60200101906001600160f81b031916908160001a9053506123d9600a8661305d565b9450612379565b60006001600160e01b031982166380ac58cd60e01b148061241157506001600160e01b03198216635b5e139f60e01b145b806105ed57506105ed8261262e565b61242b838383612653565b600e5460ff16156107935760405162461bcd60e51b815260206004820152602b60248201527f4552433732315061757361626c653a20746f6b656e207472616e73666572207760448201526a1a1a5b19481c185d5cd95960aa1b60648201526084016106ed565b606060006124a1836002613071565b6124ac906002613045565b67ffffffffffffffff8111156124c4576124c46131ac565b6040519080825280601f01601f1916602001820160405280156124ee576020820181803683370190505b509050600360fc1b8160008151811061250957612509613196565b60200101906001600160f81b031916908160001a905350600f60fb1b8160018151811061253857612538613196565b60200101906001600160f81b031916908160001a905350600061255c846002613071565b612567906001613045565b90505b60018111156125df576f181899199a1a9b1b9c1cb0b131b232b360811b85600f166010811061259b5761259b613196565b1a60f81b8282815181106125b1576125b1613196565b60200101906001600160f81b031916908160001a90535060049490941c936125d8816130d3565b905061256a565b508315610e155760405162461bcd60e51b815260206004820181905260248201527f537472696e67733a20686578206c656e67746820696e73756666696369656e7460448201526064016106ed565b60006001600160e01b03198216635a05180f60e01b14806105ed57506105ed8261270b565b6001600160a01b0383166126ae576126a981600c80546000838152600d60205260408120829055600182018355919091527fdf6966c971051c3d54ec59162606531493a51404a002842f56009d7e5cf4a8c70155565b6126d1565b816001600160a01b0316836001600160a01b0316146126d1576126d18382612740565b6001600160a01b0382166126e857610793816127dd565b826001600160a01b0316826001600160a01b03161461079357610793828261288c565b60006001600160e01b03198216637965db0b60e01b14806105ed57506301ffc9a760e01b6001600160e01b03198316146105ed565b6000600161274d84610cdd565b6127579190613090565b6000838152600b60205260409020549091508082146127aa576001600160a01b0384166000908152600a602090815260408083208584528252808320548484528184208190558352600b90915290208190555b506000918252600b602090815260408084208490556001600160a01b039094168352600a81528383209183525290812055565b600c546000906127ef90600190613090565b6000838152600d6020526040812054600c805493945090928490811061281757612817613196565b9060005260206000200154905080600c838154811061283857612838613196565b6000918252602080832090910192909255828152600d9091526040808220849055858252812055600c80548061287057612870613180565b6001900381819060005260206000200160009055905550505050565b600061289783610cdd565b6001600160a01b039093166000908152600a602090815260408083208684528252808320859055938252600b9052919091209190915550565b5080546128dc906130ea565b6000825580601f106128ec575050565b601f016020900490600052602060002090810190610a61919061298e565b828054612916906130ea565b90600052602060002090601f016020900481019282612938576000855561297e565b82601f1061295157805160ff191683800117855561297e565b8280016001018555821561297e579182015b8281111561297e578251825591602001919060010190612963565b5061298a92915061298e565b5090565b5b8082111561298a576000815560010161298f565b600067ffffffffffffffff808411156129be576129be6131ac565b604051601f8501601f19908116603f011681019082821181831017156129e6576129e66131ac565b816040528093508581528686860111156129ff57600080fd5b858560208301376000602087830101525050509392505050565b80356001600160a01b0381168114612a3057600080fd5b919050565b600082601f830112612a4657600080fd5b610e15838335602085016129a3565b803560ff81168114612a3057600080fd5b600060208284031215612a7857600080fd5b610e1582612a19565b60008060408385031215612a9457600080fd5b612a9d83612a19565b9150612aab60208401612a19565b90509250929050565b600080600060608486031215612ac957600080fd5b612ad284612a19565b9250612ae060208501612a19565b9150604084013590509250925092565b60008060008060808587031215612b0657600080fd5b612b0f85612a19565b9350612b1d60208601612a19565b925060408501359150606085013567ffffffffffffffff811115612b4057600080fd5b8501601f81018713612b5157600080fd5b612b60878235602084016129a3565b91505092959194509250565b600080600080600080600060e0888a031215612b8757600080fd5b612b9088612a19565b9650612b9e60208901612a19565b95506040880135945060608801359350612bba60808901612a55565b925060a0880135915060c0880135905092959891949750929550565b60008060408385031215612be957600080fd5b612bf283612a19565b915060208301358015158114612c0757600080fd5b809150509250929050565b60008060408385031215612c2557600080fd5b612c2e83612a19565b9150602083013567ffffffffffffffff811115612c4a57600080fd5b61084d85828601612a35565b60008060008060808587031215612c6c57600080fd5b612c7585612a19565b9350602085013567ffffffffffffffff811115612c9157600080fd5b612c9d87828801612a35565b935050612cac60408601612a55565b9150612cba60608601612a55565b905092959194509250565b60008060408385031215612cd857600080fd5b612ce183612a19565b946020939093013593505050565b600060208284031215612d0157600080fd5b5035919050565b60008060408385031215612d1b57600080fd5b82359150612aab60208401612a19565b60008060408385031215612d3e57600080fd5b50508035926020909101359150565b600060208284031215612d5f57600080fd5b8135610e15816131c2565b600060208284031215612d7c57600080fd5b8151610e15816131c2565b60008151808452612d9f8160208601602086016130a7565b601f01601f19169290920160200192915050565b60008351612dc58184602088016130a7565b835190830190612dd98183602088016130a7565b01949350505050565b7f416363657373436f6e74726f6c3a206163636f756e7420000000000000000000815260008351612e1a8160178501602088016130a7565b7001034b99036b4b9b9b4b733903937b6329607d1b6017918401918201528351612e4b8160288401602088016130a7565b01602801949350505050565b6001600160a01b0385811682528416602082015260408101839052608060608201819052600090612e8a90830184612d87565b9695505050505050565b602081526000610e156020830184612d87565b60208082526032908201527f4552433732313a207472616e7366657220746f206e6f6e20455243373231526560408201527131b2b4bb32b91034b6b83632b6b2b73a32b960711b606082015260800190565b60208082526038908201527f4552433732313a20617070726f76652063616c6c6572206973206e6f74206f7760408201527f6e6572206e6f7220617070726f76656420666f7220616c6c0000000000000000606082015260800190565b60208082526021908201527f4552433732313a20617070726f76616c20746f2063757272656e74206f776e656040820152603960f91b606082015260800190565b60208082526031908201527f4552433732313a207472616e736665722063616c6c6572206973206e6f74206f6040820152701ddb995c881b9bdc88185c1c1c9bdd9959607a1b606082015260800190565b6020808252603d908201527f4552433732315072657365744d696e7465725061757365724175746f49643a2060408201527f6d7573742068617665206d696e74657220726f6c6520746f206d696e74000000606082015260800190565b6000821982111561305857613058613154565b500190565b60008261306c5761306c61316a565b500490565b600081600019048311821515161561308b5761308b613154565b500290565b6000828210156130a2576130a2613154565b500390565b60005b838110156130c25781810151838201526020016130aa565b83811115610f4d5750506000910152565b6000816130e2576130e2613154565b506000190190565b600181811c908216806130fe57607f821691505b6020821081141561311f57634e487b7160e01b600052602260045260246000fd5b50919050565b600060001982141561313957613139613154565b5060010190565b60008261314f5761314f61316a565b500690565b634e487b7160e01b600052601160045260246000fd5b634e487b7160e01b600052601260045260246000fd5b634e487b7160e01b600052603160045260246000fd5b634e487b7160e01b600052603260045260246000fd5b634e487b7160e01b600052604160045260246000fd5b6001600160e01b031981168114610a6157600080fdfea2646970667358221220e383c27216edccfc3815c5f1cfe8dd0a3f38775451ae3f4c0bafc266de21c7e264736f6c63430008070033",
  "devdoc": {
    "author": "Eman Herawy, StartFi Team",
    "kind": "dev",
    "methods": {
      "approve(address,uint256)": {
        "details": "See {IERC721-approve}."
      },
      "balanceOf(address)": {
        "details": "See {IERC721-balanceOf}."
      },
      "burn(uint256)": {
        "details": "Burns `tokenId`. See {ERC721-_burn}. Requirements: - The caller must own `tokenId` or be an approved operator."
      },
      "getApproved(uint256)": {
        "details": "See {IERC721-getApproved}."
      },
      "getRoleAdmin(bytes32)": {
        "details": "Returns the admin role that controls `role`. See {grantRole} and {revokeRole}. To change a role's admin, use {_setRoleAdmin}."
      },
      "getRoleMember(bytes32,uint256)": {
        "details": "Returns one of the accounts that have `role`. `index` must be a value between 0 and {getRoleMemberCount}, non-inclusive. Role bearers are not sorted in any particular way, and their ordering may change at any point. WARNING: When using {getRoleMember} and {getRoleMemberCount}, make sure you perform all queries on the same block. See the following https://forum.openzeppelin.com/t/iterating-over-elements-on-enumerableset-in-openzeppelin-contracts/2296[forum post] for more information."
      },
      "getRoleMemberCount(bytes32)": {
        "details": "Returns the number of accounts that have `role`. Can be used together with {getRoleMember} to enumerate all bearers of a role."
      },
      "grantRole(bytes32,address)": {
        "details": "Overload {grantRole} to track enumerable memberships"
      },
      "hasRole(bytes32,address)": {
        "details": "Returns `true` if `account` has been granted `role`."
      },
      "isApprovedForAll(address,address)": {
        "details": "See {IERC721-isApprovedForAll}."
      },
      "mint(address,string)": {
        "details": "Creates a new token for `to`. Its token ID will be automatically assigned (and available on the emitted {IERC721-Transfer} event), and the token URI autogenerated based on the base URI passed at construction. See {ERC721-_mint}. Requirements: - the caller must have the `MINTER_ROLE`."
      },
      "mintWithRoyalty(address,string,uint8,uint8)": {
        "details": "calller should be in minter role",
        "params": {
          "_tokenURI": ": serized json object that has the following data ( category, name , desc , tages, ipfs hash)",
          "separator": ": eg. 10",
          "share": ": eg. 25",
          "to": ": NFT issuer"
        },
        "returns": {
          "_0": "token id"
        }
      },
      "name()": {
        "details": "See {IERC721Metadata-name}."
      },
      "ownerOf(uint256)": {
        "details": "See {IERC721-ownerOf}."
      },
      "pause()": {
        "details": "Pauses all token transfers. See {ERC721Pausable} and {Pausable-_pause}. Requirements: - the caller must have the `PAUSER_ROLE`."
      },
      "paused()": {
        "details": "Returns true if the contract is paused, and false otherwise."
      },
      "permit(address,address,uint256,uint256,uint8,bytes32,bytes32)": {
        "details": "Sets `tokenId` as allowance of `spender` account over `owner` account's StartfiRoyaltyNFT token, given `owner` account's signed approval. Emits {Approval} event. Requirements:   - `deadline` must be timestamp in future.   - `v`, `r` and `s` must be valid `secp256k1` signature from `owner`  or 'approved for all' account over EIP712-formatted function arguments.   - the signature must use `owner` or 'approved for all' account's current nonce (see {nonces}).   - the signer cannot be zero address and must be `owner`  or 'approved for all' account. For more information on signature format, see https://eips.ethereum.org/EIPS/eip-2612#specification[relevant EIP section]. StartfiRoyaltyNFT token implementation adapted from https://github.com/anyswap/chaindata/blob/main/AnyswapV5ERC20.sol. with some modification"
      },
      "renounceRole(bytes32,address)": {
        "details": "Overload {renounceRole} to track enumerable memberships"
      },
      "revokeRole(bytes32,address)": {
        "details": "Overload {revokeRole} to track enumerable memberships"
      },
      "royaltyInfo(uint256,uint256)": {
        "details": "the formula is as follow : if issuer share is 2.5 then the share is 25 and the separator is 10  so inorder to calc the amount of royalty share for a token , formula should be totoal (price * share)/(separator*100)",
        "params": {
          "_tokenId": ": token id",
          "_value": ": token price on marketplace "
        },
        "returns": {
          "issuer": ": original issuer of the given token and his/her share of this this token"
        }
      },
      "safeTransferFrom(address,address,uint256)": {
        "details": "See {IERC721-safeTransferFrom}."
      },
      "safeTransferFrom(address,address,uint256,bytes)": {
        "details": "See {IERC721-safeTransferFrom}."
      },
      "setApprovalForAll(address,bool)": {
        "details": "See {IERC721-setApprovalForAll}."
      },
      "supportsInterface(bytes4)": {
        "details": "See {IERC165-supportsInterface}."
      },
      "supportsRoyalty()": {
        "details": "See {IERC165-supportsInterface}."
      },
      "symbol()": {
        "details": "See {IERC721Metadata-symbol}."
      },
      "tokenByIndex(uint256)": {
        "details": "See {IERC721Enumerable-tokenByIndex}."
      },
      "tokenOfOwnerByIndex(address,uint256)": {
        "details": "See {IERC721Enumerable-tokenOfOwnerByIndex}."
      },
      "tokenURI(uint256)": {
        "details": "See {IERC721Metadata-tokenURI}."
      },
      "totalSupply()": {
        "details": "See {IERC721Enumerable-totalSupply}."
      },
      "transferFrom(address,address,uint256)": {
        "details": "See {IERC721-transferFrom}."
      },
      "transferWithPermit(address,address,uint256,uint256,uint8,bytes32,bytes32)": {
        "details": "Sets `tokenId` as allowance of `spender` account over `owner` account's StartfiRoyaltyNFT token, given `owner` account's signed approval. Emits {Transfer} event. Requirements:   - `deadline` must be timestamp in future.   - `v`, `r` and `s` must be valid `secp256k1` signature from `owner`  or 'approved for all' account over EIP712-formatted function arguments.   - the signature must use `owner` or 'approved for all' account's current nonce (see {nonces}).   - the signer cannot be zero address and must be `owner`  or 'approved for all' account. For more information on signature format, see https://eips.ethereum.org/EIPS/eip-2612#specification[relevant EIP section]. StartfiRoyaltyNFT token implementation adapted from https://github.com/anyswap/chaindata/blob/main/AnyswapV5ERC20.sol. with some modification"
      },
      "unpause()": {
        "details": "Unpauses all token transfers. See {ERC721Pausable} and {Pausable-_unpause}. Requirements: - the caller must have the `PAUSER_ROLE`."
      }
    },
    "stateVariables": {
      "nonces": {
        "details": "Records current ERC2612 nonce for account. This value must be included whenever signature is generated for {permit}. Every successful call to {permit} increases account's nonce by one. This prevents signature from being used multiple times."
      }
    },
    "title": "Startfi Royalty NFT [ desc ] : NFT contract with Royalty option",
    "version": 1
  },
  "userdoc": {
    "kind": "user",
    "methods": {
      "mintWithRoyalty(address,string,uint8,uint8)": {
        "notice": "mint new NFT with roylty support, soldidty doesn't support decimal, so if we want to add 2.5 % share we need to pass 25 as share and 10 as base"
      }
    },
    "version": 1
  },
  "storageLayout": {
    "storage": [
      {
        "astId": 4355,
        "contract": "contracts/StartfiRoyaltyNFT.sol:StartfiRoyaltyNFT",
        "label": "_issuer",
        "offset": 0,
        "slot": "0",
        "type": "t_mapping(t_uint256,t_address)"
      },
      {
        "astId": 4362,
        "contract": "contracts/StartfiRoyaltyNFT.sol:StartfiRoyaltyNFT",
        "label": "_issuerPercentage",
        "offset": 0,
        "slot": "1",
        "type": "t_mapping(t_uint256,t_mapping(t_address,t_struct(Base)4367_storage))"
      },
      {
        "astId": 62,
        "contract": "contracts/StartfiRoyaltyNFT.sol:StartfiRoyaltyNFT",
        "label": "_roles",
        "offset": 0,
        "slot": "2",
        "type": "t_mapping(t_bytes32,t_struct(RoleData)57_storage)"
      },
      {
        "astId": 403,
        "contract": "contracts/StartfiRoyaltyNFT.sol:StartfiRoyaltyNFT",
        "label": "_roleMembers",
        "offset": 0,
        "slot": "3",
        "type": "t_mapping(t_bytes32,t_struct(AddressSet)3846_storage)"
      },
      {
        "astId": 1525,
        "contract": "contracts/StartfiRoyaltyNFT.sol:StartfiRoyaltyNFT",
        "label": "_name",
        "offset": 0,
        "slot": "4",
        "type": "t_string_storage"
      },
      {
        "astId": 1527,
        "contract": "contracts/StartfiRoyaltyNFT.sol:StartfiRoyaltyNFT",
        "label": "_symbol",
        "offset": 0,
        "slot": "5",
        "type": "t_string_storage"
      },
      {
        "astId": 1531,
        "contract": "contracts/StartfiRoyaltyNFT.sol:StartfiRoyaltyNFT",
        "label": "_owners",
        "offset": 0,
        "slot": "6",
        "type": "t_mapping(t_uint256,t_address)"
      },
      {
        "astId": 1535,
        "contract": "contracts/StartfiRoyaltyNFT.sol:StartfiRoyaltyNFT",
        "label": "_balances",
        "offset": 0,
        "slot": "7",
        "type": "t_mapping(t_address,t_uint256)"
      },
      {
        "astId": 1539,
        "contract": "contracts/StartfiRoyaltyNFT.sol:StartfiRoyaltyNFT",
        "label": "_tokenApprovals",
        "offset": 0,
        "slot": "8",
        "type": "t_mapping(t_uint256,t_address)"
      },
      {
        "astId": 1545,
        "contract": "contracts/StartfiRoyaltyNFT.sol:StartfiRoyaltyNFT",
        "label": "_operatorApprovals",
        "offset": 0,
        "slot": "9",
        "type": "t_mapping(t_address,t_mapping(t_address,t_bool))"
      },
      {
        "astId": 2496,
        "contract": "contracts/StartfiRoyaltyNFT.sol:StartfiRoyaltyNFT",
        "label": "_ownedTokens",
        "offset": 0,
        "slot": "10",
        "type": "t_mapping(t_address,t_mapping(t_uint256,t_uint256))"
      },
      {
        "astId": 2500,
        "contract": "contracts/StartfiRoyaltyNFT.sol:StartfiRoyaltyNFT",
        "label": "_ownedTokensIndex",
        "offset": 0,
        "slot": "11",
        "type": "t_mapping(t_uint256,t_uint256)"
      },
      {
        "astId": 2503,
        "contract": "contracts/StartfiRoyaltyNFT.sol:StartfiRoyaltyNFT",
        "label": "_allTokens",
        "offset": 0,
        "slot": "12",
        "type": "t_array(t_uint256)dyn_storage"
      },
      {
        "astId": 2507,
        "contract": "contracts/StartfiRoyaltyNFT.sol:StartfiRoyaltyNFT",
        "label": "_allTokensIndex",
        "offset": 0,
        "slot": "13",
        "type": "t_mapping(t_uint256,t_uint256)"
      },
      {
        "astId": 685,
        "contract": "contracts/StartfiRoyaltyNFT.sol:StartfiRoyaltyNFT",
        "label": "_paused",
        "offset": 0,
        "slot": "14",
        "type": "t_bool"
      },
      {
        "astId": 4108,
        "contract": "contracts/StartfiRoyaltyNFT.sol:StartfiRoyaltyNFT",
        "label": "_tokenURIs",
        "offset": 0,
        "slot": "15",
        "type": "t_mapping(t_uint256,t_string_storage)"
      },
      {
        "astId": 4110,
        "contract": "contracts/StartfiRoyaltyNFT.sol:StartfiRoyaltyNFT",
        "label": "_baseTokenURI",
        "offset": 0,
        "slot": "16",
        "type": "t_string_storage"
      },
      {
        "astId": 9410,
        "contract": "contracts/StartfiRoyaltyNFT.sol:StartfiRoyaltyNFT",
        "label": "DOMAIN_SEPARATOR",
        "offset": 0,
        "slot": "17",
        "type": "t_bytes32"
      },
      {
        "astId": 9413,
        "contract": "contracts/StartfiRoyaltyNFT.sol:StartfiRoyaltyNFT",
        "label": "_tokenIdTracker",
        "offset": 0,
        "slot": "18",
        "type": "t_struct(Counter)3266_storage"
      },
      {
        "astId": 9418,
        "contract": "contracts/StartfiRoyaltyNFT.sol:StartfiRoyaltyNFT",
        "label": "nonces",
        "offset": 0,
        "slot": "19",
        "type": "t_mapping(t_address,t_uint256)"
      }
    ],
    "types": {
      "t_address": {
        "encoding": "inplace",
        "label": "address",
        "numberOfBytes": "20"
      },
      "t_array(t_bytes32)dyn_storage": {
        "base": "t_bytes32",
        "encoding": "dynamic_array",
        "label": "bytes32[]",
        "numberOfBytes": "32"
      },
      "t_array(t_uint256)dyn_storage": {
        "base": "t_uint256",
        "encoding": "dynamic_array",
        "label": "uint256[]",
        "numberOfBytes": "32"
      },
      "t_bool": {
        "encoding": "inplace",
        "label": "bool",
        "numberOfBytes": "1"
      },
      "t_bytes32": {
        "encoding": "inplace",
        "label": "bytes32",
        "numberOfBytes": "32"
      },
      "t_mapping(t_address,t_bool)": {
        "encoding": "mapping",
        "key": "t_address",
        "label": "mapping(address => bool)",
        "numberOfBytes": "32",
        "value": "t_bool"
      },
      "t_mapping(t_address,t_mapping(t_address,t_bool))": {
        "encoding": "mapping",
        "key": "t_address",
        "label": "mapping(address => mapping(address => bool))",
        "numberOfBytes": "32",
        "value": "t_mapping(t_address,t_bool)"
      },
      "t_mapping(t_address,t_mapping(t_uint256,t_uint256))": {
        "encoding": "mapping",
        "key": "t_address",
        "label": "mapping(address => mapping(uint256 => uint256))",
        "numberOfBytes": "32",
        "value": "t_mapping(t_uint256,t_uint256)"
      },
      "t_mapping(t_address,t_struct(Base)4367_storage)": {
        "encoding": "mapping",
        "key": "t_address",
        "label": "mapping(address => struct ERC721Royalty.Base)",
        "numberOfBytes": "32",
        "value": "t_struct(Base)4367_storage"
      },
      "t_mapping(t_address,t_uint256)": {
        "encoding": "mapping",
        "key": "t_address",
        "label": "mapping(address => uint256)",
        "numberOfBytes": "32",
        "value": "t_uint256"
      },
      "t_mapping(t_bytes32,t_struct(AddressSet)3846_storage)": {
        "encoding": "mapping",
        "key": "t_bytes32",
        "label": "mapping(bytes32 => struct EnumerableSet.AddressSet)",
        "numberOfBytes": "32",
        "value": "t_struct(AddressSet)3846_storage"
      },
      "t_mapping(t_bytes32,t_struct(RoleData)57_storage)": {
        "encoding": "mapping",
        "key": "t_bytes32",
        "label": "mapping(bytes32 => struct AccessControl.RoleData)",
        "numberOfBytes": "32",
        "value": "t_struct(RoleData)57_storage"
      },
      "t_mapping(t_bytes32,t_uint256)": {
        "encoding": "mapping",
        "key": "t_bytes32",
        "label": "mapping(bytes32 => uint256)",
        "numberOfBytes": "32",
        "value": "t_uint256"
      },
      "t_mapping(t_uint256,t_address)": {
        "encoding": "mapping",
        "key": "t_uint256",
        "label": "mapping(uint256 => address)",
        "numberOfBytes": "32",
        "value": "t_address"
      },
      "t_mapping(t_uint256,t_mapping(t_address,t_struct(Base)4367_storage))": {
        "encoding": "mapping",
        "key": "t_uint256",
        "label": "mapping(uint256 => mapping(address => struct ERC721Royalty.Base))",
        "numberOfBytes": "32",
        "value": "t_mapping(t_address,t_struct(Base)4367_storage)"
      },
      "t_mapping(t_uint256,t_string_storage)": {
        "encoding": "mapping",
        "key": "t_uint256",
        "label": "mapping(uint256 => string)",
        "numberOfBytes": "32",
        "value": "t_string_storage"
      },
      "t_mapping(t_uint256,t_uint256)": {
        "encoding": "mapping",
        "key": "t_uint256",
        "label": "mapping(uint256 => uint256)",
        "numberOfBytes": "32",
        "value": "t_uint256"
      },
      "t_string_storage": {
        "encoding": "bytes",
        "label": "string",
        "numberOfBytes": "32"
      },
      "t_struct(AddressSet)3846_storage": {
        "encoding": "inplace",
        "label": "struct EnumerableSet.AddressSet",
        "members": [
          {
            "astId": 3845,
            "contract": "contracts/StartfiRoyaltyNFT.sol:StartfiRoyaltyNFT",
            "label": "_inner",
            "offset": 0,
            "slot": "0",
            "type": "t_struct(Set)3571_storage"
          }
        ],
        "numberOfBytes": "64"
      },
      "t_struct(Base)4367_storage": {
        "encoding": "inplace",
        "label": "struct ERC721Royalty.Base",
        "members": [
          {
            "astId": 4364,
            "contract": "contracts/StartfiRoyaltyNFT.sol:StartfiRoyaltyNFT",
            "label": "share",
            "offset": 0,
            "slot": "0",
            "type": "t_uint8"
          },
          {
            "astId": 4366,
            "contract": "contracts/StartfiRoyaltyNFT.sol:StartfiRoyaltyNFT",
            "label": "shareSeparator",
            "offset": 1,
            "slot": "0",
            "type": "t_uint8"
          }
        ],
        "numberOfBytes": "32"
      },
      "t_struct(Counter)3266_storage": {
        "encoding": "inplace",
        "label": "struct Counters.Counter",
        "members": [
          {
            "astId": 3265,
            "contract": "contracts/StartfiRoyaltyNFT.sol:StartfiRoyaltyNFT",
            "label": "_value",
            "offset": 0,
            "slot": "0",
            "type": "t_uint256"
          }
        ],
        "numberOfBytes": "32"
      },
      "t_struct(RoleData)57_storage": {
        "encoding": "inplace",
        "label": "struct AccessControl.RoleData",
        "members": [
          {
            "astId": 54,
            "contract": "contracts/StartfiRoyaltyNFT.sol:StartfiRoyaltyNFT",
            "label": "members",
            "offset": 0,
            "slot": "0",
            "type": "t_mapping(t_address,t_bool)"
          },
          {
            "astId": 56,
            "contract": "contracts/StartfiRoyaltyNFT.sol:StartfiRoyaltyNFT",
            "label": "adminRole",
            "offset": 0,
            "slot": "1",
            "type": "t_bytes32"
          }
        ],
        "numberOfBytes": "64"
      },
      "t_struct(Set)3571_storage": {
        "encoding": "inplace",
        "label": "struct EnumerableSet.Set",
        "members": [
          {
            "astId": 3566,
            "contract": "contracts/StartfiRoyaltyNFT.sol:StartfiRoyaltyNFT",
            "label": "_values",
            "offset": 0,
            "slot": "0",
            "type": "t_array(t_bytes32)dyn_storage"
          },
          {
            "astId": 3570,
            "contract": "contracts/StartfiRoyaltyNFT.sol:StartfiRoyaltyNFT",
            "label": "_indexes",
            "offset": 0,
            "slot": "1",
            "type": "t_mapping(t_bytes32,t_uint256)"
          }
        ],
        "numberOfBytes": "64"
      },
      "t_uint256": {
        "encoding": "inplace",
        "label": "uint256",
        "numberOfBytes": "32"
      },
      "t_uint8": {
        "encoding": "inplace",
        "label": "uint8",
        "numberOfBytes": "1"
      }
    }
  }
}