{
  "_format": "hh-sol-artifact-1",
  "contractName": "StartfiRoyaltyNFT",
  "sourceName": "contracts/StartfiRoyaltyNFT.sol",
  "abi": [
    {
      "inputs": [
        {
          "internalType": "string",
          "name": "name",
          "type": "string"
        },
        {
          "internalType": "string",
          "name": "symbol",
          "type": "string"
        },
        {
          "internalType": "string",
          "name": "baseTokenURI",
          "type": "string"
        }
      ],
      "stateMutability": "nonpayable",
      "type": "constructor"
    },
    {
      "anonymous": false,
      "inputs": [
        {
          "indexed": true,
          "internalType": "address",
          "name": "owner",
          "type": "address"
        },
        {
          "indexed": true,
          "internalType": "address",
          "name": "approved",
          "type": "address"
        },
        {
          "indexed": true,
          "internalType": "uint256",
          "name": "tokenId",
          "type": "uint256"
        }
      ],
      "name": "Approval",
      "type": "event"
    },
    {
      "anonymous": false,
      "inputs": [
        {
          "indexed": true,
          "internalType": "address",
          "name": "owner",
          "type": "address"
        },
        {
          "indexed": true,
          "internalType": "address",
          "name": "operator",
          "type": "address"
        },
        {
          "indexed": false,
          "internalType": "bool",
          "name": "approved",
          "type": "bool"
        }
      ],
      "name": "ApprovalForAll",
      "type": "event"
    },
    {
      "anonymous": false,
      "inputs": [
        {
          "indexed": false,
          "internalType": "address",
          "name": "account",
          "type": "address"
        }
      ],
      "name": "Paused",
      "type": "event"
    },
    {
      "anonymous": false,
      "inputs": [
        {
          "indexed": true,
          "internalType": "bytes32",
          "name": "role",
          "type": "bytes32"
        },
        {
          "indexed": true,
          "internalType": "bytes32",
          "name": "previousAdminRole",
          "type": "bytes32"
        },
        {
          "indexed": true,
          "internalType": "bytes32",
          "name": "newAdminRole",
          "type": "bytes32"
        }
      ],
      "name": "RoleAdminChanged",
      "type": "event"
    },
    {
      "anonymous": false,
      "inputs": [
        {
          "indexed": true,
          "internalType": "bytes32",
          "name": "role",
          "type": "bytes32"
        },
        {
          "indexed": true,
          "internalType": "address",
          "name": "account",
          "type": "address"
        },
        {
          "indexed": true,
          "internalType": "address",
          "name": "sender",
          "type": "address"
        }
      ],
      "name": "RoleGranted",
      "type": "event"
    },
    {
      "anonymous": false,
      "inputs": [
        {
          "indexed": true,
          "internalType": "bytes32",
          "name": "role",
          "type": "bytes32"
        },
        {
          "indexed": true,
          "internalType": "address",
          "name": "account",
          "type": "address"
        },
        {
          "indexed": true,
          "internalType": "address",
          "name": "sender",
          "type": "address"
        }
      ],
      "name": "RoleRevoked",
      "type": "event"
    },
    {
      "anonymous": false,
      "inputs": [
        {
          "indexed": true,
          "internalType": "address",
          "name": "from",
          "type": "address"
        },
        {
          "indexed": true,
          "internalType": "address",
          "name": "to",
          "type": "address"
        },
        {
          "indexed": true,
          "internalType": "uint256",
          "name": "tokenId",
          "type": "uint256"
        }
      ],
      "name": "Transfer",
      "type": "event"
    },
    {
      "anonymous": false,
      "inputs": [
        {
          "indexed": false,
          "internalType": "address",
          "name": "account",
          "type": "address"
        }
      ],
      "name": "Unpaused",
      "type": "event"
    },
    {
      "inputs": [],
      "name": "DEFAULT_ADMIN_ROLE",
      "outputs": [
        {
          "internalType": "bytes32",
          "name": "",
          "type": "bytes32"
        }
      ],
      "stateMutability": "view",
      "type": "function"
    },
    {
      "inputs": [],
      "name": "MINTER_ROLE",
      "outputs": [
        {
          "internalType": "bytes32",
          "name": "",
          "type": "bytes32"
        }
      ],
      "stateMutability": "view",
      "type": "function"
    },
    {
      "inputs": [],
      "name": "PAUSER_ROLE",
      "outputs": [
        {
          "internalType": "bytes32",
          "name": "",
          "type": "bytes32"
        }
      ],
      "stateMutability": "view",
      "type": "function"
    },
    {
      "inputs": [
        {
          "internalType": "address",
          "name": "to",
          "type": "address"
        },
        {
          "internalType": "uint256",
          "name": "tokenId",
          "type": "uint256"
        }
      ],
      "name": "approve",
      "outputs": [],
      "stateMutability": "nonpayable",
      "type": "function"
    },
    {
      "inputs": [
        {
          "internalType": "address",
          "name": "owner",
          "type": "address"
        }
      ],
      "name": "balanceOf",
      "outputs": [
        {
          "internalType": "uint256",
          "name": "",
          "type": "uint256"
        }
      ],
      "stateMutability": "view",
      "type": "function"
    },
    {
      "inputs": [
        {
          "internalType": "uint256",
          "name": "tokenId",
          "type": "uint256"
        }
      ],
      "name": "burn",
      "outputs": [],
      "stateMutability": "nonpayable",
      "type": "function"
    },
    {
      "inputs": [
        {
          "internalType": "uint256",
          "name": "tokenId",
          "type": "uint256"
        }
      ],
      "name": "getApproved",
      "outputs": [
        {
          "internalType": "address",
          "name": "",
          "type": "address"
        }
      ],
      "stateMutability": "view",
      "type": "function"
    },
    {
      "inputs": [
        {
          "internalType": "bytes32",
          "name": "role",
          "type": "bytes32"
        }
      ],
      "name": "getRoleAdmin",
      "outputs": [
        {
          "internalType": "bytes32",
          "name": "",
          "type": "bytes32"
        }
      ],
      "stateMutability": "view",
      "type": "function"
    },
    {
      "inputs": [
        {
          "internalType": "bytes32",
          "name": "role",
          "type": "bytes32"
        },
        {
          "internalType": "uint256",
          "name": "index",
          "type": "uint256"
        }
      ],
      "name": "getRoleMember",
      "outputs": [
        {
          "internalType": "address",
          "name": "",
          "type": "address"
        }
      ],
      "stateMutability": "view",
      "type": "function"
    },
    {
      "inputs": [
        {
          "internalType": "bytes32",
          "name": "role",
          "type": "bytes32"
        }
      ],
      "name": "getRoleMemberCount",
      "outputs": [
        {
          "internalType": "uint256",
          "name": "",
          "type": "uint256"
        }
      ],
      "stateMutability": "view",
      "type": "function"
    },
    {
      "inputs": [
        {
          "internalType": "bytes32",
          "name": "role",
          "type": "bytes32"
        },
        {
          "internalType": "address",
          "name": "account",
          "type": "address"
        }
      ],
      "name": "grantRole",
      "outputs": [],
      "stateMutability": "nonpayable",
      "type": "function"
    },
    {
      "inputs": [
        {
          "internalType": "bytes32",
          "name": "role",
          "type": "bytes32"
        },
        {
          "internalType": "address",
          "name": "account",
          "type": "address"
        }
      ],
      "name": "hasRole",
      "outputs": [
        {
          "internalType": "bool",
          "name": "",
          "type": "bool"
        }
      ],
      "stateMutability": "view",
      "type": "function"
    },
    {
      "inputs": [
        {
          "internalType": "address",
          "name": "owner",
          "type": "address"
        },
        {
          "internalType": "address",
          "name": "operator",
          "type": "address"
        }
      ],
      "name": "isApprovedForAll",
      "outputs": [
        {
          "internalType": "bool",
          "name": "",
          "type": "bool"
        }
      ],
      "stateMutability": "view",
      "type": "function"
    },
    {
      "inputs": [
        {
          "internalType": "address",
          "name": "to",
          "type": "address"
        },
        {
          "internalType": "string",
          "name": "_tokenURI",
          "type": "string"
        }
      ],
      "name": "mint",
      "outputs": [
        {
          "internalType": "uint256",
          "name": "",
          "type": "uint256"
        }
      ],
      "stateMutability": "nonpayable",
      "type": "function"
    },
    {
      "inputs": [
        {
          "internalType": "address",
          "name": "to",
          "type": "address"
        },
        {
          "internalType": "string",
          "name": "_tokenURI",
          "type": "string"
        },
        {
          "internalType": "uint8",
          "name": "share",
          "type": "uint8"
        },
        {
          "internalType": "uint8",
          "name": "base",
          "type": "uint8"
        }
      ],
      "name": "mintWithRoyalty",
      "outputs": [
        {
          "internalType": "uint256",
          "name": "",
          "type": "uint256"
        }
      ],
      "stateMutability": "nonpayable",
      "type": "function"
    },
    {
      "inputs": [],
      "name": "name",
      "outputs": [
        {
          "internalType": "string",
          "name": "",
          "type": "string"
        }
      ],
      "stateMutability": "view",
      "type": "function"
    },
    {
      "inputs": [
        {
          "internalType": "uint256",
          "name": "tokenId",
          "type": "uint256"
        }
      ],
      "name": "ownerOf",
      "outputs": [
        {
          "internalType": "address",
          "name": "",
          "type": "address"
        }
      ],
      "stateMutability": "view",
      "type": "function"
    },
    {
      "inputs": [],
      "name": "pause",
      "outputs": [],
      "stateMutability": "nonpayable",
      "type": "function"
    },
    {
      "inputs": [],
      "name": "paused",
      "outputs": [
        {
          "internalType": "bool",
          "name": "",
          "type": "bool"
        }
      ],
      "stateMutability": "view",
      "type": "function"
    },
    {
      "inputs": [
        {
          "internalType": "bytes32",
          "name": "role",
          "type": "bytes32"
        },
        {
          "internalType": "address",
          "name": "account",
          "type": "address"
        }
      ],
      "name": "renounceRole",
      "outputs": [],
      "stateMutability": "nonpayable",
      "type": "function"
    },
    {
      "inputs": [
        {
          "internalType": "bytes32",
          "name": "role",
          "type": "bytes32"
        },
        {
          "internalType": "address",
          "name": "account",
          "type": "address"
        }
      ],
      "name": "revokeRole",
      "outputs": [],
      "stateMutability": "nonpayable",
      "type": "function"
    },
    {
      "inputs": [
        {
          "internalType": "uint256",
          "name": "_tokenId",
          "type": "uint256"
        },
        {
          "internalType": "uint256",
          "name": "_value",
          "type": "uint256"
        }
      ],
      "name": "royaltyInfo",
      "outputs": [
        {
          "internalType": "address",
          "name": "issuer",
          "type": "address"
        },
        {
          "internalType": "uint256",
          "name": "_royaltyAmount",
          "type": "uint256"
        }
      ],
      "stateMutability": "view",
      "type": "function"
    },
    {
      "inputs": [
        {
          "internalType": "address",
          "name": "from",
          "type": "address"
        },
        {
          "internalType": "address",
          "name": "to",
          "type": "address"
        },
        {
          "internalType": "uint256",
          "name": "tokenId",
          "type": "uint256"
        }
      ],
      "name": "safeTransferFrom",
      "outputs": [],
      "stateMutability": "nonpayable",
      "type": "function"
    },
    {
      "inputs": [
        {
          "internalType": "address",
          "name": "from",
          "type": "address"
        },
        {
          "internalType": "address",
          "name": "to",
          "type": "address"
        },
        {
          "internalType": "uint256",
          "name": "tokenId",
          "type": "uint256"
        },
        {
          "internalType": "bytes",
          "name": "_data",
          "type": "bytes"
        }
      ],
      "name": "safeTransferFrom",
      "outputs": [],
      "stateMutability": "nonpayable",
      "type": "function"
    },
    {
      "inputs": [
        {
          "internalType": "address",
          "name": "operator",
          "type": "address"
        },
        {
          "internalType": "bool",
          "name": "approved",
          "type": "bool"
        }
      ],
      "name": "setApprovalForAll",
      "outputs": [],
      "stateMutability": "nonpayable",
      "type": "function"
    },
    {
      "inputs": [
        {
          "internalType": "bytes4",
          "name": "interfaceId",
          "type": "bytes4"
        }
      ],
      "name": "supportsInterface",
      "outputs": [
        {
          "internalType": "bool",
          "name": "",
          "type": "bool"
        }
      ],
      "stateMutability": "view",
      "type": "function"
    },
    {
      "inputs": [],
      "name": "supportsRoyalty",
      "outputs": [
        {
          "internalType": "bytes4",
          "name": "interfaceId",
          "type": "bytes4"
        }
      ],
      "stateMutability": "pure",
      "type": "function"
    },
    {
      "inputs": [],
      "name": "symbol",
      "outputs": [
        {
          "internalType": "string",
          "name": "",
          "type": "string"
        }
      ],
      "stateMutability": "view",
      "type": "function"
    },
    {
      "inputs": [
        {
          "internalType": "uint256",
          "name": "index",
          "type": "uint256"
        }
      ],
      "name": "tokenByIndex",
      "outputs": [
        {
          "internalType": "uint256",
          "name": "",
          "type": "uint256"
        }
      ],
      "stateMutability": "view",
      "type": "function"
    },
    {
      "inputs": [
        {
          "internalType": "address",
          "name": "owner",
          "type": "address"
        },
        {
          "internalType": "uint256",
          "name": "index",
          "type": "uint256"
        }
      ],
      "name": "tokenOfOwnerByIndex",
      "outputs": [
        {
          "internalType": "uint256",
          "name": "",
          "type": "uint256"
        }
      ],
      "stateMutability": "view",
      "type": "function"
    },
    {
      "inputs": [
        {
          "internalType": "uint256",
          "name": "tokenId",
          "type": "uint256"
        }
      ],
      "name": "tokenURI",
      "outputs": [
        {
          "internalType": "string",
          "name": "",
          "type": "string"
        }
      ],
      "stateMutability": "view",
      "type": "function"
    },
    {
      "inputs": [],
      "name": "totalSupply",
      "outputs": [
        {
          "internalType": "uint256",
          "name": "",
          "type": "uint256"
        }
      ],
      "stateMutability": "view",
      "type": "function"
    },
    {
      "inputs": [
        {
          "internalType": "address",
          "name": "from",
          "type": "address"
        },
        {
          "internalType": "address",
          "name": "to",
          "type": "address"
        },
        {
          "internalType": "uint256",
          "name": "tokenId",
          "type": "uint256"
        }
      ],
      "name": "transferFrom",
      "outputs": [],
      "stateMutability": "nonpayable",
      "type": "function"
    },
    {
      "inputs": [],
      "name": "unpause",
      "outputs": [],
      "stateMutability": "nonpayable",
      "type": "function"
    }
  ],
  "bytecode": "0x60806040523480156200001157600080fd5b50604051620033b8380380620033b88339810160408190526200003491620003f0565b82828282828160049080519060200190620000519291906200029f565b508051620000679060059060208401906200029f565b5050600e805460ff19169055508051620000899060109060208401906200029f565b50620000a060006200009a6200010a565b6200010e565b620000cf7f9f2df0fed2c77648de5860a4cc508cd0818c85b8b8a1ab4ceeef8d981c8956a66200009a6200010a565b620000fe7f65d7a28e3265b37a6474929f336521b332c1681b933f6cb9f3376673440d862a6200009a6200010a565b505050505050620004d0565b3390565b6200012582826200015160201b62000db11760201c565b60008281526003602090815260409091206200014c91839062000dbf62000161821b17901c565b505050565b6200015d828262000181565b5050565b600062000178836001600160a01b0384166200020d565b90505b92915050565b6200018d82826200025c565b6200015d5760008281526002602090815260408083206001600160a01b03851684529091529020805460ff19166001179055620001c96200010a565b6001600160a01b0316816001600160a01b0316837f2f8788117e7eff1d82e926ec794901d17c78024a50270940304540a733656f0d60405160405180910390a45050565b60006200021b838362000287565b62000253575081546001818101845560008481526020808220909301849055845484825282860190935260409020919091556200017b565b5060006200017b565b60009182526002602090815260408084206001600160a01b0393909316845291905290205460ff1690565b60009081526001919091016020526040902054151590565b828054620002ad906200047d565b90600052602060002090601f016020900481019282620002d157600085556200031c565b82601f10620002ec57805160ff19168380011785556200031c565b828001600101855582156200031c579182015b828111156200031c578251825591602001919060010190620002ff565b506200032a9291506200032e565b5090565b5b808211156200032a57600081556001016200032f565b600082601f83011262000356578081fd5b81516001600160401b0380821115620003735762000373620004ba565b6040516020601f8401601f19168201810183811183821017156200039b576200039b620004ba565b6040528382528584018101871015620003b2578485fd5b8492505b83831015620003d55785830181015182840182015291820191620003b6565b83831115620003e657848185840101525b5095945050505050565b60008060006060848603121562000405578283fd5b83516001600160401b03808211156200041c578485fd5b6200042a8783880162000345565b9450602086015191508082111562000440578384fd5b6200044e8783880162000345565b9350604086015191508082111562000464578283fd5b50620004738682870162000345565b9150509250925092565b6002810460018216806200049257607f821691505b60208210811415620004b457634e487b7160e01b600052602260045260246000fd5b50919050565b634e487b7160e01b600052604160045260246000fd5b612ed880620004e06000396000f3fe608060405234801561001057600080fd5b50600436106102065760003560e01c80636352211e1161011a578063b88d4fde116100ad578063d0def5211161007c578063d0def52114610434578063d539139314610447578063d547741f1461044f578063e63ab1e914610462578063e985e9c51461046a57610206565b8063b88d4fde146103e8578063c87b56dd146103fb578063ca15c8731461040e578063d0ba95581461042157610206565b806391d14854116100e957806391d14854146103b257806395d89b41146103c5578063a217fddf146103cd578063a22cb465146103d557610206565b80636352211e1461037157806370a08231146103845780638456cb59146103975780639010d07c1461039f57610206565b80632f2ff15d1161019d5780633f4ba83a1161016c5780633f4ba83a1461032857806342842e0e1461033057806342966c68146103435780634f6ccce7146103565780635c975abb1461036957610206565b80632f2ff15d146102da5780632f745c59146102ed5780633088ac3e1461030057806336568abe1461031557610206565b806318160ddd116101d957806318160ddd1461027e57806323b872dd14610293578063248a9ca3146102a65780632a55205a146102b957610206565b806301ffc9a71461020b57806306fdde0314610234578063081812fc14610249578063095ea7b314610269575b600080fd5b61021e6102193660046123b0565b61047d565b60405161022b9190612522565b60405180910390f35b61023c6104ad565b60405161022b919061254b565b61025c610257366004612355565b61053f565b60405161022b91906124b8565b61027c61027736600461232c565b61058b565b005b610286610623565b60405161022b919061252d565b61027c6102a136600461218f565b610629565b6102866102b4366004612355565b610661565b6102cc6102c736600461238f565b610676565b60405161022b929190612509565b61027c6102e836600461236d565b6106fc565b6102866102fb36600461232c565b61071e565b610308610773565b60405161022b9190612536565b61027c61032336600461236d565b61077e565b61027c6107a0565b61027c61033e36600461218f565b6107f2565b61027c610351366004612355565b61080d565b610286610364366004612355565b610840565b61021e61089b565b61025c61037f366004612355565b6108a4565b610286610392366004612143565b6108d9565b61027c61091d565b61025c6103ad36600461238f565b61096d565b61021e6103c036600461236d565b61098c565b61023c6109b7565b6102866109c6565b61027c6103e3366004612243565b6109cb565b61027c6103f63660046121ca565b610a99565b61023c610409366004612355565b610ad8565b61028661041c366004612355565b610bf9565b61028661042f3660046122bf565b610c10565b61028661044236600461227d565b610cb2565b610286610d31565b61027c61045d36600461236d565b610d55565b610286610d5f565b61021e61047836600461215d565b610d83565b6000610487610773565b6001600160e01b0319838116911614806104a557506104a582610dd4565b90505b919050565b6060600480546104bc90612de0565b80601f01602080910402602001604051908101604052809291908181526020018280546104e890612de0565b80156105355780601f1061050a57610100808354040283529160200191610535565b820191906000526020600020905b81548152906001019060200180831161051857829003601f168201915b5050505050905090565b600061054a82610ddf565b61056f5760405162461bcd60e51b815260040161056690612a29565b60405180910390fd5b506000908152600860205260409020546001600160a01b031690565b6000610596826108a4565b9050806001600160a01b0316836001600160a01b031614156105ca5760405162461bcd60e51b815260040161056690612b0d565b806001600160a01b03166105dc610dfc565b6001600160a01b031614806105f857506105f881610478610dfc565b6106145760405162461bcd60e51b815260040161056690612865565b61061e8383610e00565b505050565b600c5490565b61063a610634610dfc565b82610e6e565b6106565760405162461bcd60e51b815260040161056690612b4e565b61061e838383610eeb565b60009081526002602052604090206001015490565b6000828152602081905260408120546001600160a01b03169081156106f55760008481526001602090815260408083206001600160a01b038616845282529182902082518084019093525460ff808216808552610100909204169183018290526106f191906106eb9060649082908990611018565b90611024565b9150505b9250929050565b6107068282611030565b600082815260036020526040902061061e9082610dbf565b6000610729836108d9565b82106107475760405162461bcd60e51b81526004016105669061264e565b506001600160a01b0382166000908152600a602090815260408083208484529091529020545b92915050565b63152a902d60e11b90565b6107888282611054565b600082815260036020526040902061061e9082611096565b6107cc7f65d7a28e3265b37a6474929f336521b332c1681b933f6cb9f3376673440d862a6103c0610dfc565b6107e85760405162461bcd60e51b815260040161056690612beb565b6107f06110ab565b565b61061e83838360405180602001604052806000815250610a99565b610818610634610dfc565b6108345760405162461bcd60e51b815260040161056690612c9c565b61083d81611119565b50565b600061084a610623565b82106108685760405162461bcd60e51b815260040161056690612b9f565b600c828154811061088957634e487b7160e01b600052603260045260246000fd5b90600052602060002001549050919050565b600e5460ff1690565b6000818152600660205260408120546001600160a01b0316806104a55760405162461bcd60e51b81526004016105669061290c565b60006001600160a01b0382166109015760405162461bcd60e51b8152600401610566906128c2565b506001600160a01b031660009081526007602052604090205490565b6109497f65d7a28e3265b37a6474929f336521b332c1681b933f6cb9f3376673440d862a6103c0610dfc565b6109655760405162461bcd60e51b81526004016105669061279d565b6107f0611159565b600082815260036020526040812061098590836111b4565b9392505050565b60009182526002602090815260408084206001600160a01b0393909316845291905290205460ff1690565b6060600580546104bc90612de0565b600081565b6109d3610dfc565b6001600160a01b0316826001600160a01b03161415610a045760405162461bcd60e51b815260040161056690612766565b8060096000610a11610dfc565b6001600160a01b03908116825260208083019390935260409182016000908120918716808252919093529120805460ff191692151592909217909155610a55610dfc565b6001600160a01b03167f17307eab39ab6107e8899845ad3d59bd9653f200f220920489ca2b5937696c3183604051610a8d9190612522565b60405180910390a35050565b610aaa610aa4610dfc565b83610e6e565b610ac65760405162461bcd60e51b815260040161056690612b4e565b610ad2848484846111c0565b50505050565b6060610ae382610ddf565b610aff5760405162461bcd60e51b8152600401610566906129d8565b6000828152600f602052604081208054610b1890612de0565b80601f0160208091040260200160405190810160405280929190818152602001828054610b4490612de0565b8015610b915780601f10610b6657610100808354040283529160200191610b91565b820191906000526020600020905b815481529060010190602001808311610b7457829003601f168201915b505050505090506000610ba26111f3565b9050805160001415610bb6575090506104a8565b815115610be8578082604051602001610bd0929190612414565b604051602081830303815290604052925050506104a8565b610bf184611202565b949350505050565b60008181526003602052604081206104a590611284565b6000610c3e7f9f2df0fed2c77648de5860a4cc508cd0818c85b8b8a1ab4ceeef8d981c8956a66103c0610dfc565b610c5a5760405162461bcd60e51b815260040161056690612c3f565b610c6f610c67601161128b565b86858561128f565b610c8285610c7d601161128b565b61130e565b610c95610c8f601161128b565b856113ed565b610c9f6011611431565b610ca9601161128b565b95945050505050565b6000610ce07f9f2df0fed2c77648de5860a4cc508cd0818c85b8b8a1ab4ceeef8d981c8956a66103c0610dfc565b610cfc5760405162461bcd60e51b815260040161056690612c3f565b610d0a83610c7d601161128b565b610d1d610d17601161128b565b836113ed565b610d276011611431565b610985601161128b565b7f9f2df0fed2c77648de5860a4cc508cd0818c85b8b8a1ab4ceeef8d981c8956a681565b610788828261143a565b7f65d7a28e3265b37a6474929f336521b332c1681b933f6cb9f3376673440d862a81565b6001600160a01b03918216600090815260096020908152604080832093909416825291909152205460ff1690565b610dbb8282611459565b5050565b6000610985836001600160a01b0384166114e0565b60006104a58261152a565b6000908152600660205260409020546001600160a01b0316151590565b3390565b600081815260086020526040902080546001600160a01b0319166001600160a01b0384169081179091558190610e35826108a4565b6001600160a01b03167f8c5be1e5ebec7d5bd14f71427d1e84f3dd0314c0f7b2291e5b200ac8c7c3b92560405160405180910390a45050565b6000610e7982610ddf565b610e955760405162461bcd60e51b8152600401610566906127ef565b6000610ea0836108a4565b9050806001600160a01b0316846001600160a01b03161480610edb5750836001600160a01b0316610ed08461053f565b6001600160a01b0316145b80610bf15750610bf18185610d83565b826001600160a01b0316610efe826108a4565b6001600160a01b031614610f245760405162461bcd60e51b815260040161056690612a75565b6001600160a01b038216610f4a5760405162461bcd60e51b815260040161056690612722565b610f5583838361154f565b610f60600082610e00565b6001600160a01b0383166000908152600760205260408120805460019290610f89908490612d86565b90915550506001600160a01b0382166000908152600760205260408120805460019290610fb7908490612d3b565b909155505060008181526006602052604080822080546001600160a01b0319166001600160a01b0386811691821790925591518493918716917fddf252ad1be2c89b69c2b068fc378daa952ba7f163c4a11628f55a4df523b3ef91a4505050565b60006109858284612d67565b60006109858284612d53565b61103982610661565b61104a81611045610dfc565b61155a565b61061e8383611459565b61105c610dfc565b6001600160a01b0316816001600160a01b03161461108c5760405162461bcd60e51b815260040161056690612cec565b610dbb82826115be565b6000610985836001600160a01b038416611643565b6110b361089b565b6110cf5760405162461bcd60e51b815260040161056690612620565b600e805460ff191690557f5db9ee0a495bf2e6ff9c91a7834c1ba4fdd244a5e8aa4e537bd38aeae4b073aa611102610dfc565b60405161110f91906124b8565b60405180910390a1565b6111228161175a565b6000818152600f60205260409020805461113b90612de0565b15905061083d576000818152600f6020526040812061083d91611fb7565b61116161089b565b1561117e5760405162461bcd60e51b81526004016105669061283b565b600e805460ff191660011790557f62e78cea01bee320cd4e420270b5ea74000d11b0c9f74754ebdbfc544b05a258611102610dfc565b60006109858383611801565b6111cb848484610eeb565b6111d78484848461185a565b610ad25760405162461bcd60e51b815260040161056690612699565b6060601080546104bc90612de0565b606061120d82610ddf565b6112295760405162461bcd60e51b815260040161056690612abe565b60006112336111f3565b905060008151116112535760405180602001604052806000815250610985565b8061125d84611972565b60405160200161126e929190612414565b6040516020818303038152906040529392505050565b60006104a5825b5490565b60008481526020818152604080832080546001600160a01b0319166001600160a01b039790971696871790558051808201825260ff9586168152938516848301908152968352600182528083209583529490529290922091518254935160ff199094169082161761ff0019166101009390911692909202919091179055565b6001600160a01b0382166113345760405162461bcd60e51b8152600401610566906129a3565b61133d81610ddf565b1561135a5760405162461bcd60e51b8152600401610566906126eb565b6113666000838361154f565b6001600160a01b038216600090815260076020526040812080546001929061138f908490612d3b565b909155505060008181526006602052604080822080546001600160a01b0319166001600160a01b03861690811790915590518392907fddf252ad1be2c89b69c2b068fc378daa952ba7f163c4a11628f55a4df523b3ef908290a45050565b6113f682610ddf565b6114125760405162461bcd60e51b815260040161056690612955565b6000828152600f60209081526040909120825161061e92840190611ff3565b80546001019055565b61144382610661565b61144f81611045610dfc565b61061e83836115be565b611463828261098c565b610dbb5760008281526002602090815260408083206001600160a01b03851684529091529020805460ff1916600117905561149c610dfc565b6001600160a01b0316816001600160a01b0316837f2f8788117e7eff1d82e926ec794901d17c78024a50270940304540a733656f0d60405160405180910390a45050565b60006114ec8383611a8d565b6115225750815460018181018455600084815260208082209093018490558454848252828601909352604090209190915561076d565b50600061076d565b60006001600160e01b0319821663780e9d6360e01b14806104a557506104a582611aa5565b61061e838383611ae5565b611564828261098c565b610dbb5761157c816001600160a01b03166014611b15565b611587836020611b15565b604051602001611598929190612443565b60408051601f198184030181529082905262461bcd60e51b82526105669160040161254b565b6115c8828261098c565b15610dbb5760008281526002602090815260408083206001600160a01b03851684529091529020805460ff191690556115ff610dfc565b6001600160a01b0316816001600160a01b0316837ff6391f5c32d9c69d2a47ea670b442974b53935d1edc7fd64eb21e047a839171b60405160405180910390a45050565b60008181526001830160205260408120548015611750576000611667600183612d86565b855490915060009061167b90600190612d86565b905060008660000182815481106116a257634e487b7160e01b600052603260045260246000fd5b90600052602060002001549050808760000184815481106116d357634e487b7160e01b600052603260045260246000fd5b60009182526020808320909101929092558281526001890190915260409020849055865487908061171457634e487b7160e01b600052603160045260246000fd5b6001900381819060005260206000200160009055905586600101600087815260200190815260200160002060009055600194505050505061076d565b600091505061076d565b6000611765826108a4565b90506117738160008461154f565b61177e600083610e00565b6001600160a01b03811660009081526007602052604081208054600192906117a7908490612d86565b909155505060008281526006602052604080822080546001600160a01b0319169055518391906001600160a01b038416907fddf252ad1be2c89b69c2b068fc378daa952ba7f163c4a11628f55a4df523b3ef908390a45050565b815460009082106118245760405162461bcd60e51b81526004016105669061255e565b82600001828154811061184757634e487b7160e01b600052603260045260246000fd5b9060005260206000200154905092915050565b600061186e846001600160a01b0316611cc7565b1561196a57836001600160a01b031663150b7a0261188a610dfc565b8786866040518563ffffffff1660e01b81526004016118ac94939291906124cc565b602060405180830381600087803b1580156118c657600080fd5b505af19250505080156118f6575060408051601f3d908101601f191682019092526118f3918101906123cc565b60015b611950573d808015611924576040519150601f19603f3d011682016040523d82523d6000602084013e611929565b606091505b5080516119485760405162461bcd60e51b815260040161056690612699565b805181602001fd5b6001600160e01b031916630a85bd0160e11b149050610bf1565b506001610bf1565b60608161199757506040805180820190915260018152600360fc1b60208201526104a8565b8160005b81156119c157806119ab81612e1b565b91506119ba9050600a83612d53565b915061199b565b60008167ffffffffffffffff8111156119ea57634e487b7160e01b600052604160045260246000fd5b6040519080825280601f01601f191660200182016040528015611a14576020820181803683370190505b5090505b8415610bf157611a29600183612d86565b9150611a36600a86612e36565b611a41906030612d3b565b60f81b818381518110611a6457634e487b7160e01b600052603260045260246000fd5b60200101906001600160f81b031916908160001a905350611a86600a86612d53565b9450611a18565b60009081526001919091016020526040902054151590565b60006001600160e01b031982166380ac58cd60e01b1480611ad657506001600160e01b03198216635b5e139f60e01b145b806104a557506104a582611ccd565b611af0838383611cf2565b611af861089b565b1561061e5760405162461bcd60e51b8152600401610566906125d5565b60606000611b24836002612d67565b611b2f906002612d3b565b67ffffffffffffffff811115611b5557634e487b7160e01b600052604160045260246000fd5b6040519080825280601f01601f191660200182016040528015611b7f576020820181803683370190505b509050600360fc1b81600081518110611ba857634e487b7160e01b600052603260045260246000fd5b60200101906001600160f81b031916908160001a905350600f60fb1b81600181518110611be557634e487b7160e01b600052603260045260246000fd5b60200101906001600160f81b031916908160001a9053506000611c09846002612d67565b611c14906001612d3b565b90505b6001811115611ca8576f181899199a1a9b1b9c1cb0b131b232b360811b85600f1660108110611c5657634e487b7160e01b600052603260045260246000fd5b1a60f81b828281518110611c7a57634e487b7160e01b600052603260045260246000fd5b60200101906001600160f81b031916908160001a90535060049490941c93611ca181612dc9565b9050611c17565b5083156109855760405162461bcd60e51b8152600401610566906125a0565b3b151590565b60006001600160e01b03198216635a05180f60e01b14806104a557506104a582611d7b565b611cfd83838361061e565b6001600160a01b038316611d1957611d1481611da0565b611d3c565b816001600160a01b0316836001600160a01b031614611d3c57611d3c8382611de4565b6001600160a01b038216611d5857611d5381611e81565b61061e565b826001600160a01b0316826001600160a01b03161461061e5761061e8282611f5a565b60006001600160e01b03198216637965db0b60e01b14806104a557506104a582611f9e565b600c80546000838152600d60205260408120829055600182018355919091527fdf6966c971051c3d54ec59162606531493a51404a002842f56009d7e5cf4a8c70155565b60006001611df1846108d9565b611dfb9190612d86565b6000838152600b6020526040902054909150808214611e4e576001600160a01b0384166000908152600a602090815260408083208584528252808320548484528184208190558352600b90915290208190555b506000918252600b602090815260408084208490556001600160a01b039094168352600a81528383209183525290812055565b600c54600090611e9390600190612d86565b6000838152600d6020526040812054600c8054939450909284908110611ec957634e487b7160e01b600052603260045260246000fd5b9060005260206000200154905080600c8381548110611ef857634e487b7160e01b600052603260045260246000fd5b6000918252602080832090910192909255828152600d9091526040808220849055858252812055600c805480611f3e57634e487b7160e01b600052603160045260246000fd5b6001900381819060005260206000200160009055905550505050565b6000611f65836108d9565b6001600160a01b039093166000908152600a602090815260408083208684528252808320859055938252600b9052919091209190915550565b6001600160e01b031981166301ffc9a760e01b14919050565b508054611fc390612de0565b6000825580601f10611fd5575061083d565b601f01602090049060005260206000209081019061083d9190612077565b828054611fff90612de0565b90600052602060002090601f0160209004810192826120215760008555612067565b82601f1061203a57805160ff1916838001178555612067565b82800160010185558215612067579182015b8281111561206757825182559160200191906001019061204c565b50612073929150612077565b5090565b5b808211156120735760008155600101612078565b600067ffffffffffffffff808411156120a7576120a7612e76565b604051601f8501601f1916810160200182811182821017156120cb576120cb612e76565b6040528481529150818385018610156120e357600080fd5b8484602083013760006020868301015250509392505050565b80356001600160a01b03811681146104a857600080fd5b600082601f830112612123578081fd5b6109858383356020850161208c565b803560ff811681146104a857600080fd5b600060208284031215612154578081fd5b610985826120fc565b6000806040838503121561216f578081fd5b612178836120fc565b9150612186602084016120fc565b90509250929050565b6000806000606084860312156121a3578081fd5b6121ac846120fc565b92506121ba602085016120fc565b9150604084013590509250925092565b600080600080608085870312156121df578081fd5b6121e8856120fc565b93506121f6602086016120fc565b925060408501359150606085013567ffffffffffffffff811115612218578182fd5b8501601f81018713612228578182fd5b6122378782356020840161208c565b91505092959194509250565b60008060408385031215612255578182fd5b61225e836120fc565b915060208301358015158114612272578182fd5b809150509250929050565b6000806040838503121561228f578182fd5b612298836120fc565b9150602083013567ffffffffffffffff8111156122b3578182fd5b6106f185828601612113565b600080600080608085870312156122d4578384fd5b6122dd856120fc565b9350602085013567ffffffffffffffff8111156122f8578384fd5b61230487828801612113565b93505061231360408601612132565b915061232160608601612132565b905092959194509250565b6000806040838503121561233e578182fd5b612347836120fc565b946020939093013593505050565b600060208284031215612366578081fd5b5035919050565b6000806040838503121561237f578182fd5b82359150612186602084016120fc565b600080604083850312156123a1578182fd5b50508035926020909101359150565b6000602082840312156123c1578081fd5b813561098581612e8c565b6000602082840312156123dd578081fd5b815161098581612e8c565b60008151808452612400816020860160208601612d9d565b601f01601f19169290920160200192915050565b60008351612426818460208801612d9d565b83519083019061243a818360208801612d9d565b01949350505050565b60007f416363657373436f6e74726f6c3a206163636f756e74200000000000000000008252835161247b816017850160208801612d9d565b7001034b99036b4b9b9b4b733903937b6329607d1b60179184019182015283516124ac816028840160208801612d9d565b01602801949350505050565b6001600160a01b0391909116815260200190565b6001600160a01b03858116825284166020820152604081018390526080606082018190526000906124ff908301846123e8565b9695505050505050565b6001600160a01b03929092168252602082015260400190565b901515815260200190565b90815260200190565b6001600160e01b031991909116815260200190565b60006020825261098560208301846123e8565b60208082526022908201527f456e756d657261626c655365743a20696e646578206f7574206f6620626f756e604082015261647360f01b606082015260800190565b6020808252818101527f537472696e67733a20686578206c656e67746820696e73756666696369656e74604082015260600190565b6020808252602b908201527f4552433732315061757361626c653a20746f6b656e207472616e73666572207760408201526a1a1a5b19481c185d5cd95960aa1b606082015260800190565b60208082526014908201527314185d5cd8589b194e881b9bdd081c185d5cd95960621b604082015260600190565b6020808252602b908201527f455243373231456e756d657261626c653a206f776e657220696e646578206f7560408201526a74206f6620626f756e647360a81b606082015260800190565b60208082526032908201527f4552433732313a207472616e7366657220746f206e6f6e20455243373231526560408201527131b2b4bb32b91034b6b83632b6b2b73a32b960711b606082015260800190565b6020808252601c908201527f4552433732313a20746f6b656e20616c7265616479206d696e74656400000000604082015260600190565b60208082526024908201527f4552433732313a207472616e7366657220746f20746865207a65726f206164646040820152637265737360e01b606082015260800190565b60208082526019908201527f4552433732313a20617070726f766520746f2063616c6c657200000000000000604082015260600190565b60208082526032908201527f4552433732314d696e7465725061757365723a206d75737420686176652070616040820152717573657220726f6c6520746f20706175736560701b606082015260800190565b6020808252602c908201527f4552433732313a206f70657261746f7220717565727920666f72206e6f6e657860408201526b34b9ba32b73a103a37b5b2b760a11b606082015260800190565b60208082526010908201526f14185d5cd8589b194e881c185d5cd95960821b604082015260600190565b60208082526038908201527f4552433732313a20617070726f76652063616c6c6572206973206e6f74206f7760408201527f6e6572206e6f7220617070726f76656420666f7220616c6c0000000000000000606082015260800190565b6020808252602a908201527f4552433732313a2062616c616e636520717565727920666f7220746865207a65604082015269726f206164647265737360b01b606082015260800190565b60208082526029908201527f4552433732313a206f776e657220717565727920666f72206e6f6e657869737460408201526832b73a103a37b5b2b760b91b606082015260800190565b6020808252602e908201527f45524337323155524953746f726167653a2055524920736574206f66206e6f6e60408201526d32bc34b9ba32b73a103a37b5b2b760911b606082015260800190565b6020808252818101527f4552433732313a206d696e7420746f20746865207a65726f2061646472657373604082015260600190565b60208082526031908201527f45524337323155524953746f726167653a2055524920717565727920666f72206040820152703737b732bc34b9ba32b73a103a37b5b2b760791b606082015260800190565b6020808252602c908201527f4552433732313a20617070726f76656420717565727920666f72206e6f6e657860408201526b34b9ba32b73a103a37b5b2b760a11b606082015260800190565b60208082526029908201527f4552433732313a207472616e73666572206f6620746f6b656e2074686174206960408201526839903737ba1037bbb760b91b606082015260800190565b6020808252602f908201527f4552433732314d657461646174613a2055524920717565727920666f72206e6f60408201526e3732bc34b9ba32b73a103a37b5b2b760891b606082015260800190565b60208082526021908201527f4552433732313a20617070726f76616c20746f2063757272656e74206f776e656040820152603960f91b606082015260800190565b60208082526031908201527f4552433732313a207472616e736665722063616c6c6572206973206e6f74206f6040820152701ddb995c881b9bdc88185c1c1c9bdd9959607a1b606082015260800190565b6020808252602c908201527f455243373231456e756d657261626c653a20676c6f62616c20696e646578206f60408201526b7574206f6620626f756e647360a01b606082015260800190565b60208082526034908201527f4552433732314d696e7465725061757365723a206d75737420686176652070616040820152737573657220726f6c6520746f20756e706175736560601b606082015260800190565b6020808252603d908201527f4552433732315072657365744d696e7465725061757365724175746f49643a2060408201527f6d7573742068617665206d696e74657220726f6c6520746f206d696e74000000606082015260800190565b60208082526030908201527f4552433732314275726e61626c653a2063616c6c6572206973206e6f74206f7760408201526f1b995c881b9bdc88185c1c1c9bdd995960821b606082015260800190565b6020808252602f908201527f416363657373436f6e74726f6c3a2063616e206f6e6c792072656e6f756e636560408201526e103937b632b9903337b91039b2b63360891b606082015260800190565b60008219821115612d4e57612d4e612e4a565b500190565b600082612d6257612d62612e60565b500490565b6000816000190483118215151615612d8157612d81612e4a565b500290565b600082821015612d9857612d98612e4a565b500390565b60005b83811015612db8578181015183820152602001612da0565b83811115610ad25750506000910152565b600081612dd857612dd8612e4a565b506000190190565b600281046001821680612df457607f821691505b60208210811415612e1557634e487b7160e01b600052602260045260246000fd5b50919050565b6000600019821415612e2f57612e2f612e4a565b5060010190565b600082612e4557612e45612e60565b500690565b634e487b7160e01b600052601160045260246000fd5b634e487b7160e01b600052601260045260246000fd5b634e487b7160e01b600052604160045260246000fd5b6001600160e01b03198116811461083d57600080fdfea2646970667358221220bf9c65f97e25ef2d84e7d0756189966f1ee457bd2857dee5b1a8441ccfb5260e64736f6c63430008000033",
  "linkReferences": {},
  "deployedLinkReferences": {}
}