{
  "_format": "hh-sol-artifact-1",
  "contractName": "StartFiMarketPlace",
  "sourceName": "contracts/StartFiMarketPlace.sol",
  "abi": [
    {
      "inputs": [
        {
          "internalType": "string",
          "name": "_marketPlaceName",
          "type": "string"
        },
        {
          "internalType": "address",
          "name": "_paymentTokesnAddress",
          "type": "address"
        },
        {
          "internalType": "address",
          "name": "_stakeContract",
          "type": "address"
        }
      ],
      "stateMutability": "nonpayable",
      "type": "constructor"
    },
    {
      "anonymous": false,
      "inputs": [
        {
          "indexed": true,
          "internalType": "address",
          "name": "previousOwner",
          "type": "address"
        },
        {
          "indexed": true,
          "internalType": "address",
          "name": "newOwner",
          "type": "address"
        }
      ],
      "name": "OwnershipTransferred",
      "type": "event"
    },
    {
      "anonymous": false,
      "inputs": [
        {
          "indexed": false,
          "internalType": "address",
          "name": "account",
          "type": "address"
        }
      ],
      "name": "Paused",
      "type": "event"
    },
    {
      "anonymous": false,
      "inputs": [
        {
          "indexed": false,
          "internalType": "address",
          "name": "account",
          "type": "address"
        }
      ],
      "name": "Unpaused",
      "type": "event"
    },
    {
      "inputs": [
        {
          "internalType": "bytes32",
          "name": "listingId",
          "type": "bytes32"
        }
      ],
      "name": "FullfillBid",
      "outputs": [
        {
          "internalType": "address",
          "name": "contractAddress",
          "type": "address"
        },
        {
          "internalType": "uint256",
          "name": "tokenId",
          "type": "uint256"
        }
      ],
      "stateMutability": "nonpayable",
      "type": "function"
    },
    {
      "inputs": [
        {
          "internalType": "address",
          "name": "nftAddress",
          "type": "address"
        },
        {
          "internalType": "uint256",
          "name": "tokenId",
          "type": "uint256"
        },
        {
          "internalType": "uint256",
          "name": "listingPrice",
          "type": "uint256"
        },
        {
          "internalType": "uint256",
          "name": "qualifyAmount",
          "type": "uint256"
        }
      ],
      "name": "ListOnMarketplace",
      "outputs": [
        {
          "internalType": "bytes32",
          "name": "listId",
          "type": "bytes32"
        }
      ],
      "stateMutability": "nonpayable",
      "type": "function"
    },
    {
      "inputs": [
        {
          "internalType": "bytes32",
          "name": "listingId",
          "type": "bytes32"
        },
        {
          "internalType": "address",
          "name": "tokenAddress",
          "type": "address"
        },
        {
          "internalType": "uint256",
          "name": "tokenId",
          "type": "uint256"
        },
        {
          "internalType": "uint256",
          "name": "bidPrice",
          "type": "uint256"
        }
      ],
      "name": "bid",
      "outputs": [
        {
          "internalType": "bytes32",
          "name": "bidId",
          "type": "bytes32"
        }
      ],
      "stateMutability": "nonpayable",
      "type": "function"
    },
    {
      "inputs": [
        {
          "internalType": "bytes32",
          "name": "listingId",
          "type": "bytes32"
        },
        {
          "internalType": "uint256",
          "name": "price",
          "type": "uint256"
        }
      ],
      "name": "buyNow",
      "outputs": [
        {
          "internalType": "address",
          "name": "contractAddress",
          "type": "address"
        },
        {
          "internalType": "uint256",
          "name": "tokenId",
          "type": "uint256"
        }
      ],
      "stateMutability": "nonpayable",
      "type": "function"
    },
    {
      "inputs": [
        {
          "internalType": "address",
          "name": "nftAddress",
          "type": "address"
        },
        {
          "internalType": "uint256",
          "name": "tokenId",
          "type": "uint256"
        },
        {
          "internalType": "uint256",
          "name": "listingPrice",
          "type": "uint256"
        },
        {
          "internalType": "uint256",
          "name": "qualifyAmount",
          "type": "uint256"
        },
        {
          "internalType": "bool",
          "name": "sellForEnabled",
          "type": "bool"
        },
        {
          "internalType": "uint256",
          "name": "sellFor",
          "type": "uint256"
        },
        {
          "internalType": "uint256",
          "name": "duration",
          "type": "uint256"
        }
      ],
      "name": "createAuction",
      "outputs": [
        {
          "internalType": "bytes32",
          "name": "listId",
          "type": "bytes32"
        }
      ],
      "stateMutability": "nonpayable",
      "type": "function"
    },
    {
      "inputs": [
        {
          "internalType": "bytes32",
          "name": "listingId",
          "type": "bytes32"
        }
      ],
      "name": "deList",
      "outputs": [
        {
          "internalType": "address",
          "name": "contractAddress",
          "type": "address"
        },
        {
          "internalType": "uint256",
          "name": "tokenId",
          "type": "uint256"
        }
      ],
      "stateMutability": "nonpayable",
      "type": "function"
    },
    {
      "inputs": [],
      "name": "delistAfter",
      "outputs": [
        {
          "internalType": "uint256",
          "name": "",
          "type": "uint256"
        }
      ],
      "stateMutability": "view",
      "type": "function"
    },
    {
      "inputs": [],
      "name": "delistFeesPercentage",
      "outputs": [
        {
          "internalType": "uint256",
          "name": "",
          "type": "uint256"
        }
      ],
      "stateMutability": "view",
      "type": "function"
    },
    {
      "inputs": [
        {
          "internalType": "bytes32",
          "name": "listingId",
          "type": "bytes32"
        }
      ],
      "name": "disputeAuction",
      "outputs": [
        {
          "internalType": "address",
          "name": "contractAddress",
          "type": "address"
        },
        {
          "internalType": "uint256",
          "name": "tokenId",
          "type": "uint256"
        }
      ],
      "stateMutability": "nonpayable",
      "type": "function"
    },
    {
      "inputs": [],
      "name": "freeReserves",
      "outputs": [
        {
          "internalType": "uint256",
          "name": "curentReserves",
          "type": "uint256"
        }
      ],
      "stateMutability": "nonpayable",
      "type": "function"
    },
    {
      "inputs": [],
      "name": "getServiceFee",
      "outputs": [
        {
          "internalType": "uint8",
          "name": "",
          "type": "uint8"
        }
      ],
      "stateMutability": "view",
      "type": "function"
    },
    {
      "inputs": [
        {
          "internalType": "address",
          "name": "user",
          "type": "address"
        }
      ],
      "name": "getUserReserved",
      "outputs": [
        {
          "internalType": "uint256",
          "name": "",
          "type": "uint256"
        }
      ],
      "stateMutability": "view",
      "type": "function"
    },
    {
      "inputs": [],
      "name": "listqualifyPercentage",
      "outputs": [
        {
          "internalType": "uint256",
          "name": "",
          "type": "uint256"
        }
      ],
      "stateMutability": "view",
      "type": "function"
    },
    {
      "inputs": [],
      "name": "marketPlaceName",
      "outputs": [
        {
          "internalType": "string",
          "name": "",
          "type": "string"
        }
      ],
      "stateMutability": "view",
      "type": "function"
    },
    {
      "inputs": [
        {
          "internalType": "address",
          "name": "",
          "type": "address"
        },
        {
          "internalType": "address",
          "name": "",
          "type": "address"
        },
        {
          "internalType": "uint256",
          "name": "",
          "type": "uint256"
        },
        {
          "internalType": "bytes",
          "name": "",
          "type": "bytes"
        }
      ],
      "name": "onERC721Received",
      "outputs": [
        {
          "internalType": "bytes4",
          "name": "",
          "type": "bytes4"
        }
      ],
      "stateMutability": "nonpayable",
      "type": "function"
    },
    {
      "inputs": [],
      "name": "owner",
      "outputs": [
        {
          "internalType": "address",
          "name": "",
          "type": "address"
        }
      ],
      "stateMutability": "view",
      "type": "function"
    },
    {
      "inputs": [],
      "name": "paused",
      "outputs": [
        {
          "internalType": "bool",
          "name": "",
          "type": "bool"
        }
      ],
      "stateMutability": "view",
      "type": "function"
    },
    {
      "inputs": [],
      "name": "renounceOwnership",
      "outputs": [],
      "stateMutability": "nonpayable",
      "type": "function"
    },
    {
      "inputs": [],
      "name": "stakeContract",
      "outputs": [
        {
          "internalType": "address",
          "name": "",
          "type": "address"
        }
      ],
      "stateMutability": "view",
      "type": "function"
    },
    {
      "inputs": [
        {
          "internalType": "address",
          "name": "newOwner",
          "type": "address"
        }
      ],
      "name": "transferOwnership",
      "outputs": [],
      "stateMutability": "nonpayable",
      "type": "function"
    }
  ],
  "bytecode": "0x608060405262ed4e00600190815560068054600160c01b632a55205a63ffffffff199092169190911760ff60c01b19161760ff60c81b1916601960ca1b179055600781905560088190556009553480156200005957600080fd5b50604051620030ac380380620030ac8339810160408190526200007c9162000209565b82828160006200008b62000142565b600080546001600160a01b0319166001600160a01b0383169081178255604051929350917f8be0079c531659141344cd1fd0a4f28419497f9722a3daafe3b4186f6b6457e0908290a3506000805460ff60a01b191690558051620000f790600590602084019062000146565b505060068054600160201b600160c01b0319166401000000006001600160a01b0393841602179055600c80546001600160a01b03191693909116929092179091555062000352915050565b3390565b8280546200015490620002ff565b90600052602060002090601f016020900481019282620001785760008555620001c3565b82601f106200019357805160ff1916838001178555620001c3565b82800160010185558215620001c3579182015b82811115620001c3578251825591602001919060010190620001a6565b50620001d1929150620001d5565b5090565b5b80821115620001d15760008155600101620001d6565b80516001600160a01b03811681146200020457600080fd5b919050565b6000806000606084860312156200021e578283fd5b83516001600160401b038082111562000235578485fd5b818601915086601f83011262000249578485fd5b8151818111156200025e576200025e6200033c565b6040516020601f8301601f19168201810184811183821017156200028657620002866200033c565b60405282825284830181018a10156200029d578788fd5b8793505b82841015620002c05784840181015182850182015292830192620002a1565b82841115620002d157878184840101525b819750620002e1818a01620001ec565b96505050505050620002f660408501620001ec565b90509250925092565b6002810460018216806200031457607f821691505b602082108114156200033657634e487b7160e01b600052602260045260246000fd5b50919050565b634e487b7160e01b600052604160045260246000fd5b612d4a80620003626000396000f3fe608060405234801561001057600080fd5b506004361061012c5760003560e01c80635ebd63cc116100ad5780638da5cb5b116100715780638da5cb5b146102505780638ef291e914610258578063e123ff581461026d578063f2fde38b14610280578063ff90ec06146102935761012c565b80635ebd63cc1461021b578063649ee6831461022e5780636b041547146102365780636bb598161461023e578063715018a6146102465761012c565b80631f78fd0b116100f45780631f78fd0b146101ba57806356e9d1f3146101cd5780635b949821146101e05780635bbd49f4146101f35780635c975abb146102065761012c565b80630a42e75a146101315780630a6b11f01461014f57806311a1933c14610170578063150b7a02146101855780631a186227146101a5575b600080fd5b6101396102a6565b60405161014691906124e9565b60405180910390f35b61016261015d36600461237b565b6102ac565b6040516101469291906124c5565b610178610560565b6040516101469190612bce565b6101986101933660046121c1565b610570565b60405161014691906124f2565b6101ad610580565b6040516101469190612473565b6101396101c8366004612189565b61058f565b6101626101db36600461237b565b6105ae565b6101396101ee3660046122be565b6107a1565b6101396102013660046122f8565b610963565b61020e610aa1565b60405161014691906124de565b610139610229366004612393565b610ab1565b610139610d42565b610139610d48565b610139610d4e565b61024e611022565b005b6101ad6110ab565b6102606110ba565b6040516101469190612507565b61016261027b36600461237b565b61114c565b61024e61028e366004612189565b6112c2565b6101626102a13660046123cf565b611382565b60015481565b60008181526002602052604081206006015481908390421180156103045750600260008281526002602052604090206009015460ff16600381111561030157634e487b7160e01b600052602160045260246000fd5b14155b6103295760405162461bcd60e51b815260040161032090612b96565b60405180910390fd5b6000848152600460209081526040808320600190810154600290935292206005810154815491909301546001600160a01b0391821696509450908116911661036f611609565b6001600160a01b0316826001600160a01b03161461039f5760405162461bcd60e51b8152600401610320906128dd565b60008681526003602081815260408084206001600160a01b03871685529091529091200154806103ce8461160d565b10156103ec5760405162461bcd60e51b815260040161032090612686565b6000806000806103fd8a8a8761169e565b93509350935093506104176104106110ab565b878461170b565b6104335760405162461bcd60e51b815260040161032090612b5f565b6001600160a01b038416156104695761044d84878561170b565b6104695760405162461bcd60e51b815260040161032090612867565b61047487878361170b565b6104905760405162461bcd60e51b8152600401610320906128a8565b61049c8a8a308a6117a2565b6104b85760405162461bcd60e51b815260040161032090612add565b60008b8152600260205260408120600701546104d690899083611812565b10156104f45760405162461bcd60e51b815260040161032090612803565b60008b815260036020526040812060019161050d611609565b6001600160a01b03166001600160a01b0316815260200190815260200160002060040160006101000a81548160ff0219169083151502179055506105538b886000611888565b5050505050505050915091565b600654600160c01b900460ff1690565b630a85bd0160e11b949350505050565b600c546001600160a01b031681565b6001600160a01b0381166000908152600a60205260409020545b919050565b600081815260026020819052604090912060098101546005820154600483015483546006850154958501546001909501546001600160a01b0391821696909560ff90951694938216939290911691610604611609565b6001600160a01b0316846001600160a01b0316146106345760405162461bcd60e51b8152600401610320906125d9565b6001600160a01b0383161561065b5760405162461bcd60e51b815260040161032090612746565b600061066a836203f480611908565b905042811115801561069b5750600286600381111561069957634e487b7160e01b600052602160045260246000fd5b145b806106c5575060018660038111156106c357634e487b7160e01b600052602160045260246000fd5b145b6106e15760405162461bcd60e51b815260040161032090612b39565b6000804285101561072d576106f58461191b565b909250905061070c87610706611960565b8461196f565b6107285760405162461bcd60e51b81526004016103209061294b565b610739565b610736846119a4565b90505b6107458a8a308a6117a2565b6107615760405162461bcd60e51b815260040161032090612add565b600061077661076e611609565b836000611812565b10156107945760405162461bcd60e51b815260040161032090612803565b6105538b60006003611888565b600082600081116107c45760405162461bcd60e51b815260040161032090612aa6565b60006107d242600154611908565b905086866107de611609565b836040516020016107f29493929190612408565b6040516020818303038152906040528051906020012092506000610815866119a4565b90508061082a610823611609565b60006119c6565b10156108485760405162461bcd60e51b81526004016103209061283a565b6108528888611a72565b61086e5760405162461bcd60e51b815260040161032090612a55565b610881888861087b611609565b306117a2565b61089d5760405162461bcd60e51b815260040161032090612add565b6108b06108a8611609565b826001611812565b506000600b60006108bf611609565b6001600160a01b03168152602080820192909252604001600090812080546001810182558183529282209092018790559091508190600b906108ff611609565b6001600160a01b03168152602081019190915260400160002081546109249290612103565b5061093b858a610932611609565b8b8b888c611b07565b6109575760405162461bcd60e51b815260040161032090612610565b50505050949350505050565b600085600081116109865760405162461bcd60e51b815260040161032090612aa6565b61a8c083116109a75760405162461bcd60e51b815260040161032090612a08565b60006109b34285611908565b905089896109bf611609565b836040516020016109d39493929190612408565b6040516020818303038152906040528051906020012092508515610a115760008511610a115760405162461bcd60e51b815260040161032090612914565b610a1b8a8a611a72565b610a375760405162461bcd60e51b815260040161032090612a55565b610a448a8a61087b611609565b610a605760405162461bcd60e51b815260040161032090612add565b610a78838b610a6d611609565b8c8c8b8b888f611cc8565b610a945760405162461bcd60e51b815260040161032090612610565b5050979650505050505050565b600054600160a01b900460ff1690565b600084815260026020526040812060060154859042108015610b075750600260008281526002602052604090206009015460ff166003811115610b0457634e487b7160e01b600052602160045260246000fd5b14155b610b235760405162461bcd60e51b815260040161032090612b96565b8585610b2d611609565b86604051602001610b419493929190612441565b60408051601f19818403018152918152815160209283012060008981526004845282812060010154600290945291909120600701549093506001600160a01b039091169081610bc15760008881526002602081905260409091200154851015610bbc5760405162461bcd60e51b8152600401610320906126f0565b610c04565b60008881526003602081815260408084206001600160a01b038716855290915290912001548511610c045760405162461bcd60e51b81526004016103209061255a565b600088815260036020526040812081610c1b611609565b6001600160a01b03168152602081019190915260400160002060030154905080610d115781610c4b610823611609565b1015610c695760405162461bcd60e51b81526004016103209061283a565b6000600b6000610c77611609565b6001600160a01b03168152602080820192909252604001600090812080546001810182558183529282209092018c90559091508190600b90610cb7611609565b6001600160a01b0316815260208101919091526040016000208154610cdc9290612103565b506000610cf2610cea611609565b856001611812565b11610d0f5760405162461bcd60e51b8152600401610320906125a2565b505b610d26858a8a610d1f611609565b8b8b611e89565b6109575760405162461bcd60e51b8152600401610320906129e2565b60095481565b60085481565b600080600b6000610d5d611609565b6001600160a01b03166001600160a01b03168152602001908152602001600020805480602002602001604051908101604052809291908181526020018280548015610dc757602002820191906000526020600020905b815481526020019060010190808311610db3575b50505050509050600b6000610dda611609565b6001600160a01b03166001600160a01b031681526020019081526020016000206000610e069190612153565b6000600b6000610e14611609565b6001600160a01b03166001600160a01b03168152602001908152602001600020905060005b8251811015610fbc576002806000858481518110610e6757634e487b7160e01b600052603260045260246000fd5b60209081029190910181015182528101919091526040016000206009015460ff166003811115610ea757634e487b7160e01b600052602160045260246000fd5b1480610f165750600160026000858481518110610ed457634e487b7160e01b600052603260045260246000fd5b60209081029190910181015182528101919091526040016000206009015460ff166003811115610f1457634e487b7160e01b600052602160045260246000fd5b145b15610faa5781838281518110610f3c57634e487b7160e01b600052603260045260246000fd5b60209081029190910181015182546001810184556000938452918320909101558351610fa791869160029190879086908110610f8857634e487b7160e01b600052603260045260246000fd5b6020026020010151815260200190815260200160002060070154611908565b93505b80610fb481612caa565b915050610e39565b5080600b6000610fca611609565b6001600160a01b0316815260208101919091526040016000208154610fef9290612103565b50611001610ffb611609565b84611f51565b61101d5760405162461bcd60e51b8152600401610320906127d8565b505090565b61102a611609565b6001600160a01b031661103b6110ab565b6001600160a01b0316146110615760405162461bcd60e51b8152600401610320906129ad565b600080546040516001600160a01b03909116907f8be0079c531659141344cd1fd0a4f28419497f9722a3daafe3b4186f6b6457e0908390a3600080546001600160a01b0319169055565b6000546001600160a01b031690565b6060600580546110c990612c6f565b80601f01602080910402602001604051908101604052809291908181526020018280546110f590612c6f565b80156111425780601f1061111757610100808354040283529160200191611142565b820191906000526020600020905b81548152906001019060200180831161112557829003601f168201915b5050505050905090565b60008181526004602090815260408083206001908101546002909352908320600581015481549282015460078301546006909301546001600160a01b0394851696919585169490921692916111a4906203f480611908565b90506001600160a01b038416158015906111be5750428110155b6111da5760405162461bcd60e51b815260040161032090612774565b6111e2611609565b6001600160a01b0316836001600160a01b0316146112125760405162461bcd60e51b8152600401610320906125d9565b60008781526003602090815260408083206001600160a01b038816845290915290206004015460ff16156112585760405162461bcd60e51b815260040161032090612982565b611264868630866117a2565b6112805760405162461bcd60e51b815260040161032090612add565b600061128e85846000611812565b10156112ac5760405162461bcd60e51b815260040161032090612803565b6112b98760006003611888565b50505050915091565b6112ca611609565b6001600160a01b03166112db6110ab565b6001600160a01b0316146113015760405162461bcd60e51b8152600401610320906129ad565b6001600160a01b0381166113275760405162461bcd60e51b815260040161032090612640565b600080546040516001600160a01b03808516939216917f8be0079c531659141344cd1fd0a4f28419497f9722a3daafe3b4186f6b6457e091a3600080546001600160a01b0319166001600160a01b0392909216919091179055565b600082815260026020819052604090912060058101548154600183015492909301546001600160a01b039384169360ff600160a81b8404169216908510156113dc5760405162461bcd60e51b815260040161032090612b12565b600160008781526002602052604090206009015460ff16600381111561141257634e487b7160e01b600052602160045260246000fd5b148061147a5750600260008781526002602052604090206009015460ff16600381111561144f57634e487b7160e01b600052602160045260246000fd5b14801561145e57506001821515145b801561147a575060008681526002602052604090206006015442105b6114965760405162461bcd60e51b8152600401610320906127a9565b846114a76114a2611609565b61160d565b10156114c55760405162461bcd60e51b815260040161032090612686565b6000806000806114d688888b61169e565b93509350935093506114f06114e96110ab565b868461170b565b61150c5760405162461bcd60e51b815260040161032090612b5f565b6001600160a01b038416156115425761152684868561170b565b6115425760405162461bcd60e51b815260040161032090612867565b61155461154d611609565b868361170b565b6115705760405162461bcd60e51b8152600401610320906128a8565b61158388883061157e611609565b6117a2565b61159f5760405162461bcd60e51b815260040161032090612add565b60008a8152600260208190526040822001546115ba906119a4565b905060006115ca87836000611812565b10156115e85760405162461bcd60e51b815260040161032090612803565b6115fb8b6115f4611609565b6000611888565b505050505050509250929050565b3390565b600654604051636eb1769f60e11b815260009164010000000090046001600160a01b03169063dd62ed3e906116489085903090600401612487565b60206040518083038186803b15801561166057600080fd5b505afa158015611674573d6000803e3d6000fd5b505050506040513d601f19601f8201168201806040525081019061169891906123f0565b92915050565b6000806000806116ad85611f71565b91506116b98583611fb5565b90506116c487611fc1565b15611702576116d4878787612053565b909450925082158015906116f057506001600160a01b03841615155b15611702576116ff8184611fb5565b90505b93509350935093565b6006546040516323b872dd60e01b815260009164010000000090046001600160a01b0316906323b872dd90611748908790879087906004016124a1565b602060405180830381600087803b15801561176257600080fd5b505af1158015611776573d6000803e3d6000fd5b505050506040513d601f19601f8201168201806040525081019061179a919061235f565b949350505050565b604051632142170760e11b81526000906001600160a01b038616906342842e0e906117d5908690869089906004016124a1565b600060405180830381600087803b1580156117ef57600080fd5b505af1158015611803573d6000803e3d6000fd5b50600198975050505050505050565b600081611841576001600160a01b0384166000908152600a602052604090205461183c9084611fb5565b611864565b6001600160a01b0384166000908152600a602052604090205461186490846120df565b6001600160a01b0385166000908152600a6020526040902081905590509392505050565b6000838152600260205260409020600901805482919060ff191660018360038111156118c457634e487b7160e01b600052602160045260246000fd5b02179055506001600160a01b0382161561190357600083815260026020526040902060040180546001600160a01b0319166001600160a01b0384161790555b505050565b600061191483836120df565b9392505050565b60008061194460085460646119309190612bdc565b60085461193e9086906120eb565b906120f7565b915061195982611953856119a4565b90611fb5565b9050915091565b600061196a6110ab565b905090565b600c5460405163929c517960e01b81526000916001600160a01b03169063929c517990611748908790879087906004016124a1565b600061169860095460646119b89190612bdc565b60095461193e9085906120eb565b6001600160a01b0382166000908152600a602052604081205481906119eb9084611fb5565b600c54604051630fa6707960e21b815291925061179a9183916001600160a01b031690633e99c1e490611a22908990600401612473565b60206040518083038186803b158015611a3a57600080fd5b505afa158015611a4e573d6000803e3d6000fd5b505050506040513d601f19601f8201168201806040525081019061195391906123f0565b60405163020604bf60e21b81526000906001600160a01b0384169063081812fc90611aa19085906004016124e9565b60206040518083038186803b158015611ab957600080fd5b505afa925050508015611ae9575060408051601f3d908101601f19168201909252611ae6918101906121a5565b60015b611af557506000611698565b6001600160a01b031630149050611698565b6000604051806101800160405280886001600160a01b031681526020018681526020018581526020016000815260200160006001600160a01b03168152602001876001600160a01b031681526020016000151581526020016000151581526020018481526020018381526020016000815260200160016003811115611b9c57634e487b7160e01b600052602160045260246000fd5b9052600089815260026020818152604092839020845181546001600160a01b039182166001600160a01b03199182161783559286015160018084019190915594860151938201939093556060850151600380830191909155608086015160048301805491861691851691909117905560a086015160058301805460c089015160e08a01511515600160a81b0260ff60a81b19911515600160a01b0260ff60a01b199590991692909716919091179290921695909517169290921790925561010084015160068301556101208401516007830155610140840151600883015561016084015160098301805493949193909260ff1990911691908490811115611cb357634e487b7160e01b600052602160045260246000fd5b021790555060019a9950505050505050505050565b60006040518061018001604052808a6001600160a01b031681526020018881526020018781526020016000815260200160006001600160a01b03168152602001896001600160a01b03168152602001600115158152602001861515815260200184815260200183815260200185815260200160026003811115611d5b57634e487b7160e01b600052602160045260246000fd5b905260008b815260026020818152604092839020845181546001600160a01b039182166001600160a01b03199182161783559286015160018084019190915594860151938201939093556060850151600380830191909155608086015160048301805491861691851691909117905560a086015160058301805460c089015160e08a01511515600160a81b0260ff60a81b19911515600160a01b0260ff60a01b199590991692909716919091179290921695909517169290921790925561010084015160068301556101208401516007830155610140840151600883015561016084015160098301805493949193909260ff1990911691908490811115611e7257634e487b7160e01b600052602160045260246000fd5b021790555060019c9b505050505050505050505050565b6040805180820182528781526001600160a01b03948516602080830182815260008a8152600480845286822095518655915160019586018054918b166001600160a01b0319928316179055865160a0810188529c8d529989168c84019081528c870198895260608d0197885260808d018281529b82526003808552878320958352949093529490942099518a555189830180549190971697169690961790945591516002870155519285019290925591519201805492151560ff199093169290921790915590565b6001600160a01b03919091166000908152600a6020526040902055600190565b60065460009061169890611f989060ff600160c01b8204811691600160c81b900416612bf4565b60065460ff9182169161193e918691600160c01b909104166120eb565b60006119148284612c58565b6006546040516301ffc9a760e01b81526000916001600160a01b038416916301ffc9a791611ff89160e09190911b906004016124f2565b60206040518083038186803b15801561201057600080fd5b505afa925050508015612040575060408051601f3d908101601f1916820190925261203d9181019061235f565b60015b61204c575060006105a9565b90506105a9565b600080846001600160a01b0316632a55205a85856040518363ffffffff1660e01b8152600401612084929190612bc0565b604080518083038186803b15801561209b57600080fd5b505afa1580156120af573d6000803e3d6000fd5b505050506040513d601f19601f820116820180604052508101906120d39190612291565b90969095509350505050565b60006119148284612bdc565b60006119148284612c39565b60006119148284612c19565b8280548282559060005260206000209081019282156121435760005260206000209182015b82811115612143578254825591600101919060010190612128565b5061214f929150612174565b5090565b50805460008255906000526020600020908101906121719190612174565b50565b5b8082111561214f5760008155600101612175565b60006020828403121561219a578081fd5b813561191481612cf1565b6000602082840312156121b6578081fd5b815161191481612cf1565b600080600080608085870312156121d6578283fd5b84356121e181612cf1565b93506020858101356121f281612cf1565b935060408601359250606086013567ffffffffffffffff80821115612215578384fd5b818801915088601f830112612228578384fd5b81358181111561223a5761223a612cdb565b604051601f8201601f191681018501838111828210171561225d5761225d612cdb565b60405281815283820185018b1015612273578586fd5b81858501868301379081019093019390935250939692955090935050565b600080604083850312156122a3578182fd5b82516122ae81612cf1565b6020939093015192949293505050565b600080600080608085870312156122d3578384fd5b84356122de81612cf1565b966020860135965060408601359560600135945092505050565b600080600080600080600060e0888a031215612312578283fd5b873561231d81612cf1565b9650602088013595506040880135945060608801359350608088013561234281612d06565b9699959850939692959460a0840135945060c09093013592915050565b600060208284031215612370578081fd5b815161191481612d06565b60006020828403121561238c578081fd5b5035919050565b600080600080608085870312156123a8578384fd5b8435935060208501356123ba81612cf1565b93969395505050506040820135916060013590565b600080604083850312156123e1578182fd5b50508035926020909101359150565b600060208284031215612401578081fd5b5051919050565b6bffffffffffffffffffffffff19606095861b8116825260148201949094529190931b9091166034820152604881019190915260680190565b9384526bffffffffffffffffffffffff19606093841b811660208601529190921b166034830152604882015260680190565b6001600160a01b0391909116815260200190565b6001600160a01b0392831681529116602082015260400190565b6001600160a01b039384168152919092166020820152604081019190915260600190565b6001600160a01b03929092168252602082015260400190565b901515815260200190565b90815260200190565b6001600160e01b031991909116815260200190565b6000602080835283518082850152825b8181101561253357858101830151858201604001528201612517565b818111156125445783604083870101525b50601f01601f1916929092016040019392505050565b60208082526028908201527f626964207072696365206d757374206265206d6f7265207468616e20746865206040820152671b185cdd08189a5960c21b606082015260800190565b6020808252601b908201527f52657365727665205a65726f206973206e6f7420616c6c6f7765640000000000604082015260600190565b60208082526017908201527f43616c6c6572206973206e6f7420746865206f776e6572000000000000000000604082015260600190565b602080825260169082015275436f756c646e2774206c69737420746865206974656d60501b604082015260600190565b60208082526026908201527f4f776e61626c653a206e6577206f776e657220697320746865207a65726f206160408201526564647265737360d01b606082015260800190565b60208082526044908201527f4d61726b6574706c616365206973206e6f7420616c6c6f77656420746f20776960408201527f7468647261772074686520726571756972656420616d6f756e74206f6620746f6060820152636b656e7360e01b608082015260a00190565b60208082526036908201527f626964207072696365206d757374206265206d6f7265207468616e206f7220656040820152757175616c20746865206d696e696d756d20707269636560501b606082015260800190565b60208082526014908201527320b63932b0b23c903137bab3b43a103a37b5b2b760611b604082015260600190565b6020808252818101527f4e6f2062696473206f72207374696c6c2072756e6e696e672061756374696f6e604082015260600190565b60208082526015908201527402a37b5b2b71034b9b737ba103337b91039b0b6329605d1b604082015260600190565b6020808252601190820152701cd95d081c995cd95c9d994819985a5b19607a1b604082015260600190565b6020808252601f908201527f6e656761746976652072657365727665206973206e6f7420616c6c6f77656400604082015260600190565b6020808252601390820152724e6f7420656e6f75676820726573657276657360681b604082015260600190565b60208082526021908201527f436f756c646e2774207472616e7366657220746f6b656e20746f2069737375656040820152603960f91b606082015260800190565b6020808252818101527f436f756c646e2774207472616e7366657220746f6b656e20746f206275796572604082015260600190565b60208082526018908201527f43616c6c6572206973206e6f74207468652077696e6e65720000000000000000604082015260600190565b60208082526019908201527f5a65726f207072696365206973206e6f7420616c6c6f77656400000000000000604082015260600190565b60208082526018908201527f636f756c646e277420646564756374207468652066696e650000000000000000604082015260600190565b602080825260119082015270105b1c9958591e481c1d5c98da185cd959607a1b604082015260600190565b6020808252818101527f4f776e61626c653a2063616c6c6572206973206e6f7420746865206f776e6572604082015260600190565b6020808252600c908201526b10dbdd5b191b89dd08109a5960a21b604082015260600190565b6020808252602d908201527f41756374696f6e2073686f756c64206265206c69766520666f72206d6f72652060408201526c7468616e20313220686f75727360981b606082015260800190565b60208082526031908201527f4d61726b6574706c616365206973206e6f7420616c6c6f77656420746f20747260408201527030b739b332b9103cb7bab9103a37b5b2b760791b606082015260800190565b60208082526019908201527f5a65726f2056616c7565206973206e6f7420616c6c6f77656400000000000000604082015260600190565b6020808252818101527f4e465420746f6b656e20636f756c646e2774206265207472616e736665726564604082015260600190565b6020808252600d908201526c496e76616c696420707269636560981b604082015260600190565b6020808252600c908201526b10d85b89dd0819195b1a5cdd60a21b604082015260600190565b6020808252601f908201527f436f756c646e2774207472616e7366657220746f6b656e206173206665657300604082015260600190565b60208082526010908201526f105d58dd1a5bdb881a5cc8195b99195960821b604082015260600190565b918252602082015260400190565b60ff91909116815260200190565b60008219821115612bef57612bef612cc5565b500190565b600060ff821660ff84168060ff03821115612c1157612c11612cc5565b019392505050565b600082612c3457634e487b7160e01b81526012600452602481fd5b500490565b6000816000190483118215151615612c5357612c53612cc5565b500290565b600082821015612c6a57612c6a612cc5565b500390565b600281046001821680612c8357607f821691505b60208210811415612ca457634e487b7160e01b600052602260045260246000fd5b50919050565b6000600019821415612cbe57612cbe612cc5565b5060010190565b634e487b7160e01b600052601160045260246000fd5b634e487b7160e01b600052604160045260246000fd5b6001600160a01b038116811461217157600080fd5b801515811461217157600080fdfea2646970667358221220fd012a865170ed12313a42e774391971e1e89f1e74e1ca69b3de98a06ce0e61d64736f6c63430008000033",
  "linkReferences": {},
  "deployedLinkReferences": {}
}