{
  "contractName": "StartFiMarketPlace",
  "abi": [
    {
      "inputs": [
        {
          "internalType": "string",
          "name": "_marketPlaceName",
          "type": "string"
        },
        {
          "internalType": "address",
          "name": "_paymentTokesnAddress",
          "type": "address"
        },
        {
          "internalType": "address",
          "name": "_stakeContract",
          "type": "address"
        }
      ],
      "stateMutability": "nonpayable",
      "type": "constructor"
    },
    {
      "anonymous": false,
      "inputs": [
        {
          "indexed": true,
          "internalType": "address",
          "name": "previousOwner",
          "type": "address"
        },
        {
          "indexed": true,
          "internalType": "address",
          "name": "newOwner",
          "type": "address"
        }
      ],
      "name": "OwnershipTransferred",
      "type": "event"
    },
    {
      "anonymous": false,
      "inputs": [
        {
          "indexed": false,
          "internalType": "address",
          "name": "account",
          "type": "address"
        }
      ],
      "name": "Paused",
      "type": "event"
    },
    {
      "anonymous": false,
      "inputs": [
        {
          "indexed": false,
          "internalType": "address",
          "name": "account",
          "type": "address"
        }
      ],
      "name": "Unpaused",
      "type": "event"
    },
    {
      "inputs": [],
      "name": "delistAfter",
      "outputs": [
        {
          "internalType": "uint256",
          "name": "",
          "type": "uint256"
        }
      ],
      "stateMutability": "view",
      "type": "function",
      "constant": true
    },
    {
      "inputs": [],
      "name": "delistFeesPercentage",
      "outputs": [
        {
          "internalType": "uint256",
          "name": "",
          "type": "uint256"
        }
      ],
      "stateMutability": "view",
      "type": "function",
      "constant": true
    },
    {
      "inputs": [],
      "name": "getServiceFee",
      "outputs": [
        {
          "internalType": "uint8",
          "name": "",
          "type": "uint8"
        }
      ],
      "stateMutability": "view",
      "type": "function",
      "constant": true
    },
    {
      "inputs": [
        {
          "internalType": "address",
          "name": "user",
          "type": "address"
        }
      ],
      "name": "getUserReserved",
      "outputs": [
        {
          "internalType": "uint256",
          "name": "",
          "type": "uint256"
        }
      ],
      "stateMutability": "view",
      "type": "function",
      "constant": true
    },
    {
      "inputs": [],
      "name": "listqualifyPercentage",
      "outputs": [
        {
          "internalType": "uint256",
          "name": "",
          "type": "uint256"
        }
      ],
      "stateMutability": "view",
      "type": "function",
      "constant": true
    },
    {
      "inputs": [],
      "name": "marketPlaceName",
      "outputs": [
        {
          "internalType": "string",
          "name": "",
          "type": "string"
        }
      ],
      "stateMutability": "view",
      "type": "function",
      "constant": true
    },
    {
      "inputs": [
        {
          "internalType": "address",
          "name": "",
          "type": "address"
        },
        {
          "internalType": "address",
          "name": "",
          "type": "address"
        },
        {
          "internalType": "uint256",
          "name": "",
          "type": "uint256"
        },
        {
          "internalType": "bytes",
          "name": "",
          "type": "bytes"
        }
      ],
      "name": "onERC721Received",
      "outputs": [
        {
          "internalType": "bytes4",
          "name": "",
          "type": "bytes4"
        }
      ],
      "stateMutability": "nonpayable",
      "type": "function"
    },
    {
      "inputs": [],
      "name": "owner",
      "outputs": [
        {
          "internalType": "address",
          "name": "",
          "type": "address"
        }
      ],
      "stateMutability": "view",
      "type": "function",
      "constant": true
    },
    {
      "inputs": [],
      "name": "paused",
      "outputs": [
        {
          "internalType": "bool",
          "name": "",
          "type": "bool"
        }
      ],
      "stateMutability": "view",
      "type": "function",
      "constant": true
    },
    {
      "inputs": [],
      "name": "renounceOwnership",
      "outputs": [],
      "stateMutability": "nonpayable",
      "type": "function"
    },
    {
      "inputs": [],
      "name": "stakeContract",
      "outputs": [
        {
          "internalType": "address",
          "name": "",
          "type": "address"
        }
      ],
      "stateMutability": "view",
      "type": "function",
      "constant": true
    },
    {
      "inputs": [
        {
          "internalType": "address",
          "name": "newOwner",
          "type": "address"
        }
      ],
      "name": "transferOwnership",
      "outputs": [],
      "stateMutability": "nonpayable",
      "type": "function"
    },
    {
      "inputs": [
        {
          "internalType": "address",
          "name": "nftAddress",
          "type": "address"
        },
        {
          "internalType": "uint256",
          "name": "tokenId",
          "type": "uint256"
        },
        {
          "internalType": "uint256",
          "name": "listingPrice",
          "type": "uint256"
        },
        {
          "internalType": "uint256",
          "name": "qualifyAmount",
          "type": "uint256"
        }
      ],
      "name": "ListOnMarketplace",
      "outputs": [
        {
          "internalType": "bytes32",
          "name": "listId",
          "type": "bytes32"
        }
      ],
      "stateMutability": "nonpayable",
      "type": "function"
    },
    {
      "inputs": [
        {
          "internalType": "address",
          "name": "nftAddress",
          "type": "address"
        },
        {
          "internalType": "uint256",
          "name": "tokenId",
          "type": "uint256"
        },
        {
          "internalType": "uint256",
          "name": "listingPrice",
          "type": "uint256"
        },
        {
          "internalType": "uint256",
          "name": "qualifyAmount",
          "type": "uint256"
        },
        {
          "internalType": "bool",
          "name": "sellForEnabled",
          "type": "bool"
        },
        {
          "internalType": "uint256",
          "name": "sellFor",
          "type": "uint256"
        },
        {
          "internalType": "uint256",
          "name": "duration",
          "type": "uint256"
        }
      ],
      "name": "createAuction",
      "outputs": [
        {
          "internalType": "bytes32",
          "name": "listId",
          "type": "bytes32"
        }
      ],
      "stateMutability": "nonpayable",
      "type": "function"
    },
    {
      "inputs": [
        {
          "internalType": "bytes32",
          "name": "listingId",
          "type": "bytes32"
        },
        {
          "internalType": "address",
          "name": "tokenAddress",
          "type": "address"
        },
        {
          "internalType": "uint256",
          "name": "tokenId",
          "type": "uint256"
        },
        {
          "internalType": "uint256",
          "name": "bidPrice",
          "type": "uint256"
        }
      ],
      "name": "bid",
      "outputs": [
        {
          "internalType": "bytes32",
          "name": "bidId",
          "type": "bytes32"
        }
      ],
      "stateMutability": "nonpayable",
      "type": "function"
    },
    {
      "inputs": [
        {
          "internalType": "bytes32",
          "name": "listingId",
          "type": "bytes32"
        }
      ],
      "name": "FullfillBid",
      "outputs": [
        {
          "internalType": "address",
          "name": "contractAddress",
          "type": "address"
        },
        {
          "internalType": "uint256",
          "name": "tokenId",
          "type": "uint256"
        }
      ],
      "stateMutability": "nonpayable",
      "type": "function"
    },
    {
      "inputs": [
        {
          "internalType": "bytes32",
          "name": "listingId",
          "type": "bytes32"
        }
      ],
      "name": "deList",
      "outputs": [
        {
          "internalType": "address",
          "name": "contractAddress",
          "type": "address"
        },
        {
          "internalType": "uint256",
          "name": "tokenId",
          "type": "uint256"
        }
      ],
      "stateMutability": "nonpayable",
      "type": "function"
    },
    {
      "inputs": [
        {
          "internalType": "bytes32",
          "name": "listingId",
          "type": "bytes32"
        },
        {
          "internalType": "uint256",
          "name": "price",
          "type": "uint256"
        }
      ],
      "name": "buyNow",
      "outputs": [
        {
          "internalType": "address",
          "name": "contractAddress",
          "type": "address"
        },
        {
          "internalType": "uint256",
          "name": "tokenId",
          "type": "uint256"
        }
      ],
      "stateMutability": "nonpayable",
      "type": "function"
    },
    {
      "inputs": [
        {
          "internalType": "bytes32",
          "name": "listingId",
          "type": "bytes32"
        }
      ],
      "name": "disputeAuction",
      "outputs": [
        {
          "internalType": "address",
          "name": "contractAddress",
          "type": "address"
        },
        {
          "internalType": "uint256",
          "name": "tokenId",
          "type": "uint256"
        }
      ],
      "stateMutability": "nonpayable",
      "type": "function"
    },
    {
      "inputs": [],
      "name": "freeReserves",
      "outputs": [
        {
          "internalType": "uint256",
          "name": "curentReserves",
          "type": "uint256"
        }
      ],
      "stateMutability": "nonpayable",
      "type": "function"
    }
  ],
  "bytecode": "0x608060405262ed4e00600190815560068054600160c01b632a55205a63ffffffff199092169190911760ff60c01b19161760ff60c81b1916601960ca1b179055600781905560088190556009553480156200005957600080fd5b50604051620040c9380380620040c98339810160408190526200007c9162000209565b82828160006200008b62000142565b600080546001600160a01b0319166001600160a01b0383169081178255604051929350917f8be0079c531659141344cd1fd0a4f28419497f9722a3daafe3b4186f6b6457e0908290a3506000805460ff60a01b191690558051620000f790600590602084019062000146565b505060068054600160201b600160c01b0319166401000000006001600160a01b0393841602179055600c80546001600160a01b03191693909116929092179091555062000352915050565b3390565b8280546200015490620002ff565b90600052602060002090601f016020900481019282620001785760008555620001c3565b82601f106200019357805160ff1916838001178555620001c3565b82800160010185558215620001c3579182015b82811115620001c3578251825591602001919060010190620001a6565b50620001d1929150620001d5565b5090565b5b80821115620001d15760008155600101620001d6565b80516001600160a01b03811681146200020457600080fd5b919050565b6000806000606084860312156200021e578283fd5b83516001600160401b038082111562000235578485fd5b818601915086601f83011262000249578485fd5b8151818111156200025e576200025e6200033c565b6040516020601f8301601f19168201810184811183821017156200028657620002866200033c565b60405282825284830181018a10156200029d578788fd5b8793505b82841015620002c05784840181015182850182015292830192620002a1565b82841115620002d157878184840101525b819750620002e1818a01620001ec565b96505050505050620002f660408501620001ec565b90509250925092565b6002810460018216806200031457607f821691505b602082108114156200033657634e487b7160e01b600052602260045260246000fd5b50919050565b634e487b7160e01b600052604160045260246000fd5b613d6780620003626000396000f3fe608060405234801561001057600080fd5b506004361061016c5760003560e01c80635ebd63cc116100cd5780638da5cb5b11610081578063e123ff5811610066578063e123ff58146102ad578063f2fde38b146102c0578063ff90ec06146102d35761016c565b80638da5cb5b146102905780638ef291e9146102985761016c565b80636b041547116100b25780636b041547146102765780636bb598161461027e578063715018a6146102865761016c565b80635ebd63cc1461025b578063649ee6831461026e5761016c565b80631f78fd0b116101245780635b949821116101095780635b949821146102205780635bbd49f4146102335780635c975abb146102465761016c565b80631f78fd0b146101fa57806356e9d1f31461020d5761016c565b806311a1933c1161015557806311a1933c146101b0578063150b7a02146101c55780631a186227146101e55761016c565b80630a42e75a146101715780630a6b11f01461018f575b600080fd5b6101796102e6565b60405161018691906132f1565b60405180910390f35b6101a261019d366004613129565b6102ec565b6040516101869291906132c0565b6101b86106e4565b6040516101869190613b3e565b6101d86101d3366004612f51565b610709565b60405161018691906132fa565b6101ed610732565b6040516101869190613247565b610179610208366004612f19565b61074e565b6101a261021b366004613129565b61077a565b61017961022e36600461306c565b610adf565b6101796102413660046130a6565b610d3d565b61024e610f17565b60405161018691906132e6565b610179610269366004613141565b610f38565b6101796112dd565b6101796112e3565b6101796112e9565b61028e6116c8565b005b6101ed6117aa565b6102a06117c6565b6040516101869190613327565b6101a26102bb366004613129565b611858565b61028e6102ce366004612f19565b611a26565b6101a26102e136600461317d565b611b73565b60015481565b600081815260026020526040812060060154819083904211801561035d5750600260008281526002602052604090206009015460ff16600381111561035a577f4e487b7100000000000000000000000000000000000000000000000000000000600052602160045260246000fd5b14155b61039c576040517f08c379a000000000000000000000000000000000000000000000000000000000815260040161039390613af9565b60405180910390fd5b60008481526004602090815260408083206001908101546002909352922060058101548154919093015473ffffffffffffffffffffffffffffffffffffffff9182169650945090811691166103ef611f28565b73ffffffffffffffffffffffffffffffffffffffff168273ffffffffffffffffffffffffffffffffffffffff1614610453576040517f08c379a0000000000000000000000000000000000000000000000000000000008152600401610393906137b1565b600086815260036020818152604080842073ffffffffffffffffffffffffffffffffffffffff8716855290915290912001548061048f84611f2c565b10156104c7576040517f08c379a0000000000000000000000000000000000000000000000000000000008152600401610393906134f7565b6000806000806104d88a8a87611fe3565b93509350935093506104f26104eb6117aa565b878461205d565b610528576040517f08c379a000000000000000000000000000000000000000000000000000000000815260040161039390613ac2565b73ffffffffffffffffffffffffffffffffffffffff8416156105855761054f84878561205d565b610585576040517f08c379a00000000000000000000000000000000000000000000000000000000081526004016103939061371f565b61059087878361205d565b6105c6576040517f08c379a00000000000000000000000000000000000000000000000000000000081526004016103939061377c565b6105d28a8a308a61211a565b610608576040517f08c379a000000000000000000000000000000000000000000000000000000000815260040161039390613a1f565b60008b815260026020526040812060070154610626908990836121b0565b101561065e576040517f08c379a0000000000000000000000000000000000000000000000000000000008152600401610393906136b1565b60008b8152600360205260408120600191610677611f28565b73ffffffffffffffffffffffffffffffffffffffff1673ffffffffffffffffffffffffffffffffffffffff16815260200190815260200160002060040160006101000a81548160ff0219169083151502179055506106d78b88600061224d565b5050505050505050915091565b6006547801000000000000000000000000000000000000000000000000900460ff1690565b7f150b7a0200000000000000000000000000000000000000000000000000000000949350505050565b600c5473ffffffffffffffffffffffffffffffffffffffff1681565b73ffffffffffffffffffffffffffffffffffffffff81166000908152600a60205260409020545b919050565b6000818152600260208190526040909120600981015460058201546004830154835460068501549585015460019095015473ffffffffffffffffffffffffffffffffffffffff91821696909560ff909516949382169392909116916107dd611f28565b73ffffffffffffffffffffffffffffffffffffffff168473ffffffffffffffffffffffffffffffffffffffff1614610841576040517f08c379a00000000000000000000000000000000000000000000000000000000081526004016103939061342c565b73ffffffffffffffffffffffffffffffffffffffff83161561088f576040517f08c379a0000000000000000000000000000000000000000000000000000000008152600401610393906135d7565b60018560038111156108ca577f4e487b7100000000000000000000000000000000000000000000000000000000600052602160045260246000fd5b148061090e5750600285600381111561090c577f4e487b7100000000000000000000000000000000000000000000000000000000600052602160045260246000fd5b145b610944576040517f08c379a000000000000000000000000000000000000000000000000000000000815260040161039390613956565b428210801561098b57506001856003811115610989577f4e487b7100000000000000000000000000000000000000000000000000000000600052602160045260246000fd5b145b8061099557504282115b6109cb576040517f08c379a000000000000000000000000000000000000000000000000000000000815260040161039390613a8b565b60008042841015610a2b576109df83612336565b90925090506109f086600084612371565b610a26576040517f08c379a00000000000000000000000000000000000000000000000000000000081526004016103939061381f565b610a37565b610a34836123cc565b90505b610a438989308961211a565b610a79576040517f08c379a000000000000000000000000000000000000000000000000000000000815260040161039390613a1f565b6000610a8e610a86611f28565b8360006121b0565b1015610ac6576040517f08c379a0000000000000000000000000000000000000000000000000000000008152600401610393906136b1565b610ad38a6000600361224d565b50505050505050915091565b60008260008111610b1c576040517f08c379a0000000000000000000000000000000000000000000000000000000008152600401610393906139e8565b6000610b2a426001546123ee565b90508686610b36611f28565b83604051602001610b4a94939291906131b6565b6040516020818303038152906040528051906020012092506000610b6d866123cc565b905080610b82610b7b611f28565b6000612401565b1015610bba576040517f08c379a0000000000000000000000000000000000000000000000000000000008152600401610393906136e8565b610bc488886124e6565b610bfa576040517f08c379a00000000000000000000000000000000000000000000000000000000081526004016103939061398b565b610c0d8888610c07611f28565b3061211a565b610c43576040517f08c379a000000000000000000000000000000000000000000000000000000000815260040161039390613a1f565b610c56610c4e611f28565b8260016121b0565b506000600b6000610c65611f28565b73ffffffffffffffffffffffffffffffffffffffff168152602080820192909252604001600090812080546001810182558183529282209092018790559091508190600b90610cb2611f28565b73ffffffffffffffffffffffffffffffffffffffff16815260208101919091526040016000208154610ce49290612e93565b50610cfb858a610cf2611f28565b8b8b888c6125cc565b610d31576040517f08c379a000000000000000000000000000000000000000000000000000000000815260040161039390613463565b50505050949350505050565b60008560008111610d7a576040517f08c379a0000000000000000000000000000000000000000000000000000000008152600401610393906139e8565b61a8c08311610db5576040517f08c379a0000000000000000000000000000000000000000000000000000000008152600401610393906138f9565b6000610dc142856123ee565b90508989610dcd611f28565b83604051602001610de194939291906131b6565b6040516020818303038152906040528051906020012092508515610e395760008511610e39576040517f08c379a0000000000000000000000000000000000000000000000000000000008152600401610393906137e8565b610e438a8a6124e6565b610e79576040517f08c379a00000000000000000000000000000000000000000000000000000000081526004016103939061398b565b610e868a8a610c07611f28565b610ebc576040517f08c379a000000000000000000000000000000000000000000000000000000000815260040161039390613a1f565b610ed4838b610ec9611f28565b8c8c8b8b888f612882565b610f0a576040517f08c379a000000000000000000000000000000000000000000000000000000000815260040161039390613463565b5050979650505050505050565b60005474010000000000000000000000000000000000000000900460ff1690565b600084815260026020526040812060060154859042108015610fa75750600260008281526002602052604090206009015460ff166003811115610fa4577f4e487b7100000000000000000000000000000000000000000000000000000000600052602160045260246000fd5b14155b610fdd576040517f08c379a000000000000000000000000000000000000000000000000000000000815260040161039390613af9565b8585610fe7611f28565b86604051602001610ffb9493929190613202565b604080517fffffffffffffffffffffffffffffffffffffffffffffffffffffffffffffffe08184030181529181528151602092830120600089815260048452828120600101546002909452919091206007015490935073ffffffffffffffffffffffffffffffffffffffff90911690816110c057600088815260026020819052604090912001548510156110bb576040517f08c379a00000000000000000000000000000000000000000000000000000000081526004016103939061357a565b61112a565b600088815260036020818152604080842073ffffffffffffffffffffffffffffffffffffffff871685529091529091200154851161112a576040517f08c379a000000000000000000000000000000000000000000000000000000000815260040161039390613398565b600088815260036020526040812081611141611f28565b73ffffffffffffffffffffffffffffffffffffffff168152602081019190915260400160002060030154905080611292578161117e610b7b611f28565b10156111b6576040517f08c379a0000000000000000000000000000000000000000000000000000000008152600401610393906136e8565b6000600b60006111c4611f28565b73ffffffffffffffffffffffffffffffffffffffff168152602080820192909252604001600090812080546001810182558183529282209092018c90559091508190600b90611211611f28565b73ffffffffffffffffffffffffffffffffffffffff168152602081019190915260400160002081546112439290612e93565b506000611259611251611f28565b8560016121b0565b11611290576040517f08c379a0000000000000000000000000000000000000000000000000000000008152600401610393906133f5565b505b6112a7858a8a6112a0611f28565b8b8b612b38565b610d31576040517f08c379a0000000000000000000000000000000000000000000000000000000008152600401610393906138c2565b60095481565b60085481565b600080600b60006112f8611f28565b73ffffffffffffffffffffffffffffffffffffffff1673ffffffffffffffffffffffffffffffffffffffff16815260200190815260200160002080548060200260200160405190810160405280929190818152602001828054801561137c57602002820191906000526020600020905b815481526020019060010190808311611368575b50505050509050600b600061138f611f28565b73ffffffffffffffffffffffffffffffffffffffff1673ffffffffffffffffffffffffffffffffffffffff16815260200190815260200160002060006113d59190612ee3565b6000600b60006113e3611f28565b73ffffffffffffffffffffffffffffffffffffffff1673ffffffffffffffffffffffffffffffffffffffff168152602001908152602001600020905060005b825181101561163b576002806000858481518110611469577f4e487b7100000000000000000000000000000000000000000000000000000000600052603260045260246000fd5b60209081029190910181015182528101919091526040016000206009015460ff1660038111156114c2577f4e487b7100000000000000000000000000000000000000000000000000000000600052602160045260246000fd5b14806115635750600160026000858481518110611508577f4e487b7100000000000000000000000000000000000000000000000000000000600052603260045260246000fd5b60209081029190910181015182528101919091526040016000206009015460ff166003811115611561577f4e487b7100000000000000000000000000000000000000000000000000000000600052602160045260246000fd5b145b1561162957818382815181106115a2577f4e487b7100000000000000000000000000000000000000000000000000000000600052603260045260246000fd5b6020908102919091018101518254600181018455600093845291832090910155835161162691869160029190879086908110611607577f4e487b7100000000000000000000000000000000000000000000000000000000600052603260045260246000fd5b60200260200101518152602001908152602001600020600701546123ee565b93505b8061163381613c6a565b915050611422565b5080600b6000611649611f28565b73ffffffffffffffffffffffffffffffffffffffff1681526020810191909152604001600020815461167b9290612e93565b5061168d611687611f28565b84612c43565b6116c3576040517f08c379a00000000000000000000000000000000000000000000000000000000081526004016103939061367a565b505090565b6116d0611f28565b73ffffffffffffffffffffffffffffffffffffffff166116ee6117aa565b73ffffffffffffffffffffffffffffffffffffffff161461173b576040517f08c379a00000000000000000000000000000000000000000000000000000000081526004016103939061388d565b6000805460405173ffffffffffffffffffffffffffffffffffffffff909116907f8be0079c531659141344cd1fd0a4f28419497f9722a3daafe3b4186f6b6457e0908390a3600080547fffffffffffffffffffffffff0000000000000000000000000000000000000000169055565b60005473ffffffffffffffffffffffffffffffffffffffff1690565b6060600580546117d590613c16565b80601f016020809104026020016040519081016040528092919081815260200182805461180190613c16565b801561184e5780601f106118235761010080835404028352916020019161184e565b820191906000526020600020905b81548152906001019060200180831161183157829003601f168201915b5050505050905090565b60008181526004602090815260408083206001908101546002909352922060058101548154919093015473ffffffffffffffffffffffffffffffffffffffff9182169390928216911681158015906118c157506000858152600260205260409020600601544211155b6118f7576040517f08c379a00000000000000000000000000000000000000000000000000000000081526004016103939061360e565b6118ff611f28565b73ffffffffffffffffffffffffffffffffffffffff168173ffffffffffffffffffffffffffffffffffffffff1614611963576040517f08c379a00000000000000000000000000000000000000000000000000000000081526004016103939061342c565b600085815260036020908152604080832073ffffffffffffffffffffffffffffffffffffffff8616845290915290206004015460ff16156119d0576040517f08c379a000000000000000000000000000000000000000000000000000000000815260040161039390613856565b6119dc8484308461211a565b611a12576040517f08c379a000000000000000000000000000000000000000000000000000000000815260040161039390613a1f565b611a1f856000600361224d565b5050915091565b611a2e611f28565b73ffffffffffffffffffffffffffffffffffffffff16611a4c6117aa565b73ffffffffffffffffffffffffffffffffffffffff1614611a99576040517f08c379a00000000000000000000000000000000000000000000000000000000081526004016103939061388d565b73ffffffffffffffffffffffffffffffffffffffff8116611ae6576040517f08c379a00000000000000000000000000000000000000000000000000000000081526004016103939061349a565b6000805460405173ffffffffffffffffffffffffffffffffffffffff808516939216917f8be0079c531659141344cd1fd0a4f28419497f9722a3daafe3b4186f6b6457e091a3600080547fffffffffffffffffffffffff00000000000000000000000000000000000000001673ffffffffffffffffffffffffffffffffffffffff92909216919091179055565b6000828152600260208190526040909120600581015481546001830154929093015473ffffffffffffffffffffffffffffffffffffffff9384169360ff7501000000000000000000000000000000000000000000840416921690851015611c06576040517f08c379a000000000000000000000000000000000000000000000000000000000815260040161039390613a54565b600160008781526002602052604090206009015460ff166003811115611c55577f4e487b7100000000000000000000000000000000000000000000000000000000600052602160045260246000fd5b1480611cd65750600260008781526002602052604090206009015460ff166003811115611cab577f4e487b7100000000000000000000000000000000000000000000000000000000600052602160045260246000fd5b148015611cba57506001821515145b8015611cd6575060008681526002602052604090206006015442105b611d0c576040517f08c379a000000000000000000000000000000000000000000000000000000000815260040161039390613643565b84611d1d611d18611f28565b611f2c565b1015611d55576040517f08c379a0000000000000000000000000000000000000000000000000000000008152600401610393906134f7565b600080600080611d6688888b611fe3565b9350935093509350611d80611d796117aa565b868461205d565b611db6576040517f08c379a000000000000000000000000000000000000000000000000000000000815260040161039390613ac2565b73ffffffffffffffffffffffffffffffffffffffff841615611e1357611ddd84868561205d565b611e13576040517f08c379a00000000000000000000000000000000000000000000000000000000081526004016103939061371f565b611e25611e1e611f28565b868361205d565b611e5b576040517f08c379a00000000000000000000000000000000000000000000000000000000081526004016103939061377c565b611e6e888830611e69611f28565b61211a565b611ea4576040517f08c379a000000000000000000000000000000000000000000000000000000000815260040161039390613a1f565b60008a815260026020819052604082200154611ebf906123cc565b90506000611ecf878360006121b0565b1015611f07576040517f08c379a0000000000000000000000000000000000000000000000000000000008152600401610393906136b1565b611f1a8b611f13611f28565b600061224d565b505050505050509250929050565b3390565b6006546040517fdd62ed3e000000000000000000000000000000000000000000000000000000008152600091640100000000900473ffffffffffffffffffffffffffffffffffffffff169063dd62ed3e90611f8d9085903090600401613268565b60206040518083038186803b158015611fa557600080fd5b505afa158015611fb9573d6000803e3d6000fd5b505050506040513d601f19601f82011682018060405250810190611fdd919061319e565b92915050565b600080600080611ff285612c70565b9150611ffe8583612cf4565b905061200987612d00565b1561205457612019878787612dd6565b90945092508215801590612042575073ffffffffffffffffffffffffffffffffffffffff841615155b15612054576120518184612cf4565b90505b93509350935093565b6006546040517f23b872dd000000000000000000000000000000000000000000000000000000008152600091640100000000900473ffffffffffffffffffffffffffffffffffffffff16906323b872dd906120c09087908790879060040161328f565b602060405180830381600087803b1580156120da57600080fd5b505af11580156120ee573d6000803e3d6000fd5b505050506040513d601f19601f82011682018060405250810190612112919061310d565b949350505050565b6040517f42842e0e00000000000000000000000000000000000000000000000000000000815260009073ffffffffffffffffffffffffffffffffffffffff8616906342842e0e906121739086908690899060040161328f565b600060405180830381600087803b15801561218d57600080fd5b505af11580156121a1573d6000803e3d6000fd5b50600198975050505050505050565b6000816121ec5773ffffffffffffffffffffffffffffffffffffffff84166000908152600a60205260409020546121e79084612cf4565b61221c565b73ffffffffffffffffffffffffffffffffffffffff84166000908152600a602052604090205461221c9084612e6f565b73ffffffffffffffffffffffffffffffffffffffff85166000908152600a6020526040902081905590509392505050565b600083815260026020526040902060090180548291907fffffffffffffffffffffffffffffffffffffffffffffffffffffffffffffff001660018360038111156122c0577f4e487b7100000000000000000000000000000000000000000000000000000000600052602160045260246000fd5b021790555073ffffffffffffffffffffffffffffffffffffffff82161561233157600083815260026020526040902060040180547fffffffffffffffffffffffff00000000000000000000000000000000000000001673ffffffffffffffffffffffffffffffffffffffff84161790555b505050565b60008061235f600854606461234b9190613b4c565b600854612359908690612e7b565b90612e87565b915061236a836123cc565b9050915091565b600c546040517f929c517900000000000000000000000000000000000000000000000000000000815260009173ffffffffffffffffffffffffffffffffffffffff169063929c5179906120c09087908790879060040161328f565b6000611fdd60095460646123e09190613b4c565b600954612359908590612e7b565b60006123fa8383612e6f565b9392505050565b73ffffffffffffffffffffffffffffffffffffffff82166000908152600a602052604081205481906124339084612cf4565b600c546040517f3e99c1e400000000000000000000000000000000000000000000000000000000815291925061211291839173ffffffffffffffffffffffffffffffffffffffff1690633e99c1e490612490908990600401613247565b60206040518083038186803b1580156124a857600080fd5b505afa1580156124bc573d6000803e3d6000fd5b505050506040513d601f19601f820116820180604052508101906124e0919061319e565b90612cf4565b6040517f081812fc00000000000000000000000000000000000000000000000000000000815260009073ffffffffffffffffffffffffffffffffffffffff84169063081812fc9061253b9085906004016132f1565b60206040518083038186803b15801561255357600080fd5b505afa9250505080156125a1575060408051601f3d9081017fffffffffffffffffffffffffffffffffffffffffffffffffffffffffffffffe016820190925261259e91810190612f35565b60015b6125ad57506000611fdd565b73ffffffffffffffffffffffffffffffffffffffff1630149050611fdd565b60006040518061018001604052808873ffffffffffffffffffffffffffffffffffffffff16815260200186815260200185815260200160008152602001600073ffffffffffffffffffffffffffffffffffffffff1681526020018773ffffffffffffffffffffffffffffffffffffffff16815260200160001515815260200160001515815260200184815260200183815260200160008152602001600160038111156126a1577f4e487b7100000000000000000000000000000000000000000000000000000000600052602160045260246000fd5b90526000898152600260208181526040928390208451815473ffffffffffffffffffffffffffffffffffffffff9182167fffffffffffffffffffffffff00000000000000000000000000000000000000009182161783559286015160018084019190915594860151938201939093556060850151600380830191909155608086015160048301805491861691851691909117905560a086015160058301805460c089015160e08a015115157501000000000000000000000000000000000000000000027fffffffffffffffffffff00ffffffffffffffffffffffffffffffffffffffffff91151574010000000000000000000000000000000000000000027fffffffffffffffffffffff00ffffffffffffffffffffffffffffffffffffffff959099169290971691909117929092169590951716929092179092556101008401516006830155610120840151600783015561014084015160088301556101608401516009830180549394919390927fffffffffffffffffffffffffffffffffffffffffffffffffffffffffffffff009091169190849081111561286d577f4e487b7100000000000000000000000000000000000000000000000000000000600052602160045260246000fd5b021790555060019a9950505050505050505050565b60006040518061018001604052808a73ffffffffffffffffffffffffffffffffffffffff16815260200188815260200187815260200160008152602001600073ffffffffffffffffffffffffffffffffffffffff1681526020018973ffffffffffffffffffffffffffffffffffffffff168152602001600115158152602001861515815260200184815260200183815260200185815260200160026003811115612955577f4e487b7100000000000000000000000000000000000000000000000000000000600052602160045260246000fd5b905260008b8152600260208181526040928390208451815473ffffffffffffffffffffffffffffffffffffffff9182167fffffffffffffffffffffffff00000000000000000000000000000000000000009182161783559286015160018084019190915594860151938201939093556060850151600380830191909155608086015160048301805491861691851691909117905560a086015160058301805460c089015160e08a015115157501000000000000000000000000000000000000000000027fffffffffffffffffffff00ffffffffffffffffffffffffffffffffffffffffff91151574010000000000000000000000000000000000000000027fffffffffffffffffffffff00ffffffffffffffffffffffffffffffffffffffff959099169290971691909117929092169590951716929092179092556101008401516006830155610120840151600783015561014084015160088301556101608401516009830180549394919390927fffffffffffffffffffffffffffffffffffffffffffffffffffffffffffffff0090911691908490811115612b21577f4e487b7100000000000000000000000000000000000000000000000000000000600052602160045260246000fd5b021790555060019c9b505050505050505050505050565b60408051808201825287815273ffffffffffffffffffffffffffffffffffffffff948516602080830182815260008a8152600480845286822095518655915160019586018054918b167fffffffffffffffffffffffff0000000000000000000000000000000000000000928316179055865160a0810188529c8d529989168c84019081528c870198895260608d0197885260808d018281529b82526003808552878320958352949093529490942099518a55518983018054919097169716969096179094559151600287015551928501929092559151920180549215157fffffffffffffffffffffffffffffffffffffffffffffffffffffffffffffff009093169290921790915590565b73ffffffffffffffffffffffffffffffffffffffff919091166000908152600a6020526040902055600190565b600654600090611fdd90612cc29060ff78010000000000000000000000000000000000000000000000008204811691790100000000000000000000000000000000000000000000000000900416613b64565b60065460ff91821691612359918691780100000000000000000000000000000000000000000000000090910416612e7b565b60006123fa8284613bff565b6006546040517f01ffc9a700000000000000000000000000000000000000000000000000000000815260009173ffffffffffffffffffffffffffffffffffffffff8416916301ffc9a791612d5d9160e09190911b906004016132fa565b60206040518083038186803b158015612d7557600080fd5b505afa925050508015612dc3575060408051601f3d9081017fffffffffffffffffffffffffffffffffffffffffffffffffffffffffffffffe0168201909252612dc09181019061310d565b60015b612dcf57506000610775565b9050610775565b6000808473ffffffffffffffffffffffffffffffffffffffff16632a55205a85856040518363ffffffff1660e01b8152600401612e14929190613b30565b604080518083038186803b158015612e2b57600080fd5b505afa158015612e3f573d6000803e3d6000fd5b505050506040513d601f19601f82011682018060405250810190612e63919061303f565b90969095509350505050565b60006123fa8284613b4c565b60006123fa8284613bc2565b60006123fa8284613b89565b828054828255906000526020600020908101928215612ed35760005260206000209182015b82811115612ed3578254825591600101919060010190612eb8565b50612edf929150612f04565b5090565b5080546000825590600052602060002090810190612f019190612f04565b50565b5b80821115612edf5760008155600101612f05565b600060208284031215612f2a578081fd5b81356123fa81613d01565b600060208284031215612f46578081fd5b81516123fa81613d01565b60008060008060808587031215612f66578283fd5b8435612f7181613d01565b9350602085810135612f8281613d01565b935060408601359250606086013567ffffffffffffffff80821115612fa5578384fd5b818801915088601f830112612fb8578384fd5b813581811115612fca57612fca613cd2565b604051847fffffffffffffffffffffffffffffffffffffffffffffffffffffffffffffffe0601f840116820101818110848211171561300b5761300b613cd2565b60405281815283820185018b1015613021578586fd5b81858501868301379081019093019390935250939692955090935050565b60008060408385031215613051578182fd5b825161305c81613d01565b6020939093015192949293505050565b60008060008060808587031215613081578384fd5b843561308c81613d01565b966020860135965060408601359560600135945092505050565b600080600080600080600060e0888a0312156130c0578283fd5b87356130cb81613d01565b965060208801359550604088013594506060880135935060808801356130f081613d23565b9699959850939692959460a0840135945060c09093013592915050565b60006020828403121561311e578081fd5b81516123fa81613d23565b60006020828403121561313a578081fd5b5035919050565b60008060008060808587031215613156578384fd5b84359350602085013561316881613d01565b93969395505050506040820135916060013590565b6000806040838503121561318f578182fd5b50508035926020909101359150565b6000602082840312156131af578081fd5b5051919050565b7fffffffffffffffffffffffffffffffffffffffff000000000000000000000000606095861b8116825260148201949094529190931b9091166034820152604881019190915260680190565b9384527fffffffffffffffffffffffffffffffffffffffff000000000000000000000000606093841b811660208601529190921b166034830152604882015260680190565b73ffffffffffffffffffffffffffffffffffffffff91909116815260200190565b73ffffffffffffffffffffffffffffffffffffffff92831681529116602082015260400190565b73ffffffffffffffffffffffffffffffffffffffff9384168152919092166020820152604081019190915260600190565b73ffffffffffffffffffffffffffffffffffffffff929092168252602082015260400190565b901515815260200190565b90815260200190565b7fffffffff0000000000000000000000000000000000000000000000000000000091909116815260200190565b6000602080835283518082850152825b8181101561335357858101830151858201604001528201613337565b818111156133645783604083870101525b50601f017fffffffffffffffffffffffffffffffffffffffffffffffffffffffffffffffe016929092016040019392505050565b60208082526028908201527f626964207072696365206d757374206265206d6f7265207468616e207468652060408201527f6c61737420626964000000000000000000000000000000000000000000000000606082015260800190565b6020808252601b908201527f52657365727665205a65726f206973206e6f7420616c6c6f7765640000000000604082015260600190565b60208082526017908201527f43616c6c6572206973206e6f7420746865206f776e6572000000000000000000604082015260600190565b60208082526016908201527f436f756c646e2774206c69737420746865206974656d00000000000000000000604082015260600190565b60208082526026908201527f4f776e61626c653a206e6577206f776e657220697320746865207a65726f206160408201527f6464726573730000000000000000000000000000000000000000000000000000606082015260800190565b60208082526044908201527f4d61726b6574706c616365206973206e6f7420616c6c6f77656420746f20776960408201527f7468647261772074686520726571756972656420616d6f756e74206f6620746f60608201527f6b656e7300000000000000000000000000000000000000000000000000000000608082015260a00190565b60208082526036908201527f626964207072696365206d757374206265206d6f7265207468616e206f72206560408201527f7175616c20746865206d696e696d756d20707269636500000000000000000000606082015260800190565b60208082526014908201527f416c726561647920626f7567687420746f6b656e000000000000000000000000604082015260600190565b6020808252818101527f4e6f2062696473206f72207374696c6c2072756e6e696e672061756374696f6e604082015260600190565b60208082526015908201527f546f6b656e2069736e6f7420666f722073616c65200000000000000000000000604082015260600190565b60208082526011908201527f7365742072657365727665206661696c64000000000000000000000000000000604082015260600190565b6020808252601f908201527f6e656761746976652072657365727665206973206e6f7420616c6c6f77656400604082015260600190565b60208082526013908201527f4e6f7420656e6f75676820726573657276657300000000000000000000000000604082015260600190565b60208082526021908201527f436f756c646e2774207472616e7366657220746f6b656e20746f20697373756560408201527f7200000000000000000000000000000000000000000000000000000000000000606082015260800190565b6020808252818101527f436f756c646e2774207472616e7366657220746f6b656e20746f206275796572604082015260600190565b60208082526018908201527f43616c6c6572206973206e6f74207468652077696e6e65720000000000000000604082015260600190565b60208082526019908201527f5a65726f207072696365206973206e6f7420616c6c6f77656400000000000000604082015260600190565b60208082526018908201527f636f756c646e277420646564756374207468652066696e650000000000000000604082015260600190565b60208082526011908201527f416c726561647920707572636861736564000000000000000000000000000000604082015260600190565b6020808252818101527f4f776e61626c653a2063616c6c6572206973206e6f7420746865206f776e6572604082015260600190565b6020808252600c908201527f436f756c646e2774204269640000000000000000000000000000000000000000604082015260600190565b6020808252602d908201527f41756374696f6e2073686f756c64206265206c69766520666f72206d6f72652060408201527f7468616e20313220686f75727300000000000000000000000000000000000000606082015260800190565b6020808252818101527f416c726561647920626f75676874206f722063616e63656c656420746f6b656e604082015260600190565b60208082526031908201527f4d61726b6574706c616365206973206e6f7420616c6c6f77656420746f20747260408201527f616e7366657220796f757220746f6b656e000000000000000000000000000000606082015260800190565b60208082526019908201527f5a65726f2056616c7565206973206e6f7420616c6c6f77656400000000000000604082015260600190565b6020808252818101527f4e465420746f6b656e20636f756c646e2774206265207472616e736665726564604082015260600190565b6020808252600d908201527f496e76616c696420707269636500000000000000000000000000000000000000604082015260600190565b6020808252600c908201527f43616e27742064656c6973740000000000000000000000000000000000000000604082015260600190565b6020808252601f908201527f436f756c646e2774207472616e7366657220746f6b656e206173206665657300604082015260600190565b60208082526010908201527f41756374696f6e20697320656e64656400000000000000000000000000000000604082015260600190565b918252602082015260400190565b60ff91909116815260200190565b60008219821115613b5f57613b5f613ca3565b500190565b600060ff821660ff84168060ff03821115613b8157613b81613ca3565b019392505050565b600082613bbd577f4e487b710000000000000000000000000000000000000000000000000000000081526012600452602481fd5b500490565b6000817fffffffffffffffffffffffffffffffffffffffffffffffffffffffffffffffff0483118215151615613bfa57613bfa613ca3565b500290565b600082821015613c1157613c11613ca3565b500390565b600281046001821680613c2a57607f821691505b60208210811415613c64577f4e487b7100000000000000000000000000000000000000000000000000000000600052602260045260246000fd5b50919050565b60007fffffffffffffffffffffffffffffffffffffffffffffffffffffffffffffffff821415613c9c57613c9c613ca3565b5060010190565b7f4e487b7100000000000000000000000000000000000000000000000000000000600052601160045260246000fd5b7f4e487b7100000000000000000000000000000000000000000000000000000000600052604160045260246000fd5b73ffffffffffffffffffffffffffffffffffffffff81168114612f0157600080fd5b8015158114612f0157600080fdfea26469706673582212203d2735999a77de6715b12ec538fa12e3cca8dcb154c22927f5ae8a06d4fac0a964736f6c63430008000033",
  "immutableReferences": {},
  "source": "// SPDX-License-Identifier: AGPL-3.0-or-later\n\npragma solidity >=0.8.0;\npragma abicoder v2;\nimport \"./StartfiMarketPlaceFinance.sol\";\n import \"./MarketPlaceListing.sol\";\nimport \"./MarketPlaceBid.sol\";\nimport \"@openzeppelin/contracts/security/Pausable.sol\";\nimport \"@openzeppelin/contracts/access/Ownable.sol\";\n\n/**\n * @title NFTKEY MarketPlace contract V1\n * Note: This marketplace contract is collection based. It serves one ERC721 contract only\n * Payment tokens usually is the chain native coin's wrapped token, e.g. WETH, WBNB\n */\ncontract StartFiMarketPlace is  Ownable,Pausable, MarketPlaceListing, MarketPlaceBid,StartfiMarketPlaceFinance {\n  \n /******************************************* decalrations go here ********************************************************* */\n \n\n\n /******************************************* constructor goes here ********************************************************* */\n\n    constructor(\n          string memory _marketPlaceName,\n          address _paymentTokesnAddress,\n          address _stakeContract\n    )   StartfiMarketPlaceFinance(_marketPlaceName,_paymentTokesnAddress){\n       stakeContract=_stakeContract;\n    }\n\n  /******************************************* modifiers go here ********************************************************* */\n\n    modifier isOpenAuction(bytes32 listingId) {\n        require(  _tokenListings[listingId].releaseTime> block.timestamp && _tokenListings[listingId].status!=ListingStatus.onAuction,\"Auction is ended\");\n        _;\n    }\n    modifier canFullfillBid(bytes32 listingId) {\n        require(  _tokenListings[listingId].releaseTime< block.timestamp && _tokenListings[listingId].status!=ListingStatus.onAuction,\"Auction is ended\");\n        _;\n    }\n    modifier isOpenForSale(bytes32 listingId) {\n        require(_tokenListings[listingId].status==ListingStatus.OnMarket,\"Item is not for sale\");\n        _;\n    }\nmodifier isNotZero(uint256 val) {\n    require(val>0,\"Zero Value is not allowed\");\n    _;\n}\n\n  /******************************************* read state functions go here ********************************************************* */\n\n  /******************************************* state functions go here ********************************************************* */\n\n// list\n    function ListOnMarketplace( address nftAddress,\n          uint256 tokenId,\n            uint256 listingPrice, uint256 qualifyAmount) external isNotZero(listingPrice) returns (bytes32 listId) {\n            uint256 releaseTime = _calcSum(block.timestamp,delistAfter);\n            listId = keccak256(abi.encodePacked(nftAddress,tokenId,_msgSender(),releaseTime));\n            // calc qualified ammount\n            uint256 listQualifyAmount =_getListingQualAmount(listingPrice);\n\n          // check that sender is qualified \n          require(_getStakeAllowance(_msgSender(), 0)>= listQualifyAmount,\"Not enough reserves\");\n          require( _isTokenApproved(nftAddress,  tokenId) ,\"Marketplace is not allowed to transfer your token\");\n\n            // transfer token to contract \n          require( _safeNFTTransfer(nftAddress,tokenId,_msgSender(),address(this)),\"NFT token couldn't be transfered\");\n\n          // update reserved\n            _updateUserReserves(_msgSender() ,listQualifyAmount,true);\n            bytes32  [] storage listings = userListing[_msgSender()];\n            listings.push(listId);\n            userListing[_msgSender()]=listings;\n          // list \n          require(_listOnMarketPlace( listId,nftAddress,_msgSender(),tokenId,listingPrice,releaseTime,qualifyAmount) ,\"Couldn't list the item\");\n\n        \n    }\n// create auction\n    function createAuction( address nftAddress,\n          uint256 tokenId,\n            uint256 listingPrice,\n            uint256 qualifyAmount,\n            bool sellForEnabled,\n            uint256 sellFor,\n            uint256 duration\n            ) external isNotZero(listingPrice) returns (bytes32 listId) {\n              require(duration>12 hours,\"Auction should be live for more than 12 hours\");\n            uint256 releaseTime = _calcSum(block.timestamp,duration);\n            listId = keccak256(abi.encodePacked(nftAddress,tokenId,_msgSender(),releaseTime));\n            if(sellForEnabled){\n              require(sellFor>0,\"Zero price is not allowed\");\n            }\n          // check that sender is qualified \n            require( _isTokenApproved(nftAddress,  tokenId) ,\"Marketplace is not allowed to transfer your token\");\n\n            // transfer token to contract \n          require( _safeNFTTransfer(nftAddress,tokenId,_msgSender(),address(this)),\"NFT token couldn't be transfered\");\n\n            // update reserved\n            // create auction\n\n          require(_creatAuction( listId,nftAddress,_msgSender(),tokenId,listingPrice,   sellForEnabled,sellFor,releaseTime,qualifyAmount) ,\"Couldn't list the item\");\n\n        \n    }\n    function bid(bytes32 listingId, address tokenAddress, uint256 tokenId, uint256 bidPrice) \n        external isOpenAuction(listingId) returns (bytes32 bidId){\n         bidId = keccak256(abi.encodePacked(listingId,tokenAddress,_msgSender(),tokenId));\n         // bid should be more than than the mini and more than the last bid\n        address lastbidder= bidToListing[listingId].bidder;\n            uint256 qualifyAmount =  _tokenListings[listingId].qualifyAmount;\n         if(lastbidder==address(0)){\n             require(bidPrice>= _tokenListings[listingId].listingPrice,\"bid price must be more than or equal the minimum price\");\n\n         }else{\n            require(bidPrice>listingBids[listingId][lastbidder].bidPrice,\"bid price must be more than the last bid\");\n\n                          \n         }\n         // if this is the bidder first bid, the price will be 0 \n       uint256 prevAmount= listingBids[listingId][_msgSender()].bidPrice;\n       if(prevAmount==0){\n                  // check that he has reserved\n         require(_getStakeAllowance(_msgSender(), 0)>= qualifyAmount,\"Not enough reserves\");\n          bytes32 [] storage listings = userListing[_msgSender()];\n            listings.push(listingId);\n            userListing[_msgSender()]=listings;\n         // update user reserves\n         // reserve Zero couldn't be at any case\n        require( _updateUserReserves(_msgSender() ,qualifyAmount,true)>0,\"Reserve Zero is not allowed\");\n       }\n       \n         // bid \n         require(_bid( bidId, listingId,  tokenAddress, _msgSender(),   tokenId,   bidPrice),\"Couldn't Bid\");\n     \n        // if bid time is less than 15 min, increase by 15 min\n        // retuen bid id\n    }\n    function FullfillBid(bytes32 listingId) \n        external canFullfillBid(listingId) returns (address contractAddress,uint256 tokenId){\n         address winnerBidder= bidToListing[listingId].bidder;\n         address buyer= _tokenListings[listingId].buyer;\n           contractAddress= _tokenListings[listingId]. nftAddress;\n           tokenId= _tokenListings[listingId]. tokenId;\n        require(winnerBidder==_msgSender(),\"Caller is not the winner\");\n         // if it's new, the price will be 0 \n        uint256 bidPrice= listingBids[listingId][winnerBidder].bidPrice;\n         // check that contract is allowed to transfer tokens \n         require(_getAllowance(winnerBidder)>= bidPrice,\"Marketplace is not allowed to withdraw the required amount of tokens\");\n        // transfer price \n    \n        (address issuer,uint royaltyAmount, uint256 fees, uint256 netPrice) = _getListingFinancialInfo( contractAddress,tokenId, bidPrice) ;\n      \n       require(_safeTokenTransferFrom(owner(),buyer, fees),\"Couldn't transfer token as fees\");\n       if(issuer!=address(0)){\n       require(_safeTokenTransferFrom(issuer,buyer, royaltyAmount),\"Couldn't transfer token to issuer\");\n       }\n\n        // token value could be zero ater taking the roylty share ??? need to ask?\n        require(_safeTokenTransferFrom(winnerBidder,buyer, netPrice),\"Couldn't transfer token to buyer\");\n          // trnasfer token\n        require( _safeNFTTransfer(contractAddress,tokenId,address(this), winnerBidder),\"NFT token couldn't be transfered\");\n         // update user reserves\n         // reserve nigative couldn't be at any case\n        require( _updateUserReserves(winnerBidder,_tokenListings[listingId].qualifyAmount,false)>=0,\"negative reserve is not allowed\");\n        listingBids[listingId][_msgSender()].isPurchased=true;\n        // finish listing \n        _finalizeListing(listingId,winnerBidder, ListingStatus.Sold);\n        // if bid time is less than 15 min, increase by 15 min\n        // retuen bid id\n    }\n// delist\n    function deList(bytes32 listingId) \n        external  returns ( address contractAddress,uint256 tokenId){\n         ListingStatus status= _tokenListings[listingId].status;\n         address owner= _tokenListings[listingId].buyer;\n         address seller= _tokenListings[listingId].seller;\n           contractAddress= _tokenListings[listingId]. nftAddress;\n         uint256 releaseTime= _tokenListings[listingId]. releaseTime;\n         uint256 listingPrice= _tokenListings[listingId]. listingPrice;\n           tokenId= _tokenListings[listingId]. tokenId;\n        require(owner==_msgSender(),\"Caller is not the owner\");\n        require(seller==address(0),\"Already bought token\");\n        require(status==ListingStatus.OnMarket || status==ListingStatus.onAuction,\"Already bought or canceled token\");\n        require((releaseTime<block.timestamp && status==ListingStatus.OnMarket)|| (releaseTime>block.timestamp),\"Can't delist\");\n        uint256 fineAmount ;\n         uint256 remaining;\n        // if realse time < now , pay \n\n        if(releaseTime<block.timestamp){\n          // if it's not auction ? pay, \n         ( fineAmount ,  remaining)= _getDeListingQualAmount(listingPrice);\n              //TODO: deduct the fine from his stake contract \n               require(_deduct(owner, address(0) /*owner()*/, fineAmount),\"couldn't deduct the fine\");\n        }else{\n       remaining=  _getListingQualAmount( listingPrice);\n        }\n\n        // trnasfer token\n        require( _safeNFTTransfer(contractAddress,tokenId,address(this), owner),\"NFT token couldn't be transfered\");\n         // update user reserves\n         // reserve nigative couldn't be at any case\n        require( _updateUserReserves(_msgSender() ,remaining,false)>=0,\"negative reserve is not allowed\");\n        // finish listing \n         _finalizeListing(listingId,address(0),ListingStatus.Canceled);\n        // if bid time is less than 15 min, increase by 15 min\n        // retuen bid id\n    }\n\n\n// buynow\n    function buyNow(bytes32 listingId, uint256 price) \n        external  returns (address contractAddress,uint256 tokenId){\n          bool sellForEnabled= _tokenListings[listingId].sellForEnabled;\n         address buyer= _tokenListings[listingId].buyer;\n           contractAddress= _tokenListings[listingId]. nftAddress;\n           tokenId= _tokenListings[listingId]. tokenId;\n         require(price>=_tokenListings[listingId]. listingPrice,\"Invalid price\");\n        require(_tokenListings[listingId].status==ListingStatus.OnMarket || (_tokenListings[listingId].status==ListingStatus.onAuction && sellForEnabled==true && _tokenListings[listingId].releaseTime> block.timestamp ),\"Token isnot for sale \");\n         // check that contract is allowed to transfer tokens \n         require(_getAllowance(_msgSender())>= price,\"Marketplace is not allowed to withdraw the required amount of tokens\");\n        // transfer price \n    \n        (address issuer,uint royaltyAmount, uint256 fees, uint256 netPrice) = _getListingFinancialInfo( contractAddress,tokenId, price) ;\n      \n       require(_safeTokenTransferFrom(owner(),buyer, fees),\"Couldn't transfer token as fees\");\n       if(issuer!=address(0)){\n       require(_safeTokenTransferFrom(issuer,buyer, royaltyAmount),\"Couldn't transfer token to issuer\");\n       }\n\n        // token value could be zero ater taking the roylty share ??? need to ask?\n        require(_safeTokenTransferFrom(_msgSender(),buyer, netPrice),\"Couldn't transfer token to buyer\");\n          // trnasfer token\n        require( _safeNFTTransfer(contractAddress,tokenId,address(this), _msgSender()),\"NFT token couldn't be transfered\");\n           uint256 ListingQualAmount =  _getListingQualAmount( _tokenListings[listingId]. listingPrice);\n\n            require( _updateUserReserves(buyer ,ListingQualAmount,false)>=0,\"negative reserve is not allowed\");\n\n        // finish listing \n        _finalizeListing(listingId,_msgSender(), ListingStatus.Sold);\n        // if bid time is less than 15 min, increase by 15 min\n        // retuen bid id\n    }\n// dispute aucation\n// after auction with winner bid \n// bidder didn't call fullfile within 3 days of auction closing \n// auction owner can call dispute to delist and punish the spam winner bidder\n// fine is share between the plateform and the auction owner\n    function disputeAuction(bytes32 listingId) \n        external  returns (address contractAddress,uint256 tokenId){\n         address winnerBidder= bidToListing[listingId].bidder;\n         address buyer= _tokenListings[listingId].buyer;\n           contractAddress= _tokenListings[listingId]. nftAddress;\n           tokenId= _tokenListings[listingId]. tokenId;\n         require(winnerBidder!=address(0) && _tokenListings[listingId]. releaseTime>=block.timestamp,\"No bids or still running auction\");\n       require(buyer==_msgSender(),\"Caller is not the owner\");\n      require(!listingBids[listingId][winnerBidder].isPurchased,\"Already purchased\");\n          // call staking contract to deduct \n          // trnasfer token\n        require( _safeNFTTransfer(contractAddress,tokenId,address(this),buyer),\"NFT token couldn't be transfered\");\n    \n        // finish listing \n         _finalizeListing(listingId,address(0),ListingStatus.Canceled);\n        // if bid time is less than 15 min, increase by 15 min\n        // retuen bid id\n    }\n    function freeReserves() external returns (uint256 curentReserves) {\n      // TODo: Check allternative for gas consumptions\n      // iterate over the listng key map \n      // if it's sold, canceled,  free if he is participating on this listing\n\n            bytes32 [] memory listings = userListing[_msgSender()];\n            delete userListing[_msgSender()];\n            bytes32 [] storage newListings = userListing[_msgSender()]  ;\n             \n\n            // loop\n        for (uint256 index = 0; index < listings.length; index++) {\n        if( _tokenListings[ listings[index]].status==ListingStatus.onAuction\n              ||  _tokenListings[ listings[index]].status==ListingStatus.OnMarket){\n              newListings.push(listings[index]);\n              curentReserves = _calcSum(curentReserves,_tokenListings[ listings[index]].qualifyAmount);\n\n        }\n        }       \n      userListing[_msgSender()]=newListings;\n      require( _setUserReserves(_msgSender() ,curentReserves),\"set reserve faild\");\n\n    }\n}",
  "sourcePath": "/home/yehia/Documents/startups/Startfi/projects/startfi/startfi-core/contracts/StartFiMarketPlace.sol",
  "compiler": {
    "name": "solc",
    "version": "0.8.0+commit.c7dfd78e.Emscripten.clang"
  },
  "schemaVersion": "3.4.1",
  "updatedAt": "2021-06-26T22:12:15.596Z",
  "networkType": "ethereum",
  "devdoc": {
    "kind": "dev",
    "methods": {
      "getServiceFee()": {
        "returns": {
          "_0": "the value of the state variable `_feeFraction`"
        }
      },
      "marketPlaceName()": {
        "returns": {
          "_0": "market place name"
        }
      },
      "onERC721Received(address,address,uint256,bytes)": {
        "details": "See {IERC721Receiver-onERC721Received}. Always returns `IERC721Receiver.onERC721Received.selector`."
      },
      "owner()": {
        "details": "Returns the address of the current owner."
      },
      "paused()": {
        "details": "Returns true if the contract is paused, and false otherwise."
      },
      "renounceOwnership()": {
        "details": "Leaves the contract without owner. It will not be possible to call `onlyOwner` functions anymore. Can only be called by the current owner. NOTE: Renouncing ownership will leave the contract without an owner, thereby removing any functionality that is only available to the owner."
      },
      "transferOwnership(address)": {
        "details": "Transfers ownership of the contract to a new account (`newOwner`). Can only be called by the current owner."
      }
    },
    "title": "NFTKEY MarketPlace contract V1 Note: This marketplace contract is collection based. It serves one ERC721 contract only Payment tokens usually is the chain native coin's wrapped token, e.g. WETH, WBNB",
    "version": 1
  },
  "userdoc": {
    "kind": "user",
    "methods": {},
    "version": 1
  }
}