{
  "contractName": "StartFiNFTPayment",
  "abi": [
    {
      "inputs": [
        {
          "internalType": "address",
          "name": "_nftAddress",
          "type": "address"
        },
        {
          "internalType": "address",
          "name": "_paymentTokesnAddress",
          "type": "address"
        }
      ],
      "stateMutability": "nonpayable",
      "type": "constructor"
    },
    {
      "anonymous": false,
      "inputs": [
        {
          "indexed": true,
          "internalType": "address",
          "name": "previousOwner",
          "type": "address"
        },
        {
          "indexed": true,
          "internalType": "address",
          "name": "newOwner",
          "type": "address"
        }
      ],
      "name": "OwnershipTransferred",
      "type": "event"
    },
    {
      "inputs": [],
      "name": "owner",
      "outputs": [
        {
          "internalType": "address",
          "name": "",
          "type": "address"
        }
      ],
      "stateMutability": "view",
      "type": "function"
    },
    {
      "inputs": [],
      "name": "renounceOwnership",
      "outputs": [],
      "stateMutability": "nonpayable",
      "type": "function"
    },
    {
      "inputs": [
        {
          "internalType": "address",
          "name": "newOwner",
          "type": "address"
        }
      ],
      "name": "transferOwnership",
      "outputs": [],
      "stateMutability": "nonpayable",
      "type": "function"
    },
    {
      "inputs": [],
      "name": "info",
      "outputs": [
        {
          "internalType": "address",
          "name": "",
          "type": "address"
        },
        {
          "internalType": "address",
          "name": "",
          "type": "address"
        },
        {
          "internalType": "uint256",
          "name": "",
          "type": "uint256"
        }
      ],
      "stateMutability": "view",
      "type": "function"
    },
    {
      "inputs": [
        {
          "internalType": "address",
          "name": "to",
          "type": "address"
        },
        {
          "internalType": "string",
          "name": "_tokenURI",
          "type": "string"
        },
        {
          "internalType": "uint8",
          "name": "share",
          "type": "uint8"
        },
        {
          "internalType": "uint8",
          "name": "base",
          "type": "uint8"
        }
      ],
      "name": "MintNFTWithRoyalty",
      "outputs": [
        {
          "internalType": "uint256",
          "name": "",
          "type": "uint256"
        }
      ],
      "stateMutability": "nonpayable",
      "type": "function"
    },
    {
      "inputs": [
        {
          "internalType": "address",
          "name": "to",
          "type": "address"
        },
        {
          "internalType": "string",
          "name": "_tokenURI",
          "type": "string"
        }
      ],
      "name": "MintNFTWithoutRoyalty",
      "outputs": [
        {
          "internalType": "uint256",
          "name": "",
          "type": "uint256"
        }
      ],
      "stateMutability": "nonpayable",
      "type": "function"
    },
    {
      "inputs": [
        {
          "internalType": "uint256",
          "name": "newFees",
          "type": "uint256"
        }
      ],
      "name": "changeFees",
      "outputs": [],
      "stateMutability": "nonpayable",
      "type": "function"
    },
    {
      "inputs": [
        {
          "internalType": "address",
          "name": "_nftAddress",
          "type": "address"
        }
      ],
      "name": "changeNftContract",
      "outputs": [],
      "stateMutability": "nonpayable",
      "type": "function"
    },
    {
      "inputs": [
        {
          "internalType": "address",
          "name": "_paymentTokesnAddress",
          "type": "address"
        }
      ],
      "name": "changeTokenContract",
      "outputs": [],
      "stateMutability": "nonpayable",
      "type": "function"
    }
  ],
  "bytecode": "0x6080604052600560015534801561001557600080fd5b50604051610f70380380610f70833981016040819052610034916100d9565b600061003e6100b9565b600080546001600160a01b0319166001600160a01b0383169081178255604051929350917f8be0079c531659141344cd1fd0a4f28419497f9722a3daafe3b4186f6b6457e0908290a350600280546001600160a01b039384166001600160a01b0319918216179091556003805492909316911617905561010b565b3390565b80516001600160a01b03811681146100d457600080fd5b919050565b600080604083850312156100eb578182fd5b6100f4836100bd565b9150610102602084016100bd565b90509250929050565b610e568061011a6000396000f3fe608060405234801561001057600080fd5b50600436106100a35760003560e01c8063715018a6116100765780638da5cb5b1161005b5780638da5cb5b1461012b578063a3db174414610140578063f2fde38b14610153576100a3565b8063715018a6146101105780638606e60414610118576100a3565b8063370158ea146100a85780634f43eee4146100c8578063523aee69146100e85780636cda375b146100fd575b600080fd5b6100b0610166565b6040516100bf93929190610c6d565b60405180910390f35b6100db6100d6366004610ab3565b61018f565b6040516100bf9190610de8565b6100fb6100f6366004610a99565b610338565b005b6100fb61010b366004610b8c565b6103f2565b6100fb61046a565b6100fb610126366004610a99565b61054c565b610133610606565b6040516100bf9190610c25565b6100db61014e366004610aff565b610622565b6100fb610161366004610a99565b6107c3565b60025460035460015473ffffffffffffffffffffffffffffffffffffffff928316939290911691565b60006001546101a461019f610910565b610914565b10156101e5576040517f08c379a00000000000000000000000000000000000000000000000000000000081526004016101dc90610d7c565b60405180910390fd5b60035473ffffffffffffffffffffffffffffffffffffffff166323b872dd61020b610910565b610213610606565b6001546040518463ffffffff1660e01b815260040161023493929190610c6d565b602060405180830381600087803b15801561024e57600080fd5b505af1158015610262573d6000803e3d6000fd5b505050506040513d601f19601f820116820180604052508101906102869190610b6c565b506002546040517fd0def52100000000000000000000000000000000000000000000000000000000815273ffffffffffffffffffffffffffffffffffffffff9091169063d0def521906102df9086908690600401610c9e565b602060405180830381600087803b1580156102f957600080fd5b505af115801561030d573d6000803e3d6000fd5b505050506040513d601f19601f820116820180604052508101906103319190610ba4565b9392505050565b610340610910565b73ffffffffffffffffffffffffffffffffffffffff1661035e610606565b73ffffffffffffffffffffffffffffffffffffffff16146103ab576040517f08c379a00000000000000000000000000000000000000000000000000000000081526004016101dc90610db3565b600380547fffffffffffffffffffffffff00000000000000000000000000000000000000001673ffffffffffffffffffffffffffffffffffffffff92909216919091179055565b6103fa610910565b73ffffffffffffffffffffffffffffffffffffffff16610418610606565b73ffffffffffffffffffffffffffffffffffffffff1614610465576040517f08c379a00000000000000000000000000000000000000000000000000000000081526004016101dc90610db3565b600155565b610472610910565b73ffffffffffffffffffffffffffffffffffffffff16610490610606565b73ffffffffffffffffffffffffffffffffffffffff16146104dd576040517f08c379a00000000000000000000000000000000000000000000000000000000081526004016101dc90610db3565b6000805460405173ffffffffffffffffffffffffffffffffffffffff909116907f8be0079c531659141344cd1fd0a4f28419497f9722a3daafe3b4186f6b6457e0908390a3600080547fffffffffffffffffffffffff0000000000000000000000000000000000000000169055565b610554610910565b73ffffffffffffffffffffffffffffffffffffffff16610572610606565b73ffffffffffffffffffffffffffffffffffffffff16146105bf576040517f08c379a00000000000000000000000000000000000000000000000000000000081526004016101dc90610db3565b600280547fffffffffffffffffffffffff00000000000000000000000000000000000000001673ffffffffffffffffffffffffffffffffffffffff92909216919091179055565b60005473ffffffffffffffffffffffffffffffffffffffff1690565b600060015461063261019f610910565b101561066a576040517f08c379a00000000000000000000000000000000000000000000000000000000081526004016101dc90610d7c565b60035473ffffffffffffffffffffffffffffffffffffffff166323b872dd610690610910565b610698610606565b6001546040518463ffffffff1660e01b81526004016106b993929190610c6d565b602060405180830381600087803b1580156106d357600080fd5b505af11580156106e7573d6000803e3d6000fd5b505050506040513d601f19601f8201168201806040525081019061070b9190610b6c565b506002546040517fd0ba955800000000000000000000000000000000000000000000000000000000815273ffffffffffffffffffffffffffffffffffffffff9091169063d0ba955890610768908890889088908890600401610cd5565b602060405180830381600087803b15801561078257600080fd5b505af1158015610796573d6000803e3d6000fd5b505050506040513d601f19601f820116820180604052508101906107ba9190610ba4565b95945050505050565b6107cb610910565b73ffffffffffffffffffffffffffffffffffffffff166107e9610606565b73ffffffffffffffffffffffffffffffffffffffff1614610836576040517f08c379a00000000000000000000000000000000000000000000000000000000081526004016101dc90610db3565b73ffffffffffffffffffffffffffffffffffffffff8116610883576040517f08c379a00000000000000000000000000000000000000000000000000000000081526004016101dc90610d1f565b6000805460405173ffffffffffffffffffffffffffffffffffffffff808516939216917f8be0079c531659141344cd1fd0a4f28419497f9722a3daafe3b4186f6b6457e091a3600080547fffffffffffffffffffffffff00000000000000000000000000000000000000001673ffffffffffffffffffffffffffffffffffffffff92909216919091179055565b3390565b6003546040517fdd62ed3e00000000000000000000000000000000000000000000000000000000815260009173ffffffffffffffffffffffffffffffffffffffff169063dd62ed3e9061096d9085903090600401610c46565b60206040518083038186803b15801561098557600080fd5b505afa158015610999573d6000803e3d6000fd5b505050506040513d601f19601f820116820180604052508101906109bd9190610ba4565b90505b919050565b803573ffffffffffffffffffffffffffffffffffffffff811681146109c057600080fd5b600082601f8301126109f9578081fd5b813567ffffffffffffffff80821115610a1457610a14610df1565b60405160207fffffffffffffffffffffffffffffffffffffffffffffffffffffffffffffffe0601f8501168201018181108382111715610a5657610a56610df1565b604052828152848301602001861015610a6d578384fd5b82602086016020830137918201602001929092529392505050565b803560ff811681146109c057600080fd5b600060208284031215610aaa578081fd5b610331826109c5565b60008060408385031215610ac5578081fd5b610ace836109c5565b9150602083013567ffffffffffffffff811115610ae9578182fd5b610af5858286016109e9565b9150509250929050565b60008060008060808587031215610b14578182fd5b610b1d856109c5565b9350602085013567ffffffffffffffff811115610b38578283fd5b610b44878288016109e9565b935050610b5360408601610a88565b9150610b6160608601610a88565b905092959194509250565b600060208284031215610b7d578081fd5b81518015158114610331578182fd5b600060208284031215610b9d578081fd5b5035919050565b600060208284031215610bb5578081fd5b5051919050565b60008151808452815b81811015610be157602081850181015186830182015201610bc5565b81811115610bf25782602083870101525b50601f017fffffffffffffffffffffffffffffffffffffffffffffffffffffffffffffffe0169290920160200192915050565b73ffffffffffffffffffffffffffffffffffffffff91909116815260200190565b73ffffffffffffffffffffffffffffffffffffffff92831681529116602082015260400190565b73ffffffffffffffffffffffffffffffffffffffff9384168152919092166020820152604081019190915260600190565b600073ffffffffffffffffffffffffffffffffffffffff8416825260406020830152610ccd6040830184610bbc565b949350505050565b600073ffffffffffffffffffffffffffffffffffffffff8616825260806020830152610d046080830186610bbc565b60ff9485166040840152929093166060909101529392505050565b60208082526026908201527f4f776e61626c653a206e6577206f776e657220697320746865207a65726f206160408201527f6464726573730000000000000000000000000000000000000000000000000000606082015260800190565b60208082526014908201527f4e6f7420656e6f75676820666565732070616964000000000000000000000000604082015260600190565b6020808252818101527f4f776e61626c653a2063616c6c6572206973206e6f7420746865206f776e6572604082015260600190565b90815260200190565b7f4e487b7100000000000000000000000000000000000000000000000000000000600052604160045260246000fdfea2646970667358221220c3542c1ad1cf3392a4e938bd704150d57511fd4b8f2a3288835d26bef9fe8a0364736f6c63430008000033",
  "immutableReferences": {},
  "source": "// SPDX-License-Identifier: AGPL-3.0-or-later\n\npragma solidity >=0.8.0;\nimport \"@openzeppelin/contracts/token/ERC20/IERC20.sol\";\nimport \"@openzeppelin/contracts/access/Ownable.sol\";\n import \"./interface/IERC721RoyaltyMinter.sol\";\n\ncontract StartFiNFTPayment is Ownable {\n /******************************************* decalrations go here ********************************************************* */\n     uint256 _fees=5;\n     address private _NFTToken;\n    address private _paymentToken;\n\n /******************************************* constructor goes here ********************************************************* */\n\n  constructor(\n        address _nftAddress ,\n        address _paymentTokesnAddress\n    )   {\n         \n       \n        _NFTToken = _nftAddress;\n        _paymentToken = _paymentTokesnAddress;\n    }\n\n     /******************************************* read state functions go here ********************************************************* */\n  function _getAllowance(address owner) view private returns (uint256 ) {\n        return IERC20(_paymentToken).allowance( owner, address(this));\n    }\n    function info() view external returns (address,address,uint256) {\n        return(_NFTToken,_paymentToken,_fees);\n    }\n  /******************************************* state functions go here ********************************************************* */\nfunction MintNFTWithRoyalty(address to, string memory _tokenURI,uint8 share,uint8 base) external returns(uint256){\n    require(_getAllowance(_msgSender())>=_fees,\"Not enough fees paid\");\n    IERC20(_paymentToken). transferFrom(_msgSender(),owner(),  _fees);\n return  IERC721RoyaltyMinter(_NFTToken). mintWithRoyalty(to, _tokenURI, share,base);\n}\nfunction MintNFTWithoutRoyalty(address to, string memory _tokenURI) external returns(uint256){\n    require(_getAllowance(_msgSender())>=_fees,\"Not enough fees paid\");\n    IERC20(_paymentToken). transferFrom(_msgSender(),owner(),  _fees);\n return  IERC721RoyaltyMinter(_NFTToken). mint(to, _tokenURI);\n}\n   function changeFees(uint256 newFees) external onlyOwner   {\n         // fees is a value between 1-3 %\n         _fees=newFees;\n         \n     }\n   function changeNftContract(address _nftAddress) external onlyOwner   {\n     _NFTToken = _nftAddress;\n         \n     }\n   function changeTokenContract(address _paymentTokesnAddress) external onlyOwner   {\n      _paymentToken = _paymentTokesnAddress;\n         \n     }\n}\n",
  "sourcePath": "/home/yehia/Documents/startups/Startfi/projects/startfi/startfi-core/contracts/StartFiNFTPayment.sol",
  "compiler": {
    "name": "solc",
    "version": "0.8.0+commit.c7dfd78e.Emscripten.clang"
  },
  "schemaVersion": "3.4.1",
  "updatedAt": "2021-06-26T22:12:15.560Z",
  "networkType": "ethereum",
  "devdoc": {
    "kind": "dev",
    "methods": {
      "owner()": {
        "details": "Returns the address of the current owner."
      },
      "renounceOwnership()": {
        "details": "Leaves the contract without owner. It will not be possible to call `onlyOwner` functions anymore. Can only be called by the current owner. NOTE: Renouncing ownership will leave the contract without an owner, thereby removing any functionality that is only available to the owner."
      },
      "transferOwnership(address)": {
        "details": "Transfers ownership of the contract to a new account (`newOwner`). Can only be called by the current owner."
      }
    },
    "version": 1
  },
  "userdoc": {
    "kind": "user",
    "methods": {},
    "version": 1
  }
}