{
  "_format": "hh-sol-artifact-1",
  "contractName": "StartFiNFTPayment",
  "sourceName": "contracts/StartFiNFTPayment.sol",
  "abi": [
    {
      "inputs": [
        {
          "internalType": "address",
          "name": "_nftAddress",
          "type": "address"
        },
        {
          "internalType": "address",
          "name": "_paymentTokesnAddress",
          "type": "address"
        }
      ],
      "stateMutability": "nonpayable",
      "type": "constructor"
    },
    {
      "anonymous": false,
      "inputs": [
        {
          "indexed": true,
          "internalType": "address",
          "name": "previousOwner",
          "type": "address"
        },
        {
          "indexed": true,
          "internalType": "address",
          "name": "newOwner",
          "type": "address"
        }
      ],
      "name": "OwnershipTransferred",
      "type": "event"
    },
    {
      "inputs": [
        {
          "internalType": "address",
          "name": "to",
          "type": "address"
        },
        {
          "internalType": "string",
          "name": "_tokenURI",
          "type": "string"
        },
        {
          "internalType": "uint8",
          "name": "share",
          "type": "uint8"
        },
        {
          "internalType": "uint8",
          "name": "base",
          "type": "uint8"
        }
      ],
      "name": "MintNFTWithRoyalty",
      "outputs": [
        {
          "internalType": "uint256",
          "name": "",
          "type": "uint256"
        }
      ],
      "stateMutability": "nonpayable",
      "type": "function"
    },
    {
      "inputs": [
        {
          "internalType": "address",
          "name": "to",
          "type": "address"
        },
        {
          "internalType": "string",
          "name": "_tokenURI",
          "type": "string"
        }
      ],
      "name": "MintNFTWithoutRoyalty",
      "outputs": [
        {
          "internalType": "uint256",
          "name": "",
          "type": "uint256"
        }
      ],
      "stateMutability": "nonpayable",
      "type": "function"
    },
    {
      "inputs": [
        {
          "internalType": "uint256",
          "name": "newFees",
          "type": "uint256"
        }
      ],
      "name": "changeFees",
      "outputs": [],
      "stateMutability": "nonpayable",
      "type": "function"
    },
    {
      "inputs": [
        {
          "internalType": "address",
          "name": "_nftAddress",
          "type": "address"
        }
      ],
      "name": "changeNftContract",
      "outputs": [],
      "stateMutability": "nonpayable",
      "type": "function"
    },
    {
      "inputs": [
        {
          "internalType": "address",
          "name": "_paymentTokesnAddress",
          "type": "address"
        }
      ],
      "name": "changeTokenContract",
      "outputs": [],
      "stateMutability": "nonpayable",
      "type": "function"
    },
    {
      "inputs": [],
      "name": "info",
      "outputs": [
        {
          "internalType": "address",
          "name": "",
          "type": "address"
        },
        {
          "internalType": "address",
          "name": "",
          "type": "address"
        },
        {
          "internalType": "uint256",
          "name": "",
          "type": "uint256"
        }
      ],
      "stateMutability": "view",
      "type": "function"
    },
    {
      "inputs": [],
      "name": "owner",
      "outputs": [
        {
          "internalType": "address",
          "name": "",
          "type": "address"
        }
      ],
      "stateMutability": "view",
      "type": "function"
    },
    {
      "inputs": [],
      "name": "renounceOwnership",
      "outputs": [],
      "stateMutability": "nonpayable",
      "type": "function"
    },
    {
      "inputs": [
        {
          "internalType": "address",
          "name": "newOwner",
          "type": "address"
        }
      ],
      "name": "transferOwnership",
      "outputs": [],
      "stateMutability": "nonpayable",
      "type": "function"
    }
  ],
  "bytecode": "0x6080604052600560015534801561001557600080fd5b50604051610bfb380380610bfb833981016040819052610034916100d9565b600061003e6100b9565b600080546001600160a01b0319166001600160a01b0383169081178255604051929350917f8be0079c531659141344cd1fd0a4f28419497f9722a3daafe3b4186f6b6457e0908290a350600280546001600160a01b039384166001600160a01b0319918216179091556003805492909316911617905561010b565b3390565b80516001600160a01b03811681146100d457600080fd5b919050565b600080604083850312156100eb578182fd5b6100f4836100bd565b9150610102602084016100bd565b90509250929050565b610ae18061011a6000396000f3fe608060405234801561001057600080fd5b50600436106100935760003560e01c8063715018a611610066578063715018a6146101005780638606e604146101085780638da5cb5b1461011b578063a3db174414610130578063f2fde38b1461014357610093565b8063370158ea146100985780634f43eee4146100b8578063523aee69146100d85780636cda375b146100ed575b600080fd5b6100a0610156565b6040516100af93929190610954565b60405180910390f35b6100cb6100c63660046107d2565b610172565b6040516100af9190610a8c565b6100eb6100e63660046107b8565b6102ce565b005b6100eb6100fb3660046108ab565b61032f565b6100eb610373565b6100eb6101163660046107b8565b6103fc565b61012361045d565b6040516100af9190610926565b6100cb61013e36600461081e565b61046c565b6100eb6101513660046107b8565b6105c0565b6002546003546001546001600160a01b03928316939290911691565b6000600154610187610182610680565b610684565b10156101ae5760405162461bcd60e51b81526004016101a590610a29565b60405180910390fd5b6003546001600160a01b03166323b872dd6101c7610680565b6101cf61045d565b6001546040518463ffffffff1660e01b81526004016101f093929190610954565b602060405180830381600087803b15801561020a57600080fd5b505af115801561021e573d6000803e3d6000fd5b505050506040513d601f19601f82011682018060405250810190610242919061088b565b5060025460405163d0def52160e01b81526001600160a01b039091169063d0def521906102759086908690600401610978565b602060405180830381600087803b15801561028f57600080fd5b505af11580156102a3573d6000803e3d6000fd5b505050506040513d601f19601f820116820180604052508101906102c791906108c3565b9392505050565b6102d6610680565b6001600160a01b03166102e761045d565b6001600160a01b03161461030d5760405162461bcd60e51b81526004016101a590610a57565b600380546001600160a01b0319166001600160a01b0392909216919091179055565b610337610680565b6001600160a01b031661034861045d565b6001600160a01b03161461036e5760405162461bcd60e51b81526004016101a590610a57565b600155565b61037b610680565b6001600160a01b031661038c61045d565b6001600160a01b0316146103b25760405162461bcd60e51b81526004016101a590610a57565b600080546040516001600160a01b03909116907f8be0079c531659141344cd1fd0a4f28419497f9722a3daafe3b4186f6b6457e0908390a3600080546001600160a01b0319169055565b610404610680565b6001600160a01b031661041561045d565b6001600160a01b03161461043b5760405162461bcd60e51b81526004016101a590610a57565b600280546001600160a01b0319166001600160a01b0392909216919091179055565b6000546001600160a01b031690565b600060015461047c610182610680565b101561049a5760405162461bcd60e51b81526004016101a590610a29565b6003546001600160a01b03166323b872dd6104b3610680565b6104bb61045d565b6001546040518463ffffffff1660e01b81526004016104dc93929190610954565b602060405180830381600087803b1580156104f657600080fd5b505af115801561050a573d6000803e3d6000fd5b505050506040513d601f19601f8201168201806040525081019061052e919061088b565b50600254604051631a1752ab60e31b81526001600160a01b039091169063d0ba9558906105659088908890889088906004016109a4565b602060405180830381600087803b15801561057f57600080fd5b505af1158015610593573d6000803e3d6000fd5b505050506040513d601f19601f820116820180604052508101906105b791906108c3565b95945050505050565b6105c8610680565b6001600160a01b03166105d961045d565b6001600160a01b0316146105ff5760405162461bcd60e51b81526004016101a590610a57565b6001600160a01b0381166106255760405162461bcd60e51b81526004016101a5906109e3565b600080546040516001600160a01b03808516939216917f8be0079c531659141344cd1fd0a4f28419497f9722a3daafe3b4186f6b6457e091a3600080546001600160a01b0319166001600160a01b0392909216919091179055565b3390565b600354604051636eb1769f60e11b81526000916001600160a01b03169063dd62ed3e906106b7908590309060040161093a565b60206040518083038186803b1580156106cf57600080fd5b505afa1580156106e3573d6000803e3d6000fd5b505050506040513d601f19601f8201168201806040525081019061070791906108c3565b90505b919050565b80356001600160a01b038116811461070a57600080fd5b600082601f830112610736578081fd5b813567ffffffffffffffff8082111561075157610751610a95565b604051601f8301601f19168101602001828111828210171561077557610775610a95565b60405282815284830160200186101561078c578384fd5b82602086016020830137918201602001929092529392505050565b803560ff8116811461070a57600080fd5b6000602082840312156107c9578081fd5b6102c78261070f565b600080604083850312156107e4578081fd5b6107ed8361070f565b9150602083013567ffffffffffffffff811115610808578182fd5b61081485828601610726565b9150509250929050565b60008060008060808587031215610833578182fd5b61083c8561070f565b9350602085013567ffffffffffffffff811115610857578283fd5b61086387828801610726565b935050610872604086016107a7565b9150610880606086016107a7565b905092959194509250565b60006020828403121561089c578081fd5b815180151581146102c7578182fd5b6000602082840312156108bc578081fd5b5035919050565b6000602082840312156108d4578081fd5b5051919050565b60008151808452815b81811015610900576020818501810151868301820152016108e4565b818111156109115782602083870101525b50601f01601f19169290920160200192915050565b6001600160a01b0391909116815260200190565b6001600160a01b0392831681529116602082015260400190565b6001600160a01b039384168152919092166020820152604081019190915260600190565b6001600160a01b038316815260406020820181905260009061099c908301846108db565b949350505050565b6001600160a01b03851681526080602082018190526000906109c8908301866108db565b60ff9485166040840152929093166060909101529392505050565b60208082526026908201527f4f776e61626c653a206e6577206f776e657220697320746865207a65726f206160408201526564647265737360d01b606082015260800190565b602080825260149082015273139bdd08195b9bdd59da081999595cc81c185a5960621b604082015260600190565b6020808252818101527f4f776e61626c653a2063616c6c6572206973206e6f7420746865206f776e6572604082015260600190565b90815260200190565b634e487b7160e01b600052604160045260246000fdfea2646970667358221220d431e76e5c7ad732c2f2b6e263ed78251f452286ac59d8a3a51ee865b1dde47264736f6c63430008000033",
  "linkReferences": {},
  "deployedLinkReferences": {}
}