{
  "contractName": "StartfiMarketPlaceFinance",
  "abi": [
    {
      "inputs": [
        {
          "internalType": "string",
          "name": "_name",
          "type": "string"
        },
        {
          "internalType": "address",
          "name": "_paymentTokesnAddress",
          "type": "address"
        }
      ],
      "stateMutability": "nonpayable",
      "type": "constructor"
    },
    {
      "inputs": [],
      "name": "delistFeesPercentage",
      "outputs": [
        {
          "internalType": "uint256",
          "name": "",
          "type": "uint256"
        }
      ],
      "stateMutability": "view",
      "type": "function"
    },
    {
      "inputs": [],
      "name": "listqualifyPercentage",
      "outputs": [
        {
          "internalType": "uint256",
          "name": "",
          "type": "uint256"
        }
      ],
      "stateMutability": "view",
      "type": "function"
    },
    {
      "inputs": [],
      "name": "marketPlaceName",
      "outputs": [
        {
          "internalType": "string",
          "name": "",
          "type": "string"
        }
      ],
      "stateMutability": "view",
      "type": "function"
    },
    {
      "inputs": [
        {
          "internalType": "address",
          "name": "",
          "type": "address"
        },
        {
          "internalType": "address",
          "name": "",
          "type": "address"
        },
        {
          "internalType": "uint256",
          "name": "",
          "type": "uint256"
        },
        {
          "internalType": "bytes",
          "name": "",
          "type": "bytes"
        }
      ],
      "name": "onERC721Received",
      "outputs": [
        {
          "internalType": "bytes4",
          "name": "",
          "type": "bytes4"
        }
      ],
      "stateMutability": "nonpayable",
      "type": "function"
    },
    {
      "inputs": [],
      "name": "stakeContract",
      "outputs": [
        {
          "internalType": "address",
          "name": "",
          "type": "address"
        }
      ],
      "stateMutability": "view",
      "type": "function"
    },
    {
      "inputs": [
        {
          "internalType": "address",
          "name": "user",
          "type": "address"
        }
      ],
      "name": "getUserReserved",
      "outputs": [
        {
          "internalType": "uint256",
          "name": "",
          "type": "uint256"
        }
      ],
      "stateMutability": "view",
      "type": "function"
    },
    {
      "inputs": [],
      "name": "getServiceFee",
      "outputs": [
        {
          "internalType": "uint8",
          "name": "",
          "type": "uint8"
        }
      ],
      "stateMutability": "view",
      "type": "function"
    }
  ],
  "bytecode": "0x608060405260018054600160c01b632a55205a63ffffffff199092169190911760ff60c01b19161760ff60c81b1916601960ca1b1781556002819055600381905560045534801561004f57600080fd5b506040516107ac3803806107ac83398101604081905261006e9161016b565b815182906100839060009060208401906100b6565b5050600180546001600160a01b0390921664010000000002600160201b600160c01b031990921691909117905550610291565b8280546100c290610240565b90600052602060002090601f0160209004810192826100e4576000855561012a565b82601f106100fd57805160ff191683800117855561012a565b8280016001018555821561012a579182015b8281111561012a57825182559160200191906001019061010f565b5061013692915061013a565b5090565b5b80821115610136576000815560010161013b565b80516001600160a01b038116811461016657600080fd5b919050565b6000806040838503121561017d578182fd5b82516001600160401b0380821115610193578384fd5b818501915085601f8301126101a6578384fd5b8151818111156101b8576101b861027b565b6040516020601f8301601f19168201810184811183821017156101dd576101dd61027b565b60405282825284830181018910156101f3578687fd5b8693505b8284101561021457848401810151828501820152928301926101f7565b8284111561022457868184840101525b81965061023281890161014f565b955050505050509250929050565b60028104600182168061025457607f821691505b6020821081141561027557634e487b7160e01b600052602260045260246000fd5b50919050565b634e487b7160e01b600052604160045260246000fd5b61050c806102a06000396000f3fe608060405234801561001057600080fd5b506004361061007d5760003560e01c80631f78fd0b1161005b5780631f78fd0b146100d5578063649ee683146100f55780636b041547146100fd5780638ef291e9146101055761007d565b806311a1933c14610082578063150b7a02146100a05780631a186227146100c0575b600080fd5b61008a61011a565b6040516100979190610445565b60405180910390f35b6100b36100ae366004610293565b61013f565b604051610097919061039e565b6100c8610168565b604051610097919061037d565b6100e86100e3366004610272565b610184565b604051610097919061043c565b6100e86101b0565b6100e86101b6565b61010d6101bc565b60405161009791906103cb565b6001547801000000000000000000000000000000000000000000000000900460ff1690565b7f150b7a0200000000000000000000000000000000000000000000000000000000949350505050565b60075473ffffffffffffffffffffffffffffffffffffffff1681565b73ffffffffffffffffffffffffffffffffffffffff81166000908152600560205260409020545b919050565b60045481565b60035481565b6060600080546101cb90610453565b80601f01602080910402602001604051908101604052809291908181526020018280546101f790610453565b80156102445780601f1061021957610100808354040283529160200191610244565b820191906000526020600020905b81548152906001019060200180831161022757829003601f168201915b5050505050905090565b803573ffffffffffffffffffffffffffffffffffffffff811681146101ab57600080fd5b600060208284031215610283578081fd5b61028c8261024e565b9392505050565b600080600080608085870312156102a8578283fd5b6102b18561024e565b935060206102c081870161024e565b935060408601359250606086013567ffffffffffffffff808211156102e3578384fd5b818801915088601f8301126102f6578384fd5b813581811115610308576103086104a7565b604051847fffffffffffffffffffffffffffffffffffffffffffffffffffffffffffffffe0601f8401168201018181108482111715610349576103496104a7565b60405281815283820185018b101561035f578586fd5b81858501868301379081019093019390935250939692955090935050565b73ffffffffffffffffffffffffffffffffffffffff91909116815260200190565b7fffffffff0000000000000000000000000000000000000000000000000000000091909116815260200190565b6000602080835283518082850152825b818110156103f7578581018301518582016040015282016103db565b818111156104085783604083870101525b50601f017fffffffffffffffffffffffffffffffffffffffffffffffffffffffffffffffe016929092016040019392505050565b90815260200190565b60ff91909116815260200190565b60028104600182168061046757607f821691505b602082108114156104a1577f4e487b7100000000000000000000000000000000000000000000000000000000600052602260045260246000fd5b50919050565b7f4e487b7100000000000000000000000000000000000000000000000000000000600052604160045260246000fdfea2646970667358221220651b8cb2a1e3f226fca2140f6286094527cd36cec1ce32ee22dfd411c813317164736f6c63430008000033",
  "immutableReferences": {},
  "source": "// SPDX-License-Identifier: AGPL-3.0-or-later\n\npragma solidity >=0.8.0;\npragma abicoder v2;\nimport \"@openzeppelin/contracts/token/ERC20/IERC20.sol\";\nimport \"@openzeppelin/contracts/utils/math/SafeMath.sol\";\nimport \"./interface/IStartFiStakes.sol\";\nimport \"./MarketPlaceBase.sol\";\n\n\ncontract StartfiMarketPlaceFinance is MarketPlaceBase {\n /******************************************* decalrations go here ********************************************************* */\n    using SafeMath for uint256;\n    address internal _paymentToken;\n    uint8 internal _feeFraction = 1;\n    uint8 internal _feeBase = 100;\n    uint256 bidPenaltyPercentage =1;\n    uint256 public delistFeesPercentage=1;\n    uint256 public listqualifyPercentage=1;\n   mapping (address=>uint256) userReserves;\n   mapping (address=>bytes32[]) userListing;\n   address public stakeContract;\n /******************************************* constructor goes here ********************************************************* */\n\n  constructor(\n                 string memory _name ,\n        address _paymentTokesnAddress\n    )   MarketPlaceBase(_name){\n         \n       \n        _paymentToken = _paymentTokesnAddress;\n    }\n\n\n  /******************************************* modifiers go here ********************************************************* */\n\n\n\n  /******************************************* read state functions go here ********************************************************* */\n    \n    function _calcSum(uint256 a, uint256 b) pure internal returns (uint256 result) {\n        result= a.add(b);        \n    }\n    function _calcFees(uint256 bidPrice) view internal returns (uint256 fees) {\n        fees= bidPrice.mul(_feeFraction).div(_feeBase + _feeFraction);    \n    }\n    function _getListingQualAmount(uint256 listingPrice) view internal returns (uint256 amount) {\n        amount= listingPrice.mul(listqualifyPercentage).div(100 + listqualifyPercentage);    \n    }\n    function _getDeListingQualAmount(uint256 listingPrice) view internal returns (uint256 fineAmount , uint256 remaining) {\n        fineAmount= listingPrice.mul(delistFeesPercentage).div(100 + delistFeesPercentage);    \n        remaining =  _getListingQualAmount( listingPrice);\n    }\n   function _getListingFinancialInfo(address contractAddress,uint256 tokenId, uint256 bidPrice)  view internal returns   (address issuer,uint256 royaltyAmount, uint256 fees, uint256 netPrice) {\n             fees = _calcFees(bidPrice);\n      netPrice = bidPrice.sub(fees);\n          // royalty check\n          if(_supportRoyalty(contractAddress)){\n               ( issuer, royaltyAmount) =_getRoyaltyInfo( contractAddress,  tokenId, bidPrice);\n               if(royaltyAmount>0 && issuer!=address(0)){\n                   netPrice= netPrice.sub(royaltyAmount);\n               }\n          }\n      \n   }\n    function getUserReserved(address user) external  view returns (uint256)  {\n        return userReserves[user];\n    }\n    /// @return the value of the state variable `_feeFraction`\n        function getServiceFee() external view returns (uint8) {\n        return _feeFraction;\n    }\n    function _getAllowance(address owner) view internal returns (uint256 ) {\n        return IERC20(_paymentToken).allowance( owner, address(this));\n    }\n    function _getStakeAllowance(address user ,uint256 prevAmount) view internal returns (uint256 ) {\n        // user can bid multi time, we want to make sure we don't calc the old bid as sperated bid \n        uint256 userActualReserved= userReserves[user].sub(prevAmount);\n        return IStartFiStakes(stakeContract).getReserves( user).sub(userActualReserved);\n    }\n    function _deduct(address finePayer, address to, uint256 amount)  internal returns (bool ) {\n          return IStartFiStakes(stakeContract).deduct(finePayer, to, amount);\n    }\n\n      /******************************************* state functions go here ********************************************************* */\n\n    function _safeTokenTransfer(address to, uint256 amount) internal returns (bool) {\n        return IERC20(_paymentToken). transfer( to,  amount);\n    }\n    function _safeTokenTransferFrom(address from,address to, uint256 amount) internal returns (bool) {\n        return IERC20(_paymentToken). transferFrom(from, to,  amount);\n    }\n    function _setUserReserves(address user, uint256 newReservedValue) internal returns (bool) {\n        userReserves[user]=newReservedValue;\n        return true;\n    }\n    function _updateUserReserves(address user, uint256 newReserves, bool isAddition) internal returns (uint256 _userReserves) {\n        _userReserves=  isAddition? userReserves[user].add(newReserves): userReserves[user].sub(newReserves);\n        userReserves[user]=_userReserves;\n        return _userReserves;\n    }\n    /// @param newFees  the new fees value to be stored \n    /// @return the value of the state variable `_feeFraction`\n     function changeFees(uint8 newFees) internal returns (uint8) {\n         // fees is a value between 1-3 %\n         require(newFees>=1 && newFees<=3,\"fees invalid range\");\n         _feeFraction=newFees;\n         return _feeFraction;\n     }\n    /// @param _token  the new name to be stored \n     function _changeUtiltiyToken(address _token) internal {\n      _paymentToken=_token;  \n     }\n     function _changeBidPenaltyPercentage(uint256 newPercentage) internal {\n bidPenaltyPercentage =newPercentage;\n}\nfunction _changeDelistFeesPerentage(uint256 newPercentage) internal {\n delistFeesPercentage =newPercentage;\n}\nfunction _changeListqualifyAmount(uint256 newPercentage) internal {\n listqualifyPercentage =newPercentage;\n}\n\n} ",
  "sourcePath": "/home/yehia/Documents/startups/Startfi/projects/startfi/startfi-core/contracts/StartfiMarketPlaceFinance.sol",
  "compiler": {
    "name": "solc",
    "version": "0.8.0+commit.c7dfd78e.Emscripten.clang"
  },
  "schemaVersion": "3.4.1",
  "updatedAt": "2021-06-26T21:59:36.925Z",
  "devdoc": {
    "kind": "dev",
    "methods": {
      "getServiceFee()": {
        "returns": {
          "_0": "the value of the state variable `_feeFraction`"
        }
      },
      "marketPlaceName()": {
        "returns": {
          "_0": "market place name"
        }
      },
      "onERC721Received(address,address,uint256,bytes)": {
        "details": "See {IERC721Receiver-onERC721Received}. Always returns `IERC721Receiver.onERC721Received.selector`."
      }
    },
    "version": 1
  },
  "userdoc": {
    "kind": "user",
    "methods": {},
    "version": 1
  }
}