{
  "contractName": "StartfiMarketPlace",
  "abi": [
    {
      "inputs": [
        {
          "internalType": "string",
          "name": "marketPlaceName_",
          "type": "string"
        },
        {
          "internalType": "address",
          "name": "_erc721Address",
          "type": "address"
        },
        {
          "internalType": "address",
          "name": "_paymentTokenAddress",
          "type": "address"
        }
      ],
      "stateMutability": "nonpayable",
      "type": "constructor"
    },
    {
      "anonymous": false,
      "inputs": [
        {
          "indexed": true,
          "internalType": "address",
          "name": "previousOwner",
          "type": "address"
        },
        {
          "indexed": true,
          "internalType": "address",
          "name": "newOwner",
          "type": "address"
        }
      ],
      "name": "OwnershipTransferred",
      "type": "event"
    },
    {
      "anonymous": false,
      "inputs": [
        {
          "indexed": true,
          "internalType": "uint256",
          "name": "tokenId",
          "type": "uint256"
        },
        {
          "indexed": true,
          "internalType": "address",
          "name": "owner",
          "type": "address"
        },
        {
          "indexed": true,
          "internalType": "address",
          "name": "bidder",
          "type": "address"
        },
        {
          "indexed": false,
          "internalType": "uint256",
          "name": "total",
          "type": "uint256"
        },
        {
          "indexed": false,
          "internalType": "uint256",
          "name": "value",
          "type": "uint256"
        },
        {
          "indexed": false,
          "internalType": "uint256",
          "name": "fees",
          "type": "uint256"
        }
      ],
      "name": "TokenBidAccepted",
      "type": "event"
    },
    {
      "anonymous": false,
      "inputs": [
        {
          "indexed": true,
          "internalType": "uint256",
          "name": "tokenId",
          "type": "uint256"
        },
        {
          "indexed": true,
          "internalType": "address",
          "name": "fromAddress",
          "type": "address"
        },
        {
          "indexed": false,
          "internalType": "uint256",
          "name": "value",
          "type": "uint256"
        }
      ],
      "name": "TokenBidEntered",
      "type": "event"
    },
    {
      "anonymous": false,
      "inputs": [
        {
          "indexed": true,
          "internalType": "uint256",
          "name": "tokenId",
          "type": "uint256"
        },
        {
          "indexed": true,
          "internalType": "address",
          "name": "fromAddress",
          "type": "address"
        },
        {
          "indexed": false,
          "internalType": "uint256",
          "name": "value",
          "type": "uint256"
        }
      ],
      "name": "TokenBidWithdrawn",
      "type": "event"
    },
    {
      "anonymous": false,
      "inputs": [
        {
          "indexed": true,
          "internalType": "uint256",
          "name": "tokenId",
          "type": "uint256"
        },
        {
          "indexed": true,
          "internalType": "address",
          "name": "fromAddress",
          "type": "address"
        },
        {
          "indexed": true,
          "internalType": "address",
          "name": "toAddress",
          "type": "address"
        },
        {
          "indexed": false,
          "internalType": "uint256",
          "name": "total",
          "type": "uint256"
        },
        {
          "indexed": false,
          "internalType": "uint256",
          "name": "value",
          "type": "uint256"
        },
        {
          "indexed": false,
          "internalType": "uint256",
          "name": "fees",
          "type": "uint256"
        }
      ],
      "name": "TokenBought",
      "type": "event"
    },
    {
      "anonymous": false,
      "inputs": [
        {
          "indexed": true,
          "internalType": "uint256",
          "name": "tokenId",
          "type": "uint256"
        },
        {
          "indexed": true,
          "internalType": "address",
          "name": "fromAddress",
          "type": "address"
        }
      ],
      "name": "TokenDelisted",
      "type": "event"
    },
    {
      "anonymous": false,
      "inputs": [
        {
          "indexed": true,
          "internalType": "uint256",
          "name": "tokenId",
          "type": "uint256"
        },
        {
          "indexed": true,
          "internalType": "address",
          "name": "fromAddress",
          "type": "address"
        },
        {
          "indexed": false,
          "internalType": "uint256",
          "name": "minValue",
          "type": "uint256"
        }
      ],
      "name": "TokenListed",
      "type": "event"
    },
    {
      "inputs": [
        {
          "internalType": "address",
          "name": "",
          "type": "address"
        },
        {
          "internalType": "address",
          "name": "",
          "type": "address"
        },
        {
          "internalType": "uint256",
          "name": "",
          "type": "uint256"
        },
        {
          "internalType": "bytes",
          "name": "",
          "type": "bytes"
        }
      ],
      "name": "onERC721Received",
      "outputs": [
        {
          "internalType": "bytes4",
          "name": "",
          "type": "bytes4"
        }
      ],
      "stateMutability": "nonpayable",
      "type": "function"
    },
    {
      "inputs": [],
      "name": "owner",
      "outputs": [
        {
          "internalType": "address",
          "name": "",
          "type": "address"
        }
      ],
      "stateMutability": "view",
      "type": "function"
    },
    {
      "inputs": [],
      "name": "renounceOwnership",
      "outputs": [],
      "stateMutability": "nonpayable",
      "type": "function"
    },
    {
      "inputs": [
        {
          "internalType": "address",
          "name": "newOwner",
          "type": "address"
        }
      ],
      "name": "transferOwnership",
      "outputs": [],
      "stateMutability": "nonpayable",
      "type": "function"
    },
    {
      "inputs": [],
      "name": "tokenAddress",
      "outputs": [
        {
          "internalType": "address",
          "name": "",
          "type": "address"
        }
      ],
      "stateMutability": "view",
      "type": "function"
    },
    {
      "inputs": [],
      "name": "paymentTokenAddress",
      "outputs": [
        {
          "internalType": "address",
          "name": "",
          "type": "address"
        }
      ],
      "stateMutability": "view",
      "type": "function"
    },
    {
      "inputs": [
        {
          "internalType": "uint256",
          "name": "tokenId",
          "type": "uint256"
        }
      ],
      "name": "getTokenListing",
      "outputs": [
        {
          "components": [
            {
              "internalType": "uint256",
              "name": "tokenId",
              "type": "uint256"
            },
            {
              "internalType": "uint256",
              "name": "listingPrice",
              "type": "uint256"
            },
            {
              "internalType": "address",
              "name": "seller",
              "type": "address"
            },
            {
              "internalType": "uint256",
              "name": "expireTimestamp",
              "type": "uint256"
            }
          ],
          "internalType": "struct INFTKEYMarketPlaceV1.Listing",
          "name": "",
          "type": "tuple"
        }
      ],
      "stateMutability": "view",
      "type": "function"
    },
    {
      "inputs": [
        {
          "internalType": "uint256",
          "name": "from",
          "type": "uint256"
        },
        {
          "internalType": "uint256",
          "name": "size",
          "type": "uint256"
        }
      ],
      "name": "getTokenListings",
      "outputs": [
        {
          "components": [
            {
              "internalType": "uint256",
              "name": "tokenId",
              "type": "uint256"
            },
            {
              "internalType": "uint256",
              "name": "listingPrice",
              "type": "uint256"
            },
            {
              "internalType": "address",
              "name": "seller",
              "type": "address"
            },
            {
              "internalType": "uint256",
              "name": "expireTimestamp",
              "type": "uint256"
            }
          ],
          "internalType": "struct INFTKEYMarketPlaceV1.Listing[]",
          "name": "",
          "type": "tuple[]"
        }
      ],
      "stateMutability": "view",
      "type": "function"
    },
    {
      "inputs": [],
      "name": "getAllTokenListings",
      "outputs": [
        {
          "components": [
            {
              "internalType": "uint256",
              "name": "tokenId",
              "type": "uint256"
            },
            {
              "internalType": "uint256",
              "name": "listingPrice",
              "type": "uint256"
            },
            {
              "internalType": "address",
              "name": "seller",
              "type": "address"
            },
            {
              "internalType": "uint256",
              "name": "expireTimestamp",
              "type": "uint256"
            }
          ],
          "internalType": "struct INFTKEYMarketPlaceV1.Listing[]",
          "name": "",
          "type": "tuple[]"
        }
      ],
      "stateMutability": "view",
      "type": "function"
    },
    {
      "inputs": [
        {
          "internalType": "uint256",
          "name": "tokenId",
          "type": "uint256"
        },
        {
          "internalType": "address",
          "name": "bidder",
          "type": "address"
        }
      ],
      "name": "getBidderTokenBid",
      "outputs": [
        {
          "components": [
            {
              "internalType": "uint256",
              "name": "tokenId",
              "type": "uint256"
            },
            {
              "internalType": "uint256",
              "name": "bidPrice",
              "type": "uint256"
            },
            {
              "internalType": "address",
              "name": "bidder",
              "type": "address"
            },
            {
              "internalType": "uint256",
              "name": "expireTimestamp",
              "type": "uint256"
            }
          ],
          "internalType": "struct INFTKEYMarketPlaceV1.Bid",
          "name": "",
          "type": "tuple"
        }
      ],
      "stateMutability": "view",
      "type": "function"
    },
    {
      "inputs": [
        {
          "internalType": "uint256",
          "name": "tokenId",
          "type": "uint256"
        },
        {
          "internalType": "uint256",
          "name": "value",
          "type": "uint256"
        },
        {
          "internalType": "uint256",
          "name": "expireTimestamp",
          "type": "uint256"
        }
      ],
      "name": "listToken",
      "outputs": [],
      "stateMutability": "nonpayable",
      "type": "function"
    },
    {
      "inputs": [
        {
          "internalType": "uint256",
          "name": "tokenId",
          "type": "uint256"
        }
      ],
      "name": "delistToken",
      "outputs": [],
      "stateMutability": "nonpayable",
      "type": "function"
    },
    {
      "inputs": [
        {
          "internalType": "uint256",
          "name": "tokenId",
          "type": "uint256"
        },
        {
          "internalType": "uint256",
          "name": "bidPrice",
          "type": "uint256"
        },
        {
          "internalType": "uint256",
          "name": "expireTimestamp",
          "type": "uint256"
        }
      ],
      "name": "enterBidForToken",
      "outputs": [],
      "stateMutability": "nonpayable",
      "type": "function"
    },
    {
      "inputs": [
        {
          "internalType": "uint256",
          "name": "tokenId",
          "type": "uint256"
        }
      ],
      "name": "withdrawBidForToken",
      "outputs": [],
      "stateMutability": "nonpayable",
      "type": "function"
    },
    {
      "inputs": [
        {
          "internalType": "uint256",
          "name": "tokenId",
          "type": "uint256"
        },
        {
          "internalType": "address",
          "name": "bidder",
          "type": "address"
        }
      ],
      "name": "acceptBidForToken",
      "outputs": [],
      "stateMutability": "nonpayable",
      "type": "function"
    },
    {
      "inputs": [],
      "name": "getInvalidListingCount",
      "outputs": [
        {
          "internalType": "uint256",
          "name": "",
          "type": "uint256"
        }
      ],
      "stateMutability": "view",
      "type": "function"
    },
    {
      "inputs": [],
      "name": "marketPlaceName",
      "outputs": [
        {
          "internalType": "string",
          "name": "",
          "type": "string"
        }
      ],
      "stateMutability": "view",
      "type": "function"
    },
    {
      "inputs": [],
      "name": "isListingAndBidEnabled",
      "outputs": [
        {
          "internalType": "bool",
          "name": "",
          "type": "bool"
        }
      ],
      "stateMutability": "view",
      "type": "function"
    },
    {
      "inputs": [
        {
          "internalType": "bool",
          "name": "enabled",
          "type": "bool"
        }
      ],
      "name": "changeMarketplaceStatus",
      "outputs": [],
      "stateMutability": "nonpayable",
      "type": "function"
    },
    {
      "inputs": [],
      "name": "actionTimeOutRangeMin",
      "outputs": [
        {
          "internalType": "uint256",
          "name": "",
          "type": "uint256"
        }
      ],
      "stateMutability": "view",
      "type": "function"
    },
    {
      "inputs": [],
      "name": "actionTimeOutRangeMax",
      "outputs": [
        {
          "internalType": "uint256",
          "name": "",
          "type": "uint256"
        }
      ],
      "stateMutability": "view",
      "type": "function"
    },
    {
      "inputs": [
        {
          "internalType": "uint256",
          "name": "timeInSec",
          "type": "uint256"
        }
      ],
      "name": "changeMinActionTimeLimit",
      "outputs": [],
      "stateMutability": "nonpayable",
      "type": "function"
    },
    {
      "inputs": [
        {
          "internalType": "uint256",
          "name": "timeInSec",
          "type": "uint256"
        }
      ],
      "name": "changeMaxActionTimeLimit",
      "outputs": [],
      "stateMutability": "nonpayable",
      "type": "function"
    },
    {
      "inputs": [],
      "name": "serviceFee",
      "outputs": [
        {
          "internalType": "uint8",
          "name": "",
          "type": "uint8"
        },
        {
          "internalType": "uint8",
          "name": "",
          "type": "uint8"
        }
      ],
      "stateMutability": "view",
      "type": "function"
    },
    {
      "inputs": [
        {
          "internalType": "uint8",
          "name": "feeFraction_",
          "type": "uint8"
        },
        {
          "internalType": "uint8",
          "name": "feeBase_",
          "type": "uint8"
        }
      ],
      "name": "changeSeriveFee",
      "outputs": [],
      "stateMutability": "nonpayable",
      "type": "function"
    }
  ],
  "bytecode": "0x60c060405260038054610100600160ff199092169190911761ff0019161762ff0000191662640000179055620151806004556301e133806005553480156200004657600080fd5b5060405162003542380380620035428339810160408190526200006991620001c0565b600062000075620000f9565b600080546001600160a01b0319166001600160a01b0383169081178255604051929350917f8be0079c531659141344cd1fd0a4f28419497f9722a3daafe3b4186f6b6457e0908290a350600180558251620000d8906002906020860190620000fd565b506001600160601b0319606092831b8116608052911b1660a0525062000309565b3390565b8280546200010b90620002b6565b90600052602060002090601f0160209004810192826200012f57600085556200017a565b82601f106200014a57805160ff19168380011785556200017a565b828001600101855582156200017a579182015b828111156200017a5782518255916020019190600101906200015d565b50620001889291506200018c565b5090565b5b808211156200018857600081556001016200018d565b80516001600160a01b0381168114620001bb57600080fd5b919050565b600080600060608486031215620001d5578283fd5b83516001600160401b0380821115620001ec578485fd5b818601915086601f83011262000200578485fd5b815181811115620002155762000215620002f3565b6040516020601f8301601f19168201810184811183821017156200023d576200023d620002f3565b60405282825284830181018a101562000254578788fd5b8793505b8284101562000277578484018101518285018201529283019262000258565b828411156200028857878184840101525b81975062000298818a01620001a3565b96505050505050620002ad60408501620001a3565b90509250925092565b600281046001821680620002cb57607f821691505b60208210811415620002ed57634e487b7160e01b600052602260045260246000fd5b50919050565b634e487b7160e01b600052604160045260246000fd5b60805160601c60a05160601c6131d56200036d6000396000818161060a0152818161065901528181610fef015281816115880152611dc80152600081816106c301528181610ea6015281816118e0015281816119fe0152611b0401526131d56000f3fe608060405234801561001057600080fd5b50600436106101a35760003560e01c80638ef291e9116100ee578063b6be53ba11610097578063e154870211610071578063e15487021461033b578063e724488114610343578063f0e6dcab14610356578063f2fde38b1461036b576101a3565b8063b6be53ba14610302578063bce64a7d14610315578063bed659bc14610328576101a3565b8063a3c0b5f0116100c8578063a3c0b5f0146102df578063a6a27f3a146102f2578063afb18fe7146102fa576101a3565b80638ef291e9146102af57806398792eec146102c45780639d76ea58146102d7576101a3565b806370a3b3901161015057806385f5a92a1161012a57806385f5a92a146102715780638abdf5aa146102845780638da5cb5b1461029a576101a3565b806370a3b39014610229578063715018a61461024957806375ccb1f214610251576101a3565b8063336c16c611610181578063336c16c6146101fb578063453dfc501461020e5780635eef51ee14610216576101a3565b8063150b7a02146101a85780632426fc24146101d157806333549d3d146101e6575b600080fd5b6101bb6101b6366004612404565b61037e565b6040516101c89190612731565b60405180910390f35b6101e46101df36600461252a565b6103a7565b005b6101ee610428565b6040516101c89190612f0c565b6101e461020936600461255a565b61042e565b6101ee6107c0565b6101e46102243660046125d5565b6107c6565b61023c61023736600461255a565b610941565b6040516101c89190612efe565b6101e46109c7565b61026461025f366004612589565b610aa9565b6040516101c891906126d8565b6101e461027f36600461252a565b610c67565b61028c610d63565b6040516101c8929190612f2b565b6102a2610d7b565b6040516101c8919061265f565b6102b7610d97565b6040516101c8919061275e565b61023c6102d236600461252a565b610e29565b6102a2610ea4565b6101e46102ed36600461252a565b610ec8565b6101ee610f40565b6102a2610fed565b6101e46103103660046124f2565b611011565b6101e46103233660046125aa565b6110b5565b6101e461033636600461252a565b611330565b6102646113f0565b6101e46103513660046125aa565b611406565b61035e611746565b6040516101c89190612726565b6101e46103793660046123cc565b61174f565b7f150b7a0200000000000000000000000000000000000000000000000000000000949350505050565b6103af61189c565b73ffffffffffffffffffffffffffffffffffffffff166103cd610d7b565b73ffffffffffffffffffffffffffffffffffffffff1614610423576040517f08c379a000000000000000000000000000000000000000000000000000000000815260040161041a90612b62565b60405180910390fd5b600455565b60045490565b6002600154141561046b576040517f08c379a000000000000000000000000000000000000000000000000000000000815260040161041a90612d79565b600260015561047a82336118a0565b6104b0576040517f08c379a000000000000000000000000000000000000000000000000000000000815260040161041a90612e44565b6104b9826119be565b806104c857506104c833611ac4565b6104fe576040517f08c379a000000000000000000000000000000000000000000000000000000000815260040161041a906127af565b600061050a8383610941565b90506000816020015111801561054f57508173ffffffffffffffffffffffffffffffffffffffff16816040015173ffffffffffffffffffffffffffffffffffffffff16145b610585576040517f08c379a000000000000000000000000000000000000000000000000000000000815260040161041a90612bf4565b6003546000906105cc906105a99060ff610100820481169162010000900416612f57565b600354602085015160ff928316926105c692610100900416611b8b565b90611b9e565b905060006105e7828460200151611baa90919063ffffffff16565b60408401519091506106329073ffffffffffffffffffffffffffffffffffffffff7f000000000000000000000000000000000000000000000000000000000000000016903384611bb6565b6106818360400151610642610d7b565b73ffffffffffffffffffffffffffffffffffffffff7f000000000000000000000000000000000000000000000000000000000000000016919085611bb6565b60408084015190517f42842e0e00000000000000000000000000000000000000000000000000000000815273ffffffffffffffffffffffffffffffffffffffff7f000000000000000000000000000000000000000000000000000000000000000016916342842e0e916106fa9133918a906004016126a7565b600060405180830381600087803b15801561071457600080fd5b505af1158015610728573d6000803e3d6000fd5b50505050826040015173ffffffffffffffffffffffffffffffffffffffff163373ffffffffffffffffffffffffffffffffffffffff16867f2c907f0c6ace0ad59e44f69f6873314bb2b85cca7eeffb05ca93fa65326bfbb48660200151858760405161079693929190612f15565b60405180910390a46107a785611c5f565b6107b5858460400151611cc0565b505060018055505050565b60055490565b6107ce61189c565b73ffffffffffffffffffffffffffffffffffffffff166107ec610d7b565b73ffffffffffffffffffffffffffffffffffffffff1614610839576040517f08c379a000000000000000000000000000000000000000000000000000000000815260040161041a90612b62565b8060ff168260ff161115610879576040517f08c379a000000000000000000000000000000000000000000000000000000000815260040161041a90612ce5565b60008160ff168360ff166103e86108909190612fb1565b61089a9190612f7c565b61ffff16905060198111156108db576040517f08c379a000000000000000000000000000000000000000000000000000000000815260040161041a90612a4b565b506003805460ff92831662010000027fffffffffffffffffffffffffffffffffffffffffffffffffffffffffff00ffff94909316610100027fffffffffffffffffffffffffffffffffffffffffffffffffffffffffffff00ff9091161792909216179055565b61094961237d565b600083815260096020908152604080832073ffffffffffffffffffffffffffffffffffffffff80871685529083529281902081516080810183528154815260018201549381019390935260028101549093169082015260039091015460608201526109b381611d65565b156109bf5790506109c1565b505b92915050565b6109cf61189c565b73ffffffffffffffffffffffffffffffffffffffff166109ed610d7b565b73ffffffffffffffffffffffffffffffffffffffff1614610a3a576040517f08c379a000000000000000000000000000000000000000000000000000000000815260040161041a90612b62565b6000805460405173ffffffffffffffffffffffffffffffffffffffff909116907f8be0079c531659141344cd1fd0a4f28419497f9722a3daafe3b4186f6b6457e0908390a3600080547fffffffffffffffffffffffff0000000000000000000000000000000000000000169055565b6060610ab56007611e7d565b83108015610ac35750600082115b156109c15781610ad36007611e7d565b610add8486612f3f565b1115610afb5783610aee6007611e7d565b610af89190613018565b90505b60008167ffffffffffffffff811115610b3d577f4e487b7100000000000000000000000000000000000000000000000000000000600052604160045260246000fd5b604051908082528060200260200182016040528015610b7657816020015b610b6361237d565b815260200190600190039081610b5b5790505b50905060005b82811015610c5d576000600681610b9e610b968a86612f3f565b600790611e88565b81526020808201929092526040908101600020815160808101835281548152600182015493810193909352600281015473ffffffffffffffffffffffffffffffffffffffff16918301919091526003015460608201529050610bff81611e94565b15610c4a5780838381518110610c3e577f4e487b7100000000000000000000000000000000000000000000000000000000600052603260045260246000fd5b60200260200101819052505b5080610c55816130a9565b915050610b7c565b5091506109c19050565b60008181526009602090815260408083203380855290835292819020815160808101835281548152600182015493810193909352600281015473ffffffffffffffffffffffffffffffffffffffff16918301829052600301546060830152909114610cfe576040517f08c379a000000000000000000000000000000000000000000000000000000000815260040161041a90612c51565b806040015173ffffffffffffffffffffffffffffffffffffffff16827f4afa471ce7ab7fa67258e3afb1adf7e899e0495602eeb26d90d41e1b64dea5a68360200151604051610d4d9190612f0c565b60405180910390a3610d5f8233611cc0565b5050565b60035460ff6101008204811691620100009004169091565b60005473ffffffffffffffffffffffffffffffffffffffff1690565b606060028054610da69061305b565b80601f0160208091040260200160405190810160405280929190818152602001828054610dd29061305b565b8015610e1f5780601f10610df457610100808354040283529160200191610e1f565b820191906000526020600020905b815481529060010190602001808311610e0257829003601f168201915b5050505050905090565b610e3161237d565b600082815260066020908152604091829020825160808101845281548152600182015492810192909252600281015473ffffffffffffffffffffffffffffffffffffffff16928201929092526003909101546060820152610e9181611e94565b15610e9d579050610e9f565b505b919050565b7f000000000000000000000000000000000000000000000000000000000000000090565b610ed061189c565b73ffffffffffffffffffffffffffffffffffffffff16610eee610d7b565b73ffffffffffffffffffffffffffffffffffffffff1614610f3b576040517f08c379a000000000000000000000000000000000000000000000000000000000815260040161041a90612b62565b600555565b600080805b610f4f6007611e7d565b811015610fe757610fc360066000610f68600785611e88565b81526020808201929092526040908101600020815160808101835281548152600182015493810193909352600281015473ffffffffffffffffffffffffffffffffffffffff1691830191909152600301546060820152611e94565b610fd557610fd2826001611ecd565b91505b80610fdf816130a9565b915050610f45565b50905090565b7f000000000000000000000000000000000000000000000000000000000000000090565b61101961189c565b73ffffffffffffffffffffffffffffffffffffffff16611037610d7b565b73ffffffffffffffffffffffffffffffffffffffff1614611084576040517f08c379a000000000000000000000000000000000000000000000000000000000815260040161041a90612b62565b600380547fffffffffffffffffffffffffffffffffffffffffffffffffffffffffffffff0016911515919091179055565b60035460ff166110f1576040517f08c379a000000000000000000000000000000000000000000000000000000000815260040161041a906128c6565b60045481906111008242611baa565b1015611138576040517f08c379a000000000000000000000000000000000000000000000000000000000815260040161041a90612ea1565b6005546111458242611baa565b111561117d576040517f08c379a000000000000000000000000000000000000000000000000000000000815260040161041a90612991565b600083116111b7576040517f08c379a000000000000000000000000000000000000000000000000000000000815260040161041a90612aa8565b6111c184336118a0565b6111f7576040517f08c379a000000000000000000000000000000000000000000000000000000000815260040161041a90612e0d565b611200846119be565b8061120f575061120f33611ac4565b611245576040517f08c379a000000000000000000000000000000000000000000000000000000000815260040161041a90612b97565b604080516080810182528581526020808201868152338385019081526060840187815260008a815260069094529490922092518355516001830155516002820180547fffffffffffffffffffffffff00000000000000000000000000000000000000001673ffffffffffffffffffffffffffffffffffffffff90921691909117905590516003909101556112da600785611ed9565b503373ffffffffffffffffffffffffffffffffffffffff16847f7765a1c07bdce3390c521eaeb86030b188b77cbaba2d76bd7c9c32d906bfbcba856040516113229190612f0c565b60405180910390a350505050565b60008181526006602052604090206002015473ffffffffffffffffffffffffffffffffffffffff163314611390576040517f08c379a000000000000000000000000000000000000000000000000000000000815260040161041a90612db0565b60008181526006602052604080822060020154905173ffffffffffffffffffffffffffffffffffffffff9091169183917f70a382c18b6e794d86997f6e1f1efca577925cfa85c476a6ff7031f0a3dd6ed09190a36113ed81611c5f565b50565b6060611401600061025f6007611e7d565b905090565b60035460ff16611442576040517f08c379a000000000000000000000000000000000000000000000000000000000815260040161041a906128c6565b60045481906114518242611baa565b1015611489576040517f08c379a000000000000000000000000000000000000000000000000000000000815260040161041a90612ea1565b6005546114968242611baa565b11156114ce576040517f08c379a000000000000000000000000000000000000000000000000000000000815260040161041a90612991565b60008311611508576040517f08c379a000000000000000000000000000000000000000000000000000000000815260040161041a906128fd565b61151284336118a0565b15611549576040517f08c379a000000000000000000000000000000000000000000000000000000000815260040161041a906129ee565b6040517fdd62ed3e000000000000000000000000000000000000000000000000000000008152839073ffffffffffffffffffffffffffffffffffffffff7f0000000000000000000000000000000000000000000000000000000000000000169063dd62ed3e906115bf9033903090600401612680565b60206040518083038186803b1580156115d757600080fd5b505afa1580156115eb573d6000803e3d6000fd5b505050506040513d601f19601f8201168201806040525081019061160f9190612542565b1015611647576040517f08c379a000000000000000000000000000000000000000000000000000000000815260040161041a90612b05565b6040805160808101825285815260208101859052339181019190915260608101839052611675600a86611ee5565b61168657611684600a86611ed9565b505b6000858152600960209081526040808320338085529083529281902084518155918401516001830155838101516002830180547fffffffffffffffffffffffff00000000000000000000000000000000000000001673ffffffffffffffffffffffffffffffffffffffff90921691909117905560608401516003909201919091555186907f0ea16c10401e9d7c547471845914c4a904af6a01b9fa1e195eeecae9f78bcca190611737908890612f0c565b60405180910390a35050505050565b60035460ff1690565b61175761189c565b73ffffffffffffffffffffffffffffffffffffffff16611775610d7b565b73ffffffffffffffffffffffffffffffffffffffff16146117c2576040517f08c379a000000000000000000000000000000000000000000000000000000000815260040161041a90612b62565b73ffffffffffffffffffffffffffffffffffffffff811661180f576040517f08c379a000000000000000000000000000000000000000000000000000000000815260040161041a90612869565b6000805460405173ffffffffffffffffffffffffffffffffffffffff808516939216917f8be0079c531659141344cd1fd0a4f28419497f9722a3daafe3b4186f6b6457e091a3600080547fffffffffffffffffffffffff00000000000000000000000000000000000000001673ffffffffffffffffffffffffffffffffffffffff92909216919091179055565b3390565b6040517f6352211e00000000000000000000000000000000000000000000000000000000815260009073ffffffffffffffffffffffffffffffffffffffff7f00000000000000000000000000000000000000000000000000000000000000001690636352211e90611915908690600401612f0c565b60206040518083038186803b15801561192d57600080fd5b505afa92505050801561197b575060408051601f3d9081017fffffffffffffffffffffffffffffffffffffffffffffffffffffffffffffffe0168201909252611978918101906123e8565b60015b611987575060006109c1565b8273ffffffffffffffffffffffffffffffffffffffff168173ffffffffffffffffffffffffffffffffffffffff16149150506109c1565b6040517f081812fc00000000000000000000000000000000000000000000000000000000815260009073ffffffffffffffffffffffffffffffffffffffff7f0000000000000000000000000000000000000000000000000000000000000000169063081812fc90611a33908590600401612f0c565b60206040518083038186803b158015611a4b57600080fd5b505afa925050508015611a99575060408051601f3d9081017fffffffffffffffffffffffffffffffffffffffffffffffffffffffffffffffe0168201909252611a96918101906123e8565b60015b611aa557506000610e9f565b73ffffffffffffffffffffffffffffffffffffffff1630149050610e9f565b6040517fe985e9c500000000000000000000000000000000000000000000000000000000815260009073ffffffffffffffffffffffffffffffffffffffff7f0000000000000000000000000000000000000000000000000000000000000000169063e985e9c590611b3b9085903090600401612680565b60206040518083038186803b158015611b5357600080fd5b505afa158015611b67573d6000803e3d6000fd5b505050506040513d601f19601f820116820180604052508101906109c1919061250e565b6000611b978284612fdb565b9392505050565b6000611b978284612f9d565b6000611b978284613018565b611c59846323b872dd60e01b858585604051602401611bd7939291906126a7565b604080517fffffffffffffffffffffffffffffffffffffffffffffffffffffffffffffffe08184030181529190526020810180517bffffffffffffffffffffffffffffffffffffffffffffffffffffffff167fffffffff0000000000000000000000000000000000000000000000000000000090931692909217909152611ef1565b50505050565b611c6a600782611ee5565b156113ed576000818152600660205260408120818155600181018290556002810180547fffffffffffffffffffffffff000000000000000000000000000000000000000016905560030155610d5f600782611fac565b600082815260096020908152604080832073ffffffffffffffffffffffffffffffffffffffff85811685529252909120600201541615610d5f57600082815260096020908152604080832073ffffffffffffffffffffffffffffffffffffffff851684529091528120818155600181018290556002810180547fffffffffffffffffffffffff0000000000000000000000000000000000000000169055600301555050565b6000611d79826000015183604001516118a0565b158015611e515750602082015160408084015190517fdd62ed3e00000000000000000000000000000000000000000000000000000000815273ffffffffffffffffffffffffffffffffffffffff7f0000000000000000000000000000000000000000000000000000000000000000169163dd62ed3e91611dfe91903090600401612680565b60206040518083038186803b158015611e1657600080fd5b505afa158015611e2a573d6000803e3d6000fd5b505050506040513d601f19601f82011682018060405250810190611e4e9190612542565b10155b8015611e61575060008260200151115b8015611e705750428260600151115b15610e9f57506001610e9f565b60006109c182611fb8565b6000611b978383611fbc565b6000611ea8826000015183604001516118a0565b8015611e5157508151611eba906119be565b80611e515750611e518260400151611ac4565b6000611b978284612f3f565b6000611b978383612048565b6000611b978383612092565b6000611f53826040518060400160405280602081526020017f5361666545524332303a206c6f772d6c6576656c2063616c6c206661696c65648152508573ffffffffffffffffffffffffffffffffffffffff166120aa9092919063ffffffff16565b805190915015611fa75780806020019051810190611f71919061250e565b611fa7576040517f08c379a000000000000000000000000000000000000000000000000000000000815260040161041a90612d1c565b505050565b6000611b9783836120c1565b5490565b81546000908210611ff9576040517f08c379a000000000000000000000000000000000000000000000000000000000815260040161041a9061280c565b826000018281548110612035577f4e487b7100000000000000000000000000000000000000000000000000000000600052603260045260246000fd5b9060005260206000200154905092915050565b60006120548383612092565b61208a575081546001818101845560008481526020808220909301849055845484825282860190935260409020919091556109c1565b5060006109c1565b60009081526001919091016020526040902054151590565b60606120b98484600085612223565b949350505050565b600081815260018301602052604081205480156122195760006120e5600183613018565b85549091506000906120f990600190613018565b90506000866000018281548110612139577f4e487b7100000000000000000000000000000000000000000000000000000000600052603260045260246000fd5b9060005260206000200154905080876000018481548110612183577f4e487b7100000000000000000000000000000000000000000000000000000000600052603260045260246000fd5b6000918252602080832090910192909255828152600189019091526040902084905586548790806121dd577f4e487b7100000000000000000000000000000000000000000000000000000000600052603160045260246000fd5b600190038181906000526020600020016000905590558660010160008781526020019081526020016000206000905560019450505050506109c1565b60009150506109c1565b60608247101561225f576040517f08c379a000000000000000000000000000000000000000000000000000000000815260040161041a90612934565b61226885612324565b61229e576040517f08c379a000000000000000000000000000000000000000000000000000000000815260040161041a90612cae565b6000808673ffffffffffffffffffffffffffffffffffffffff1685876040516122c79190612643565b60006040518083038185875af1925050503d8060008114612304576040519150601f19603f3d011682016040523d82523d6000602084013e612309565b606091505b509150915061231982828661232a565b979650505050505050565b3b151590565b60608315612339575081611b97565b8251156123495782518084602001fd5b816040517f08c379a000000000000000000000000000000000000000000000000000000000815260040161041a919061275e565b60405180608001604052806000815260200160008152602001600073ffffffffffffffffffffffffffffffffffffffff168152602001600081525090565b803560ff81168114610e9f57600080fd5b6000602082840312156123dd578081fd5b8135611b978161316f565b6000602082840312156123f9578081fd5b8151611b978161316f565b60008060008060808587031215612419578283fd5b84356124248161316f565b93506020858101356124358161316f565b935060408601359250606086013567ffffffffffffffff80821115612458578384fd5b818801915088601f83011261246b578384fd5b81358181111561247d5761247d613140565b604051847fffffffffffffffffffffffffffffffffffffffffffffffffffffffffffffffe0601f84011682010181811084821117156124be576124be613140565b60405281815283820185018b10156124d4578586fd5b81858501868301379081019093019390935250939692955090935050565b600060208284031215612503578081fd5b8135611b9781613191565b60006020828403121561251f578081fd5b8151611b9781613191565b60006020828403121561253b578081fd5b5035919050565b600060208284031215612553578081fd5b5051919050565b6000806040838503121561256c578182fd5b82359150602083013561257e8161316f565b809150509250929050565b6000806040838503121561259b578182fd5b50508035926020909101359150565b6000806000606084860312156125be578283fd5b505081359360208301359350604090920135919050565b600080604083850312156125e7578182fd5b6125f0836123bb565b91506125fe602084016123bb565b90509250929050565b805182526020810151602083015273ffffffffffffffffffffffffffffffffffffffff6040820151166040830152606081015160608301525050565b6000825161265581846020870161302f565b9190910192915050565b73ffffffffffffffffffffffffffffffffffffffff91909116815260200190565b73ffffffffffffffffffffffffffffffffffffffff92831681529116602082015260400190565b73ffffffffffffffffffffffffffffffffffffffff9384168152919092166020820152604081019190915260600190565b6020808252825182820181905260009190848201906040850190845b8181101561271a57612707838551612607565b92840192608092909201916001016126f4565b50909695505050505050565b901515815260200190565b7fffffffff0000000000000000000000000000000000000000000000000000000091909116815260200190565b600060208252825180602084015261277d81604085016020870161302f565b601f017fffffffffffffffffffffffffffffffffffffffffffffffffffffffffffffffe0169190910160400192915050565b60208082526035908201527f54686520746f6b656e206973206e6f7420617070726f76656420746f2074726160408201527f6e736665722062792074686520636f6e74726163740000000000000000000000606082015260800190565b60208082526022908201527f456e756d657261626c655365743a20696e646578206f7574206f6620626f756e60408201527f6473000000000000000000000000000000000000000000000000000000000000606082015260800190565b60208082526026908201527f4f776e61626c653a206e6577206f776e657220697320746865207a65726f206160408201527f6464726573730000000000000000000000000000000000000000000000000000606082015260800190565b6020808252601f908201527f4c697374696e6720616e642062696420617265206e6f7420656e61626c656400604082015260600190565b6020808252601a908201527f506c656173652062696420666f72206d6f7265207468616e2030000000000000604082015260600190565b60208082526026908201527f416464726573733a20696e73756666696369656e742062616c616e636520666f60408201527f722063616c6c0000000000000000000000000000000000000000000000000000606082015260800190565b60208082526025908201527f506c6561736520656e74657220612073686f7274657220706572696f64206f6660408201527f2074696d65000000000000000000000000000000000000000000000000000000606082015260800190565b60208082526022908201527f5468697320546f6b656e2062656c6f6e677320746f207468697320616464726560408201527f7373000000000000000000000000000000000000000000000000000000000000606082015260800190565b6020808252602b908201527f417474656d707420746f207365742070657263656e746167652068696768657260408201527f207468616e20322e35252e000000000000000000000000000000000000000000606082015260800190565b60208082526038908201527f506c65617365206c69737420666f72206d6f7265207468616e2030206f72207560408201527f736520746865207472616e736665722066756e6374696f6e0000000000000000606082015260800190565b60208082526036908201527f4e65656420746f206861766520656e6f75676820746f6b656e20686f6c64696e60408201527f6720746f20626964206f6e207468697320746f6b656e00000000000000000000606082015260800190565b6020808252818101527f4f776e61626c653a2063616c6c6572206973206e6f7420746865206f776e6572604082015260600190565b60208082526036908201527f5468697320746f6b656e206973206e6f7420616c6c6f77656420746f2074726160408201527f6e73666572206279207468697320636f6e747261637400000000000000000000606082015260800190565b60208082526026908201527f5468697320746f6b656e20646f65736e277420686176652061206d617463686960408201527f6e67206269640000000000000000000000000000000000000000000000000000606082015260800190565b6020808252602b908201527f54686973206164647265737320646f65736e2774206861766520626964206f6e60408201527f207468697320746f6b656e000000000000000000000000000000000000000000606082015260800190565b6020808252601d908201527f416464726573733a2063616c6c20746f206e6f6e2d636f6e7472616374000000604082015260600190565b6020808252601b908201527f466565206672616374696f6e20657863656564656420626173652e0000000000604082015260600190565b6020808252602a908201527f5361666545524332303a204552433230206f7065726174696f6e20646964206e60408201527f6f74207375636365656400000000000000000000000000000000000000000000606082015260800190565b6020808252601f908201527f5265656e7472616e637947756172643a207265656e7472616e742063616c6c00604082015260600190565b60208082526022908201527f4f6e6c7920746f6b656e2073656c6c65722063616e2064656c69737420746f6b60408201527f656e000000000000000000000000000000000000000000000000000000000000606082015260800190565b6020808252601f908201527f4f6e6c7920746f6b656e206f776e65722063616e206c69737420746f6b656e00604082015260600190565b60208082526028908201527f4f6e6c7920746f6b656e206f776e65722063616e20616363657074206269642060408201527f6f6620746f6b656e000000000000000000000000000000000000000000000000606082015260800190565b60208082526024908201527f506c6561736520656e7465722061206c6f6e67657220706572696f64206f662060408201527f74696d6500000000000000000000000000000000000000000000000000000000606082015260800190565b608081016109c18284612607565b90815260200190565b9283526020830191909152604082015260600190565b60ff92831681529116602082015260400190565b60008219821115612f5257612f526130e2565b500190565b600060ff821660ff84168060ff03821115612f7457612f746130e2565b019392505050565b600061ffff80841680612f9157612f91613111565b92169190910492915050565b600082612fac57612fac613111565b500490565b600061ffff80831681851681830481118215151615612fd257612fd26130e2565b02949350505050565b6000817fffffffffffffffffffffffffffffffffffffffffffffffffffffffffffffffff0483118215151615613013576130136130e2565b500290565b60008282101561302a5761302a6130e2565b500390565b60005b8381101561304a578181015183820152602001613032565b83811115611c595750506000910152565b60028104600182168061306f57607f821691505b60208210811415610e9d577f4e487b7100000000000000000000000000000000000000000000000000000000600052602260045260246000fd5b60007fffffffffffffffffffffffffffffffffffffffffffffffffffffffffffffffff8214156130db576130db6130e2565b5060010190565b7f4e487b7100000000000000000000000000000000000000000000000000000000600052601160045260246000fd5b7f4e487b7100000000000000000000000000000000000000000000000000000000600052601260045260246000fd5b7f4e487b7100000000000000000000000000000000000000000000000000000000600052604160045260246000fd5b73ffffffffffffffffffffffffffffffffffffffff811681146113ed57600080fd5b80151581146113ed57600080fdfea264697066735822122036814e04a23d87d9cb00fe6a79c988322afeeb5970707d88883795bbc18d346664736f6c63430008000033",
  "immutableReferences": {
    "572": [
      {
        "length": 32,
        "start": 1731
      },
      {
        "length": 32,
        "start": 3750
      },
      {
        "length": 32,
        "start": 6368
      },
      {
        "length": 32,
        "start": 6654
      },
      {
        "length": 32,
        "start": 6916
      }
    ],
    "575": [
      {
        "length": 32,
        "start": 1546
      },
      {
        "length": 32,
        "start": 1625
      },
      {
        "length": 32,
        "start": 4079
      },
      {
        "length": 32,
        "start": 5512
      },
      {
        "length": 32,
        "start": 7624
      }
    ]
  },
  "source": "// SPDX-License-Identifier: AGPL-3.0-or-later\n\npragma solidity >=0.8.0;\npragma abicoder v2;\n\nimport \"@openzeppelin/contracts/access/Ownable.sol\";\nimport \"@openzeppelin/contracts/utils/math/SafeMath.sol\";\nimport \"@openzeppelin/contracts/utils/Address.sol\";\nimport \"@openzeppelin/contracts/utils/structs/EnumerableSet.sol\";\nimport \"@openzeppelin/contracts/security/ReentrancyGuard.sol\";\nimport \"@openzeppelin/contracts/token/ERC721/IERC721.sol\";\nimport \"@openzeppelin/contracts/token/ERC20/utils/SafeERC20.sol\";\nimport \"@openzeppelin/contracts/token/ERC20/IERC20.sol\";\nimport \"@openzeppelin/contracts/token/ERC721/utils/ERC721Holder.sol\";\nimport \"./interface/INFTKEYMarketPlaceV1.sol\";\n\n/**\n * @title NFTKEY MarketPlace contract V1\n * Note: This marketplace contract is collection based. It serves one ERC721 contract only\n * Payment tokens usually is the chain native coin's wrapped token, e.g. WETH, WBNB\n */\ncontract StartfiMarketPlace is INFTKEYMarketPlaceV1, Ownable, ReentrancyGuard,ERC721Holder {\n    using SafeMath for uint256;\n    using Address for address;\n     using SafeERC20 for IERC20;\n    using EnumerableSet for EnumerableSet.UintSet;\n    using EnumerableSet for EnumerableSet.AddressSet;\n\n\n    constructor(\n        string memory marketPlaceName_,\n        address _erc721Address,\n        address _paymentTokenAddress\n    ) public {\n        _marketPlaceName = marketPlaceName_;\n        _erc721 = IERC721(_erc721Address);\n        _paymentToken = IERC20(_paymentTokenAddress);\n    }\n\n    string private _marketPlaceName;\n    IERC721 private immutable _erc721;\n    IERC20 private immutable _paymentToken;\n\n    bool private _isListingAndBidEnabled = true;\n    uint8 private _feeFraction = 1;\n    uint8 private _feeBase = 100;\n    uint256 private _actionTimeOutRangeMin = 86400; // 24 hours\n    uint256 private _actionTimeOutRangeMax = 31536000; // One year - This can extend by owner is contract is working smoothly\n\n    mapping(uint256 => Listing) private _tokenListings;\n    EnumerableSet.UintSet private _tokenIdWithListing;\n\n    mapping(uint256 => mapping(address=>Bid)) private _tokenBids;\n    EnumerableSet.UintSet private _tokenIdWithBid;\n//\n    EnumerableSet.AddressSet private _emptyBidders; // Help initiate TokenBid struct\n\n\n    /**\n     * @dev only if listing and bid is enabled\n     * This is to help contract migration in case of upgrade or bug\n     */\n    modifier onlyMarketplaceOpen() {\n        require(_isListingAndBidEnabled, \"Listing and bid are not enabled\");\n        _;\n    }\n\n    /**\n     * @dev only if the entered timestamp is within the allowed range\n     * This helps to not list or bid for too short or too long period of time\n     */\n    modifier onlyAllowedExpireTimestamp(uint256 expireTimestamp) {\n        require(\n            expireTimestamp.sub(block.timestamp) >= _actionTimeOutRangeMin,\n            \"Please enter a longer period of time\"\n        );\n        require(\n            expireTimestamp.sub(block.timestamp) <= _actionTimeOutRangeMax,\n            \"Please enter a shorter period of time\"\n        );\n        _;\n    }\n\n    /**\n     * @dev check if the account is the owner of this erc721 token\n     */\n    function _isTokenOwner(uint256 tokenId, address account) private view returns (bool) {\n        try _erc721.ownerOf(tokenId) returns (address tokenOwner) {\n            return tokenOwner == account;\n        } catch {\n            return false;\n        }\n    }\n\n    /**\n     * @dev check if this contract has approved to transfer this erc721 token\n     */\n    function _isTokenApproved(uint256 tokenId) private view returns (bool) {\n        try _erc721.getApproved(tokenId) returns (address tokenOperator) {\n            return tokenOperator == address(this);\n        } catch {\n            return false;\n        }\n    }\n\n    /**\n     * @dev check if this contract has approved to all of this owner's erc721 tokens\n     */\n    function _isAllTokenApproved(address owner) private view returns (bool) {\n        return _erc721.isApprovedForAll(owner, address(this));\n    }\n\n    /**\n     * @dev See {INFTKEYMarketPlaceV1-tokenAddress}.\n     */\n    function tokenAddress() external view override returns (address) {\n        return address(_erc721);\n    }\n\n    /**\n     * @dev See {INFTKEYMarketPlaceV1-paymentTokenAddress}.\n     */\n    function paymentTokenAddress() external view override returns (address) {\n        return address(_paymentToken);\n    }\n\n    /**\n     * @dev Check if a listing is valid or not\n     * The seller must be the owner\n     * The seller must have give this contract allowance\n     * The sell price must be more than 0\n     * The listing mustn't be expired\n     */\n    function _isListingValid(Listing memory listing) private view returns (bool) {\n        if (\n            _isTokenOwner(listing.tokenId, listing.seller) &&\n            (_isTokenApproved(listing.tokenId) || _isAllTokenApproved(listing.seller)) &&\n            listing.listingPrice > 0 &&\n            listing.expireTimestamp > block.timestamp\n        ) {\n            return true;\n        }\n    }\n\n    /**\n     * @dev See {INFTKEYMarketPlaceV1-getTokenListing}.\n     */\n    function getTokenListing(uint256 tokenId) public view override returns (Listing memory) {\n        Listing memory listing = _tokenListings[tokenId];\n        if (_isListingValid(listing)) {\n            return listing;\n        }\n    }\n\n    /**\n     * @dev See {INFTKEYMarketPlaceV1-getTokenListings}.\n     */\n    function getTokenListings(uint256 from, uint256 size)\n        public\n        view\n        override\n        returns (Listing[] memory)\n    {\n        if (from < _tokenIdWithListing.length() && size > 0) {\n            uint256 querySize = size;\n            if ((from + size) > _tokenIdWithListing.length()) {\n                querySize = _tokenIdWithListing.length() - from;\n            }\n            Listing[] memory listings = new Listing[](querySize);\n            for (uint256 i = 0; i < querySize; i++) {\n                Listing memory listing = _tokenListings[_tokenIdWithListing.at(i + from)];\n                if (_isListingValid(listing)) {\n                    listings[i] = listing;\n                }\n            }\n            return listings;\n        }\n    }\n\n    /**\n     * @dev See {INFTKEYMarketPlaceV1-getAllTokenListings}.\n     */\n    function getAllTokenListings() external view override returns (Listing[] memory) {\n        return getTokenListings(0, _tokenIdWithListing.length());\n    }\n\n    /**\n     * @dev Check if an bid is valid or not\n     * Bidder must not be the owner\n     * Bidder must give the contract allowance same or more than bid price\n     * Bid price must > 0\n     * Bid mustn't been expired\n     */\n    function _isBidValid(Bid memory bid) private view returns (bool) {\n        if (\n            !_isTokenOwner(bid.tokenId, bid.bidder) &&\n            _paymentToken.allowance(bid.bidder, address(this)) >= bid.bidPrice &&\n            bid.bidPrice > 0 &&\n            bid.expireTimestamp > block.timestamp\n        ) {\n            return true;\n        }\n    }\n\n    /**\n     * @dev See {INFTKEYMarketPlaceV1-getBidderTokenBid}.\n     */\n    function getBidderTokenBid(uint256 tokenId, address bidder)\n        public\n        view\n        override\n        returns (Bid memory)\n    {\n        Bid memory bid = _tokenBids[tokenId][bidder];\n        if (_isBidValid(bid)) {\n            return bid;\n        }\n    }\n\n  \n    \n\n\n\n    /**\n     * @dev delist a token - remove token id record and remove listing from mapping\n     * @param tokenId erc721 token Id\n     */\n    function _delistToken(uint256 tokenId) private {\n        if (_tokenIdWithListing.contains(tokenId)) {\n            delete _tokenListings[tokenId];\n            _tokenIdWithListing.remove(tokenId);\n        }\n    }\n\n    /**\n     * @dev remove a bid of a bidder\n     * @param tokenId erc721 token Id\n     * @param bidder bidder address\n     */\n    function _removeBidOfBidder(uint256 tokenId, address bidder) private {\n        if (_tokenBids[tokenId][bidder].bidder!=address(0)) {\n            // Step 1: delete the bid and the address\n            delete _tokenBids[tokenId][bidder];\n        }\n    }\n\n    /**\n     * @dev See {INFTKEYMarketPlaceV1-listToken}.\n     * People can only list if listing is allowed\n     * The timestamp set needs to be in the allowed range\n     * Only token owner can list token\n     * Price must be higher than 0\n     * This contract must be approved to transfer this token\n     */\n    function listToken(\n        uint256 tokenId,\n        uint256 value,\n        uint256 expireTimestamp\n    ) external override onlyMarketplaceOpen onlyAllowedExpireTimestamp(expireTimestamp) {\n        require(value > 0, \"Please list for more than 0 or use the transfer function\");\n        require(_isTokenOwner(tokenId, msg.sender), \"Only token owner can list token\");\n        require(\n            _isTokenApproved(tokenId) || _isAllTokenApproved(msg.sender),\n            \"This token is not allowed to transfer by this contract\"\n        );\n\n        _tokenListings[tokenId] = Listing(tokenId, value, msg.sender, expireTimestamp);\n        _tokenIdWithListing.add(tokenId);\n\n        emit TokenListed(tokenId, msg.sender, value);\n    }\n\n    /**\n     * @dev See {INFTKEYMarketPlaceV1-delistToken}.\n     * msg.sender must be the seller of the listing record\n     */\n    function delistToken(uint256 tokenId) external override {\n        require(_tokenListings[tokenId].seller == msg.sender, \"Only token seller can delist token\");\n        emit TokenDelisted(tokenId, _tokenListings[tokenId].seller);\n        _delistToken(tokenId);\n    }\n\n    /**\n     * @dev See {INFTKEYMarketPlaceV1-buyToken}.\n     * Must have a valid listing\n     * msg.sender must not the owner of token\n     * token payment allowed must be at least sell price plus fees\n     */\n\n\n     \n    // function buyToken(uint256 tokenId) external payable override nonReentrant {\n    //     Listing memory listing = getTokenListing(tokenId); // Get valid listing\n    //     require(listing.seller != address(0), \"Token is not for sale\"); // Listing not valid\n    //     require(!_isTokenOwner(tokenId, msg.sender), \"Token owner can't buy their own token\");\n\n    //     uint256 fees = listing.listingPrice.mul(_feeFraction).div(_feeBase);\n    //     require(\n    //          _paymentToken.allowance(msg.sender, address(this)) >= listing.listingPrice .add( fees),\n    //         \"The value send is below sale price plus fees\"\n    //     );\n\n    //     // Send value to token seller and fees to contract owner\n    //     uint256 valueWithoutFees =  _paymentToken.allowance(msg.sender, address(this)).sub(fees);\n    //     _paymentToken.safeTransferFrom( msg.sender,listing.seller, valueWithoutFees);\n    //     _paymentToken.safeTransferFrom( msg.sender, owner(), fees);\n    \n    //     // Send token to buyer\n    //     emit TokenBought(tokenId, listing.seller, msg.sender, msg.value, valueWithoutFees, fees);\n    //     _erc721.safeTransferFrom(listing.seller, msg.sender, tokenId);\n\n    //     // Remove token listing\n    //     _delistToken(tokenId);\n    //     _removeBidOfBidder(tokenId, msg.sender);\n    // }\n\n    /**\n     * @dev See {INFTKEYMarketPlaceV1-enterBidForToken}.\n     * People can only enter bid if bid is allowed\n     * The timestamp set needs to be in the allowed range\n     * bid price > 0\n     * must not be token owner\n     * must allow this contract to spend enough payment token\n     */\n    function enterBidForToken(\n        uint256 tokenId,\n        uint256 bidPrice,\n        uint256 expireTimestamp\n    ) external override onlyMarketplaceOpen onlyAllowedExpireTimestamp(expireTimestamp) {\n        require(bidPrice > 0, \"Please bid for more than 0\");\n        require(!_isTokenOwner(tokenId, msg.sender), \"This Token belongs to this address\");\n        require(\n            _paymentToken.allowance(msg.sender, address(this)) >= bidPrice,\n            \"Need to have enough token holding to bid on this token\"\n        );\n\n        Bid memory bid = Bid(tokenId, bidPrice, msg.sender, expireTimestamp);\n\n        // if no bids of this token add a entry to both records _tokenIdWithBid and _tokenBids\n        if (!_tokenIdWithBid.contains(tokenId)) {\n            _tokenIdWithBid.add(tokenId);\n        }\n\n         _tokenBids[tokenId][msg.sender] = bid;\n\n        emit TokenBidEntered(tokenId, msg.sender, bidPrice);\n    }\n\n    /**\n     * @dev See {INFTKEYMarketPlaceV1-withdrawBidForToken}.\n     * There must be a bid exists\n     * remove this bid record\n     */\n    function withdrawBidForToken(uint256 tokenId) external override {\n        Bid memory bid = _tokenBids[tokenId][msg.sender];\n        require(bid.bidder == msg.sender, \"This address doesn't have bid on this token\");\n\n        emit TokenBidWithdrawn(tokenId, bid.bidder, bid.bidPrice);\n        _removeBidOfBidder(tokenId, msg.sender);\n    }\n\n    /**\n     * @dev See {INFTKEYMarketPlaceV1-acceptBidForToken}.\n     * Must be owner of this token\n     * Must have approved this contract to transfer token\n     * Must have a valid existing bid that matches the bidder address\n     */\n    function acceptBidForToken(uint256 tokenId, address bidder) external override nonReentrant {\n        require(_isTokenOwner(tokenId, msg.sender), \"Only token owner can accept bid of token\");\n        require(\n            _isTokenApproved(tokenId) || _isAllTokenApproved(msg.sender),\n            \"The token is not approved to transfer by the contract\"\n        );\n\n        Bid memory existingBid = getBidderTokenBid(tokenId, bidder);\n        require(\n            existingBid.bidPrice > 0 && existingBid.bidder == bidder,\n            \"This token doesn't have a matching bid\"\n        );\n\n        uint256 fees = existingBid.bidPrice.mul(_feeFraction).div(_feeBase + _feeFraction);\n        uint256 tokenValue = existingBid.bidPrice.sub(fees);\n\n        _paymentToken.safeTransferFrom( existingBid.bidder, msg.sender, tokenValue);\n        _paymentToken.safeTransferFrom( existingBid.bidder, owner(), fees);\n\n        _erc721.safeTransferFrom(msg.sender, existingBid.bidder, tokenId);\n\n        emit TokenBidAccepted(\n            tokenId,\n            msg.sender,\n            existingBid.bidder,\n            existingBid.bidPrice,\n            tokenValue,\n            fees\n        );\n\n        // Remove token listing\n        _delistToken(tokenId);\n        _removeBidOfBidder(tokenId, existingBid.bidder);\n    }\n\n    /**\n     * @dev See {INFTKEYMarketPlaceV1-getInvalidListingCount}.\n     */\n    function getInvalidListingCount() external view override returns (uint256) {\n        uint256 count = 0;\n        for (uint256 i = 0; i < _tokenIdWithListing.length(); i++) {\n            if (!_isListingValid(_tokenListings[_tokenIdWithListing.at(i)])) {\n                count = count.add(1);\n            }\n        }\n        return count;\n    }\n\n \n\n  \n\n   \n\n    /**\n     * @dev See {INFTKEYMarketPlaceV1-marketPlaceName}.\n     */\n    function marketPlaceName() external view override returns (string memory) {\n        return _marketPlaceName;\n    }\n\n    /**\n     * @dev See {INFTKEYMarketPlaceV1-isListingAndBidEnabled}.\n     */\n    function isListingAndBidEnabled() external view override returns (bool) {\n        return _isListingAndBidEnabled;\n    }\n\n    /**\n     * @dev Enable to disable Bids and Listing\n     */\n    function changeMarketplaceStatus(bool enabled) external onlyOwner {\n        _isListingAndBidEnabled = enabled;\n    }\n\n    /**\n     * @dev See {INFTKEYMarketPlaceV1-actionTimeOutRangeMin}.\n     */\n    function actionTimeOutRangeMin() external view override returns (uint256) {\n        return _actionTimeOutRangeMin;\n    }\n\n    /**\n     * @dev See {INFTKEYMarketPlaceV1-actionTimeOutRangeMax}.\n     */\n    function actionTimeOutRangeMax() external view override returns (uint256) {\n        return _actionTimeOutRangeMax;\n    }\n\n    /**\n     * @dev Change minimum listing and bid time range\n     */\n    function changeMinActionTimeLimit(uint256 timeInSec) external onlyOwner {\n        _actionTimeOutRangeMin = timeInSec;\n    }\n\n    /**\n     * @dev Change maximum listing and bid time range\n     */\n    function changeMaxActionTimeLimit(uint256 timeInSec) external onlyOwner {\n        _actionTimeOutRangeMax = timeInSec;\n    }\n\n    /**\n     * @dev See {INFTKEYMarketPlaceV1-serviceFee}.\n     */\n    function serviceFee() external view override returns (uint8, uint8) {\n        return (_feeFraction, _feeBase);\n    }\n\n    /**\n     * @dev Change withdrawal fee percentage.\n     * If 1%, then input (1,100)\n     * If 0.5%, then input (5,1000)\n     * @param feeFraction_ Fraction of withdrawal fee based on feeBase_\n     * @param feeBase_ Fraction of withdrawal fee base\n     */\n    function changeSeriveFee(uint8 feeFraction_, uint8 feeBase_) external onlyOwner {\n        require(feeFraction_ <= feeBase_, \"Fee fraction exceeded base.\");\n        uint256 percentage = (feeFraction_ * 1000) / feeBase_;\n        require(percentage <= 25, \"Attempt to set percentage higher than 2.5%.\");\n\n        _feeFraction = feeFraction_;\n        _feeBase = feeBase_;\n    }\n}\n",
  "sourcePath": "/home/yehia/Documents/startups/Startfi/projects/startfi/startfi-core/contracts/StartFiMarketPlace.sol",
  "compiler": {
    "name": "solc",
    "version": "0.8.0+commit.c7dfd78e.Emscripten.clang"
  },
  "schemaVersion": "3.4.1",
  "updatedAt": "2021-06-13T10:46:56.123Z",
  "networkType": "ethereum",
  "devdoc": {
    "kind": "dev",
    "methods": {
      "acceptBidForToken(uint256,address)": {
        "details": "See {INFTKEYMarketPlaceV1-acceptBidForToken}. Must be owner of this token Must have approved this contract to transfer token Must have a valid existing bid that matches the bidder address"
      },
      "actionTimeOutRangeMax()": {
        "details": "See {INFTKEYMarketPlaceV1-actionTimeOutRangeMax}."
      },
      "actionTimeOutRangeMin()": {
        "details": "See {INFTKEYMarketPlaceV1-actionTimeOutRangeMin}."
      },
      "changeMarketplaceStatus(bool)": {
        "details": "Enable to disable Bids and Listing"
      },
      "changeMaxActionTimeLimit(uint256)": {
        "details": "Change maximum listing and bid time range"
      },
      "changeMinActionTimeLimit(uint256)": {
        "details": "Change minimum listing and bid time range"
      },
      "changeSeriveFee(uint8,uint8)": {
        "details": "Change withdrawal fee percentage. If 1%, then input (1,100) If 0.5%, then input (5,1000)",
        "params": {
          "feeBase_": "Fraction of withdrawal fee base",
          "feeFraction_": "Fraction of withdrawal fee based on feeBase_"
        }
      },
      "delistToken(uint256)": {
        "details": "See {INFTKEYMarketPlaceV1-delistToken}. msg.sender must be the seller of the listing record"
      },
      "enterBidForToken(uint256,uint256,uint256)": {
        "details": "See {INFTKEYMarketPlaceV1-enterBidForToken}. People can only enter bid if bid is allowed The timestamp set needs to be in the allowed range bid price > 0 must not be token owner must allow this contract to spend enough payment token"
      },
      "getAllTokenListings()": {
        "details": "See {INFTKEYMarketPlaceV1-getAllTokenListings}."
      },
      "getBidderTokenBid(uint256,address)": {
        "details": "See {INFTKEYMarketPlaceV1-getBidderTokenBid}."
      },
      "getInvalidListingCount()": {
        "details": "See {INFTKEYMarketPlaceV1-getInvalidListingCount}."
      },
      "getTokenListing(uint256)": {
        "details": "See {INFTKEYMarketPlaceV1-getTokenListing}."
      },
      "getTokenListings(uint256,uint256)": {
        "details": "See {INFTKEYMarketPlaceV1-getTokenListings}."
      },
      "isListingAndBidEnabled()": {
        "details": "See {INFTKEYMarketPlaceV1-isListingAndBidEnabled}."
      },
      "listToken(uint256,uint256,uint256)": {
        "details": "See {INFTKEYMarketPlaceV1-listToken}. People can only list if listing is allowed The timestamp set needs to be in the allowed range Only token owner can list token Price must be higher than 0 This contract must be approved to transfer this token"
      },
      "marketPlaceName()": {
        "details": "See {INFTKEYMarketPlaceV1-marketPlaceName}."
      },
      "onERC721Received(address,address,uint256,bytes)": {
        "details": "See {IERC721Receiver-onERC721Received}. Always returns `IERC721Receiver.onERC721Received.selector`."
      },
      "owner()": {
        "details": "Returns the address of the current owner."
      },
      "paymentTokenAddress()": {
        "details": "See {INFTKEYMarketPlaceV1-paymentTokenAddress}."
      },
      "renounceOwnership()": {
        "details": "Leaves the contract without owner. It will not be possible to call `onlyOwner` functions anymore. Can only be called by the current owner. NOTE: Renouncing ownership will leave the contract without an owner, thereby removing any functionality that is only available to the owner."
      },
      "serviceFee()": {
        "details": "See {INFTKEYMarketPlaceV1-serviceFee}."
      },
      "tokenAddress()": {
        "details": "See {INFTKEYMarketPlaceV1-tokenAddress}."
      },
      "transferOwnership(address)": {
        "details": "Transfers ownership of the contract to a new account (`newOwner`). Can only be called by the current owner."
      },
      "withdrawBidForToken(uint256)": {
        "details": "See {INFTKEYMarketPlaceV1-withdrawBidForToken}. There must be a bid exists remove this bid record"
      }
    },
    "title": "NFTKEY MarketPlace contract V1 Note: This marketplace contract is collection based. It serves one ERC721 contract only Payment tokens usually is the chain native coin's wrapped token, e.g. WETH, WBNB",
    "version": 1
  },
  "userdoc": {
    "kind": "user",
    "methods": {},
    "version": 1
  }
}