{
  "address": "0x61f682353E404a3F1C1987493Fd8d475C66c827B",
  "abi": [
    {
      "inputs": [
        {
          "internalType": "string",
          "name": "_marketPlaceName",
          "type": "string"
        },
        {
          "internalType": "address",
          "name": "_paymentContract",
          "type": "address"
        },
        {
          "internalType": "address",
          "name": "_stakeContract",
          "type": "address"
        },
        {
          "internalType": "address",
          "name": "_reputationContract",
          "type": "address"
        }
      ],
      "stateMutability": "nonpayable",
      "type": "constructor"
    },
    {
      "anonymous": false,
      "inputs": [
        {
          "indexed": false,
          "internalType": "bytes32",
          "name": "bidId",
          "type": "bytes32"
        },
        {
          "indexed": false,
          "internalType": "bytes32",
          "name": "listingId",
          "type": "bytes32"
        },
        {
          "indexed": false,
          "internalType": "address",
          "name": "tokenAddress",
          "type": "address"
        },
        {
          "indexed": false,
          "internalType": "address",
          "name": "bidder",
          "type": "address"
        },
        {
          "indexed": false,
          "internalType": "uint256",
          "name": "tokenId",
          "type": "uint256"
        },
        {
          "indexed": false,
          "internalType": "uint256",
          "name": "bidPrice",
          "type": "uint256"
        },
        {
          "indexed": false,
          "internalType": "uint256",
          "name": "timestamp",
          "type": "uint256"
        }
      ],
      "name": "BidOnAuction",
      "type": "event"
    },
    {
      "anonymous": false,
      "inputs": [
        {
          "indexed": false,
          "internalType": "bytes32",
          "name": "listId",
          "type": "bytes32"
        },
        {
          "indexed": false,
          "internalType": "address",
          "name": "nFTContract",
          "type": "address"
        },
        {
          "indexed": false,
          "internalType": "address",
          "name": "buyer",
          "type": "address"
        },
        {
          "indexed": false,
          "internalType": "uint256",
          "name": "tokenId",
          "type": "uint256"
        },
        {
          "indexed": false,
          "internalType": "uint256",
          "name": "sellingPrice",
          "type": "uint256"
        },
        {
          "indexed": false,
          "internalType": "address",
          "name": "seller",
          "type": "address"
        },
        {
          "indexed": false,
          "internalType": "bool",
          "name": "isAucton",
          "type": "bool"
        },
        {
          "indexed": false,
          "internalType": "address",
          "name": "issuer",
          "type": "address"
        },
        {
          "indexed": false,
          "internalType": "uint256",
          "name": "royaltyAmount",
          "type": "uint256"
        },
        {
          "indexed": false,
          "internalType": "uint256",
          "name": "fees",
          "type": "uint256"
        },
        {
          "indexed": false,
          "internalType": "uint256",
          "name": "netPrice",
          "type": "uint256"
        },
        {
          "indexed": false,
          "internalType": "uint256",
          "name": "timestamp",
          "type": "uint256"
        }
      ],
      "name": "BuyNow",
      "type": "event"
    },
    {
      "anonymous": false,
      "inputs": [
        {
          "indexed": false,
          "internalType": "bytes32",
          "name": "listId",
          "type": "bytes32"
        },
        {
          "indexed": false,
          "internalType": "address",
          "name": "nFTContract",
          "type": "address"
        },
        {
          "indexed": false,
          "internalType": "address",
          "name": "seller",
          "type": "address"
        },
        {
          "indexed": false,
          "internalType": "uint256",
          "name": "tokenId",
          "type": "uint256"
        },
        {
          "indexed": false,
          "internalType": "uint256",
          "name": "listingPrice",
          "type": "uint256"
        },
        {
          "indexed": false,
          "internalType": "bool",
          "name": "sellForEnabled",
          "type": "bool"
        },
        {
          "indexed": false,
          "internalType": "uint256",
          "name": "sellFor",
          "type": "uint256"
        },
        {
          "indexed": false,
          "internalType": "uint256",
          "name": "releaseTime",
          "type": "uint256"
        },
        {
          "indexed": false,
          "internalType": "uint256",
          "name": "qualifyAmount",
          "type": "uint256"
        },
        {
          "indexed": false,
          "internalType": "uint256",
          "name": "timestamp",
          "type": "uint256"
        }
      ],
      "name": "CreateAuction",
      "type": "event"
    },
    {
      "anonymous": false,
      "inputs": [
        {
          "indexed": false,
          "internalType": "bytes32",
          "name": "listId",
          "type": "bytes32"
        },
        {
          "indexed": false,
          "internalType": "address",
          "name": "nFTContract",
          "type": "address"
        },
        {
          "indexed": false,
          "internalType": "address",
          "name": "owner",
          "type": "address"
        },
        {
          "indexed": false,
          "internalType": "uint256",
          "name": "tokenId",
          "type": "uint256"
        },
        {
          "indexed": false,
          "internalType": "uint256",
          "name": "fineFees",
          "type": "uint256"
        },
        {
          "indexed": false,
          "internalType": "uint256",
          "name": "remaining",
          "type": "uint256"
        },
        {
          "indexed": false,
          "internalType": "uint256",
          "name": "releaseTime",
          "type": "uint256"
        },
        {
          "indexed": false,
          "internalType": "uint256",
          "name": "timestamp",
          "type": "uint256"
        }
      ],
      "name": "DeListOffMarketplace",
      "type": "event"
    },
    {
      "anonymous": false,
      "inputs": [
        {
          "indexed": false,
          "internalType": "bytes32",
          "name": "bidId",
          "type": "bytes32"
        },
        {
          "indexed": false,
          "internalType": "bytes32",
          "name": "listingId",
          "type": "bytes32"
        },
        {
          "indexed": false,
          "internalType": "address",
          "name": "tokenAddress",
          "type": "address"
        },
        {
          "indexed": false,
          "internalType": "address",
          "name": "bidder",
          "type": "address"
        },
        {
          "indexed": false,
          "internalType": "uint256",
          "name": "tokenId",
          "type": "uint256"
        },
        {
          "indexed": false,
          "internalType": "address",
          "name": "seller",
          "type": "address"
        },
        {
          "indexed": false,
          "internalType": "uint256",
          "name": "qualifyAmount",
          "type": "uint256"
        },
        {
          "indexed": false,
          "internalType": "uint256",
          "name": "remaining",
          "type": "uint256"
        },
        {
          "indexed": false,
          "internalType": "uint256",
          "name": "finefees",
          "type": "uint256"
        },
        {
          "indexed": false,
          "internalType": "uint256",
          "name": "timestamp",
          "type": "uint256"
        }
      ],
      "name": "DisputeAuction",
      "type": "event"
    },
    {
      "anonymous": false,
      "inputs": [
        {
          "indexed": false,
          "internalType": "bytes32",
          "name": "bidId",
          "type": "bytes32"
        },
        {
          "indexed": false,
          "internalType": "bytes32",
          "name": "listingId",
          "type": "bytes32"
        },
        {
          "indexed": false,
          "internalType": "address",
          "name": "tokenAddress",
          "type": "address"
        },
        {
          "indexed": false,
          "internalType": "address",
          "name": "bidder",
          "type": "address"
        },
        {
          "indexed": false,
          "internalType": "uint256",
          "name": "tokenId",
          "type": "uint256"
        },
        {
          "indexed": false,
          "internalType": "uint256",
          "name": "bidPrice",
          "type": "uint256"
        },
        {
          "indexed": false,
          "internalType": "address",
          "name": "issuer",
          "type": "address"
        },
        {
          "indexed": false,
          "internalType": "uint256",
          "name": "royaltyAmount",
          "type": "uint256"
        },
        {
          "indexed": false,
          "internalType": "uint256",
          "name": "fees",
          "type": "uint256"
        },
        {
          "indexed": false,
          "internalType": "uint256",
          "name": "netPrice",
          "type": "uint256"
        },
        {
          "indexed": false,
          "internalType": "uint256",
          "name": "timestamp",
          "type": "uint256"
        }
      ],
      "name": "FullfillBid",
      "type": "event"
    },
    {
      "anonymous": false,
      "inputs": [
        {
          "indexed": false,
          "internalType": "bytes32",
          "name": "listId",
          "type": "bytes32"
        },
        {
          "indexed": false,
          "internalType": "address",
          "name": "nFTContract",
          "type": "address"
        },
        {
          "indexed": false,
          "internalType": "address",
          "name": "buyer",
          "type": "address"
        },
        {
          "indexed": false,
          "internalType": "uint256",
          "name": "tokenId",
          "type": "uint256"
        },
        {
          "indexed": false,
          "internalType": "uint256",
          "name": "listingPrice",
          "type": "uint256"
        },
        {
          "indexed": false,
          "internalType": "uint256",
          "name": "releaseTime",
          "type": "uint256"
        },
        {
          "indexed": false,
          "internalType": "uint256",
          "name": "qualifyAmount",
          "type": "uint256"
        },
        {
          "indexed": false,
          "internalType": "uint256",
          "name": "timestamp",
          "type": "uint256"
        }
      ],
      "name": "ListOnMarketplace",
      "type": "event"
    },
    {
      "anonymous": false,
      "inputs": [
        {
          "indexed": true,
          "internalType": "address",
          "name": "previousOwner",
          "type": "address"
        },
        {
          "indexed": true,
          "internalType": "address",
          "name": "newOwner",
          "type": "address"
        }
      ],
      "name": "OwnershipTransferred",
      "type": "event"
    },
    {
      "anonymous": false,
      "inputs": [
        {
          "indexed": false,
          "internalType": "address",
          "name": "account",
          "type": "address"
        }
      ],
      "name": "Paused",
      "type": "event"
    },
    {
      "anonymous": false,
      "inputs": [
        {
          "indexed": false,
          "internalType": "address",
          "name": "account",
          "type": "address"
        }
      ],
      "name": "Unpaused",
      "type": "event"
    },
    {
      "anonymous": false,
      "inputs": [
        {
          "indexed": false,
          "internalType": "address",
          "name": "user",
          "type": "address"
        },
        {
          "indexed": false,
          "internalType": "uint256",
          "name": "lastReserves",
          "type": "uint256"
        },
        {
          "indexed": false,
          "internalType": "uint256",
          "name": "newReserves",
          "type": "uint256"
        },
        {
          "indexed": false,
          "internalType": "uint256",
          "name": "timestamp",
          "type": "uint256"
        }
      ],
      "name": "UserReservesFree",
      "type": "event"
    },
    {
      "inputs": [
        {
          "internalType": "bytes32",
          "name": "listingId",
          "type": "bytes32"
        },
        {
          "internalType": "address",
          "name": "tokenAddress",
          "type": "address"
        },
        {
          "internalType": "uint256",
          "name": "tokenId",
          "type": "uint256"
        },
        {
          "internalType": "uint256",
          "name": "bidPrice",
          "type": "uint256"
        }
      ],
      "name": "bid",
      "outputs": [
        {
          "internalType": "bytes32",
          "name": "bidId",
          "type": "bytes32"
        }
      ],
      "stateMutability": "nonpayable",
      "type": "function"
    },
    {
      "inputs": [],
      "name": "bidPenaltyPercentageBase",
      "outputs": [
        {
          "internalType": "uint256",
          "name": "",
          "type": "uint256"
        }
      ],
      "stateMutability": "view",
      "type": "function"
    },
    {
      "inputs": [
        {
          "internalType": "bytes32",
          "name": "listingId",
          "type": "bytes32"
        },
        {
          "internalType": "uint256",
          "name": "price",
          "type": "uint256"
        }
      ],
      "name": "buyNow",
      "outputs": [
        {
          "internalType": "address",
          "name": "_NFTContract",
          "type": "address"
        },
        {
          "internalType": "uint256",
          "name": "tokenId",
          "type": "uint256"
        }
      ],
      "stateMutability": "nonpayable",
      "type": "function"
    },
    {
      "inputs": [
        {
          "internalType": "address",
          "name": "nFTContract",
          "type": "address"
        },
        {
          "internalType": "uint256",
          "name": "tokenId",
          "type": "uint256"
        },
        {
          "internalType": "uint256",
          "name": "listingPrice",
          "type": "uint256"
        },
        {
          "internalType": "uint256",
          "name": "qualifyAmount",
          "type": "uint256"
        },
        {
          "internalType": "bool",
          "name": "sellForEnabled",
          "type": "bool"
        },
        {
          "internalType": "uint256",
          "name": "sellFor",
          "type": "uint256"
        },
        {
          "internalType": "uint256",
          "name": "duration",
          "type": "uint256"
        }
      ],
      "name": "createAuction",
      "outputs": [
        {
          "internalType": "bytes32",
          "name": "listId",
          "type": "bytes32"
        }
      ],
      "stateMutability": "nonpayable",
      "type": "function"
    },
    {
      "inputs": [
        {
          "internalType": "bytes32",
          "name": "listingId",
          "type": "bytes32"
        }
      ],
      "name": "deList",
      "outputs": [
        {
          "internalType": "address",
          "name": "_NFTContract",
          "type": "address"
        },
        {
          "internalType": "uint256",
          "name": "tokenId",
          "type": "uint256"
        }
      ],
      "stateMutability": "nonpayable",
      "type": "function"
    },
    {
      "inputs": [],
      "name": "delistAfter",
      "outputs": [
        {
          "internalType": "uint256",
          "name": "",
          "type": "uint256"
        }
      ],
      "stateMutability": "view",
      "type": "function"
    },
    {
      "inputs": [],
      "name": "delistFeesPercentage",
      "outputs": [
        {
          "internalType": "uint256",
          "name": "",
          "type": "uint256"
        }
      ],
      "stateMutability": "view",
      "type": "function"
    },
    {
      "inputs": [],
      "name": "delistFeesPercentageBase",
      "outputs": [
        {
          "internalType": "uint256",
          "name": "",
          "type": "uint256"
        }
      ],
      "stateMutability": "view",
      "type": "function"
    },
    {
      "inputs": [
        {
          "internalType": "bytes32",
          "name": "listingId",
          "type": "bytes32"
        }
      ],
      "name": "disputeAuction",
      "outputs": [
        {
          "internalType": "address",
          "name": "_NFTContract",
          "type": "address"
        },
        {
          "internalType": "uint256",
          "name": "tokenId",
          "type": "uint256"
        }
      ],
      "stateMutability": "nonpayable",
      "type": "function"
    },
    {
      "inputs": [],
      "name": "freeReserves",
      "outputs": [
        {
          "internalType": "uint256",
          "name": "curentReserves",
          "type": "uint256"
        }
      ],
      "stateMutability": "nonpayable",
      "type": "function"
    },
    {
      "inputs": [
        {
          "internalType": "bytes32",
          "name": "listingId",
          "type": "bytes32"
        }
      ],
      "name": "fullfillBid",
      "outputs": [
        {
          "internalType": "address",
          "name": "_NFTContract",
          "type": "address"
        },
        {
          "internalType": "uint256",
          "name": "tokenId",
          "type": "uint256"
        }
      ],
      "stateMutability": "nonpayable",
      "type": "function"
    },
    {
      "inputs": [
        {
          "internalType": "bytes32",
          "name": "listingId",
          "type": "bytes32"
        },
        {
          "internalType": "address",
          "name": "bidder",
          "type": "address"
        }
      ],
      "name": "getAuctionBidDetails",
      "outputs": [
        {
          "internalType": "bytes32",
          "name": "bidId",
          "type": "bytes32"
        },
        {
          "internalType": "address",
          "name": "nFTContract",
          "type": "address"
        },
        {
          "internalType": "uint256",
          "name": "tokenId",
          "type": "uint256"
        },
        {
          "internalType": "uint256",
          "name": "bidPrice",
          "type": "uint256"
        },
        {
          "internalType": "bool",
          "name": "isPurchased",
          "type": "bool"
        }
      ],
      "stateMutability": "view",
      "type": "function"
    },
    {
      "inputs": [
        {
          "internalType": "bytes32",
          "name": "listingId",
          "type": "bytes32"
        }
      ],
      "name": "getListingDetails",
      "outputs": [
        {
          "internalType": "address",
          "name": "tokenAddress",
          "type": "address"
        },
        {
          "internalType": "uint256",
          "name": "tokenId",
          "type": "uint256"
        },
        {
          "internalType": "uint256",
          "name": "listingPrice",
          "type": "uint256"
        },
        {
          "internalType": "uint256",
          "name": "endPrice",
          "type": "uint256"
        },
        {
          "internalType": "address",
          "name": "seller",
          "type": "address"
        },
        {
          "internalType": "address",
          "name": "buyer",
          "type": "address"
        },
        {
          "internalType": "bool",
          "name": "bedEnabeled",
          "type": "bool"
        },
        {
          "internalType": "bool",
          "name": "sellForEnabled",
          "type": "bool"
        },
        {
          "internalType": "uint256",
          "name": "releaseTime",
          "type": "uint256"
        },
        {
          "internalType": "uint256",
          "name": "qualifyAmount",
          "type": "uint256"
        },
        {
          "internalType": "uint256",
          "name": "sellFor",
          "type": "uint256"
        },
        {
          "internalType": "uint256",
          "name": "status",
          "type": "uint256"
        }
      ],
      "stateMutability": "view",
      "type": "function"
    },
    {
      "inputs": [],
      "name": "getServiceFee",
      "outputs": [
        {
          "internalType": "uint256",
          "name": "",
          "type": "uint256"
        }
      ],
      "stateMutability": "view",
      "type": "function"
    },
    {
      "inputs": [
        {
          "internalType": "address",
          "name": "user",
          "type": "address"
        }
      ],
      "name": "getUserReserved",
      "outputs": [
        {
          "internalType": "uint256",
          "name": "",
          "type": "uint256"
        }
      ],
      "stateMutability": "view",
      "type": "function"
    },
    {
      "inputs": [
        {
          "internalType": "address",
          "name": "nFTContract",
          "type": "address"
        },
        {
          "internalType": "uint256",
          "name": "tokenId",
          "type": "uint256"
        },
        {
          "internalType": "uint256",
          "name": "listingPrice",
          "type": "uint256"
        }
      ],
      "name": "listOnMarketplace",
      "outputs": [
        {
          "internalType": "bytes32",
          "name": "listId",
          "type": "bytes32"
        }
      ],
      "stateMutability": "nonpayable",
      "type": "function"
    },
    {
      "inputs": [],
      "name": "listqualifyPercentage",
      "outputs": [
        {
          "internalType": "uint256",
          "name": "",
          "type": "uint256"
        }
      ],
      "stateMutability": "view",
      "type": "function"
    },
    {
      "inputs": [],
      "name": "listqualifyPercentageBase",
      "outputs": [
        {
          "internalType": "uint256",
          "name": "",
          "type": "uint256"
        }
      ],
      "stateMutability": "view",
      "type": "function"
    },
    {
      "inputs": [],
      "name": "marketPlaceName",
      "outputs": [
        {
          "internalType": "string",
          "name": "",
          "type": "string"
        }
      ],
      "stateMutability": "view",
      "type": "function"
    },
    {
      "inputs": [
        {
          "internalType": "address",
          "name": "",
          "type": "address"
        },
        {
          "internalType": "address",
          "name": "",
          "type": "address"
        },
        {
          "internalType": "uint256",
          "name": "",
          "type": "uint256"
        },
        {
          "internalType": "bytes",
          "name": "",
          "type": "bytes"
        }
      ],
      "name": "onERC721Received",
      "outputs": [
        {
          "internalType": "bytes4",
          "name": "",
          "type": "bytes4"
        }
      ],
      "stateMutability": "nonpayable",
      "type": "function"
    },
    {
      "inputs": [],
      "name": "owner",
      "outputs": [
        {
          "internalType": "address",
          "name": "",
          "type": "address"
        }
      ],
      "stateMutability": "view",
      "type": "function"
    },
    {
      "inputs": [],
      "name": "paused",
      "outputs": [
        {
          "internalType": "bool",
          "name": "",
          "type": "bool"
        }
      ],
      "stateMutability": "view",
      "type": "function"
    },
    {
      "inputs": [],
      "name": "renounceOwnership",
      "outputs": [],
      "stateMutability": "nonpayable",
      "type": "function"
    },
    {
      "inputs": [],
      "name": "stakeContract",
      "outputs": [
        {
          "internalType": "address",
          "name": "",
          "type": "address"
        }
      ],
      "stateMutability": "view",
      "type": "function"
    },
    {
      "inputs": [
        {
          "internalType": "address",
          "name": "newOwner",
          "type": "address"
        }
      ],
      "name": "transferOwnership",
      "outputs": [],
      "stateMutability": "nonpayable",
      "type": "function"
    },
    {
      "inputs": [
        {
          "internalType": "bytes32",
          "name": "listingId",
          "type": "bytes32"
        }
      ],
      "name": "winnerBid",
      "outputs": [
        {
          "internalType": "bytes32",
          "name": "bidId",
          "type": "bytes32"
        },
        {
          "internalType": "address",
          "name": "bidder",
          "type": "address"
        },
        {
          "internalType": "address",
          "name": "nFTContract",
          "type": "address"
        },
        {
          "internalType": "uint256",
          "name": "tokenId",
          "type": "uint256"
        },
        {
          "internalType": "uint256",
          "name": "bidPrice",
          "type": "uint256"
        },
        {
          "internalType": "bool",
          "name": "isPurchased",
          "type": "bool"
        }
      ],
      "stateMutability": "view",
      "type": "function"
    }
  ],
  "transactionHash": "0x33f7a3d1aaa94a95e0cb13f2bcdb4e7e7ab118528b049b5690002c9a0676c7d4",
  "args": [
    "StartFi Market",
    "0xE6042703475D0dd1bC2eB564a55F1832c2527171",
    "0x9cCA28d98EC895c50C266b7f138dD6316aADB52A",
    "0x9b4e383192a089C8177f5E1293FC037956Cfd884"
  ],
  "solcInputHash": "720d8e60b456acb61cbc0ff1c06f337a",
  "bytecode": "0x608060405262ed4e0060019081556006805463ffffffff1916632a55205a1790556007819055606460088190556009829055600a828155600b92909255600c819055600d819055600e556013553480156200005957600080fd5b5060405162003ba838038062003ba88339810160408190526200007c916200021b565b8383828260006200008c62000154565b600080546001600160a01b0319166001600160a01b0383169081178255604051929350917f8be0079c531659141344cd1fd0a4f28419497f9722a3daafe3b4186f6b6457e0908290a3506000805460ff60a01b191690558051620000f890600590602084019062000158565b5050600680546001600160a01b0393841664010000000002600160201b600160c01b0319909116179055601280549183166001600160a01b03199283161790556011805495909216941693909317909255506200037792505050565b3390565b828054620001669062000324565b90600052602060002090601f0160209004810192826200018a5760008555620001d5565b82601f10620001a557805160ff1916838001178555620001d5565b82800160010185558215620001d5579182015b82811115620001d5578251825591602001919060010190620001b8565b50620001e3929150620001e7565b5090565b5b80821115620001e35760008155600101620001e8565b80516001600160a01b03811681146200021657600080fd5b919050565b6000806000806080858703121562000231578384fd5b84516001600160401b038082111562000248578586fd5b818701915087601f8301126200025c578586fd5b81518181111562000271576200027162000361565b6040516020601f8301601f191682018101848111838210171562000299576200029962000361565b60405282825284830181018b1015620002b0578889fd5b8893505b82841015620002d35784840181015182850182015292830192620002b4565b82841115620002e457888184840101525b819850620002f4818b01620001fe565b975050505050506200030960408601620001fe565b91506200031960608601620001fe565b905092959194509250565b6002810460018216806200033957607f821691505b602082108114156200035b57634e487b7160e01b600052602260045260246000fd5b50919050565b634e487b7160e01b600052604160045260246000fd5b61382180620003876000396000f3fe608060405234801561001057600080fd5b506004361061018e5760003560e01c8063649ee683116100de5780638da5cb5b11610097578063e123ff5811610071578063e123ff581461032a578063e1a1d7ed1461033d578063f2fde38b14610361578063ff90ec06146103745761018e565b80638da5cb5b146102fa5780638ef291e914610302578063d4ef929a146103175761018e565b8063649ee683146102a55780636b041547146102ad5780636bb59816146102b5578063715018a6146102bd57806375b4a5e8146102c75780637b356561146102cf5761018e565b80634b3ee2bb1161014b5780635bbd49f4116101255780635bbd49f4146102625780635c975abb146102755780635cc310ba1461028a5780635ebd63cc146102925761018e565b80634b3ee2bb1461021457806356461e8e1461023957806356e9d1f3146102415761018e565b80630a42e75a1461019357806311a1933c146101b1578063150b7a02146101b95780631a186227146101d95780631f78fd0b146101ee57806329c5cdf314610201575b600080fd5b61019b610387565b6040516101a89190612cda565b60405180910390f35b61019b61038d565b6101cc6101c73660046128f3565b610393565b6040516101a89190612f37565b6101e16103a3565b6040516101a89190612bce565b61019b6101fc3660046128bb565b6103b2565b61019b61020f3660046129f0565b6103d1565b610227610222366004612aa7565b6105e4565b6040516101a896959493929190612d4e565b61019b61063e565b61025461024f366004612aa7565b610644565b6040516101a8929190612c20565b61019b610270366004612a24565b610889565b61027d610a39565b6040516101a89190612ccf565b61019b610a49565b61019b6102a0366004612aee565b610a4f565b61019b610d36565b61019b610d3c565b61019b610d42565b6102c5611129565b005b61019b6111b2565b6102e26102dd366004612aa7565b6111b8565b6040516101a89c9b9a99989796959493929190612c5f565b6101e161125c565b61030a61126b565b6040516101a89190612f4c565b610254610325366004612aa7565b6112fd565b610254610338366004612aa7565b6115e9565b61035061034b366004612abf565b611818565b6040516101a8959493929190612e19565b6102c561036f3660046128bb565b611860565b610254610382366004612b2a565b611920565b60015481565b60075490565b630a85bd0160e11b949350505050565b6011546001600160a01b031681565b6001600160a01b0381166000908152600f60205260409020545b919050565b600081600081116103fd5760405162461bcd60e51b81526004016103f4906135b0565b60405180910390fd5b600061040b42600154611c1f565b90508585610417611c32565b8360405160200161042b9493929190612b63565b604051602081830303815290604052805190602001209250600061044e85611c36565b90508061046161045c611c32565b611c5f565b101561047f5760405162461bcd60e51b81526004016103f490613303565b6104898787611cff565b6104a55760405162461bcd60e51b81526004016103f49061355f565b6104b887876104b2611c32565b30611d95565b6104d45760405162461bcd60e51b81526004016103f4906135e7565b6104e76104df611c32565b826001611e05565b506000601060006104f6611c32565b6001600160a01b03168152602080820192909252604001600090812080546001810182558183529282209092018790559091508190601090610536611c32565b6001600160a01b031681526020810191909152604001600020815461055b9290612835565b506105718589610569611c32565b8a8a88611e7b565b61058d5760405162461bcd60e51b81526004016103f49061308c565b7f4273eae081fe1625584d9ab2b9e558adb9b60b846999d5b07de6e4664464767c85896105b8611c32565b8a8a8888426040516105d1989796959493929190612dd7565b60405180910390a1505050509392505050565b6000908152600460208181526040808420805460019182015460038086528488206001600160a01b03928316808a529652939096209182015460028301549383015492909501549096939594909416939192909160ff1690565b600e5481565b600081815260026020819052604090912060098101546005820154600483015483546006850154958501546001909501546001600160a01b0391821696909560ff9095169493821693929091169161069a611c32565b6001600160a01b0316836001600160a01b0316146106ca5760405162461bcd60e51b81526004016103f490613055565b6001600160a01b038416156106f15760405162461bcd60e51b81526004016103f4906131c2565b6000610700836203f480611c1f565b90504281111580156107315750600286600381111561072f57634e487b7160e01b600052602160045260246000fd5b145b8061075b5750600186600381111561075957634e487b7160e01b600052602160045260246000fd5b145b6107775760405162461bcd60e51b81526004016103f490613643565b600080428510156107c35761078b8461203c565b90925090506107a28661079c612070565b8461207f565b6107be5760405162461bcd60e51b81526004016103f490613414565b6107cf565b6107cc84611c36565b90505b6107db8a8a3089611d95565b6107f75760405162461bcd60e51b81526004016103f4906135e7565b600061080c610804611c32565b836000611e05565b101561082a5760405162461bcd60e51b81526004016103f4906132cc565b6108378b6000600361210e565b7f55058811c463cd1d9f3952e51fdb7eb2760b904e998811cb7485a7f33a1ff4af8b8b888c86868b42604051610874989796959493929190612dd7565b60405180910390a15050505050505050915091565b600085600081116108ac5760405162461bcd60e51b81526004016103f4906135b0565b61a8c083116108cd5760405162461bcd60e51b81526004016103f4906134d1565b6013548610156108ef5760405162461bcd60e51b81526004016103f490612f9f565b60006108fb4285611c1f565b90508989610907611c32565b8360405160200161091b9493929190612b63565b604051602081830303815290604052805190602001209250851561095957600085116109595760405162461bcd60e51b81526004016103f4906133dd565b6109638a8a611cff565b61097f5760405162461bcd60e51b81526004016103f49061355f565b61098c8a8a6104b2611c32565b6109a85760405162461bcd60e51b81526004016103f4906135e7565b6109c0838b6109b5611c32565b8c8c8b8b888f61218e565b6109dc5760405162461bcd60e51b81526004016103f49061308c565b7fd7f1b8f328c218ec2774158bb7329aaa002cda2cb72482f7927b5c1991697f1b838b610a07611c32565b8c8c8b8b888f42604051610a249a99989796959493929190612d84565b60405180910390a15050979650505050505050565b600054600160a01b900460ff1690565b600d5481565b600084815260026020526040812060060154859042108015610aa55750600260008281526002602052604090206009015460ff166003811115610aa257634e487b7160e01b600052602160045260246000fd5b14155b610ac15760405162461bcd60e51b81526004016103f4906136a0565b8585610acb611c32565b86604051602001610adf9493929190612b9c565b60408051601f19818403018152918152815160209283012060008981526004845282812060010154600290945291909120600701549093506001600160a01b039091169081610b5f5760008881526002602081905260409091200154851015610b5a5760405162461bcd60e51b81526004016103f49061316c565b610ba2565b60008881526003602081815260408084206001600160a01b038716855290915290912001548511610ba25760405162461bcd60e51b81526004016103f490612fd6565b600088815260036020526040812081610bb9611c32565b6001600160a01b03168152602081019190915260400160002060030154905080610caf5781610be961045c611c32565b1015610c075760405162461bcd60e51b81526004016103f490613303565b600060106000610c15611c32565b6001600160a01b03168152602080820192909252604001600090812080546001810182558183529282209092018c90559091508190601090610c55611c32565b6001600160a01b0316815260208101919091526040016000208154610c7a9290612835565b506000610c90610c88611c32565b856001611e05565b11610cad5760405162461bcd60e51b81526004016103f49061301e565b505b610cc4858a8a610cbd611c32565b8b8b61234f565b610ce05760405162461bcd60e51b81526004016103f4906134ab565b7f2d4cfcefc09a529d21dfffe1fc49a95663a8e6ee7aa367506e419a6d43788285858a8a610d0c611c32565b8b8b42604051610d229796959493929190612efb565b60405180910390a150505050949350505050565b600b5481565b600a5481565b600080600f6000610d51611c32565b6001600160a01b03166001600160a01b03168152602001908152602001600020549050600060106000610d82611c32565b6001600160a01b03166001600160a01b03168152602001908152602001600020805480602002602001604051908101604052809291908181526020018280548015610dec57602002820191906000526020600020905b815481526020019060010190808311610dd8575b5050505050905060106000610dff611c32565b6001600160a01b03166001600160a01b031681526020019081526020016000206000610e2b9190612885565b600060106000610e39611c32565b6001600160a01b03166001600160a01b03168152602001908152602001600020905060005b825181101561107e576002806000858481518110610e8c57634e487b7160e01b600052603260045260246000fd5b60209081029190910181015182528101919091526040016000206009015460ff166003811115610ecc57634e487b7160e01b600052602160045260246000fd5b1415610f655781838281518110610ef357634e487b7160e01b600052603260045260246000fd5b60209081029190910181015182546001810184556000938452918320909101558351610f5e91879160029190879086908110610f3f57634e487b7160e01b600052603260045260246000fd5b6020026020010151815260200190815260200160002060070154611c1f565b945061106c565b600160026000858481518110610f8b57634e487b7160e01b600052603260045260246000fd5b60209081029190910181015182528101919091526040016000206009015460ff166003811115610fcb57634e487b7160e01b600052602160045260246000fd5b141561106c5781838281518110610ff257634e487b7160e01b600052603260045260246000fd5b6020908102919091018101518254600181018455600093845291832090910155835161105c90600290839087908690811061103d57634e487b7160e01b600052603260045260246000fd5b6020026020010151815260200190815260200160002060020154611c36565b90506110688682611c1f565b9550505b8061107681613781565b915050610e5e565b50806010600061108c611c32565b6001600160a01b03168152602081019190915260400160002081546110b19290612835565b506110c36110bd611c32565b85612417565b6110df5760405162461bcd60e51b81526004016103f4906132a1565b7f0d0e56539d6f587bb6a3924f7dee452834a223586e9bb60d3827f4006cb0655d611108611c32565b84864260405161111b9493929190612c39565b60405180910390a150505090565b611131611c32565b6001600160a01b031661114261125c565b6001600160a01b0316146111685760405162461bcd60e51b81526004016103f490613476565b600080546040516001600160a01b03909116907f8be0079c531659141344cd1fd0a4f28419497f9722a3daafe3b4186f6b6457e0908390a3600080546001600160a01b0319169055565b600c5481565b600081815260026020819052604082208054600182015492820154600380840154600485015460058601546006870154600788015460088901546009909901546001600160a01b039889169b97999598948516979484169660ff600160a01b8604811697600160a81b9096048116969495939492169081111561124b57634e487b7160e01b600052602160045260246000fd5b905091939597999b5091939597999b565b6000546001600160a01b031690565b60606005805461127a90613746565b80601f01602080910402602001604051908101604052809291908181526020018280546112a690613746565b80156112f35780601f106112c8576101008083540402835291602001916112f3565b820191906000526020600020905b8154815290600101906020018083116112d657829003601f168201915b5050505050905090565b60008181526002602052604081206006015481908390421180156113555750600260008281526002602052604090206009015460ff16600381111561135257634e487b7160e01b600052602160045260246000fd5b14155b6113715760405162461bcd60e51b81526004016103f4906136a0565b60008481526004602081815260408084206001908101546002909352932091820154825492909301546001600160a01b0392831696509450811691166113b5611c32565b6001600160a01b0316826001600160a01b0316146113e55760405162461bcd60e51b81526004016103f4906133a6565b60008681526003602081815260408084206001600160a01b038716855290915290912001548061141484612437565b10156114325760405162461bcd60e51b81526004016103f490613102565b6000806000806114438a8a876124c2565b935093509350935061145d8761145761125c565b8461252f565b6114795760405162461bcd60e51b81526004016103f490613669565b6001600160a01b038416156114af5761149387858561252f565b6114af5760405162461bcd60e51b81526004016103f490613330565b6114ba87878361252f565b6114d65760405162461bcd60e51b81526004016103f490613371565b6114e28a8a308a611d95565b6114fe5760405162461bcd60e51b81526004016103f4906135e7565b60008b81526002602052604081206007015461151c90899083611e05565b101561153a5760405162461bcd60e51b81526004016103f4906132cc565b60008b8152600360205260408120600191611553611c32565b6001600160a01b031681526020810191909152604001600020600401805460ff191691151591909117905561158986888761256c565b50506115978b88600061210e565b60008b815260046020526040908190205490517fe70f4aad9f39db984a04bce8b0cd7a269c046c57fd6878c9dbf2f6af19a47ecd91610874918e908e908c908f908c908c908c908c908c904290612e9c565b600081815260046020818152604080842060019081015460029093529084209283015483549184015460078501546006909501546001600160a01b03938416969195948416949290931692611641906203f480611c1f565b90506001600160a01b0384161580159061165b5750428110155b6116775760405162461bcd60e51b81526004016103f49061323d565b61167f611c32565b6001600160a01b0316836001600160a01b0316146116af5760405162461bcd60e51b81526004016103f490613055565b60008781526003602090815260408083206001600160a01b038816845290915290206004015460ff16156116f55760405162461bcd60e51b81526004016103f49061344b565b600080611701846126a0565b915091506117118661079c612070565b61172d5760405162461bcd60e51b81526004016103f4906131f0565b61173886868361207f565b6117545760405162461bcd60e51b81526004016103f4906131f0565b61176088883088611d95565b61177c5760405162461bcd60e51b81526004016103f4906135e7565b600061178a87866000611e05565b10156117a85760405162461bcd60e51b81526004016103f4906132cc565b6117b5896000600361210e565b600089815260046020526040908190205490517fb46a91724b95c8764d64242653194717e2ab549e1b76e207124d3bddc39aed6d91611805918c908c908b908d908c908c908a908c904290612e47565b60405180910390a1505050505050915091565b60009182526003602081815260408085206001600160a01b0394851686529091529092208054600182015460028301549483015460049093015491959316939260ff90911690565b611868611c32565b6001600160a01b031661187961125c565b6001600160a01b03161461189f5760405162461bcd60e51b81526004016103f490613476565b6001600160a01b0381166118c55760405162461bcd60e51b81526004016103f4906130bc565b600080546040516001600160a01b03808516939216917f8be0079c531659141344cd1fd0a4f28419497f9722a3daafe3b4186f6b6457e091a3600080546001600160a01b0319166001600160a01b0392909216919091179055565b6000828152600260208190526040909120600581015460048201548254600184015493909401546001600160a01b0394851694600160a81b90930460ff1692909116908510156119825760405162461bcd60e51b81526004016103f49061361c565b600160008781526002602052604090206009015460ff1660038111156119b857634e487b7160e01b600052602160045260246000fd5b1480611a205750600260008781526002602052604090206009015460ff1660038111156119f557634e487b7160e01b600052602160045260246000fd5b148015611a0457506001821515145b8015611a20575060008681526002602052604090206006015442105b611a3c5760405162461bcd60e51b81526004016103f490613272565b84611a4d611a48611c32565b612437565b1015611a6b5760405162461bcd60e51b81526004016103f490613102565b600080600080611a7c88888b6124c2565b9350935093509350611a97611a8f611c32565b61145761125c565b611ab35760405162461bcd60e51b81526004016103f490613669565b6001600160a01b03841615611af057611ad4611acd611c32565b858561252f565b611af05760405162461bcd60e51b81526004016103f490613330565b611b02611afb611c32565b868361252f565b611b1e5760405162461bcd60e51b81526004016103f49061351e565b611b31888830611b2c611c32565b611d95565b611b4d5760405162461bcd60e51b81526004016103f4906135e7565b60008a815260026020819052604082200154611b6890611c36565b90506000611b7887836000611e05565b1015611b965760405162461bcd60e51b81526004016103f4906132cc565b611ba98b611ba2611c32565b600061210e565b611bbb86611bb5611c32565b8c61256c565b50507ff18fd7f8585dc258636a453d4a87ee3dd6edda50c1f438348bddf640ca6fbbec8b8a611be8611c32565b8b8e8b8d8c8c8c8c42604051611c099c9b9a99989796959493929190612ce3565b60405180910390a1505050505050509250929050565b6000611c2b83836126ca565b9392505050565b3390565b6000611c59600e54611c53600b54856126d690919063ffffffff16565b906126e2565b92915050565b6001600160a01b038082166000908152600f6020526040808220546011549151630fa6707960e21b815292939092611c2b9284921690633e99c1e490611ca9908890600401612bce565b60206040518083038186803b158015611cc157600080fd5b505afa158015611cd5573d6000803e3d6000fd5b505050506040513d601f19601f82011682018060405250810190611cf99190612b4b565b906126ee565b60405163020604bf60e21b81526000906001600160a01b0384169063081812fc90611d2e908590600401612cda565b60206040518083038186803b158015611d4657600080fd5b505afa925050508015611d76575060408051601f3d908101601f19168201909252611d73918101906128d7565b60015b611d8257506000611c59565b6001600160a01b03163014905092915050565b604051632142170760e11b81526000906001600160a01b038616906342842e0e90611dc890869086908990600401612bfc565b600060405180830381600087803b158015611de257600080fd5b505af1158015611df6573d6000803e3d6000fd5b50600198975050505050505050565b600081611e34576001600160a01b0384166000908152600f6020526040902054611e2f90846126ee565b611e57565b6001600160a01b0384166000908152600f6020526040902054611e5790846126ca565b6001600160a01b0385166000908152600f6020526040902081905590509392505050565b6000604051806101800160405280876001600160a01b0316815260200185815260200184815260200160008152602001866001600160a01b0316815260200160006001600160a01b03168152602001600015158152602001600015158152602001838152602001600081526020016000815260200160016003811115611f1157634e487b7160e01b600052602160045260246000fd5b9052600088815260026020818152604092839020845181546001600160a01b039182166001600160a01b03199182161783559286015160018084019190915594860151938201939093556060850151600380830191909155608086015160048301805491861691851691909117905560a086015160058301805460c089015160e08a01511515600160a81b0260ff60a81b19911515600160a01b0260ff60a01b199590991692909716919091179290921695909517169290921790925561010084015160068301556101208401516007830155610140840151600883015561016084015160098301805493949193909260ff199091169190849081111561202857634e487b7160e01b600052602160045260246000fd5b021790555060019998505050505050505050565b60008061205a600d54611c53600a54866126d690919063ffffffff16565b915061206982611cf985611c36565b9050915091565b600061207a61125c565b905090565b60115460405163929c517960e01b81526000916001600160a01b03169063929c5179906120b490879087908790600401612bfc565b602060405180830381600087803b1580156120ce57600080fd5b505af11580156120e2573d6000803e3d6000fd5b505050506040513d601f19601f820116820180604052508101906121069190612a8b565b949350505050565b6000838152600260205260409020600901805482919060ff1916600183600381111561214a57634e487b7160e01b600052602160045260246000fd5b02179055506001600160a01b0382161561218957600083815260026020526040902060050180546001600160a01b0319166001600160a01b0384161790555b505050565b60006040518061018001604052808a6001600160a01b0316815260200188815260200187815260200160008152602001896001600160a01b0316815260200160006001600160a01b0316815260200160011515815260200186151581526020018481526020018381526020018581526020016002600381111561222157634e487b7160e01b600052602160045260246000fd5b905260008b815260026020818152604092839020845181546001600160a01b039182166001600160a01b03199182161783559286015160018084019190915594860151938201939093556060850151600380830191909155608086015160048301805491861691851691909117905560a086015160058301805460c089015160e08a01511515600160a81b0260ff60a81b19911515600160a01b0260ff60a01b199590991692909716919091179290921695909517169290921790925561010084015160068301556101208401516007830155610140840151600883015561016084015160098301805493949193909260ff199091169190849081111561233857634e487b7160e01b600052602160045260246000fd5b021790555060019c9b505050505050505050505050565b6040805180820182528781526001600160a01b03948516602080830182815260008a8152600480845286822095518655915160019586018054918b166001600160a01b0319928316179055865160a0810188529c8d529989168c84019081528c870198895260608d0197885260808d018281529b82526003808552878320958352949093529490942099518a555189830180549190971697169690961790945591516002870155519285019290925591519201805492151560ff199093169290921790915590565b6001600160a01b03919091166000908152600f6020526040902055600190565b600654604051636eb1769f60e11b815260009164010000000090046001600160a01b03169063dd62ed3e906124729085903090600401612be2565b60206040518083038186803b15801561248a57600080fd5b505afa15801561249e573d6000803e3d6000fd5b505050506040513d601f19601f82011682018060405250810190611c599190612b4b565b6000806000806124d1856126fa565b91506124dd85836126ee565b90506124e887612717565b15612526576124f88787876127a9565b9094509250821580159061251457506001600160a01b03841615155b156125265761252381846126ee565b90505b93509350935093565b6006546040516323b872dd60e01b815260009164010000000090046001600160a01b0316906323b872dd906120b490879087908790600401612bfc565b6000808061257b8460026126e2565b9050600061258a8560026126e2565b601254604051631287995760e31b81529192506001600160a01b03169063943ccab8906125bd908a908690600401612c20565b602060405180830381600087803b1580156125d757600080fd5b505af11580156125eb573d6000803e3d6000fd5b505050506040513d601f19601f8201168201806040525081019061260f9190612b4b565b601254604051631287995760e31b81529194506001600160a01b03169063943ccab8906126429089908590600401612c20565b602060405180830381600087803b15801561265c57600080fd5b505af1158015612670573d6000803e3d6000fd5b505050506040513d601f19601f820116820180604052508101906126949190612b4b565b93505050935093915050565b6000806126be600c54611c53600954866126d690919063ffffffff16565b915061206983836126ee565b6000611c2b82846136d8565b6000611c2b8284613710565b6000611c2b82846136f0565b6000611c2b828461372f565b6000611c59600854611c53600754856126d690919063ffffffff16565b6006546040516301ffc9a760e01b81526000916001600160a01b038416916301ffc9a79161274e9160e09190911b90600401612f37565b60206040518083038186803b15801561276657600080fd5b505afa925050508015612796575060408051601f3d908101601f1916820190925261279391810190612a8b565b60015b6127a2575060006103cc565b90506103cc565b600080846001600160a01b0316632a55205a85856040518363ffffffff1660e01b81526004016127da9291906136ca565b604080518083038186803b1580156127f157600080fd5b505afa158015612805573d6000803e3d6000fd5b505050506040513d601f19601f8201168201806040525081019061282991906129c3565b90969095509350505050565b8280548282559060005260206000209081019282156128755760005260206000209182015b8281111561287557825482559160010191906001019061285a565b506128819291506128a6565b5090565b50805460008255906000526020600020908101906128a391906128a6565b50565b5b8082111561288157600081556001016128a7565b6000602082840312156128cc578081fd5b8135611c2b816137c8565b6000602082840312156128e8578081fd5b8151611c2b816137c8565b60008060008060808587031215612908578283fd5b8435612913816137c8565b9350602085810135612924816137c8565b935060408601359250606086013567ffffffffffffffff80821115612947578384fd5b818801915088601f83011261295a578384fd5b81358181111561296c5761296c6137b2565b604051601f8201601f191681018501838111828210171561298f5761298f6137b2565b60405281815283820185018b10156129a5578586fd5b81858501868301379081019093019390935250939692955090935050565b600080604083850312156129d5578182fd5b82516129e0816137c8565b6020939093015192949293505050565b600080600060608486031215612a04578283fd5b8335612a0f816137c8565b95602085013595506040909401359392505050565b600080600080600080600060e0888a031215612a3e578283fd5b8735612a49816137c8565b96506020880135955060408801359450606088013593506080880135612a6e816137dd565b9699959850939692959460a0840135945060c09093013592915050565b600060208284031215612a9c578081fd5b8151611c2b816137dd565b600060208284031215612ab8578081fd5b5035919050565b60008060408385031215612ad1578182fd5b823591506020830135612ae3816137c8565b809150509250929050565b60008060008060808587031215612b03578384fd5b843593506020850135612b15816137c8565b93969395505050506040820135916060013590565b60008060408385031215612b3c578182fd5b50508035926020909101359150565b600060208284031215612b5c578081fd5b5051919050565b6bffffffffffffffffffffffff19606095861b8116825260148201949094529190931b9091166034820152604881019190915260680190565b9384526bffffffffffffffffffffffff19606093841b811660208601529190921b166034830152604882015260680190565b6001600160a01b0391909116815260200190565b6001600160a01b0392831681529116602082015260400190565b6001600160a01b039384168152919092166020820152604081019190915260600190565b6001600160a01b03929092168252602082015260400190565b6001600160a01b0394909416845260208401929092526040830152606082015260800190565b6001600160a01b039c8d168152602081019b909b5260408b019990995260608a019790975294891660808901529290971660a0870152151560c086015294151560e08501526101008401949094526101208301939093526101408201929092526101608101919091526101800190565b901515815260200190565b90815260200190565b9b8c526001600160a01b039a8b1660208d0152988a1660408c015260608b019790975260808a019590955292871660a089015290151560c088015290941660e08601526101008501939093526101208401929092526101408301919091526101608201526101800190565b9586526001600160a01b03948516602087015292909316604085015260608401526080830191909152151560a082015260c00190565b998a526001600160a01b0398891660208b015296909716604089015260608801949094526080870192909252151560a086015260c085015260e08401526101008301919091526101208201526101400190565b9788526001600160a01b0396871660208901529490951660408701526060860192909252608085015260a084015260c083019190915260e08201526101000190565b9485526001600160a01b03939093166020850152604084019190915260608301521515608082015260a00190565b998a5260208a01989098526001600160a01b0396871660408a015294861660608901526080880193909352931660a086015260c085019290925260e08401919091526101008301526101208201526101400190565b9a8b5260208b01999099526001600160a01b0397881660408b015295871660608a0152608089019490945260a088019290925290931660c086015260e08501929092526101008401919091526101208301526101408201526101600190565b96875260208701959095526001600160a01b039384166040870152919092166060850152608084019190915260a083015260c082015260e00190565b6001600160e01b031991909116815260200190565b6000602080835283518082850152825b81811015612f7857858101830151858201604001528201612f5c565b81811115612f895783604083870101525b50601f01601f1916929092016040019392505050565b6020808252601e908201527f496e76616c69642041756374696f6e207175616c69667920416d6f756e740000604082015260600190565b60208082526028908201527f626964207072696365206d757374206265206d6f7265207468616e20746865206040820152671b185cdd08189a5960c21b606082015260800190565b6020808252601b908201527f52657365727665205a65726f206973206e6f7420616c6c6f7765640000000000604082015260600190565b60208082526017908201527f43616c6c6572206973206e6f7420746865206f776e6572000000000000000000604082015260600190565b602080825260169082015275436f756c646e2774206c69737420746865206974656d60501b604082015260600190565b60208082526026908201527f4f776e61626c653a206e6577206f776e657220697320746865207a65726f206160408201526564647265737360d01b606082015260800190565b60208082526044908201527f4d61726b6574706c616365206973206e6f7420616c6c6f77656420746f20776960408201527f7468647261772074686520726571756972656420616d6f756e74206f6620746f6060820152636b656e7360e01b608082015260a00190565b60208082526036908201527f626964207072696365206d757374206265206d6f7265207468616e206f7220656040820152757175616c20746865206d696e696d756d20707269636560501b606082015260800190565b60208082526014908201527320b63932b0b23c903137bab3b43a103a37b5b2b760611b604082015260600190565b6020808252602d908201527f636f756c646e277420646564756374207468652066696e6520666f722074686560408201526c0818591b5a5b881dd85b1b195d609a1b606082015260800190565b6020808252818101527f4e6f2062696473206f72207374696c6c2072756e6e696e672061756374696f6e604082015260600190565b60208082526015908201527402a37b5b2b71034b9b737ba103337b91039b0b6329605d1b604082015260600190565b6020808252601190820152701cd95d081c995cd95c9d994819985a5b19607a1b604082015260600190565b6020808252601f908201527f6e656761746976652072657365727665206973206e6f7420616c6c6f77656400604082015260600190565b6020808252601390820152724e6f7420656e6f75676820726573657276657360681b604082015260600190565b60208082526021908201527f436f756c646e2774207472616e7366657220746f6b656e20746f2069737375656040820152603960f91b606082015260800190565b6020808252818101527f436f756c646e2774207472616e7366657220746f6b656e20746f206275796572604082015260600190565b60208082526018908201527f43616c6c6572206973206e6f74207468652077696e6e65720000000000000000604082015260600190565b60208082526019908201527f5a65726f207072696365206973206e6f7420616c6c6f77656400000000000000604082015260600190565b60208082526018908201527f636f756c646e277420646564756374207468652066696e650000000000000000604082015260600190565b602080825260119082015270105b1c9958591e481c1d5c98da185cd959607a1b604082015260600190565b6020808252818101527f4f776e61626c653a2063616c6c6572206973206e6f7420746865206f776e6572604082015260600190565b6020808252600c908201526b10dbdd5b191b89dd08109a5960a21b604082015260600190565b6020808252602d908201527f41756374696f6e2073686f756c64206265206c69766520666f72206d6f72652060408201526c7468616e20313220686f75727360981b606082015260800190565b60208082526021908201527f436f756c646e2774207472616e7366657220746f6b656e20746f2073656c6c656040820152603960f91b606082015260800190565b60208082526031908201527f4d61726b6574706c616365206973206e6f7420616c6c6f77656420746f20747260408201527030b739b332b9103cb7bab9103a37b5b2b760791b606082015260800190565b60208082526019908201527f5a65726f2056616c7565206973206e6f7420616c6c6f77656400000000000000604082015260600190565b6020808252818101527f4e465420746f6b656e20636f756c646e2774206265207472616e736665726564604082015260600190565b6020808252600d908201526c496e76616c696420707269636560981b604082015260600190565b6020808252600c908201526b10d85b89dd0819195b1a5cdd60a21b604082015260600190565b6020808252601f908201527f436f756c646e2774207472616e7366657220746f6b656e206173206665657300604082015260600190565b60208082526010908201526f105d58dd1a5bdb881a5cc8195b99195960821b604082015260600190565b918252602082015260400190565b600082198211156136eb576136eb61379c565b500190565b60008261370b57634e487b7160e01b81526012600452602481fd5b500490565b600081600019048311821515161561372a5761372a61379c565b500290565b6000828210156137415761374161379c565b500390565b60028104600182168061375a57607f821691505b6020821081141561377b57634e487b7160e01b600052602260045260246000fd5b50919050565b60006000198214156137955761379561379c565b5060010190565b634e487b7160e01b600052601160045260246000fd5b634e487b7160e01b600052604160045260246000fd5b6001600160a01b03811681146128a357600080fd5b80151581146128a357600080fdfea264697066735822122050ed75bfac57a897cd5cc8fb39efb3112f6792746efc78bd526d781d7eb51a4464736f6c63430008000033",
  "devdoc": {
    "author": "Eman Herawy, StartFi Team",
    "kind": "dev",
    "methods": {
      "bid(bytes32,address,uint256,uint256)": {
        "details": "called by dapps to bid on an auction ",
        "params": {
          "bidPrice": "price ",
          "listingId": "listing id ",
          "tokenAddress": "nft contract address",
          "tokenId": "token id "
        },
        "returns": {
          "bidId": "bid id"
        }
      },
      "buyNow(bytes32,uint256)": {
        "details": "called by buyer through dapps when s/he wants to buy a gevin NFT  token from the marketplace   ",
        "params": {
          "listingId": "listing id ",
          "price": "gevin price"
        },
        "returns": {
          "_NFTContract": "nft contract address",
          "tokenId": "token id "
        }
      },
      "createAuction(address,uint256,uint256,uint256,bool,uint256,uint256)": {
        "details": "called by dapps to create  new auction ",
        "params": {
          "duration": "when auction ends",
          "listingPrice": "min price ",
          "nFTContract": "nft contract address",
          "qualifyAmount": "amount of token locked as qualify for any bidder wants bid ",
          "sellFor": "price  to sell with if sellForEnabled=true",
          "sellForEnabled": "true if auction enable direct selling",
          "tokenId": "token id "
        },
        "returns": {
          "listId": "listing id"
        }
      },
      "deList(bytes32)": {
        "details": "called by seller through dapps when s/he wants to remove this token from the marketplace   ",
        "params": {
          "listingId": "listing id "
        },
        "returns": {
          "_NFTContract": "nft contract address",
          "tokenId": "token id "
        }
      },
      "disputeAuction(bytes32)": {
        "details": "called by seller through dapps when his/her auction is  not fullfilled after 3 days",
        "params": {
          "listingId": "listing id "
        },
        "returns": {
          "_NFTContract": "nft contract address",
          "tokenId": "token id "
        }
      },
      "freeReserves()": {
        "details": "called by user through dapps when his/her wants to free his reserved tokens which are no longer in active auction or listing",
        "returns": {
          "curentReserves": "user reserves after freeing the unused reservd"
        }
      },
      "fullfillBid(bytes32)": {
        "details": "called by bidder through dapps when bidder win an auction and wants to pay to get the NFT  ",
        "params": {
          "listingId": "listing id "
        },
        "returns": {
          "_NFTContract": "nft contract address",
          "tokenId": "token id "
        }
      },
      "getAuctionBidDetails(bytes32,address)": {
        "details": "called by dapp or any contract to get info about a given bidder in a listing    ",
        "params": {
          "bidder": "bidder address",
          "listingId": "listing id      "
        },
        "returns": {
          "bidId": "bid id",
          "bidPrice": "bid price",
          "nFTContract": " nft contract address",
          "tokenId": "nft token id"
        }
      },
      "getListingDetails(bytes32)": {
        "details": "called by dapp or any contract to get info about a gevin listing    ",
        "params": {
          "listingId": "listing id      "
        },
        "returns": {
          "bedEnabeled": "true if auction enabled  ",
          "buyer": " nft buyer address",
          "endPrice": "purchase price",
          "listingPrice": "initial price or minimum price that the seller can accept",
          "qualifyAmount": " amount of token locked as qualify for any bidder wants bid ",
          "releaseTime": " when auction ends",
          "sellFor": "if sell for enabled for auction, this should be more than zero",
          "sellForEnabled": "true if auction enable direct selling",
          "seller": " nft seller address",
          "status": "in number {Sold,OnMarket, onAuction,Canceled}",
          "tokenAddress": " nft contract address",
          "tokenId": "NFT token Id "
        }
      },
      "getServiceFee()": {
        "returns": {
          "_0": "the value of the state variable `_feeFraction`"
        }
      },
      "getUserReserved(address)": {
        "params": {
          "user": ": participant address"
        },
        "returns": {
          "_0": "the value of user reserves"
        }
      },
      "listOnMarketplace(address,uint256,uint256)": {
        "details": "called by dapps to list new item ",
        "params": {
          "listingPrice": "min price ",
          "nFTContract": "nft contract address",
          "tokenId": "token id "
        },
        "returns": {
          "listId": "listing id"
        }
      },
      "marketPlaceName()": {
        "returns": {
          "_0": "market place name"
        }
      },
      "onERC721Received(address,address,uint256,bytes)": {
        "details": "See {IERC721Receiver-onERC721Received}. Always returns `IERC721Receiver.onERC721Received.selector`."
      },
      "owner()": {
        "details": "Returns the address of the current owner."
      },
      "paused()": {
        "details": "Returns true if the contract is paused, and false otherwise."
      },
      "renounceOwnership()": {
        "details": "Leaves the contract without owner. It will not be possible to call `onlyOwner` functions anymore. Can only be called by the current owner. NOTE: Renouncing ownership will leave the contract without an owner, thereby removing any functionality that is only available to the owner."
      },
      "transferOwnership(address)": {
        "details": "Transfers ownership of the contract to a new account (`newOwner`). Can only be called by the current owner."
      },
      "winnerBid(bytes32)": {
        "details": "called by dapp or any contract to get info about a winner bid    ",
        "params": {
          "listingId": "listing id      "
        },
        "returns": {
          "bidId": "bid id",
          "bidPrice": "bid price",
          "bidder": "bidder address",
          "isPurchased": "true if purchased",
          "nFTContract": " nft contract address",
          "tokenId": "nft token id"
        }
      }
    },
    "title": "StartFi MarketPlace desc  marketplace with all functions for item selling by either ceating auction or selling with fixed prices, the contract auto transfer orginal NFT issuer's shares    ",
    "version": 1
  },
  "userdoc": {
    "kind": "user",
    "methods": {
      "buyNow(bytes32,uint256)": {
        "notice": "if auction, the seller must enabe forSale. prices should be more than or equal the listing price"
      },
      "deList(bytes32)": {
        "notice": "auction can't be canceled , if seller delist time on sale on maretplace before time to delist, he will pay a fine"
      },
      "disputeAuction(bytes32)": {
        "notice": "after auction with winner bid . bidder didn't call fullfile within 3 days of auction closing  auction owner can call dispute to delist and punish the spam winner bidder fine is share between the plateform and the auction owner"
      },
      "freeReserves()": {
        "notice": "this function is greedy, called by user only when s/he wants rather than force the check & updates with every transaction which might be very costly ."
      }
    },
    "version": 1
  },
  "storageLayout": {
    "storage": [
      {
        "astId": 565,
        "contract": "contracts/StartFiMarketPlace.sol:StartFiMarketPlace",
        "label": "_owner",
        "offset": 0,
        "slot": "0",
        "type": "t_address"
      },
      {
        "astId": 685,
        "contract": "contracts/StartFiMarketPlace.sol:StartFiMarketPlace",
        "label": "_paused",
        "offset": 20,
        "slot": "0",
        "type": "t_bool"
      },
      {
        "astId": 5162,
        "contract": "contracts/StartFiMarketPlace.sol:StartFiMarketPlace",
        "label": "delistAfter",
        "offset": 0,
        "slot": "1",
        "type": "t_uint256"
      },
      {
        "astId": 5202,
        "contract": "contracts/StartFiMarketPlace.sol:StartFiMarketPlace",
        "label": "_tokenListings",
        "offset": 0,
        "slot": "2",
        "type": "t_mapping(t_bytes32,t_struct(Listing)5192_storage)"
      },
      {
        "astId": 4970,
        "contract": "contracts/StartFiMarketPlace.sol:StartFiMarketPlace",
        "label": "listingBids",
        "offset": 0,
        "slot": "3",
        "type": "t_mapping(t_bytes32,t_mapping(t_address,t_struct(Bid)4958_storage))"
      },
      {
        "astId": 4975,
        "contract": "contracts/StartFiMarketPlace.sol:StartFiMarketPlace",
        "label": "bidToListing",
        "offset": 0,
        "slot": "4",
        "type": "t_mapping(t_bytes32,t_struct(WinningBid)4963_storage)"
      },
      {
        "astId": 4755,
        "contract": "contracts/StartFiMarketPlace.sol:StartFiMarketPlace",
        "label": "_marketPlaceName",
        "offset": 0,
        "slot": "5",
        "type": "t_string_storage"
      },
      {
        "astId": 4758,
        "contract": "contracts/StartFiMarketPlace.sol:StartFiMarketPlace",
        "label": "RORALTY_INTERFACE",
        "offset": 0,
        "slot": "6",
        "type": "t_bytes4"
      },
      {
        "astId": 7468,
        "contract": "contracts/StartFiMarketPlace.sol:StartFiMarketPlace",
        "label": "_paymentToken",
        "offset": 4,
        "slot": "6",
        "type": "t_address"
      },
      {
        "astId": 7471,
        "contract": "contracts/StartFiMarketPlace.sol:StartFiMarketPlace",
        "label": "_feeFraction",
        "offset": 0,
        "slot": "7",
        "type": "t_uint256"
      },
      {
        "astId": 7474,
        "contract": "contracts/StartFiMarketPlace.sol:StartFiMarketPlace",
        "label": "_feeBase",
        "offset": 0,
        "slot": "8",
        "type": "t_uint256"
      },
      {
        "astId": 7477,
        "contract": "contracts/StartFiMarketPlace.sol:StartFiMarketPlace",
        "label": "bidPenaltyPercentage",
        "offset": 0,
        "slot": "9",
        "type": "t_uint256"
      },
      {
        "astId": 7480,
        "contract": "contracts/StartFiMarketPlace.sol:StartFiMarketPlace",
        "label": "delistFeesPercentage",
        "offset": 0,
        "slot": "10",
        "type": "t_uint256"
      },
      {
        "astId": 7483,
        "contract": "contracts/StartFiMarketPlace.sol:StartFiMarketPlace",
        "label": "listqualifyPercentage",
        "offset": 0,
        "slot": "11",
        "type": "t_uint256"
      },
      {
        "astId": 7486,
        "contract": "contracts/StartFiMarketPlace.sol:StartFiMarketPlace",
        "label": "bidPenaltyPercentageBase",
        "offset": 0,
        "slot": "12",
        "type": "t_uint256"
      },
      {
        "astId": 7489,
        "contract": "contracts/StartFiMarketPlace.sol:StartFiMarketPlace",
        "label": "delistFeesPercentageBase",
        "offset": 0,
        "slot": "13",
        "type": "t_uint256"
      },
      {
        "astId": 7492,
        "contract": "contracts/StartFiMarketPlace.sol:StartFiMarketPlace",
        "label": "listqualifyPercentageBase",
        "offset": 0,
        "slot": "14",
        "type": "t_uint256"
      },
      {
        "astId": 7496,
        "contract": "contracts/StartFiMarketPlace.sol:StartFiMarketPlace",
        "label": "userReserves",
        "offset": 0,
        "slot": "15",
        "type": "t_mapping(t_address,t_uint256)"
      },
      {
        "astId": 7501,
        "contract": "contracts/StartFiMarketPlace.sol:StartFiMarketPlace",
        "label": "userListing",
        "offset": 0,
        "slot": "16",
        "type": "t_mapping(t_address,t_array(t_bytes32)dyn_storage)"
      },
      {
        "astId": 7503,
        "contract": "contracts/StartFiMarketPlace.sol:StartFiMarketPlace",
        "label": "stakeContract",
        "offset": 0,
        "slot": "17",
        "type": "t_address"
      },
      {
        "astId": 7505,
        "contract": "contracts/StartFiMarketPlace.sol:StartFiMarketPlace",
        "label": "reputationContract",
        "offset": 0,
        "slot": "18",
        "type": "t_address"
      },
      {
        "astId": 5495,
        "contract": "contracts/StartFiMarketPlace.sol:StartFiMarketPlace",
        "label": "minQualifyAmount",
        "offset": 0,
        "slot": "19",
        "type": "t_uint256"
      }
    ],
    "types": {
      "t_address": {
        "encoding": "inplace",
        "label": "address",
        "numberOfBytes": "20"
      },
      "t_array(t_bytes32)dyn_storage": {
        "base": "t_bytes32",
        "encoding": "dynamic_array",
        "label": "bytes32[]",
        "numberOfBytes": "32"
      },
      "t_bool": {
        "encoding": "inplace",
        "label": "bool",
        "numberOfBytes": "1"
      },
      "t_bytes32": {
        "encoding": "inplace",
        "label": "bytes32",
        "numberOfBytes": "32"
      },
      "t_bytes4": {
        "encoding": "inplace",
        "label": "bytes4",
        "numberOfBytes": "4"
      },
      "t_enum(ListingStatus)5197": {
        "encoding": "inplace",
        "label": "enum MarketPlaceListing.ListingStatus",
        "numberOfBytes": "1"
      },
      "t_mapping(t_address,t_array(t_bytes32)dyn_storage)": {
        "encoding": "mapping",
        "key": "t_address",
        "label": "mapping(address => bytes32[])",
        "numberOfBytes": "32",
        "value": "t_array(t_bytes32)dyn_storage"
      },
      "t_mapping(t_address,t_struct(Bid)4958_storage)": {
        "encoding": "mapping",
        "key": "t_address",
        "label": "mapping(address => struct MarketPlaceBid.Bid)",
        "numberOfBytes": "32",
        "value": "t_struct(Bid)4958_storage"
      },
      "t_mapping(t_address,t_uint256)": {
        "encoding": "mapping",
        "key": "t_address",
        "label": "mapping(address => uint256)",
        "numberOfBytes": "32",
        "value": "t_uint256"
      },
      "t_mapping(t_bytes32,t_mapping(t_address,t_struct(Bid)4958_storage))": {
        "encoding": "mapping",
        "key": "t_bytes32",
        "label": "mapping(bytes32 => mapping(address => struct MarketPlaceBid.Bid))",
        "numberOfBytes": "32",
        "value": "t_mapping(t_address,t_struct(Bid)4958_storage)"
      },
      "t_mapping(t_bytes32,t_struct(Listing)5192_storage)": {
        "encoding": "mapping",
        "key": "t_bytes32",
        "label": "mapping(bytes32 => struct MarketPlaceListing.Listing)",
        "numberOfBytes": "32",
        "value": "t_struct(Listing)5192_storage"
      },
      "t_mapping(t_bytes32,t_struct(WinningBid)4963_storage)": {
        "encoding": "mapping",
        "key": "t_bytes32",
        "label": "mapping(bytes32 => struct MarketPlaceBid.WinningBid)",
        "numberOfBytes": "32",
        "value": "t_struct(WinningBid)4963_storage"
      },
      "t_string_storage": {
        "encoding": "bytes",
        "label": "string",
        "numberOfBytes": "32"
      },
      "t_struct(Bid)4958_storage": {
        "encoding": "inplace",
        "label": "struct MarketPlaceBid.Bid",
        "members": [
          {
            "astId": 4949,
            "contract": "contracts/StartFiMarketPlace.sol:StartFiMarketPlace",
            "label": "bidId",
            "offset": 0,
            "slot": "0",
            "type": "t_bytes32"
          },
          {
            "astId": 4951,
            "contract": "contracts/StartFiMarketPlace.sol:StartFiMarketPlace",
            "label": "nFTContract",
            "offset": 0,
            "slot": "1",
            "type": "t_address"
          },
          {
            "astId": 4953,
            "contract": "contracts/StartFiMarketPlace.sol:StartFiMarketPlace",
            "label": "tokenId",
            "offset": 0,
            "slot": "2",
            "type": "t_uint256"
          },
          {
            "astId": 4955,
            "contract": "contracts/StartFiMarketPlace.sol:StartFiMarketPlace",
            "label": "bidPrice",
            "offset": 0,
            "slot": "3",
            "type": "t_uint256"
          },
          {
            "astId": 4957,
            "contract": "contracts/StartFiMarketPlace.sol:StartFiMarketPlace",
            "label": "isPurchased",
            "offset": 0,
            "slot": "4",
            "type": "t_bool"
          }
        ],
        "numberOfBytes": "160"
      },
      "t_struct(Listing)5192_storage": {
        "encoding": "inplace",
        "label": "struct MarketPlaceListing.Listing",
        "members": [
          {
            "astId": 5168,
            "contract": "contracts/StartFiMarketPlace.sol:StartFiMarketPlace",
            "label": "nFTContract",
            "offset": 0,
            "slot": "0",
            "type": "t_address"
          },
          {
            "astId": 5170,
            "contract": "contracts/StartFiMarketPlace.sol:StartFiMarketPlace",
            "label": "tokenId",
            "offset": 0,
            "slot": "1",
            "type": "t_uint256"
          },
          {
            "astId": 5172,
            "contract": "contracts/StartFiMarketPlace.sol:StartFiMarketPlace",
            "label": "listingPrice",
            "offset": 0,
            "slot": "2",
            "type": "t_uint256"
          },
          {
            "astId": 5174,
            "contract": "contracts/StartFiMarketPlace.sol:StartFiMarketPlace",
            "label": "endPrice",
            "offset": 0,
            "slot": "3",
            "type": "t_uint256"
          },
          {
            "astId": 5176,
            "contract": "contracts/StartFiMarketPlace.sol:StartFiMarketPlace",
            "label": "seller",
            "offset": 0,
            "slot": "4",
            "type": "t_address"
          },
          {
            "astId": 5178,
            "contract": "contracts/StartFiMarketPlace.sol:StartFiMarketPlace",
            "label": "buyer",
            "offset": 0,
            "slot": "5",
            "type": "t_address"
          },
          {
            "astId": 5180,
            "contract": "contracts/StartFiMarketPlace.sol:StartFiMarketPlace",
            "label": "bedEnabeled",
            "offset": 20,
            "slot": "5",
            "type": "t_bool"
          },
          {
            "astId": 5182,
            "contract": "contracts/StartFiMarketPlace.sol:StartFiMarketPlace",
            "label": "sellForEnabled",
            "offset": 21,
            "slot": "5",
            "type": "t_bool"
          },
          {
            "astId": 5184,
            "contract": "contracts/StartFiMarketPlace.sol:StartFiMarketPlace",
            "label": "releaseTime",
            "offset": 0,
            "slot": "6",
            "type": "t_uint256"
          },
          {
            "astId": 5186,
            "contract": "contracts/StartFiMarketPlace.sol:StartFiMarketPlace",
            "label": "qualifyAmount",
            "offset": 0,
            "slot": "7",
            "type": "t_uint256"
          },
          {
            "astId": 5188,
            "contract": "contracts/StartFiMarketPlace.sol:StartFiMarketPlace",
            "label": "sellFor",
            "offset": 0,
            "slot": "8",
            "type": "t_uint256"
          },
          {
            "astId": 5191,
            "contract": "contracts/StartFiMarketPlace.sol:StartFiMarketPlace",
            "label": "status",
            "offset": 0,
            "slot": "9",
            "type": "t_enum(ListingStatus)5197"
          }
        ],
        "numberOfBytes": "320"
      },
      "t_struct(WinningBid)4963_storage": {
        "encoding": "inplace",
        "label": "struct MarketPlaceBid.WinningBid",
        "members": [
          {
            "astId": 4960,
            "contract": "contracts/StartFiMarketPlace.sol:StartFiMarketPlace",
            "label": "bidId",
            "offset": 0,
            "slot": "0",
            "type": "t_bytes32"
          },
          {
            "astId": 4962,
            "contract": "contracts/StartFiMarketPlace.sol:StartFiMarketPlace",
            "label": "bidder",
            "offset": 0,
            "slot": "1",
            "type": "t_address"
          }
        ],
        "numberOfBytes": "64"
      },
      "t_uint256": {
        "encoding": "inplace",
        "label": "uint256",
        "numberOfBytes": "32"
      }
    }
  }
}