{
  "address": "0x3a7c0B90AF5DF1f149D22Bc8A69b59de1CafBE8C",
  "abi": [
    {
      "inputs": [
        {
          "internalType": "string",
          "name": "name",
          "type": "string"
        },
        {
          "internalType": "string",
          "name": "symbol",
          "type": "string"
        },
        {
          "internalType": "address",
          "name": "owner",
          "type": "address"
        }
      ],
      "stateMutability": "nonpayable",
      "type": "constructor"
    },
    {
      "anonymous": false,
      "inputs": [
        {
          "indexed": true,
          "internalType": "address",
          "name": "owner",
          "type": "address"
        },
        {
          "indexed": true,
          "internalType": "address",
          "name": "spender",
          "type": "address"
        },
        {
          "indexed": false,
          "internalType": "uint256",
          "name": "value",
          "type": "uint256"
        }
      ],
      "name": "Approval",
      "type": "event"
    },
    {
      "anonymous": false,
      "inputs": [
        {
          "indexed": true,
          "internalType": "address",
          "name": "from",
          "type": "address"
        },
        {
          "indexed": true,
          "internalType": "address",
          "name": "to",
          "type": "address"
        },
        {
          "indexed": false,
          "internalType": "uint256",
          "name": "value",
          "type": "uint256"
        }
      ],
      "name": "Transfer",
      "type": "event"
    },
    {
      "inputs": [],
      "name": "DOMAIN_SEPARATOR",
      "outputs": [
        {
          "internalType": "bytes32",
          "name": "",
          "type": "bytes32"
        }
      ],
      "stateMutability": "view",
      "type": "function"
    },
    {
      "inputs": [],
      "name": "PERMIT_TYPEHASH",
      "outputs": [
        {
          "internalType": "bytes32",
          "name": "",
          "type": "bytes32"
        }
      ],
      "stateMutability": "view",
      "type": "function"
    },
    {
      "inputs": [],
      "name": "TRANSFER_TYPEHASH",
      "outputs": [
        {
          "internalType": "bytes32",
          "name": "",
          "type": "bytes32"
        }
      ],
      "stateMutability": "view",
      "type": "function"
    },
    {
      "inputs": [
        {
          "internalType": "address",
          "name": "owner",
          "type": "address"
        },
        {
          "internalType": "address",
          "name": "spender",
          "type": "address"
        }
      ],
      "name": "allowance",
      "outputs": [
        {
          "internalType": "uint256",
          "name": "",
          "type": "uint256"
        }
      ],
      "stateMutability": "view",
      "type": "function"
    },
    {
      "inputs": [
        {
          "internalType": "address",
          "name": "spender",
          "type": "address"
        },
        {
          "internalType": "uint256",
          "name": "amount",
          "type": "uint256"
        }
      ],
      "name": "approve",
      "outputs": [
        {
          "internalType": "bool",
          "name": "",
          "type": "bool"
        }
      ],
      "stateMutability": "nonpayable",
      "type": "function"
    },
    {
      "inputs": [
        {
          "internalType": "address",
          "name": "account",
          "type": "address"
        }
      ],
      "name": "balanceOf",
      "outputs": [
        {
          "internalType": "uint256",
          "name": "",
          "type": "uint256"
        }
      ],
      "stateMutability": "view",
      "type": "function"
    },
    {
      "inputs": [
        {
          "internalType": "uint256",
          "name": "amount",
          "type": "uint256"
        }
      ],
      "name": "burn",
      "outputs": [],
      "stateMutability": "nonpayable",
      "type": "function"
    },
    {
      "inputs": [
        {
          "internalType": "address",
          "name": "account",
          "type": "address"
        },
        {
          "internalType": "uint256",
          "name": "amount",
          "type": "uint256"
        }
      ],
      "name": "burnFrom",
      "outputs": [],
      "stateMutability": "nonpayable",
      "type": "function"
    },
    {
      "inputs": [],
      "name": "decimals",
      "outputs": [
        {
          "internalType": "uint8",
          "name": "",
          "type": "uint8"
        }
      ],
      "stateMutability": "view",
      "type": "function"
    },
    {
      "inputs": [
        {
          "internalType": "address",
          "name": "spender",
          "type": "address"
        },
        {
          "internalType": "uint256",
          "name": "subtractedValue",
          "type": "uint256"
        }
      ],
      "name": "decreaseAllowance",
      "outputs": [
        {
          "internalType": "bool",
          "name": "",
          "type": "bool"
        }
      ],
      "stateMutability": "nonpayable",
      "type": "function"
    },
    {
      "inputs": [
        {
          "internalType": "address",
          "name": "spender",
          "type": "address"
        },
        {
          "internalType": "uint256",
          "name": "addedValue",
          "type": "uint256"
        }
      ],
      "name": "increaseAllowance",
      "outputs": [
        {
          "internalType": "bool",
          "name": "",
          "type": "bool"
        }
      ],
      "stateMutability": "nonpayable",
      "type": "function"
    },
    {
      "inputs": [],
      "name": "name",
      "outputs": [
        {
          "internalType": "string",
          "name": "",
          "type": "string"
        }
      ],
      "stateMutability": "view",
      "type": "function"
    },
    {
      "inputs": [
        {
          "internalType": "address",
          "name": "",
          "type": "address"
        }
      ],
      "name": "nonces",
      "outputs": [
        {
          "internalType": "uint256",
          "name": "",
          "type": "uint256"
        }
      ],
      "stateMutability": "view",
      "type": "function"
    },
    {
      "inputs": [
        {
          "internalType": "address",
          "name": "target",
          "type": "address"
        },
        {
          "internalType": "address",
          "name": "spender",
          "type": "address"
        },
        {
          "internalType": "uint256",
          "name": "value",
          "type": "uint256"
        },
        {
          "internalType": "uint256",
          "name": "deadline",
          "type": "uint256"
        },
        {
          "internalType": "uint8",
          "name": "v",
          "type": "uint8"
        },
        {
          "internalType": "bytes32",
          "name": "r",
          "type": "bytes32"
        },
        {
          "internalType": "bytes32",
          "name": "s",
          "type": "bytes32"
        }
      ],
      "name": "permit",
      "outputs": [],
      "stateMutability": "nonpayable",
      "type": "function"
    },
    {
      "inputs": [],
      "name": "symbol",
      "outputs": [
        {
          "internalType": "string",
          "name": "",
          "type": "string"
        }
      ],
      "stateMutability": "view",
      "type": "function"
    },
    {
      "inputs": [],
      "name": "totalSupply",
      "outputs": [
        {
          "internalType": "uint256",
          "name": "",
          "type": "uint256"
        }
      ],
      "stateMutability": "view",
      "type": "function"
    },
    {
      "inputs": [
        {
          "internalType": "address",
          "name": "recipient",
          "type": "address"
        },
        {
          "internalType": "uint256",
          "name": "amount",
          "type": "uint256"
        }
      ],
      "name": "transfer",
      "outputs": [
        {
          "internalType": "bool",
          "name": "",
          "type": "bool"
        }
      ],
      "stateMutability": "nonpayable",
      "type": "function"
    },
    {
      "inputs": [
        {
          "internalType": "address",
          "name": "sender",
          "type": "address"
        },
        {
          "internalType": "address",
          "name": "recipient",
          "type": "address"
        },
        {
          "internalType": "uint256",
          "name": "amount",
          "type": "uint256"
        }
      ],
      "name": "transferFrom",
      "outputs": [
        {
          "internalType": "bool",
          "name": "",
          "type": "bool"
        }
      ],
      "stateMutability": "nonpayable",
      "type": "function"
    },
    {
      "inputs": [
        {
          "internalType": "address",
          "name": "target",
          "type": "address"
        },
        {
          "internalType": "address",
          "name": "to",
          "type": "address"
        },
        {
          "internalType": "uint256",
          "name": "value",
          "type": "uint256"
        },
        {
          "internalType": "uint256",
          "name": "deadline",
          "type": "uint256"
        },
        {
          "internalType": "uint8",
          "name": "v",
          "type": "uint8"
        },
        {
          "internalType": "bytes32",
          "name": "r",
          "type": "bytes32"
        },
        {
          "internalType": "bytes32",
          "name": "s",
          "type": "bytes32"
        }
      ],
      "name": "transferWithPermit",
      "outputs": [
        {
          "internalType": "bool",
          "name": "",
          "type": "bool"
        }
      ],
      "stateMutability": "nonpayable",
      "type": "function"
    }
  ],
  "transactionHash": "0xb67adf93dc5a34312e8424a6f53b3d264681568a2b9aad6f54b0bfdbfe0f98a9",
  "args": [
    "StartFiToken",
    "STFI",
    "0x0F827B556771a6711dFC7d5DD342a744688a9CDb"
  ],
  "solcInputHash": "c43ab73aedbd503dda171840950295d2",
  "bytecode": "0x60806040523480156200001157600080fd5b506040516200154c3803806200154c833981016040819052620000349162000379565b82826a52b7d2dcc80cd2e400000083838381600390805190602001906200005d9291906200021c565b508051620000739060049060208401906200021c565b5050506200008881836200013460201b60201c565b5050845160209586012060408051808201825260018152603160f81b9088015280517f8b73c3c69bb8fe3d512ecc4cf759cc79239f7b179b0ffacaa9a75d522b39400f81890152808201929092527fc89efdaa54c0f20c7adf612882df0950f5a951637e0307cdcb4c672f298b8bc66060830152600060808301523060a0808401919091528151808403909101815260c090920190528051950194909420600555506200048092505050565b6001600160a01b0382166200018f5760405162461bcd60e51b815260206004820152601f60248201527f45524332303a206d696e7420746f20746865207a65726f206164647265737300604482015260640160405180910390fd5b8060026000828254620001a3919062000406565b90915550506001600160a01b03821660009081526020819052604081208054839290620001d290849062000406565b90915550506040518181526001600160a01b038316906000907fddf252ad1be2c89b69c2b068fc378daa952ba7f163c4a11628f55a4df523b3ef9060200160405180910390a35050565b8280546200022a906200042d565b90600052602060002090601f0160209004810192826200024e576000855562000299565b82601f106200026957805160ff191683800117855562000299565b8280016001018555821562000299579182015b82811115620002995782518255916020019190600101906200027c565b50620002a7929150620002ab565b5090565b5b80821115620002a75760008155600101620002ac565b600082601f830112620002d457600080fd5b81516001600160401b0380821115620002f157620002f16200046a565b604051601f8301601f19908116603f011681019082821181831017156200031c576200031c6200046a565b816040528381526020925086838588010111156200033957600080fd5b600091505b838210156200035d57858201830151818301840152908201906200033e565b838211156200036f5760008385830101525b9695505050505050565b6000806000606084860312156200038f57600080fd5b83516001600160401b0380821115620003a757600080fd5b620003b587838801620002c2565b94506020860151915080821115620003cc57600080fd5b50620003db86828701620002c2565b604086015190935090506001600160a01b0381168114620003fb57600080fd5b809150509250925092565b600082198211156200042857634e487b7160e01b600052601160045260246000fd5b500190565b600181811c908216806200044257607f821691505b602082108114156200046457634e487b7160e01b600052602260045260246000fd5b50919050565b634e487b7160e01b600052604160045260246000fd5b6110bc80620004906000396000f3fe608060405234801561001057600080fd5b50600436106101205760003560e01c806342966c68116100ad57806395d89b411161007157806395d89b4114610288578063a457c2d714610290578063a9059cbb146102a3578063d505accf146102b6578063dd62ed3e146102c957600080fd5b806342966c6814610204578063605629d61461021957806370a082311461022c57806379cc6790146102555780637ecebe001461026857600080fd5b806323b872dd116100f457806323b872dd1461019f57806330adf81f146101b2578063313ce567146101d95780633644e515146101e857806339509351146101f157600080fd5b8062bf26f41461012557806306fdde031461015f578063095ea7b31461017457806318160ddd14610197575b600080fd5b61014c7f42ce63790c28229c123925d83266e77c04d28784552ab68b350a9003226cbd5981565b6040519081526020015b60405180910390f35b610167610302565b6040516101569190610f96565b610187610182366004610f53565b610394565b6040519015158152602001610156565b60025461014c565b6101876101ad366004610ea4565b6103aa565b61014c7f6e71edae12b1b97f4d1f60370fef10105fa2faae0126114a169c64845d6126c981565b60405160128152602001610156565b61014c60055481565b6101876101ff366004610f53565b610460565b610217610212366004610f7d565b610497565b005b610187610227366004610ee0565b6104a4565b61014c61023a366004610e4f565b6001600160a01b031660009081526020819052604090205490565b610217610263366004610f53565b610603565b61014c610276366004610e4f565b60066020526000908152604090205481565b61016761068b565b61018761029e366004610f53565b61069a565b6101876102b1366004610f53565b610735565b6102176102c4366004610ee0565b610742565b61014c6102d7366004610e71565b6001600160a01b03918216600090815260016020908152604080832093909416825291909152205490565b6060600380546103119061101a565b80601f016020809104026020016040519081016040528092919081815260200182805461033d9061101a565b801561038a5780601f1061035f5761010080835404028352916020019161038a565b820191906000526020600020905b81548152906001019060200180831161036d57829003601f168201915b5050505050905090565b60006103a1338484610871565b50600192915050565b60006103b7848484610996565b6001600160a01b0384166000908152600160209081526040808320338452909152902054828110156104415760405162461bcd60e51b815260206004820152602860248201527f45524332303a207472616e7366657220616d6f756e74206578636565647320616044820152676c6c6f77616e636560c01b60648201526084015b60405180910390fd5b61045585336104508685611003565b610871565b506001949350505050565b3360008181526001602090815260408083206001600160a01b038716845290915281205490916103a1918590610450908690610feb565b6104a13382610b6e565b50565b6000844211156104f65760405162461bcd60e51b815260206004820152601e60248201527f416e7973776170563345524332303a2045787069726564207065726d697400006044820152606401610438565b6001600160a01b038816600090815260066020526040812080547f42ce63790c28229c123925d83266e77c04d28784552ab68b350a9003226cbd59918b918b918b91908661054383611055565b909155506040805160208101969096526001600160a01b0394851690860152929091166060840152608083015260a082015260c0810187905260e0016040516020818303038152906040528051906020012090506105a48982878787610cbd565b806105b757506105b78982878787610d93565b6105c057600080fd5b6001600160a01b0388161515806105e057506001600160a01b0388163014155b6105e957600080fd5b6105f4898989610996565b50600198975050505050505050565b600061060f83336102d7565b90508181101561066d5760405162461bcd60e51b8152602060048201526024808201527f45524332303a206275726e20616d6f756e74206578636565647320616c6c6f77604482015263616e636560e01b6064820152608401610438565b61067c83336104508585611003565b6106868383610b6e565b505050565b6060600480546103119061101a565b3360009081526001602090815260408083206001600160a01b03861684529091528120548281101561071c5760405162461bcd60e51b815260206004820152602560248201527f45524332303a2064656372656173656420616c6c6f77616e63652062656c6f77604482015264207a65726f60d81b6064820152608401610438565b61072b33856104508685611003565b5060019392505050565b60006103a1338484610996565b834211156107925760405162461bcd60e51b815260206004820152601e60248201527f416e7973776170563345524332303a2045787069726564207065726d697400006044820152606401610438565b6001600160a01b038716600090815260066020526040812080547f6e71edae12b1b97f4d1f60370fef10105fa2faae0126114a169c64845d6126c9918a918a918a9190866107df83611055565b909155506040805160208101969096526001600160a01b0394851690860152929091166060840152608083015260a082015260c0810186905260e0016040516020818303038152906040528051906020012090506108408882868686610cbd565b8061085357506108538882868686610d93565b61085c57600080fd5b610867888888610871565b5050505050505050565b6001600160a01b0383166108d35760405162461bcd60e51b8152602060048201526024808201527f45524332303a20617070726f76652066726f6d20746865207a65726f206164646044820152637265737360e01b6064820152608401610438565b6001600160a01b0382166109345760405162461bcd60e51b815260206004820152602260248201527f45524332303a20617070726f766520746f20746865207a65726f206164647265604482015261737360f01b6064820152608401610438565b6001600160a01b0383811660008181526001602090815260408083209487168084529482529182902085905590518481527f8c5be1e5ebec7d5bd14f71427d1e84f3dd0314c0f7b2291e5b200ac8c7c3b92591015b60405180910390a3505050565b6001600160a01b0383166109fa5760405162461bcd60e51b815260206004820152602560248201527f45524332303a207472616e736665722066726f6d20746865207a65726f206164604482015264647265737360d81b6064820152608401610438565b6001600160a01b038216610a5c5760405162461bcd60e51b815260206004820152602360248201527f45524332303a207472616e7366657220746f20746865207a65726f206164647260448201526265737360e81b6064820152608401610438565b6001600160a01b03831660009081526020819052604090205481811015610ad45760405162461bcd60e51b815260206004820152602660248201527f45524332303a207472616e7366657220616d6f756e7420657863656564732062604482015265616c616e636560d01b6064820152608401610438565b610ade8282611003565b6001600160a01b038086166000908152602081905260408082209390935590851681529081208054849290610b14908490610feb565b92505081905550826001600160a01b0316846001600160a01b03167fddf252ad1be2c89b69c2b068fc378daa952ba7f163c4a11628f55a4df523b3ef84604051610b6091815260200190565b60405180910390a350505050565b6001600160a01b038216610bce5760405162461bcd60e51b815260206004820152602160248201527f45524332303a206275726e2066726f6d20746865207a65726f206164647265736044820152607360f81b6064820152608401610438565b6001600160a01b03821660009081526020819052604090205481811015610c425760405162461bcd60e51b815260206004820152602260248201527f45524332303a206275726e20616d6f756e7420657863656564732062616c616e604482015261636560f01b6064820152608401610438565b610c4c8282611003565b6001600160a01b03841660009081526020819052604081209190915560028054849290610c7a908490611003565b90915550506040518281526000906001600160a01b038516907fddf252ad1be2c89b69c2b068fc378daa952ba7f163c4a11628f55a4df523b3ef90602001610989565b60055460405161190160f01b6020820152602281019190915260428101859052600090819060620160408051601f198184030181528282528051602091820120600080855291840180845281905260ff89169284019290925260608301879052608083018690529092509060019060a0015b6020604051602081039080840390855afa158015610d51573d6000803e3d6000fd5b5050604051601f1901519150506001600160a01b03811615801590610d875750876001600160a01b0316816001600160a01b0316145b98975050505050505050565b600080610df8866005546040517f19457468657265756d205369676e6564204d6573736167653a0a3332000000006020820152603c810191909152605c8101829052600090607c01604051602081830303815290604052805190602001209050919050565b6040805160008082526020820180845284905260ff89169282019290925260608101879052608081018690529192509060019060a001610d2f565b80356001600160a01b0381168114610e4a57600080fd5b919050565b600060208284031215610e6157600080fd5b610e6a82610e33565b9392505050565b60008060408385031215610e8457600080fd5b610e8d83610e33565b9150610e9b60208401610e33565b90509250929050565b600080600060608486031215610eb957600080fd5b610ec284610e33565b9250610ed060208501610e33565b9150604084013590509250925092565b600080600080600080600060e0888a031215610efb57600080fd5b610f0488610e33565b9650610f1260208901610e33565b95506040880135945060608801359350608088013560ff81168114610f3657600080fd5b9699959850939692959460a0840135945060c09093013592915050565b60008060408385031215610f6657600080fd5b610f6f83610e33565b946020939093013593505050565b600060208284031215610f8f57600080fd5b5035919050565b600060208083528351808285015260005b81811015610fc357858101830151858201604001528201610fa7565b81811115610fd5576000604083870101525b50601f01601f1916929092016040019392505050565b60008219821115610ffe57610ffe611070565b500190565b60008282101561101557611015611070565b500390565b600181811c9082168061102e57607f821691505b6020821081141561104f57634e487b7160e01b600052602260045260246000fd5b50919050565b600060001982141561106957611069611070565b5060010190565b634e487b7160e01b600052601160045260246000fdfea264697066735822122047b22c8cc96f5136d93fddaeb7caea4b40146e77e0e9c06cc6d9c9a43be2aa4264736f6c63430008070033",
  "devdoc": {
    "author": "Eman Herawy, StartFi Team",
    "kind": "dev",
    "methods": {
      "allowance(address,address)": {
        "details": "See {IERC20-allowance}."
      },
      "approve(address,uint256)": {
        "details": "See {IERC20-approve}. Requirements: - `spender` cannot be the zero address."
      },
      "balanceOf(address)": {
        "details": "See {IERC20-balanceOf}."
      },
      "burn(uint256)": {
        "details": "Destroys `amount` tokens from the caller. See {ERC20-_burn}."
      },
      "burnFrom(address,uint256)": {
        "details": "Destroys `amount` tokens from `account`, deducting from the caller's allowance. See {ERC20-_burn} and {ERC20-allowance}. Requirements: - the caller must have allowance for ``accounts``'s tokens of at least `amount`."
      },
      "decimals()": {
        "details": "Returns the number of decimals used to get its user representation. For example, if `decimals` equals `2`, a balance of `505` tokens should be displayed to a user as `5,05` (`505 / 10 ** 2`). Tokens usually opt for a value of 18, imitating the relationship between Ether and Wei. This is the value {ERC20} uses, unless this function is overridden; NOTE: This information is only used for _display_ purposes: it in no way affects any of the arithmetic of the contract, including {IERC20-balanceOf} and {IERC20-transfer}."
      },
      "decreaseAllowance(address,uint256)": {
        "details": "Atomically decreases the allowance granted to `spender` by the caller. This is an alternative to {approve} that can be used as a mitigation for problems described in {IERC20-approve}. Emits an {Approval} event indicating the updated allowance. Requirements: - `spender` cannot be the zero address. - `spender` must have allowance for the caller of at least `subtractedValue`."
      },
      "increaseAllowance(address,uint256)": {
        "details": "Atomically increases the allowance granted to `spender` by the caller. This is an alternative to {approve} that can be used as a mitigation for problems described in {IERC20-approve}. Emits an {Approval} event indicating the updated allowance. Requirements: - `spender` cannot be the zero address."
      },
      "name()": {
        "details": "Returns the name of the token."
      },
      "permit(address,address,uint256,uint256,uint8,bytes32,bytes32)": {
        "details": "Sets `value` as allowance of `spender` account over `owner` account's AnyswapV3ERC20 token, given `owner` account's signed approval. Emits {Approval} event. Requirements:   - `deadline` must be timestamp in future.   - `v`, `r` and `s` must be valid `secp256k1` signature from `owner` account over EIP712-formatted function arguments.   - the signature must use `owner` account's current nonce (see {nonces}).   - the signer cannot be zero address and must be `owner` account. For more information on signature format, see https://eips.ethereum.org/EIPS/eip-2612#specification[relevant EIP section]. AnyswapV3ERC20 token implementation adapted from https://github.com/albertocuestacanada/ERC20Permit/blob/master/contracts/ERC20Permit.sol."
      },
      "symbol()": {
        "details": "Returns the symbol of the token, usually a shorter version of the name."
      },
      "totalSupply()": {
        "details": "See {IERC20-totalSupply}."
      },
      "transfer(address,uint256)": {
        "details": "See {IERC20-transfer}. Requirements: - `recipient` cannot be the zero address. - the caller must have a balance of at least `amount`."
      },
      "transferFrom(address,address,uint256)": {
        "details": "See {IERC20-transferFrom}. Emits an {Approval} event indicating the updated allowance. This is not required by the EIP. See the note at the beginning of {ERC20}. Requirements: - `sender` and `recipient` cannot be the zero address. - `sender` must have a balance of at least `amount`. - the caller must have allowance for ``sender``'s tokens of at least `amount`."
      }
    },
    "stateVariables": {
      "nonces": {
        "details": "Records current ERC2612 nonce for account. This value must be included whenever signature is generated for {permit}. Every successful call to {permit} increases account's nonce by one. This prevents signature from being used multiple times."
      }
    },
    "title": "Start FiToken. [ desc ] : A Startfi Utiltiy token",
    "version": 1
  },
  "userdoc": {
    "kind": "user",
    "methods": {},
    "version": 1
  },
  "storageLayout": {
    "storage": [
      {
        "astId": 815,
        "contract": "contracts/StartFiToken.sol:StartFiToken",
        "label": "_balances",
        "offset": 0,
        "slot": "0",
        "type": "t_mapping(t_address,t_uint256)"
      },
      {
        "astId": 821,
        "contract": "contracts/StartFiToken.sol:StartFiToken",
        "label": "_allowances",
        "offset": 0,
        "slot": "1",
        "type": "t_mapping(t_address,t_mapping(t_address,t_uint256))"
      },
      {
        "astId": 823,
        "contract": "contracts/StartFiToken.sol:StartFiToken",
        "label": "_totalSupply",
        "offset": 0,
        "slot": "2",
        "type": "t_uint256"
      },
      {
        "astId": 825,
        "contract": "contracts/StartFiToken.sol:StartFiToken",
        "label": "_name",
        "offset": 0,
        "slot": "3",
        "type": "t_string_storage"
      },
      {
        "astId": 827,
        "contract": "contracts/StartFiToken.sol:StartFiToken",
        "label": "_symbol",
        "offset": 0,
        "slot": "4",
        "type": "t_string_storage"
      },
      {
        "astId": 7302,
        "contract": "contracts/StartFiToken.sol:StartFiToken",
        "label": "DOMAIN_SEPARATOR",
        "offset": 0,
        "slot": "5",
        "type": "t_bytes32"
      },
      {
        "astId": 7317,
        "contract": "contracts/StartFiToken.sol:StartFiToken",
        "label": "nonces",
        "offset": 0,
        "slot": "6",
        "type": "t_mapping(t_address,t_uint256)"
      }
    ],
    "types": {
      "t_address": {
        "encoding": "inplace",
        "label": "address",
        "numberOfBytes": "20"
      },
      "t_bytes32": {
        "encoding": "inplace",
        "label": "bytes32",
        "numberOfBytes": "32"
      },
      "t_mapping(t_address,t_mapping(t_address,t_uint256))": {
        "encoding": "mapping",
        "key": "t_address",
        "label": "mapping(address => mapping(address => uint256))",
        "numberOfBytes": "32",
        "value": "t_mapping(t_address,t_uint256)"
      },
      "t_mapping(t_address,t_uint256)": {
        "encoding": "mapping",
        "key": "t_address",
        "label": "mapping(address => uint256)",
        "numberOfBytes": "32",
        "value": "t_uint256"
      },
      "t_string_storage": {
        "encoding": "bytes",
        "label": "string",
        "numberOfBytes": "32"
      },
      "t_uint256": {
        "encoding": "inplace",
        "label": "uint256",
        "numberOfBytes": "32"
      }
    }
  }
}