{
  "_format": "hh-sol-artifact-1",
  "contractName": "StartFiMarketPlace",
  "sourceName": "contracts/StartFiMarketPlace.sol",
  "abi": [
    {
      "inputs": [
        {
          "internalType": "string",
          "name": "_marketPlaceName",
          "type": "string"
        },
        {
          "internalType": "address",
          "name": "_paymentContract",
          "type": "address"
        },
        {
          "internalType": "address",
          "name": "_stakeContract",
          "type": "address"
        }
      ],
      "stateMutability": "nonpayable",
      "type": "constructor"
    },
    {
      "anonymous": false,
      "inputs": [
        {
          "indexed": false,
          "internalType": "bytes32",
          "name": "bidId",
          "type": "bytes32"
        },
        {
          "indexed": false,
          "internalType": "bytes32",
          "name": "listingId",
          "type": "bytes32"
        },
        {
          "indexed": false,
          "internalType": "address",
          "name": "tokenAddress",
          "type": "address"
        },
        {
          "indexed": false,
          "internalType": "address",
          "name": "bidder",
          "type": "address"
        },
        {
          "indexed": false,
          "internalType": "uint256",
          "name": "tokenId",
          "type": "uint256"
        },
        {
          "indexed": false,
          "internalType": "uint256",
          "name": "bidPrice",
          "type": "uint256"
        },
        {
          "indexed": false,
          "internalType": "uint256",
          "name": "timestamp",
          "type": "uint256"
        }
      ],
      "name": "BidOnAuction",
      "type": "event"
    },
    {
      "anonymous": false,
      "inputs": [
        {
          "indexed": false,
          "internalType": "bytes32",
          "name": "listId",
          "type": "bytes32"
        },
        {
          "indexed": false,
          "internalType": "address",
          "name": "nFTContract",
          "type": "address"
        },
        {
          "indexed": false,
          "internalType": "address",
          "name": "buyer",
          "type": "address"
        },
        {
          "indexed": false,
          "internalType": "uint256",
          "name": "tokenId",
          "type": "uint256"
        },
        {
          "indexed": false,
          "internalType": "uint256",
          "name": "sellingPrice",
          "type": "uint256"
        },
        {
          "indexed": false,
          "internalType": "address",
          "name": "seller",
          "type": "address"
        },
        {
          "indexed": false,
          "internalType": "bool",
          "name": "isAucton",
          "type": "bool"
        },
        {
          "indexed": false,
          "internalType": "address",
          "name": "issuer",
          "type": "address"
        },
        {
          "indexed": false,
          "internalType": "uint256",
          "name": "royaltyAmount",
          "type": "uint256"
        },
        {
          "indexed": false,
          "internalType": "uint256",
          "name": "fees",
          "type": "uint256"
        },
        {
          "indexed": false,
          "internalType": "uint256",
          "name": "netPrice",
          "type": "uint256"
        },
        {
          "indexed": false,
          "internalType": "uint256",
          "name": "timestamp",
          "type": "uint256"
        }
      ],
      "name": "BuyNow",
      "type": "event"
    },
    {
      "anonymous": false,
      "inputs": [
        {
          "indexed": false,
          "internalType": "bytes32",
          "name": "listId",
          "type": "bytes32"
        },
        {
          "indexed": false,
          "internalType": "address",
          "name": "nFTContract",
          "type": "address"
        },
        {
          "indexed": false,
          "internalType": "address",
          "name": "buyer",
          "type": "address"
        },
        {
          "indexed": false,
          "internalType": "uint256",
          "name": "tokenId",
          "type": "uint256"
        },
        {
          "indexed": false,
          "internalType": "uint256",
          "name": "listingPrice",
          "type": "uint256"
        },
        {
          "indexed": false,
          "internalType": "bool",
          "name": "sellForEnabled",
          "type": "bool"
        },
        {
          "indexed": false,
          "internalType": "uint256",
          "name": "sellFor",
          "type": "uint256"
        },
        {
          "indexed": false,
          "internalType": "uint256",
          "name": "releaseTime",
          "type": "uint256"
        },
        {
          "indexed": false,
          "internalType": "uint256",
          "name": "qualifyAmount",
          "type": "uint256"
        },
        {
          "indexed": false,
          "internalType": "uint256",
          "name": "timestamp",
          "type": "uint256"
        }
      ],
      "name": "CreateAuction",
      "type": "event"
    },
    {
      "anonymous": false,
      "inputs": [
        {
          "indexed": false,
          "internalType": "bytes32",
          "name": "listId",
          "type": "bytes32"
        },
        {
          "indexed": false,
          "internalType": "address",
          "name": "nFTContract",
          "type": "address"
        },
        {
          "indexed": false,
          "internalType": "address",
          "name": "buyer",
          "type": "address"
        },
        {
          "indexed": false,
          "internalType": "uint256",
          "name": "tokenId",
          "type": "uint256"
        },
        {
          "indexed": false,
          "internalType": "uint256",
          "name": "fineFees",
          "type": "uint256"
        },
        {
          "indexed": false,
          "internalType": "uint256",
          "name": "remaining",
          "type": "uint256"
        },
        {
          "indexed": false,
          "internalType": "uint256",
          "name": "releaseTime",
          "type": "uint256"
        },
        {
          "indexed": false,
          "internalType": "uint256",
          "name": "timestamp",
          "type": "uint256"
        }
      ],
      "name": "DeListOffMarketplace",
      "type": "event"
    },
    {
      "anonymous": false,
      "inputs": [
        {
          "indexed": false,
          "internalType": "bytes32",
          "name": "bidId",
          "type": "bytes32"
        },
        {
          "indexed": false,
          "internalType": "bytes32",
          "name": "listingId",
          "type": "bytes32"
        },
        {
          "indexed": false,
          "internalType": "address",
          "name": "tokenAddress",
          "type": "address"
        },
        {
          "indexed": false,
          "internalType": "address",
          "name": "bidder",
          "type": "address"
        },
        {
          "indexed": false,
          "internalType": "uint256",
          "name": "tokenId",
          "type": "uint256"
        },
        {
          "indexed": false,
          "internalType": "address",
          "name": "buyer",
          "type": "address"
        },
        {
          "indexed": false,
          "internalType": "uint256",
          "name": "qualifyAmount",
          "type": "uint256"
        },
        {
          "indexed": false,
          "internalType": "uint256",
          "name": "remaining",
          "type": "uint256"
        },
        {
          "indexed": false,
          "internalType": "uint256",
          "name": "finefees",
          "type": "uint256"
        },
        {
          "indexed": false,
          "internalType": "uint256",
          "name": "timestamp",
          "type": "uint256"
        }
      ],
      "name": "DisputeAuction",
      "type": "event"
    },
    {
      "anonymous": false,
      "inputs": [
        {
          "indexed": false,
          "internalType": "bytes32",
          "name": "bidId",
          "type": "bytes32"
        },
        {
          "indexed": false,
          "internalType": "bytes32",
          "name": "listingId",
          "type": "bytes32"
        },
        {
          "indexed": false,
          "internalType": "address",
          "name": "tokenAddress",
          "type": "address"
        },
        {
          "indexed": false,
          "internalType": "address",
          "name": "bidder",
          "type": "address"
        },
        {
          "indexed": false,
          "internalType": "uint256",
          "name": "tokenId",
          "type": "uint256"
        },
        {
          "indexed": false,
          "internalType": "uint256",
          "name": "bidPrice",
          "type": "uint256"
        },
        {
          "indexed": false,
          "internalType": "address",
          "name": "issuer",
          "type": "address"
        },
        {
          "indexed": false,
          "internalType": "uint256",
          "name": "royaltyAmount",
          "type": "uint256"
        },
        {
          "indexed": false,
          "internalType": "uint256",
          "name": "fees",
          "type": "uint256"
        },
        {
          "indexed": false,
          "internalType": "uint256",
          "name": "netPrice",
          "type": "uint256"
        },
        {
          "indexed": false,
          "internalType": "uint256",
          "name": "timestamp",
          "type": "uint256"
        }
      ],
      "name": "FullfilBid",
      "type": "event"
    },
    {
      "anonymous": false,
      "inputs": [
        {
          "indexed": false,
          "internalType": "bytes32",
          "name": "listId",
          "type": "bytes32"
        },
        {
          "indexed": false,
          "internalType": "address",
          "name": "nFTContract",
          "type": "address"
        },
        {
          "indexed": false,
          "internalType": "address",
          "name": "buyer",
          "type": "address"
        },
        {
          "indexed": false,
          "internalType": "uint256",
          "name": "tokenId",
          "type": "uint256"
        },
        {
          "indexed": false,
          "internalType": "uint256",
          "name": "listingPrice",
          "type": "uint256"
        },
        {
          "indexed": false,
          "internalType": "uint256",
          "name": "releaseTime",
          "type": "uint256"
        },
        {
          "indexed": false,
          "internalType": "uint256",
          "name": "qualifyAmount",
          "type": "uint256"
        },
        {
          "indexed": false,
          "internalType": "uint256",
          "name": "timestamp",
          "type": "uint256"
        }
      ],
      "name": "ListOnMarketplace",
      "type": "event"
    },
    {
      "anonymous": false,
      "inputs": [
        {
          "indexed": true,
          "internalType": "address",
          "name": "previousOwner",
          "type": "address"
        },
        {
          "indexed": true,
          "internalType": "address",
          "name": "newOwner",
          "type": "address"
        }
      ],
      "name": "OwnershipTransferred",
      "type": "event"
    },
    {
      "anonymous": false,
      "inputs": [
        {
          "indexed": false,
          "internalType": "address",
          "name": "account",
          "type": "address"
        }
      ],
      "name": "Paused",
      "type": "event"
    },
    {
      "anonymous": false,
      "inputs": [
        {
          "indexed": false,
          "internalType": "address",
          "name": "account",
          "type": "address"
        }
      ],
      "name": "Unpaused",
      "type": "event"
    },
    {
      "anonymous": false,
      "inputs": [
        {
          "indexed": false,
          "internalType": "address",
          "name": "user",
          "type": "address"
        },
        {
          "indexed": false,
          "internalType": "uint256",
          "name": "lastReserves",
          "type": "uint256"
        },
        {
          "indexed": false,
          "internalType": "uint256",
          "name": "newReserves",
          "type": "uint256"
        },
        {
          "indexed": false,
          "internalType": "uint256",
          "name": "timestamp",
          "type": "uint256"
        }
      ],
      "name": "UserReservesFree",
      "type": "event"
    },
    {
      "inputs": [
        {
          "internalType": "bytes32",
          "name": "listingId",
          "type": "bytes32"
        },
        {
          "internalType": "address",
          "name": "tokenAddress",
          "type": "address"
        },
        {
          "internalType": "uint256",
          "name": "tokenId",
          "type": "uint256"
        },
        {
          "internalType": "uint256",
          "name": "bidPrice",
          "type": "uint256"
        }
      ],
      "name": "bid",
      "outputs": [
        {
          "internalType": "bytes32",
          "name": "bidId",
          "type": "bytes32"
        }
      ],
      "stateMutability": "nonpayable",
      "type": "function"
    },
    {
      "inputs": [],
      "name": "bidPenaltyPercentageBase",
      "outputs": [
        {
          "internalType": "uint256",
          "name": "",
          "type": "uint256"
        }
      ],
      "stateMutability": "view",
      "type": "function"
    },
    {
      "inputs": [
        {
          "internalType": "bytes32",
          "name": "listingId",
          "type": "bytes32"
        },
        {
          "internalType": "uint256",
          "name": "price",
          "type": "uint256"
        }
      ],
      "name": "buyNow",
      "outputs": [
        {
          "internalType": "address",
          "name": "_NFTContract",
          "type": "address"
        },
        {
          "internalType": "uint256",
          "name": "tokenId",
          "type": "uint256"
        }
      ],
      "stateMutability": "nonpayable",
      "type": "function"
    },
    {
      "inputs": [
        {
          "internalType": "address",
          "name": "nFTContract",
          "type": "address"
        },
        {
          "internalType": "uint256",
          "name": "tokenId",
          "type": "uint256"
        },
        {
          "internalType": "uint256",
          "name": "listingPrice",
          "type": "uint256"
        },
        {
          "internalType": "uint256",
          "name": "qualifyAmount",
          "type": "uint256"
        },
        {
          "internalType": "bool",
          "name": "sellForEnabled",
          "type": "bool"
        },
        {
          "internalType": "uint256",
          "name": "sellFor",
          "type": "uint256"
        },
        {
          "internalType": "uint256",
          "name": "duration",
          "type": "uint256"
        }
      ],
      "name": "createAuction",
      "outputs": [
        {
          "internalType": "bytes32",
          "name": "listId",
          "type": "bytes32"
        }
      ],
      "stateMutability": "nonpayable",
      "type": "function"
    },
    {
      "inputs": [
        {
          "internalType": "bytes32",
          "name": "listingId",
          "type": "bytes32"
        }
      ],
      "name": "deList",
      "outputs": [
        {
          "internalType": "address",
          "name": "_NFTContract",
          "type": "address"
        },
        {
          "internalType": "uint256",
          "name": "tokenId",
          "type": "uint256"
        }
      ],
      "stateMutability": "nonpayable",
      "type": "function"
    },
    {
      "inputs": [],
      "name": "delistAfter",
      "outputs": [
        {
          "internalType": "uint256",
          "name": "",
          "type": "uint256"
        }
      ],
      "stateMutability": "view",
      "type": "function"
    },
    {
      "inputs": [],
      "name": "delistFeesPercentage",
      "outputs": [
        {
          "internalType": "uint256",
          "name": "",
          "type": "uint256"
        }
      ],
      "stateMutability": "view",
      "type": "function"
    },
    {
      "inputs": [],
      "name": "delistFeesPercentageBase",
      "outputs": [
        {
          "internalType": "uint256",
          "name": "",
          "type": "uint256"
        }
      ],
      "stateMutability": "view",
      "type": "function"
    },
    {
      "inputs": [
        {
          "internalType": "bytes32",
          "name": "listingId",
          "type": "bytes32"
        }
      ],
      "name": "disputeAuction",
      "outputs": [
        {
          "internalType": "address",
          "name": "_NFTContract",
          "type": "address"
        },
        {
          "internalType": "uint256",
          "name": "tokenId",
          "type": "uint256"
        }
      ],
      "stateMutability": "nonpayable",
      "type": "function"
    },
    {
      "inputs": [],
      "name": "freeReserves",
      "outputs": [
        {
          "internalType": "uint256",
          "name": "curentReserves",
          "type": "uint256"
        }
      ],
      "stateMutability": "nonpayable",
      "type": "function"
    },
    {
      "inputs": [
        {
          "internalType": "bytes32",
          "name": "listingId",
          "type": "bytes32"
        }
      ],
      "name": "fullfilBid",
      "outputs": [
        {
          "internalType": "address",
          "name": "_NFTContract",
          "type": "address"
        },
        {
          "internalType": "uint256",
          "name": "tokenId",
          "type": "uint256"
        }
      ],
      "stateMutability": "nonpayable",
      "type": "function"
    },
    {
      "inputs": [
        {
          "internalType": "bytes32",
          "name": "listingId",
          "type": "bytes32"
        },
        {
          "internalType": "address",
          "name": "bidder",
          "type": "address"
        }
      ],
      "name": "getAuctionBidDetails",
      "outputs": [
        {
          "internalType": "bytes32",
          "name": "bidId",
          "type": "bytes32"
        },
        {
          "internalType": "address",
          "name": "nFTContract",
          "type": "address"
        },
        {
          "internalType": "uint256",
          "name": "tokenId",
          "type": "uint256"
        },
        {
          "internalType": "uint256",
          "name": "bidPrice",
          "type": "uint256"
        },
        {
          "internalType": "bool",
          "name": "isPurchased",
          "type": "bool"
        }
      ],
      "stateMutability": "view",
      "type": "function"
    },
    {
      "inputs": [
        {
          "internalType": "bytes32",
          "name": "listingId",
          "type": "bytes32"
        }
      ],
      "name": "getListingDetails",
      "outputs": [
        {
          "internalType": "address",
          "name": "tokenAddress",
          "type": "address"
        },
        {
          "internalType": "uint256",
          "name": "tokenId",
          "type": "uint256"
        },
        {
          "internalType": "uint256",
          "name": "listingPrice",
          "type": "uint256"
        },
        {
          "internalType": "uint256",
          "name": "endPrice",
          "type": "uint256"
        },
        {
          "internalType": "address",
          "name": "seller",
          "type": "address"
        },
        {
          "internalType": "address",
          "name": "buyer",
          "type": "address"
        },
        {
          "internalType": "bool",
          "name": "bedEnabeled",
          "type": "bool"
        },
        {
          "internalType": "bool",
          "name": "sellForEnabled",
          "type": "bool"
        },
        {
          "internalType": "uint256",
          "name": "releaseTime",
          "type": "uint256"
        },
        {
          "internalType": "uint256",
          "name": "qualifyAmount",
          "type": "uint256"
        },
        {
          "internalType": "uint256",
          "name": "sellFor",
          "type": "uint256"
        },
        {
          "internalType": "uint256",
          "name": "status",
          "type": "uint256"
        }
      ],
      "stateMutability": "view",
      "type": "function"
    },
    {
      "inputs": [],
      "name": "getServiceFee",
      "outputs": [
        {
          "internalType": "uint256",
          "name": "",
          "type": "uint256"
        }
      ],
      "stateMutability": "view",
      "type": "function"
    },
    {
      "inputs": [
        {
          "internalType": "address",
          "name": "user",
          "type": "address"
        }
      ],
      "name": "getUserReserved",
      "outputs": [
        {
          "internalType": "uint256",
          "name": "",
          "type": "uint256"
        }
      ],
      "stateMutability": "view",
      "type": "function"
    },
    {
      "inputs": [
        {
          "internalType": "address",
          "name": "nFTContract",
          "type": "address"
        },
        {
          "internalType": "uint256",
          "name": "tokenId",
          "type": "uint256"
        },
        {
          "internalType": "uint256",
          "name": "listingPrice",
          "type": "uint256"
        }
      ],
      "name": "listOnMarketplace",
      "outputs": [
        {
          "internalType": "bytes32",
          "name": "listId",
          "type": "bytes32"
        }
      ],
      "stateMutability": "nonpayable",
      "type": "function"
    },
    {
      "inputs": [],
      "name": "listqualifyPercentage",
      "outputs": [
        {
          "internalType": "uint256",
          "name": "",
          "type": "uint256"
        }
      ],
      "stateMutability": "view",
      "type": "function"
    },
    {
      "inputs": [],
      "name": "listqualifyPercentageBase",
      "outputs": [
        {
          "internalType": "uint256",
          "name": "",
          "type": "uint256"
        }
      ],
      "stateMutability": "view",
      "type": "function"
    },
    {
      "inputs": [],
      "name": "marketPlaceName",
      "outputs": [
        {
          "internalType": "string",
          "name": "",
          "type": "string"
        }
      ],
      "stateMutability": "view",
      "type": "function"
    },
    {
      "inputs": [
        {
          "internalType": "address",
          "name": "",
          "type": "address"
        },
        {
          "internalType": "address",
          "name": "",
          "type": "address"
        },
        {
          "internalType": "uint256",
          "name": "",
          "type": "uint256"
        },
        {
          "internalType": "bytes",
          "name": "",
          "type": "bytes"
        }
      ],
      "name": "onERC721Received",
      "outputs": [
        {
          "internalType": "bytes4",
          "name": "",
          "type": "bytes4"
        }
      ],
      "stateMutability": "nonpayable",
      "type": "function"
    },
    {
      "inputs": [],
      "name": "owner",
      "outputs": [
        {
          "internalType": "address",
          "name": "",
          "type": "address"
        }
      ],
      "stateMutability": "view",
      "type": "function"
    },
    {
      "inputs": [],
      "name": "paused",
      "outputs": [
        {
          "internalType": "bool",
          "name": "",
          "type": "bool"
        }
      ],
      "stateMutability": "view",
      "type": "function"
    },
    {
      "inputs": [],
      "name": "renounceOwnership",
      "outputs": [],
      "stateMutability": "nonpayable",
      "type": "function"
    },
    {
      "inputs": [],
      "name": "stakeContract",
      "outputs": [
        {
          "internalType": "address",
          "name": "",
          "type": "address"
        }
      ],
      "stateMutability": "view",
      "type": "function"
    },
    {
      "inputs": [
        {
          "internalType": "address",
          "name": "newOwner",
          "type": "address"
        }
      ],
      "name": "transferOwnership",
      "outputs": [],
      "stateMutability": "nonpayable",
      "type": "function"
    },
    {
      "inputs": [
        {
          "internalType": "bytes32",
          "name": "listingId",
          "type": "bytes32"
        }
      ],
      "name": "winnerBid",
      "outputs": [
        {
          "internalType": "bytes32",
          "name": "bidId",
          "type": "bytes32"
        },
        {
          "internalType": "address",
          "name": "bidder",
          "type": "address"
        },
        {
          "internalType": "address",
          "name": "nFTContract",
          "type": "address"
        },
        {
          "internalType": "uint256",
          "name": "tokenId",
          "type": "uint256"
        },
        {
          "internalType": "uint256",
          "name": "bidPrice",
          "type": "uint256"
        },
        {
          "internalType": "bool",
          "name": "isPurchased",
          "type": "bool"
        }
      ],
      "stateMutability": "view",
      "type": "function"
    }
  ],
  "bytecode": "0x608060405262ed4e0060019081556006805463ffffffff1916632a55205a1790556007819055606460088190556009829055600a829055600b91909155600c819055600d819055600e553480156200005657600080fd5b506040516200399238038062003992833981016040819052620000799162000206565b8282816000620000886200013f565b600080546001600160a01b0319166001600160a01b0383169081178255604051929350917f8be0079c531659141344cd1fd0a4f28419497f9722a3daafe3b4186f6b6457e0908290a3506000805460ff60a01b191690558051620000f490600590602084019062000143565b505060068054600160201b600160c01b0319166401000000006001600160a01b0393841602179055601180546001600160a01b0319169390911692909217909155506200034f915050565b3390565b8280546200015190620002fc565b90600052602060002090601f016020900481019282620001755760008555620001c0565b82601f106200019057805160ff1916838001178555620001c0565b82800160010185558215620001c0579182015b82811115620001c0578251825591602001919060010190620001a3565b50620001ce929150620001d2565b5090565b5b80821115620001ce5760008155600101620001d3565b80516001600160a01b03811681146200020157600080fd5b919050565b6000806000606084860312156200021b578283fd5b83516001600160401b038082111562000232578485fd5b818601915086601f83011262000246578485fd5b8151818111156200025b576200025b62000339565b6040516020601f8301601f191682018101848111838210171562000283576200028362000339565b60405282825284830181018a10156200029a578788fd5b8793505b82841015620002bd57848401810151828501820152928301926200029e565b82841115620002ce57878184840101525b819750620002de818a01620001e9565b96505050505050620002f360408501620001e9565b90509250925092565b6002810460018216806200031157607f821691505b602082108114156200033357634e487b7160e01b600052602260045260246000fd5b50919050565b634e487b7160e01b600052604160045260246000fd5b613633806200035f6000396000f3fe608060405234801561001057600080fd5b506004361061018e5760003560e01c80635ebd63cc116100de5780637b35656111610097578063e123ff5811610071578063e123ff581461032a578063e1a1d7ed1461033d578063f2fde38b14610361578063ff90ec06146103745761018e565b80637b356561146102e25780638da5cb5b1461030d5780638ef291e9146103155761018e565b80635ebd63cc146102a5578063649ee683146102b85780636b041547146102c05780636bb59816146102c8578063715018a6146102d057806375b4a5e8146102da5761018e565b80633a724f361161014b57806356e9d1f31161012557806356e9d1f3146102625780635bbd49f4146102755780635c975abb146102885780635cc310ba1461029d5761018e565b80633a724f36146102145780634b3ee2bb1461023557806356461e8e1461025a5761018e565b80630a42e75a1461019357806311a1933c146101b1578063150b7a02146101b95780631a186227146101d95780631f78fd0b146101ee57806329c5cdf314610201575b600080fd5b61019b610387565b6040516101a89190612b64565b60405180910390f35b61019b61038d565b6101cc6101c736600461277d565b610393565b6040516101a89190612dc1565b6101e16103a3565b6040516101a89190612a58565b61019b6101fc366004612745565b6103b2565b61019b61020f36600461287a565b6103d1565b610227610222366004612931565b6105e4565b6040516101a8929190612aaa565b610248610243366004612931565b6108e9565b6040516101a896959493929190612bd8565b61019b610943565b610227610270366004612931565b610949565b61019b6102833660046128ae565b610b79565b610290610d07565b6040516101a89190612b59565b61019b610d17565b61019b6102b3366004612978565b610d1d565b61019b611004565b61019b61100a565b61019b611010565b6102d86113f7565b005b61019b611480565b6102f56102f0366004612931565b611486565b6040516101a89c9b9a99989796959493929190612ae9565b6101e161152a565b61031d611539565b6040516101a89190612dd6565b610227610338366004612931565b6115cb565b61035061034b366004612949565b6117fa565b6040516101a8959493929190612ca3565b6102d861036f366004612745565b611842565b6102276103823660046129b4565b611902565b60015481565b60075490565b630a85bd0160e11b949350505050565b6011546001600160a01b031681565b6001600160a01b0381166000908152600f60205260409020545b919050565b600081600081116103fd5760405162461bcd60e51b81526004016103f4906133c2565b60405180910390fd5b600061040b42600154611bdd565b90508585610417611bf0565b8360405160200161042b94939291906129ed565b604051602081830303815290604052805190602001209250600061044e85611bf4565b90508061046161045c611bf0565b611c1d565b101561047f5760405162461bcd60e51b81526004016103f490613156565b6104898787611cbd565b6104a55760405162461bcd60e51b81526004016103f490613371565b6104b887876104b2611bf0565b30611d53565b6104d45760405162461bcd60e51b81526004016103f4906133f9565b6104e76104df611bf0565b826001611dc3565b506000601060006104f6611bf0565b6001600160a01b03168152602080820192909252604001600090812080546001810182558183529282209092018790559091508190601090610536611bf0565b6001600160a01b031681526020810191909152604001600020815461055b92906126bf565b506105718589610569611bf0565b8a8a88611e39565b61058d5760405162461bcd60e51b81526004016103f490612edf565b7f4273eae081fe1625584d9ab2b9e558adb9b60b846999d5b07de6e4664464767c85896105b8611bf0565b8a8a8888426040516105d1989796959493929190612c61565b60405180910390a1505050509392505050565b600081815260026020526040812060060154819083904211801561063c5750600260008281526002602052604090206009015460ff16600381111561063957634e487b7160e01b600052602160045260246000fd5b14155b6106585760405162461bcd60e51b81526004016103f4906134b2565b6000848152600460209081526040808320600190810154600290935292206005810154815491909301546001600160a01b0391821696509450908116911661069e611bf0565b6001600160a01b0316826001600160a01b0316146106ce5760405162461bcd60e51b81526004016103f4906131f9565b60008681526003602081815260408084206001600160a01b03871685529091529091200154806106fd84611ffa565b101561071b5760405162461bcd60e51b81526004016103f490612f55565b60008060008061072c8a8a87612085565b935093509350935061074661073f61152a565b87846120f2565b6107625760405162461bcd60e51b81526004016103f49061347b565b6001600160a01b038416156107985761077c8487856120f2565b6107985760405162461bcd60e51b81526004016103f490613183565b6107a38787836120f2565b6107bf5760405162461bcd60e51b81526004016103f4906131c4565b6107cb8a8a308a611d53565b6107e75760405162461bcd60e51b81526004016103f4906133f9565b60008b81526002602052604081206007015461080590899083611dc3565b10156108235760405162461bcd60e51b81526004016103f49061311f565b60008b815260036020526040812060019161083c611bf0565b6001600160a01b03166001600160a01b0316815260200190815260200160002060040160006101000a81548160ff0219169083151502179055506108828b886000612189565b60008b815260046020526040908190205490517f07de028af71a67d53a1d8a4dc4c448be8ef2fad8e7175565ff1bb5d0fc73584e916108d4918e908e908c908f908c908c908c908c908c904290612d26565b60405180910390a15050505050505050915091565b6000908152600460208181526040808420805460019182015460038086528488206001600160a01b03928316808a529652939096209182015460028301549383015492909501549096939594909416939192909160ff1690565b600e5481565b600081815260026020819052604090912060098101546005820154600483015483546006850154958501546001909501546001600160a01b0391821696909560ff9095169493821693929091169161099f611bf0565b6001600160a01b0316846001600160a01b0316146109cf5760405162461bcd60e51b81526004016103f490612ea8565b6001600160a01b038316156109f65760405162461bcd60e51b81526004016103f490613015565b6000610a05836203f480611bdd565b9050428111158015610a3657506002866003811115610a3457634e487b7160e01b600052602160045260246000fd5b145b80610a6057506001866003811115610a5e57634e487b7160e01b600052602160045260246000fd5b145b610a7c5760405162461bcd60e51b81526004016103f490613455565b60008042851015610ac857610a9084612209565b9092509050610aa787610aa161223d565b8461224c565b610ac35760405162461bcd60e51b81526004016103f490613267565b610ad4565b610ad184611bf4565b90505b610ae08a8a308a611d53565b610afc5760405162461bcd60e51b81526004016103f4906133f9565b6000610b11610b09611bf0565b836000611dc3565b1015610b2f5760405162461bcd60e51b81526004016103f49061311f565b610b3c8b60006003612189565b7f55058811c463cd1d9f3952e51fdb7eb2760b904e998811cb7485a7f33a1ff4af8b8b898c86868b426040516108d4989796959493929190612c61565b60008560008111610b9c5760405162461bcd60e51b81526004016103f4906133c2565b61a8c08311610bbd5760405162461bcd60e51b81526004016103f490613324565b6000610bc94285611bdd565b90508989610bd5611bf0565b83604051602001610be994939291906129ed565b6040516020818303038152906040528051906020012092508515610c275760008511610c275760405162461bcd60e51b81526004016103f490613230565b610c318a8a611cbd565b610c4d5760405162461bcd60e51b81526004016103f490613371565b610c5a8a8a6104b2611bf0565b610c765760405162461bcd60e51b81526004016103f4906133f9565b610c8e838b610c83611bf0565b8c8c8b8b888f612281565b610caa5760405162461bcd60e51b81526004016103f490612edf565b7fd7f1b8f328c218ec2774158bb7329aaa002cda2cb72482f7927b5c1991697f1b838b610cd5611bf0565b8c8c8b8b888f42604051610cf29a99989796959493929190612c0e565b60405180910390a15050979650505050505050565b600054600160a01b900460ff1690565b600d5481565b600084815260026020526040812060060154859042108015610d735750600260008281526002602052604090206009015460ff166003811115610d7057634e487b7160e01b600052602160045260246000fd5b14155b610d8f5760405162461bcd60e51b81526004016103f4906134b2565b8585610d99611bf0565b86604051602001610dad9493929190612a26565b60408051601f19818403018152918152815160209283012060008981526004845282812060010154600290945291909120600701549093506001600160a01b039091169081610e2d5760008881526002602081905260409091200154851015610e285760405162461bcd60e51b81526004016103f490612fbf565b610e70565b60008881526003602081815260408084206001600160a01b038716855290915290912001548511610e705760405162461bcd60e51b81526004016103f490612e29565b600088815260036020526040812081610e87611bf0565b6001600160a01b03168152602081019190915260400160002060030154905080610f7d5781610eb761045c611bf0565b1015610ed55760405162461bcd60e51b81526004016103f490613156565b600060106000610ee3611bf0565b6001600160a01b03168152602080820192909252604001600090812080546001810182558183529282209092018c90559091508190601090610f23611bf0565b6001600160a01b0316815260208101919091526040016000208154610f4892906126bf565b506000610f5e610f56611bf0565b856001611dc3565b11610f7b5760405162461bcd60e51b81526004016103f490612e71565b505b610f92858a8a610f8b611bf0565b8b8b612442565b610fae5760405162461bcd60e51b81526004016103f4906132fe565b7f2d4cfcefc09a529d21dfffe1fc49a95663a8e6ee7aa367506e419a6d43788285858a8a610fda611bf0565b8b8b42604051610ff09796959493929190612d85565b60405180910390a150505050949350505050565b600b5481565b600a5481565b600080600f600061101f611bf0565b6001600160a01b03166001600160a01b03168152602001908152602001600020549050600060106000611050611bf0565b6001600160a01b03166001600160a01b031681526020019081526020016000208054806020026020016040519081016040528092919081815260200182805480156110ba57602002820191906000526020600020905b8154815260200190600101908083116110a6575b50505050509050601060006110cd611bf0565b6001600160a01b03166001600160a01b0316815260200190815260200160002060006110f9919061270f565b600060106000611107611bf0565b6001600160a01b03166001600160a01b03168152602001908152602001600020905060005b825181101561134c57600280600085848151811061115a57634e487b7160e01b600052603260045260246000fd5b60209081029190910181015182528101919091526040016000206009015460ff16600381111561119a57634e487b7160e01b600052602160045260246000fd5b141561123357818382815181106111c157634e487b7160e01b600052603260045260246000fd5b6020908102919091018101518254600181018455600093845291832090910155835161122c9187916002919087908690811061120d57634e487b7160e01b600052603260045260246000fd5b6020026020010151815260200190815260200160002060070154611bdd565b945061133a565b60016002600085848151811061125957634e487b7160e01b600052603260045260246000fd5b60209081029190910181015182528101919091526040016000206009015460ff16600381111561129957634e487b7160e01b600052602160045260246000fd5b141561133a57818382815181106112c057634e487b7160e01b600052603260045260246000fd5b6020908102919091018101518254600181018455600093845291832090910155835161132a90600290839087908690811061130b57634e487b7160e01b600052603260045260246000fd5b6020026020010151815260200190815260200160002060020154611bf4565b90506113368682611bdd565b9550505b8061134481613593565b91505061112c565b50806010600061135a611bf0565b6001600160a01b031681526020810191909152604001600020815461137f92906126bf565b5061139161138b611bf0565b8561250a565b6113ad5760405162461bcd60e51b81526004016103f4906130f4565b7f0d0e56539d6f587bb6a3924f7dee452834a223586e9bb60d3827f4006cb0655d6113d6611bf0565b8486426040516113e99493929190612ac3565b60405180910390a150505090565b6113ff611bf0565b6001600160a01b031661141061152a565b6001600160a01b0316146114365760405162461bcd60e51b81526004016103f4906132c9565b600080546040516001600160a01b03909116907f8be0079c531659141344cd1fd0a4f28419497f9722a3daafe3b4186f6b6457e0908390a3600080546001600160a01b0319169055565b600c5481565b600081815260026020819052604082208054600182015492820154600380840154600485015460058601546006870154600788015460088901546009909901546001600160a01b039889169b97999598948516979484169660ff600160a01b8604811697600160a81b9096048116969495939492169081111561151957634e487b7160e01b600052602160045260246000fd5b905091939597999b5091939597999b565b6000546001600160a01b031690565b60606005805461154890613558565b80601f016020809104026020016040519081016040528092919081815260200182805461157490613558565b80156115c15780601f10611596576101008083540402835291602001916115c1565b820191906000526020600020905b8154815290600101906020018083116115a457829003601f168201915b5050505050905090565b60008181526004602090815260408083206001908101546002909352908320600581015481549282015460078301546006909301546001600160a01b039485169691958516949092169291611623906203f480611bdd565b90506001600160a01b0384161580159061163d5750428110155b6116595760405162461bcd60e51b81526004016103f490613090565b611661611bf0565b6001600160a01b0316836001600160a01b0316146116915760405162461bcd60e51b81526004016103f490612ea8565b60008781526003602090815260408083206001600160a01b038816845290915290206004015460ff16156116d75760405162461bcd60e51b81526004016103f49061329e565b6000806116e38461252a565b915091506116f386610aa161223d565b61170f5760405162461bcd60e51b81526004016103f490613043565b61171a86868361224c565b6117365760405162461bcd60e51b81526004016103f490613043565b61174288883088611d53565b61175e5760405162461bcd60e51b81526004016103f4906133f9565b600061176c87866000611dc3565b101561178a5760405162461bcd60e51b81526004016103f49061311f565b6117978960006003612189565b600089815260046020526040908190205490517fb46a91724b95c8764d64242653194717e2ab549e1b76e207124d3bddc39aed6d916117e7918c908c908b908d908c908c908a908c904290612cd1565b60405180910390a1505050505050915091565b60009182526003602081815260408085206001600160a01b0394851686529091529092208054600182015460028301549483015460049093015491959316939260ff90911690565b61184a611bf0565b6001600160a01b031661185b61152a565b6001600160a01b0316146118815760405162461bcd60e51b81526004016103f4906132c9565b6001600160a01b0381166118a75760405162461bcd60e51b81526004016103f490612f0f565b600080546040516001600160a01b03808516939216917f8be0079c531659141344cd1fd0a4f28419497f9722a3daafe3b4186f6b6457e091a3600080546001600160a01b0319166001600160a01b0392909216919091179055565b600082815260026020819052604090912060058101548154600183015492909301546001600160a01b039384169360ff600160a81b84041692169085101561195c5760405162461bcd60e51b81526004016103f49061342e565b600160008781526002602052604090206009015460ff16600381111561199257634e487b7160e01b600052602160045260246000fd5b14806119fa5750600260008781526002602052604090206009015460ff1660038111156119cf57634e487b7160e01b600052602160045260246000fd5b1480156119de57506001821515145b80156119fa575060008681526002602052604090206006015442105b611a165760405162461bcd60e51b81526004016103f4906130c5565b84611a27611a22611bf0565b611ffa565b1015611a455760405162461bcd60e51b81526004016103f490612f55565b600080600080611a5688888b612085565b9350935093509350611a70611a6961152a565b86846120f2565b611a8c5760405162461bcd60e51b81526004016103f49061347b565b6001600160a01b03841615611ac257611aa68486856120f2565b611ac25760405162461bcd60e51b81526004016103f490613183565b611ad4611acd611bf0565b86836120f2565b611af05760405162461bcd60e51b81526004016103f4906131c4565b611b03888830611afe611bf0565b611d53565b611b1f5760405162461bcd60e51b81526004016103f4906133f9565b60008a815260026020819052604082200154611b3a90611bf4565b90506000611b4a87836000611dc3565b1015611b685760405162461bcd60e51b81526004016103f49061311f565b611b7b8b611b74611bf0565b6000612189565b7ff18fd7f8585dc258636a453d4a87ee3dd6edda50c1f438348bddf640ca6fbbec8b8a888b8e611ba9611bf0565b8d8c8c8c8c42604051611bc79c9b9a99989796959493929190612b6d565b60405180910390a1505050505050509250929050565b6000611be98383612554565b9392505050565b3390565b6000611c17600e54611c11600b548561256090919063ffffffff16565b9061256c565b92915050565b6001600160a01b038082166000908152600f6020526040808220546011549151630fa6707960e21b815292939092611be99284921690633e99c1e490611c67908890600401612a58565b60206040518083038186803b158015611c7f57600080fd5b505afa158015611c93573d6000803e3d6000fd5b505050506040513d601f19601f82011682018060405250810190611cb791906129d5565b90612578565b60405163020604bf60e21b81526000906001600160a01b0384169063081812fc90611cec908590600401612b64565b60206040518083038186803b158015611d0457600080fd5b505afa925050508015611d34575060408051601f3d908101601f19168201909252611d3191810190612761565b60015b611d4057506000611c17565b6001600160a01b03163014905092915050565b604051632142170760e11b81526000906001600160a01b038616906342842e0e90611d8690869086908990600401612a86565b600060405180830381600087803b158015611da057600080fd5b505af1158015611db4573d6000803e3d6000fd5b50600198975050505050505050565b600081611df2576001600160a01b0384166000908152600f6020526040902054611ded9084612578565b611e15565b6001600160a01b0384166000908152600f6020526040902054611e159084612554565b6001600160a01b0385166000908152600f6020526040902081905590509392505050565b6000604051806101800160405280876001600160a01b0316815260200185815260200184815260200160008152602001866001600160a01b0316815260200160006001600160a01b03168152602001600015158152602001600015158152602001838152602001600081526020016000815260200160016003811115611ecf57634e487b7160e01b600052602160045260246000fd5b9052600088815260026020818152604092839020845181546001600160a01b039182166001600160a01b03199182161783559286015160018084019190915594860151938201939093556060850151600380830191909155608086015160048301805491861691851691909117905560a086015160058301805460c089015160e08a01511515600160a81b0260ff60a81b19911515600160a01b0260ff60a01b199590991692909716919091179290921695909517169290921790925561010084015160068301556101208401516007830155610140840151600883015561016084015160098301805493949193909260ff1990911691908490811115611fe657634e487b7160e01b600052602160045260246000fd5b021790555060019998505050505050505050565b600654604051636eb1769f60e11b815260009164010000000090046001600160a01b03169063dd62ed3e906120359085903090600401612a6c565b60206040518083038186803b15801561204d57600080fd5b505afa158015612061573d6000803e3d6000fd5b505050506040513d601f19601f82011682018060405250810190611c1791906129d5565b60008060008061209485612584565b91506120a08583612578565b90506120ab876125a1565b156120e9576120bb878787612633565b909450925082158015906120d757506001600160a01b03841615155b156120e9576120e68184612578565b90505b93509350935093565b6006546040516323b872dd60e01b815260009164010000000090046001600160a01b0316906323b872dd9061212f90879087908790600401612a86565b602060405180830381600087803b15801561214957600080fd5b505af115801561215d573d6000803e3d6000fd5b505050506040513d601f19601f820116820180604052508101906121819190612915565b949350505050565b6000838152600260205260409020600901805482919060ff191660018360038111156121c557634e487b7160e01b600052602160045260246000fd5b02179055506001600160a01b0382161561220457600083815260026020526040902060050180546001600160a01b0319166001600160a01b0384161790555b505050565b600080612227600d54611c11600a548661256090919063ffffffff16565b915061223682611cb785611bf4565b9050915091565b600061224761152a565b905090565b60115460405163929c517960e01b81526000916001600160a01b03169063929c51799061212f90879087908790600401612a86565b60006040518061018001604052808a6001600160a01b0316815260200188815260200187815260200160008152602001896001600160a01b0316815260200160006001600160a01b0316815260200160011515815260200186151581526020018481526020018381526020018581526020016002600381111561231457634e487b7160e01b600052602160045260246000fd5b905260008b815260026020818152604092839020845181546001600160a01b039182166001600160a01b03199182161783559286015160018084019190915594860151938201939093556060850151600380830191909155608086015160048301805491861691851691909117905560a086015160058301805460c089015160e08a01511515600160a81b0260ff60a81b19911515600160a01b0260ff60a01b199590991692909716919091179290921695909517169290921790925561010084015160068301556101208401516007830155610140840151600883015561016084015160098301805493949193909260ff199091169190849081111561242b57634e487b7160e01b600052602160045260246000fd5b021790555060019c9b505050505050505050505050565b6040805180820182528781526001600160a01b03948516602080830182815260008a8152600480845286822095518655915160019586018054918b166001600160a01b0319928316179055865160a0810188529c8d529989168c84019081528c870198895260608d0197885260808d018281529b82526003808552878320958352949093529490942099518a555189830180549190971697169690961790945591516002870155519285019290925591519201805492151560ff199093169290921790915590565b6001600160a01b03919091166000908152600f6020526040902055600190565b600080612548600c54611c116009548661256090919063ffffffff16565b91506122368383612578565b6000611be982846134ea565b6000611be98284613522565b6000611be98284613502565b6000611be98284613541565b6000611c17600854611c116007548561256090919063ffffffff16565b6006546040516301ffc9a760e01b81526000916001600160a01b038416916301ffc9a7916125d89160e09190911b90600401612dc1565b60206040518083038186803b1580156125f057600080fd5b505afa925050508015612620575060408051601f3d908101601f1916820190925261261d91810190612915565b60015b61262c575060006103cc565b90506103cc565b600080846001600160a01b0316632a55205a85856040518363ffffffff1660e01b81526004016126649291906134dc565b604080518083038186803b15801561267b57600080fd5b505afa15801561268f573d6000803e3d6000fd5b505050506040513d601f19601f820116820180604052508101906126b3919061284d565b90969095509350505050565b8280548282559060005260206000209081019282156126ff5760005260206000209182015b828111156126ff5782548255916001019190600101906126e4565b5061270b929150612730565b5090565b508054600082559060005260206000209081019061272d9190612730565b50565b5b8082111561270b5760008155600101612731565b600060208284031215612756578081fd5b8135611be9816135da565b600060208284031215612772578081fd5b8151611be9816135da565b60008060008060808587031215612792578283fd5b843561279d816135da565b93506020858101356127ae816135da565b935060408601359250606086013567ffffffffffffffff808211156127d1578384fd5b818801915088601f8301126127e4578384fd5b8135818111156127f6576127f66135c4565b604051601f8201601f1916810185018381118282101715612819576128196135c4565b60405281815283820185018b101561282f578586fd5b81858501868301379081019093019390935250939692955090935050565b6000806040838503121561285f578182fd5b825161286a816135da565b6020939093015192949293505050565b60008060006060848603121561288e578283fd5b8335612899816135da565b95602085013595506040909401359392505050565b600080600080600080600060e0888a0312156128c8578283fd5b87356128d3816135da565b965060208801359550604088013594506060880135935060808801356128f8816135ef565b9699959850939692959460a0840135945060c09093013592915050565b600060208284031215612926578081fd5b8151611be9816135ef565b600060208284031215612942578081fd5b5035919050565b6000806040838503121561295b578182fd5b82359150602083013561296d816135da565b809150509250929050565b6000806000806080858703121561298d578384fd5b84359350602085013561299f816135da565b93969395505050506040820135916060013590565b600080604083850312156129c6578182fd5b50508035926020909101359150565b6000602082840312156129e6578081fd5b5051919050565b6bffffffffffffffffffffffff19606095861b8116825260148201949094529190931b9091166034820152604881019190915260680190565b9384526bffffffffffffffffffffffff19606093841b811660208601529190921b166034830152604882015260680190565b6001600160a01b0391909116815260200190565b6001600160a01b0392831681529116602082015260400190565b6001600160a01b039384168152919092166020820152604081019190915260600190565b6001600160a01b03929092168252602082015260400190565b6001600160a01b0394909416845260208401929092526040830152606082015260800190565b6001600160a01b039c8d168152602081019b909b5260408b019990995260608a019790975294891660808901529290971660a0870152151560c086015294151560e08501526101008401949094526101208301939093526101408201929092526101608101919091526101800190565b901515815260200190565b90815260200190565b9b8c526001600160a01b039a8b1660208d0152988a1660408c015260608b019790975260808a019590955292871660a089015290151560c088015290941660e08601526101008501939093526101208401929092526101408301919091526101608201526101800190565b9586526001600160a01b03948516602087015292909316604085015260608401526080830191909152151560a082015260c00190565b998a526001600160a01b0398891660208b015296909716604089015260608801949094526080870192909252151560a086015260c085015260e08401526101008301919091526101208201526101400190565b9788526001600160a01b0396871660208901529490951660408701526060860192909252608085015260a084015260c083019190915260e08201526101000190565b9485526001600160a01b03939093166020850152604084019190915260608301521515608082015260a00190565b998a5260208a01989098526001600160a01b0396871660408a015294861660608901526080880193909352931660a086015260c085019290925260e08401919091526101008301526101208201526101400190565b9a8b5260208b01999099526001600160a01b0397881660408b015295871660608a0152608089019490945260a088019290925290931660c086015260e08501929092526101008401919091526101208301526101408201526101600190565b96875260208701959095526001600160a01b039384166040870152919092166060850152608084019190915260a083015260c082015260e00190565b6001600160e01b031991909116815260200190565b6000602080835283518082850152825b81811015612e0257858101830151858201604001528201612de6565b81811115612e135783604083870101525b50601f01601f1916929092016040019392505050565b60208082526028908201527f626964207072696365206d757374206265206d6f7265207468616e20746865206040820152671b185cdd08189a5960c21b606082015260800190565b6020808252601b908201527f52657365727665205a65726f206973206e6f7420616c6c6f7765640000000000604082015260600190565b60208082526017908201527f43616c6c6572206973206e6f7420746865206f776e6572000000000000000000604082015260600190565b602080825260169082015275436f756c646e2774206c69737420746865206974656d60501b604082015260600190565b60208082526026908201527f4f776e61626c653a206e6577206f776e657220697320746865207a65726f206160408201526564647265737360d01b606082015260800190565b60208082526044908201527f4d61726b6574706c616365206973206e6f7420616c6c6f77656420746f20776960408201527f7468647261772074686520726571756972656420616d6f756e74206f6620746f6060820152636b656e7360e01b608082015260a00190565b60208082526036908201527f626964207072696365206d757374206265206d6f7265207468616e206f7220656040820152757175616c20746865206d696e696d756d20707269636560501b606082015260800190565b60208082526014908201527320b63932b0b23c903137bab3b43a103a37b5b2b760611b604082015260600190565b6020808252602d908201527f636f756c646e277420646564756374207468652066696e6520666f722074686560408201526c0818591b5a5b881dd85b1b195d609a1b606082015260800190565b6020808252818101527f4e6f2062696473206f72207374696c6c2072756e6e696e672061756374696f6e604082015260600190565b60208082526015908201527402a37b5b2b71034b9b737ba103337b91039b0b6329605d1b604082015260600190565b6020808252601190820152701cd95d081c995cd95c9d994819985a5b19607a1b604082015260600190565b6020808252601f908201527f6e656761746976652072657365727665206973206e6f7420616c6c6f77656400604082015260600190565b6020808252601390820152724e6f7420656e6f75676820726573657276657360681b604082015260600190565b60208082526021908201527f436f756c646e2774207472616e7366657220746f6b656e20746f2069737375656040820152603960f91b606082015260800190565b6020808252818101527f436f756c646e2774207472616e7366657220746f6b656e20746f206275796572604082015260600190565b60208082526018908201527f43616c6c6572206973206e6f74207468652077696e6e65720000000000000000604082015260600190565b60208082526019908201527f5a65726f207072696365206973206e6f7420616c6c6f77656400000000000000604082015260600190565b60208082526018908201527f636f756c646e277420646564756374207468652066696e650000000000000000604082015260600190565b602080825260119082015270105b1c9958591e481c1d5c98da185cd959607a1b604082015260600190565b6020808252818101527f4f776e61626c653a2063616c6c6572206973206e6f7420746865206f776e6572604082015260600190565b6020808252600c908201526b10dbdd5b191b89dd08109a5960a21b604082015260600190565b6020808252602d908201527f41756374696f6e2073686f756c64206265206c69766520666f72206d6f72652060408201526c7468616e20313220686f75727360981b606082015260800190565b60208082526031908201527f4d61726b6574706c616365206973206e6f7420616c6c6f77656420746f20747260408201527030b739b332b9103cb7bab9103a37b5b2b760791b606082015260800190565b60208082526019908201527f5a65726f2056616c7565206973206e6f7420616c6c6f77656400000000000000604082015260600190565b6020808252818101527f4e465420746f6b656e20636f756c646e2774206265207472616e736665726564604082015260600190565b6020808252600d908201526c496e76616c696420707269636560981b604082015260600190565b6020808252600c908201526b10d85b89dd0819195b1a5cdd60a21b604082015260600190565b6020808252601f908201527f436f756c646e2774207472616e7366657220746f6b656e206173206665657300604082015260600190565b60208082526010908201526f105d58dd1a5bdb881a5cc8195b99195960821b604082015260600190565b918252602082015260400190565b600082198211156134fd576134fd6135ae565b500190565b60008261351d57634e487b7160e01b81526012600452602481fd5b500490565b600081600019048311821515161561353c5761353c6135ae565b500290565b600082821015613553576135536135ae565b500390565b60028104600182168061356c57607f821691505b6020821081141561358d57634e487b7160e01b600052602260045260246000fd5b50919050565b60006000198214156135a7576135a76135ae565b5060010190565b634e487b7160e01b600052601160045260246000fd5b634e487b7160e01b600052604160045260246000fd5b6001600160a01b038116811461272d57600080fd5b801515811461272d57600080fdfea26469706673582212206e653f83102478fd3b76133a274c806db4c9dc6af2f624821a15a749e55268d664736f6c63430008000033",
  "linkReferences": {},
  "deployedLinkReferences": {}
}