{
  "address": "0x8374552aA5b78DaE129C1103115Dc248fdA31003",
  "abi": [
    {
      "inputs": [],
      "stateMutability": "nonpayable",
      "type": "constructor"
    },
    {
      "anonymous": false,
      "inputs": [
        {
          "indexed": true,
          "internalType": "bytes32",
          "name": "role",
          "type": "bytes32"
        },
        {
          "indexed": true,
          "internalType": "bytes32",
          "name": "previousAdminRole",
          "type": "bytes32"
        },
        {
          "indexed": true,
          "internalType": "bytes32",
          "name": "newAdminRole",
          "type": "bytes32"
        }
      ],
      "name": "RoleAdminChanged",
      "type": "event"
    },
    {
      "anonymous": false,
      "inputs": [
        {
          "indexed": true,
          "internalType": "bytes32",
          "name": "role",
          "type": "bytes32"
        },
        {
          "indexed": true,
          "internalType": "address",
          "name": "account",
          "type": "address"
        },
        {
          "indexed": true,
          "internalType": "address",
          "name": "sender",
          "type": "address"
        }
      ],
      "name": "RoleGranted",
      "type": "event"
    },
    {
      "anonymous": false,
      "inputs": [
        {
          "indexed": true,
          "internalType": "bytes32",
          "name": "role",
          "type": "bytes32"
        },
        {
          "indexed": true,
          "internalType": "address",
          "name": "account",
          "type": "address"
        },
        {
          "indexed": true,
          "internalType": "address",
          "name": "sender",
          "type": "address"
        }
      ],
      "name": "RoleRevoked",
      "type": "event"
    },
    {
      "inputs": [],
      "name": "BURNER_ROLE",
      "outputs": [
        {
          "internalType": "bytes32",
          "name": "",
          "type": "bytes32"
        }
      ],
      "stateMutability": "view",
      "type": "function"
    },
    {
      "inputs": [],
      "name": "DEFAULT_ADMIN_ROLE",
      "outputs": [
        {
          "internalType": "bytes32",
          "name": "",
          "type": "bytes32"
        }
      ],
      "stateMutability": "view",
      "type": "function"
    },
    {
      "inputs": [],
      "name": "MINTER_ROLE",
      "outputs": [
        {
          "internalType": "bytes32",
          "name": "",
          "type": "bytes32"
        }
      ],
      "stateMutability": "view",
      "type": "function"
    },
    {
      "inputs": [
        {
          "internalType": "address",
          "name": "to",
          "type": "address"
        },
        {
          "internalType": "uint256",
          "name": "amount",
          "type": "uint256"
        }
      ],
      "name": "burnReputation",
      "outputs": [
        {
          "internalType": "uint256",
          "name": "balance",
          "type": "uint256"
        }
      ],
      "stateMutability": "nonpayable",
      "type": "function"
    },
    {
      "inputs": [
        {
          "internalType": "bytes32",
          "name": "role",
          "type": "bytes32"
        }
      ],
      "name": "getRoleAdmin",
      "outputs": [
        {
          "internalType": "bytes32",
          "name": "",
          "type": "bytes32"
        }
      ],
      "stateMutability": "view",
      "type": "function"
    },
    {
      "inputs": [
        {
          "internalType": "bytes32",
          "name": "role",
          "type": "bytes32"
        },
        {
          "internalType": "uint256",
          "name": "index",
          "type": "uint256"
        }
      ],
      "name": "getRoleMember",
      "outputs": [
        {
          "internalType": "address",
          "name": "",
          "type": "address"
        }
      ],
      "stateMutability": "view",
      "type": "function"
    },
    {
      "inputs": [
        {
          "internalType": "bytes32",
          "name": "role",
          "type": "bytes32"
        }
      ],
      "name": "getRoleMemberCount",
      "outputs": [
        {
          "internalType": "uint256",
          "name": "",
          "type": "uint256"
        }
      ],
      "stateMutability": "view",
      "type": "function"
    },
    {
      "inputs": [
        {
          "internalType": "address",
          "name": "user",
          "type": "address"
        }
      ],
      "name": "getUserReputation",
      "outputs": [
        {
          "internalType": "uint256",
          "name": "balance",
          "type": "uint256"
        }
      ],
      "stateMutability": "view",
      "type": "function"
    },
    {
      "inputs": [
        {
          "internalType": "bytes32",
          "name": "role",
          "type": "bytes32"
        },
        {
          "internalType": "address",
          "name": "account",
          "type": "address"
        }
      ],
      "name": "grantRole",
      "outputs": [],
      "stateMutability": "nonpayable",
      "type": "function"
    },
    {
      "inputs": [
        {
          "internalType": "bytes32",
          "name": "role",
          "type": "bytes32"
        },
        {
          "internalType": "address",
          "name": "account",
          "type": "address"
        }
      ],
      "name": "hasRole",
      "outputs": [
        {
          "internalType": "bool",
          "name": "",
          "type": "bool"
        }
      ],
      "stateMutability": "view",
      "type": "function"
    },
    {
      "inputs": [
        {
          "internalType": "address",
          "name": "to",
          "type": "address"
        },
        {
          "internalType": "uint256",
          "name": "amount",
          "type": "uint256"
        }
      ],
      "name": "mintReputation",
      "outputs": [
        {
          "internalType": "uint256",
          "name": "balance",
          "type": "uint256"
        }
      ],
      "stateMutability": "nonpayable",
      "type": "function"
    },
    {
      "inputs": [
        {
          "internalType": "bytes32",
          "name": "role",
          "type": "bytes32"
        },
        {
          "internalType": "address",
          "name": "account",
          "type": "address"
        }
      ],
      "name": "renounceRole",
      "outputs": [],
      "stateMutability": "nonpayable",
      "type": "function"
    },
    {
      "inputs": [
        {
          "internalType": "bytes32",
          "name": "role",
          "type": "bytes32"
        },
        {
          "internalType": "address",
          "name": "account",
          "type": "address"
        }
      ],
      "name": "revokeRole",
      "outputs": [],
      "stateMutability": "nonpayable",
      "type": "function"
    },
    {
      "inputs": [
        {
          "internalType": "bytes4",
          "name": "interfaceId",
          "type": "bytes4"
        }
      ],
      "name": "supportsInterface",
      "outputs": [
        {
          "internalType": "bool",
          "name": "",
          "type": "bool"
        }
      ],
      "stateMutability": "view",
      "type": "function"
    }
  ],
  "transactionHash": "0xc31c35ecb6b900c3669c8639a5fd75ec1a54f1ea8c487338d300c5c64328804e",
  "args": [],
  "solcInputHash": "c0723eb751889ce01578f9648a937d7f",
  "bytecode": "0x60806040523480156200001157600080fd5b50620000286000620000226200008c565b62000090565b620000577f9f2df0fed2c77648de5860a4cc508cd0818c85b8b8a1ab4ceeef8d981c8956a6620000226200008c565b620000867f3c11d16cbaffd01df69ce1c404f6340ee057498f5f00246190ea54220576a848620000226200008c565b6200021d565b3390565b620000a78282620000d360201b620004931760201c565b6000828152600160209081526040909120620000ce918390620004a1620000e3821b17901c565b505050565b620000df828262000103565b5050565b6000620000fa836001600160a01b0384166200018d565b90505b92915050565b6200010f8282620001dc565b620000df576000828152602081815260408083206001600160a01b03851684529091529020805460ff19166001179055620001496200008c565b6001600160a01b0316816001600160a01b0316837f2f8788117e7eff1d82e926ec794901d17c78024a50270940304540a733656f0d60405160405180910390a45050565b60006200019b838362000205565b620001d357508154600181810184556000848152602080822090930184905584548482528286019093526040902091909155620000fd565b506000620000fd565b6000918252602082815260408084206001600160a01b0393909316845291905290205460ff1690565b60009081526001919091016020526040902054151590565b610ec4806200022d6000396000f3fe608060405234801561001057600080fd5b50600436106100ea5760003560e01c806391d148541161008c578063baccbfdb11610066578063baccbfdb146101c9578063ca15c873146101dc578063d5391393146101ef578063d547741f146101f7576100ea565b806391d148541461019b578063943ccab8146101ae578063a217fddf146101c1576100ea565b80632f2ff15d116100c85780632f2ff15d1461014057806336568abe14610155578063684f7b0e146101685780639010d07c1461017b576100ea565b806301ffc9a7146100ef578063248a9ca314610118578063282c51f314610138575b600080fd5b6101026100fd366004610b74565b61020a565b60405161010f9190610c25565b60405180910390f35b61012b610126366004610b10565b610237565b60405161010f9190610c30565b61012b61024c565b61015361014e366004610b28565b610270565b005b610153610163366004610b28565b610297565b61012b610176366004610ae7565b6102b9565b61018e610189366004610b53565b610379565b60405161010f9190610c11565b6101026101a9366004610b28565b610398565b61012b6101bc366004610ae7565b6103c1565b61012b61042e565b61012b6101d7366004610acd565b610433565b61012b6101ea366004610b10565b61044e565b61012b610465565b610153610205366004610b28565b610489565b60006001600160e01b03198216635a05180f60e01b148061022f575061022f826104b6565b90505b919050565b60009081526020819052604090206001015490565b7f3c11d16cbaffd01df69ce1c404f6340ee057498f5f00246190ea54220576a84881565b61027a82826104db565b600082815260016020526040902061029290826104a1565b505050565b6102a182826104ff565b60008281526001602052604090206102929082610541565b60006102e77f3c11d16cbaffd01df69ce1c404f6340ee057498f5f00246190ea54220576a8486101a9610556565b61030c5760405162461bcd60e51b815260040161030390610ca1565b60405180910390fd5b6001600160a01b0383166000908152600260205260409020548211156103445760405162461bcd60e51b815260040161030390610cfe565b6001600160a01b038316600090815260026020526040902054610367908361055a565b90506103738382610566565b92915050565b60008281526001602052604081206103919083610582565b9392505050565b6000918252602082815260408084206001600160a01b0393909316845291905290205460ff1690565b60006103ef7f9f2df0fed2c77648de5860a4cc508cd0818c85b8b8a1ab4ceeef8d981c8956a66101a9610556565b61040b5760405162461bcd60e51b815260040161030390610d44565b6001600160a01b038316600090815260026020526040902054610367908361058e565b600081565b6001600160a01b031660009081526002602052604090205490565b600081815260016020526040812061022f9061059a565b7f9f2df0fed2c77648de5860a4cc508cd0818c85b8b8a1ab4ceeef8d981c8956a681565b6102a182826105a5565b61049d82826105c4565b5050565b6000610391836001600160a01b038416610649565b60006001600160e01b03198216637965db0b60e01b148061022f575061022f82610693565b6104e482610237565b6104f5816104f0610556565b6106ac565b61029283836105c4565b610507610556565b6001600160a01b0316816001600160a01b0316146105375760405162461bcd60e51b815260040161030390610d94565b61049d8282610710565b6000610391836001600160a01b038416610793565b3390565b60006103918284610e1a565b6001600160a01b03909116600090815260026020526040902055565b600061039183836108b0565b60006103918284610de3565b600061022f826108e8565b6105ae82610237565b6105ba816104f0610556565b6102928383610710565b6105ce8282610398565b61049d576000828152602081815260408083206001600160a01b03851684529091529020805460ff19166001179055610605610556565b6001600160a01b0316816001600160a01b0316837f2f8788117e7eff1d82e926ec794901d17c78024a50270940304540a733656f0d60405160405180910390a45050565b600061065583836108ec565b61068b57508154600181810184556000848152602080822090930184905584548482528286019093526040902091909155610373565b506000610373565b6001600160e01b031981166301ffc9a760e01b14919050565b6106b68282610398565b61049d576106ce816001600160a01b03166014610904565b6106d9836020610904565b6040516020016106ea929190610b9c565b60408051601f198184030181529082905262461bcd60e51b825261030391600401610c39565b61071a8282610398565b1561049d576000828152602081815260408083206001600160a01b03851684529091529020805460ff1916905561074f610556565b6001600160a01b0316816001600160a01b0316837ff6391f5c32d9c69d2a47ea670b442974b53935d1edc7fd64eb21e047a839171b60405160405180910390a45050565b600081815260018301602052604081205480156108a65760006107b7600183610e1a565b85549091506000906107cb90600190610e1a565b905081811461084c5760008660000182815481106107f957634e487b7160e01b600052603260045260246000fd5b906000526020600020015490508087600001848154811061082a57634e487b7160e01b600052603260045260246000fd5b6000918252602080832090910192909255918252600188019052604090208390555b855486908061086b57634e487b7160e01b600052603160045260246000fd5b600190038181906000526020600020016000905590558560010160008681526020019081526020016000206000905560019350505050610373565b6000915050610373565b60008260000182815481106108d557634e487b7160e01b600052603260045260246000fd5b9060005260206000200154905092915050565b5490565b60009081526001919091016020526040902054151590565b60606000610913836002610dfb565b61091e906002610de3565b67ffffffffffffffff81111561094457634e487b7160e01b600052604160045260246000fd5b6040519080825280601f01601f19166020018201604052801561096e576020820181803683370190505b509050600360fc1b8160008151811061099757634e487b7160e01b600052603260045260246000fd5b60200101906001600160f81b031916908160001a905350600f60fb1b816001815181106109d457634e487b7160e01b600052603260045260246000fd5b60200101906001600160f81b031916908160001a90535060006109f8846002610dfb565b610a03906001610de3565b90505b6001811115610a97576f181899199a1a9b1b9c1cb0b131b232b360811b85600f1660108110610a4557634e487b7160e01b600052603260045260246000fd5b1a60f81b828281518110610a6957634e487b7160e01b600052603260045260246000fd5b60200101906001600160f81b031916908160001a90535060049490941c93610a9081610e61565b9050610a06565b5083156103915760405162461bcd60e51b815260040161030390610c6c565b80356001600160a01b038116811461023257600080fd5b600060208284031215610ade578081fd5b61039182610ab6565b60008060408385031215610af9578081fd5b610b0283610ab6565b946020939093013593505050565b600060208284031215610b21578081fd5b5035919050565b60008060408385031215610b3a578182fd5b82359150610b4a60208401610ab6565b90509250929050565b60008060408385031215610b65578182fd5b50508035926020909101359150565b600060208284031215610b85578081fd5b81356001600160e01b031981168114610391578182fd5b60007f416363657373436f6e74726f6c3a206163636f756e742000000000000000000082528351610bd4816017850160208801610e31565b7001034b99036b4b9b9b4b733903937b6329607d1b6017918401918201528351610c05816028840160208801610e31565b01602801949350505050565b6001600160a01b0391909116815260200190565b901515815260200190565b90815260200190565b6000602082528251806020840152610c58816040850160208701610e31565b601f01601f19169190910160400192915050565b6020808252818101527f537472696e67733a20686578206c656e67746820696e73756666696369656e74604082015260600190565b60208082526039908201527f5374617274466952657075746174696f6e3a206d75737420686176652062757260408201527f6e20726f6c6520746f206275726e2072657075746174696f6e00000000000000606082015260800190565b60208082526026908201527f5374617274466952657075746174696f6e3a204e6f7420656e6f756768742062604082015265616c616e636560d01b606082015260800190565b60208082526030908201527f5374617274466952657075746174696f6e3a206d7573742068617665206d696e60408201526f1d195c881c9bdb19481d1bc81b5a5b9d60821b606082015260800190565b6020808252602f908201527f416363657373436f6e74726f6c3a2063616e206f6e6c792072656e6f756e636560408201526e103937b632b9903337b91039b2b63360891b606082015260800190565b60008219821115610df657610df6610e78565b500190565b6000816000190483118215151615610e1557610e15610e78565b500290565b600082821015610e2c57610e2c610e78565b500390565b60005b83811015610e4c578181015183820152602001610e34565b83811115610e5b576000848401525b50505050565b600081610e7057610e70610e78565b506000190190565b634e487b7160e01b600052601160045260246000fdfea2646970667358221220d9b988f5505641ba3e80d18253c77fe1bf5f01e930f5c4f96ea26273d1cb045b64736f6c63430008000033",
  "devdoc": {
    "author": "Eman Herawy, StartFi Team",
    "kind": "dev",
    "methods": {
      "burnReputation(address,uint256)": {
        "details": "this function is to burn reputation points for the \"to\"",
        "params": {
          "amount": ": points to be subtract to the \" to \" balance",
          "to": ": reciepiant address"
        },
        "returns": {
          "balance": ": \"to\" current reputation balance"
        }
      },
      "getRoleAdmin(bytes32)": {
        "details": "Returns the admin role that controls `role`. See {grantRole} and {revokeRole}. To change a role's admin, use {_setRoleAdmin}."
      },
      "getRoleMember(bytes32,uint256)": {
        "details": "Returns one of the accounts that have `role`. `index` must be a value between 0 and {getRoleMemberCount}, non-inclusive. Role bearers are not sorted in any particular way, and their ordering may change at any point. WARNING: When using {getRoleMember} and {getRoleMemberCount}, make sure you perform all queries on the same block. See the following https://forum.openzeppelin.com/t/iterating-over-elements-on-enumerableset-in-openzeppelin-contracts/2296[forum post] for more information."
      },
      "getRoleMemberCount(bytes32)": {
        "details": "Returns the number of accounts that have `role`. Can be used together with {getRoleMember} to enumerate all bearers of a role."
      },
      "grantRole(bytes32,address)": {
        "details": "Overload {grantRole} to track enumerable memberships"
      },
      "hasRole(bytes32,address)": {
        "details": "Returns `true` if `account` has been granted `role`."
      },
      "mintReputation(address,uint256)": {
        "details": "this function is to mint reputation points for the \"to\"",
        "params": {
          "amount": ": points to be added to the \" to \" balance",
          "to": ": reciepiant address"
        },
        "returns": {
          "balance": ": \"to\" current reputation balance"
        }
      },
      "renounceRole(bytes32,address)": {
        "details": "Overload {renounceRole} to track enumerable memberships"
      },
      "revokeRole(bytes32,address)": {
        "details": "Overload {revokeRole} to track enumerable memberships"
      },
      "supportsInterface(bytes4)": {
        "details": "See {IERC165-supportsInterface}."
      }
    },
    "title": "Startfi Reputation contract desc contract to mamange the reputation for startfi users",
    "version": 1
  },
  "userdoc": {
    "kind": "user",
    "methods": {
      "burnReputation(address,uint256)": {
        "notice": "only called by caller in the burner role"
      },
      "mintReputation(address,uint256)": {
        "notice": "only called by caller in the minter role"
      }
    },
    "version": 1
  },
  "storageLayout": {
    "storage": [
      {
        "astId": 62,
        "contract": "contracts/StartFiReputation.sol:StartFiReputation",
        "label": "_roles",
        "offset": 0,
        "slot": "0",
        "type": "t_mapping(t_bytes32,t_struct(RoleData)57_storage)"
      },
      {
        "astId": 403,
        "contract": "contracts/StartFiReputation.sol:StartFiReputation",
        "label": "_roleMembers",
        "offset": 0,
        "slot": "1",
        "type": "t_mapping(t_bytes32,t_struct(AddressSet)4159_storage)"
      },
      {
        "astId": 7339,
        "contract": "contracts/StartFiReputation.sol:StartFiReputation",
        "label": "userReputation",
        "offset": 0,
        "slot": "2",
        "type": "t_mapping(t_address,t_uint256)"
      }
    ],
    "types": {
      "t_address": {
        "encoding": "inplace",
        "label": "address",
        "numberOfBytes": "20"
      },
      "t_array(t_bytes32)dyn_storage": {
        "base": "t_bytes32",
        "encoding": "dynamic_array",
        "label": "bytes32[]",
        "numberOfBytes": "32"
      },
      "t_bool": {
        "encoding": "inplace",
        "label": "bool",
        "numberOfBytes": "1"
      },
      "t_bytes32": {
        "encoding": "inplace",
        "label": "bytes32",
        "numberOfBytes": "32"
      },
      "t_mapping(t_address,t_bool)": {
        "encoding": "mapping",
        "key": "t_address",
        "label": "mapping(address => bool)",
        "numberOfBytes": "32",
        "value": "t_bool"
      },
      "t_mapping(t_address,t_uint256)": {
        "encoding": "mapping",
        "key": "t_address",
        "label": "mapping(address => uint256)",
        "numberOfBytes": "32",
        "value": "t_uint256"
      },
      "t_mapping(t_bytes32,t_struct(AddressSet)4159_storage)": {
        "encoding": "mapping",
        "key": "t_bytes32",
        "label": "mapping(bytes32 => struct EnumerableSet.AddressSet)",
        "numberOfBytes": "32",
        "value": "t_struct(AddressSet)4159_storage"
      },
      "t_mapping(t_bytes32,t_struct(RoleData)57_storage)": {
        "encoding": "mapping",
        "key": "t_bytes32",
        "label": "mapping(bytes32 => struct AccessControl.RoleData)",
        "numberOfBytes": "32",
        "value": "t_struct(RoleData)57_storage"
      },
      "t_mapping(t_bytes32,t_uint256)": {
        "encoding": "mapping",
        "key": "t_bytes32",
        "label": "mapping(bytes32 => uint256)",
        "numberOfBytes": "32",
        "value": "t_uint256"
      },
      "t_struct(AddressSet)4159_storage": {
        "encoding": "inplace",
        "label": "struct EnumerableSet.AddressSet",
        "members": [
          {
            "astId": 4158,
            "contract": "contracts/StartFiReputation.sol:StartFiReputation",
            "label": "_inner",
            "offset": 0,
            "slot": "0",
            "type": "t_struct(Set)3888_storage"
          }
        ],
        "numberOfBytes": "64"
      },
      "t_struct(RoleData)57_storage": {
        "encoding": "inplace",
        "label": "struct AccessControl.RoleData",
        "members": [
          {
            "astId": 54,
            "contract": "contracts/StartFiReputation.sol:StartFiReputation",
            "label": "members",
            "offset": 0,
            "slot": "0",
            "type": "t_mapping(t_address,t_bool)"
          },
          {
            "astId": 56,
            "contract": "contracts/StartFiReputation.sol:StartFiReputation",
            "label": "adminRole",
            "offset": 0,
            "slot": "1",
            "type": "t_bytes32"
          }
        ],
        "numberOfBytes": "64"
      },
      "t_struct(Set)3888_storage": {
        "encoding": "inplace",
        "label": "struct EnumerableSet.Set",
        "members": [
          {
            "astId": 3883,
            "contract": "contracts/StartFiReputation.sol:StartFiReputation",
            "label": "_values",
            "offset": 0,
            "slot": "0",
            "type": "t_array(t_bytes32)dyn_storage"
          },
          {
            "astId": 3887,
            "contract": "contracts/StartFiReputation.sol:StartFiReputation",
            "label": "_indexes",
            "offset": 0,
            "slot": "1",
            "type": "t_mapping(t_bytes32,t_uint256)"
          }
        ],
        "numberOfBytes": "64"
      },
      "t_uint256": {
        "encoding": "inplace",
        "label": "uint256",
        "numberOfBytes": "32"
      }
    }
  }
}